{
	"data": {
		"bytecode": {
			"linkReferences": {},
			"object": "6080604052600380546001600160a01b031916301790553480156200002357600080fd5b50604051620026313803806200263183398101604081905262000046916200030e565b60006200005b6001600160e01b03620001be16565b600080546001600160a01b0319166001600160a01b0383169081178255604051929350917f8be0079c531659141344cd1fd0a4f28419497f9722a3daafe3b4186f6b6457e0908290a3506000805460ff60a01b1916905560018055466002819055604051620000cd906020016200034b565b60408051601f1981840301815282825280516020918201208383018352600d84526c436f6e666945786368616e676560981b93820193909352815180830183526003808252620312e360ec1b91830191909152600254905492516200018594937fc241628eaf835fa04927309e7ffa6ff63c4192aa2dfb4063d9c147ec4fab6bec937fe6bbd6277e1bf288eed5e8d1780f9a50b239e86b153736bceebccf4ea79d90b393926001600160a01b039092169101620003da565b60408051601f19818403018152919052805160209091012060045550620001b682826001600160e01b03620001c216565b5050620004d6565b3390565b620001d56001600160e01b03620001be16565b6000546001600160a01b039081169116146200020e5760405162461bcd60e51b815260040162000205906200048a565b60405180910390fd5b426200022e62015180600b54620002df60201b62000a1e1790919060201c565b106200024e5760405162461bcd60e51b8152600401620002059062000465565b670429d069189e0000821115620002795760405162461bcd60e51b815260040162000205906200043d565b6009829055600a80546001600160a01b0319166001600160a01b03831617905542600b5560405133907f113bdccf7b7ceafeb2ca0a4f91a0fbb09542dd8b3ea9d06907df13522a4d606e90620002d39085908590620004bf565b60405180910390a25050565b600082820183811015620003075760405162461bcd60e51b8152600401620002059062000406565b9392505050565b6000806040838503121562000321578182fd5b825160208401519092506001600160a01b038116811462000340578182fd5b809150509250929050565b6c08a92a06e626488dedac2d2dc5609b1b81526b1cdd1c9a5b99c81b985b594b60a21b600d8201526e1cdd1c9a5b99c81d995c9cda5bdb8b608a1b60198201526f1d5a5b9d0c8d4d8818da185a5b92590b60821b60288201527f6164647265737320766572696679696e67436f6e7472616374000000000000006038820152602960f81b605182015260520190565b9485526020850193909352604084019190915260608301526001600160a01b0316608082015260a00190565b6020808252601b908201527f536166654d6174683a206164646974696f6e206f766572666c6f770000000000604082015260600190565b6020808252600e908201526d657863656564206d61782066656560901b604082015260600190565b6020808252600b908201526a34b71031b7b7b63237bbb760a91b604082015260600190565b6020808252818101527f4f776e61626c653a2063616c6c6572206973206e6f7420746865206f776e6572604082015260600190565b9182526001600160a01b0316602082015260400190565b61214b80620004e66000396000f3fe608060405234801561001057600080fd5b50600436106101585760003560e01c806393634702116100c3578063dbd8987c1161007c578063dbd8987c146102b2578063e2dde054146102ba578063e306f779146102c2578063eaa760c2146102ca578063f2fde38b146102dd578063ff17fe59146102f057610158565b8063936347021461024957806398038dad1461025c5780639a8a05921461027c578063a9f7a0e514610284578063c37f03c714610297578063cf07104e1461029f57610158565b80635c975abb116101155780635c975abb146101f45780636cf25c4e146101fc578063715018a6146102115780638243d01f1461021957806383c3e77a1461022e5780638da5cb5b1461024157610158565b806307140fcc1461015d5780630f9cb829146101725780631e1bc7401461019b5780632706bc91146101ae578063288cdc91146101ce5780632ac12622146101e1575b600080fd5b61017061016b36600461181d565b610303565b005b610185610180366004611763565b610344565b60405161019291906119ac565b60405180910390f35b6101856101a936600461188c565b610364565b6101c16101bc36600461188c565b6103ca565b6040516101929190611ec8565b6101856101dc3660046117ae565b610452565b6101856101ef3660046117ae565b610467565b61018561047c565b61020461048c565b6040516101929190611900565b61017061049b565b61022161051a565b60405161019291906119b7565b61017061023c3660046118a8565b610521565b610204610617565b6101856102573660046117c6565b610626565b61026f61026a36600461188c565b610743565b6040516101929190611ee9565b610221610867565b61018561029236600461184a565b61086d565b6102216108d7565b6101706102ad366004611747565b6108e3565b61022161093a565b610221610940565b610221610946565b6101856102d83660046117ae565b61094c565b6101706102eb366004611747565b610961565b6102216102fe36600461188c565b610a17565b600054600160a01b900460ff16156103365760405162461bcd60e51b815260040161032d90611c69565b60405180910390fd5b6103408282610a4c565b5050565b600560209081526000928352604080842090915290825290205460ff1681565b60008054600160a01b900460ff161561038f5760405162461bcd60e51b815260040161032d90611c69565b600260015414156103b25760405162461bcd60e51b815260040161032d90611e91565b60026001556103c082610b0e565b6001805592915050565b6103d26115b8565b60006103dd83610a17565b90506103f783610180015182610c6590919063ffffffff16565b60208301819052600954610411919063ffffffff610c6516565b6040830152602082015161042c90829063ffffffff610c8f16565b8252604082015160208301516104479163ffffffff610c8f16565b602083015250919050565b60076020526000908152604090205460ff1681565b60086020526000908152604090205460ff1681565b600054600160a01b900460ff1690565b600a546001600160a01b031681565b6104a3610cd1565b6000546001600160a01b039081169116146104d05760405162461bcd60e51b815260040161032d90611d4d565b600080546040516001600160a01b03909116907f8be0079c531659141344cd1fd0a4f28419497f9722a3daafe3b4186f6b6457e0908390a3600080546001600160a01b0319169055565b6201518081565b610529610cd1565b6000546001600160a01b039081169116146105565760405162461bcd60e51b815260040161032d90611d4d565b600b54429061056e906201518063ffffffff610a1e16565b1061058b5760405162461bcd60e51b815260040161032d90611d28565b670429d069189e00008211156105b35760405162461bcd60e51b815260040161032d90611c41565b6009829055600a80546001600160a01b0319166001600160a01b03831617905542600b5560405133907f113bdccf7b7ceafeb2ca0a4f91a0fbb09542dd8b3ea9d06907df13522a4d606e9061060b9085908590611f1a565b60405180910390a25050565b6000546001600160a01b031690565b60006001600160a01b03831661064e5760405162461bcd60e51b815260040161032d90611c93565b815160411461066f5760405162461bcd60e51b815260040161032d90611aa7565b60008260408151811061067e57fe5b016020015160f81c9050601b81148061069a57508060ff16601c145b6106b65760405162461bcd60e51b815260040161032d90611dce565b60006106c3846000610cd5565b905060006106d2856020610cd5565b9050600187848484604051600081526020016040526040516106f79493929190611a56565b6020604051602081039080840390855afa158015610719573d6000803e3d6000fd5b505050602060405103516001600160a01b0316866001600160a01b03161493505050509392505050565b61074b6115d9565b61075482610d04565b60208083018290526000918252600790526040908190205460ff16151590820152600382606001511061079a578060005b9081600781111561079257fe5b905250610862565b60808201516107ab57806000610785565b60a08201516107bc57806000610785565b60408201516001600160a01b0316158015906107e5575060408201516001600160a01b03163314155b156107f257806001610785565b6a0aaea639f5433bf21e0000826101800151111561081257806000610785565b80604001511561082457806004610785565b60208082015160009081526008909152604090205460ff161561084957806005610785565b428260c00151101561085d57806003610785565b600281525b919050565b60025481565b60008054600160a01b900460ff16156108985760405162461bcd60e51b815260040161032d90611c69565b600260015414156108bb5760405162461bcd60e51b815260040161032d90611e91565b60026001556108cb848484610d17565b60018055949350505050565b670429d069189e000081565b6108eb610cd1565b6000546001600160a01b039081169116146109185760405162461bcd60e51b815260040161032d90611d4d565b600c80546001600160a01b0319166001600160a01b0392909216919091179055565b60095481565b600b5481565b60045481565b60066020526000908152604090205460ff1681565b610969610cd1565b6000546001600160a01b039081169116146109965760405162461bcd60e51b815260040161032d90611d4d565b6001600160a01b0381166109bc5760405162461bcd60e51b815260040161032d90611b4b565b600080546040516001600160a01b03808516939216917f8be0079c531659141344cd1fd0a4f28419497f9722a3daafe3b4186f6b6457e091a3600080546001600160a01b0319166001600160a01b0392909216919091179055565b60a0015190565b600082820183811015610a435760405162461bcd60e51b815260040161032d90611b91565b90505b92915050565b610a546115d9565b610a5d82610743565b60008481526006602052604090205490915060ff16610a8e5760405162461bcd60e51b815260040161032d90611b26565b6101008201516001600160a01b03166000908152600560209081526040808320610120860151845290915290205460ff16610adb5760405162461bcd60e51b815260040161032d90611beb565b610ae58282610e31565b600281516007811115610af457fe5b14610aff5750610340565b610b098282610ecd565b505050565b6000610b186115d9565b610b2183610743565b6101008401516001600160a01b0316600090815260056020908152604080832061012088015184528252808320805460ff19166001179055818401518352600690915290205490915060ff1615610b8a5760405162461bcd60e51b815260040161032d90611da9565b600c54610100840151610120850151604051630f9cb82960e01b81526001600160a01b0390931692630f9cb82992610bc6929091600401611993565b60206040518083038186803b158015610bde57600080fd5b505afa158015610bf2573d6000803e3d6000fd5b505050506040513d601f19601f82011682018060405250810190610c16919061178e565b15610c335760405162461bcd60e51b815260040161032d90611e30565b33835260006020840152610c456115b8565b610c4e846103ca565b9050610c5b848383610f6d565b5060019392505050565b6000610a43670de0b6b3a7640000610c83858563ffffffff61100916565b9063ffffffff61104316565b6000610a4383836040518060400160405280601e81526020017f536166654d6174683a207375627472616374696f6e206f766572666c6f770000815250611085565b3390565b60008160200183511015610cfb5760405162461bcd60e51b815260040161032d90611cc1565b50016020015190565b6000610a46610d12836110b1565b611173565b60008381526006602052604081205460ff16610d455760405162461bcd60e51b815260040161032d90611b26565b610d4d6115d9565b610d5684610743565b6101008501516001600160a01b03166000908152600560209081526040808320610120890151845290915290205490915060ff16610da65760405162461bcd60e51b815260040161032d90611beb565b610db1848285611198565b610db96115b8565b610dc2856103ca565b85519091506001600160a01b031615610ddc578451610dde565b335b6001600160a01b03908116865260208601511615610e00578460200151610e02565b335b6001600160a01b03166020860152610e1b8583836112ae565b610e258582611347565b50600195945050505050565b600181516007811115610e4057fe5b1415610e5e5760405162461bcd60e51b815260040161032d90611c17565b600182606001511415610e945781516001600160a01b03163314610e945760405162461bcd60e51b815260040161032d90611d82565b6002826060015114156103405760208201516001600160a01b031633146103405760405162461bcd60e51b815260040161032d90611ade565b6020808201516000908152600890915260409020805460ff191660019081179091556101608301516001600160a01b031690836060015114610f13578260200151610f16565b82515b6001600160a01b031682602001517f08425fdf5892e47ed0a2f0b7eed7178b11002d8a88e551cf16f0ae90cd105f7885610100015186610140015133604051610f6193929190611914565b60405180910390a45050565b602080830180516000908152600683526040808220805460ff191660011790558651610160880151935194860151868301516101208a015160808b01516101008c01516101408d015196516001600160a01b039687169a9990961698977f0537568d4f4557ad1b774356bd1837c13e3d70d2654e1a10e58447d9ed39812697610ffc9733959493929190611f31565b60405180910390a4505050565b60008261101857506000610a46565b8282028284828161102557fe5b0414610a435760405162461bcd60e51b815260040161032d90611ce7565b6000610a4383836040518060400160405280601a81526020017f536166654d6174683a206469766973696f6e206279207a65726f000000000000815250611581565b600081848411156110a95760405162461bcd60e51b815260040161032d9190611a74565b505050900390565b600060405180610120016040528060e7815260200161202f60e791396040516020016110dd91906118e4565b60405160208183030381529060405280519060200120826000015183602001518460400151856060015186608001518760a001518860c001518960e001518a61010001518b61012001518c61014001518d61016001518e61018001516040516020016111569e9d9c9b9a999897969594939291906119c0565b604051602081830303815290604052805190602001209050919050565b60045460405161190160f01b8152600281019190915260228101919091526042902090565b6000825160078111156111a757fe5b14156111c55760405162461bcd60e51b815260040161032d90611b05565b6004825160078111156111d457fe5b14156111f25760405162461bcd60e51b815260040161032d90611def565b60038251600781111561120157fe5b141561121f5760405162461bcd60e51b815260040161032d90611e0f565b60058251600781111561122e57fe5b141561124c5760405162461bcd60e51b815260040161032d90611bc8565b60018251600781111561125b57fe5b14156112795760405162461bcd60e51b815260040161032d90611c17565b60028251600781111561128857fe5b146112a55760405162461bcd60e51b815260040161032d90611e67565b60025b50505050565b60208083018051600090815260078352604090819020805460ff191660011790558551610160870151925185850151868401516101208a015160808b01516101008c01518a51998d01516101408e015198516001600160a01b039889169b9a9098169996987fa246499da7279e3d5878ad549256043feed07fc6fd059b1245db41017bf8cbb898610ffc98339695949390929091611f77565b6101408201516020830151835183516040516323b872dd60e01b81526001600160a01b03909416936323b872dd936113859390929091600401611937565b602060405180830381600087803b15801561139f57600080fd5b505af11580156113b3573d6000803e3d6000fd5b505050506040513d601f19601f820116820180604052508101906113d7919061178e565b508161014001516001600160a01b03166323b872dd836020015184610160015184602001516040518463ffffffff1660e01b815260040161141a93929190611937565b602060405180830381600087803b15801561143457600080fd5b505af1158015611448573d6000803e3d6000fd5b505050506040513d601f19601f8201168201806040525081019061146c919061178e565b506101408201516020830151600a5460408085015190516323b872dd60e01b81526001600160a01b03948516946323b872dd946114b0949093911691600401611937565b602060405180830381600087803b1580156114ca57600080fd5b505af11580156114de573d6000803e3d6000fd5b505050506040513d601f19601f82011682018060405250810190611502919061178e565b508161010001516001600160a01b031663f242432a8360000151846020015185610120015186608001516040518563ffffffff1660e01b815260040161154b949392919061195b565b600060405180830381600087803b15801561156557600080fd5b505af1158015611579573d6000803e3d6000fd5b505050505050565b600081836115a25760405162461bcd60e51b815260040161032d9190611a74565b5060008385816115ae57fe5b0495945050505050565b60405180606001604052806000815260200160008152602001600081525090565b6040805160608101909152806000815260006020820181905260409091015290565b8035610a4681612016565b600082601f830112611616578081fd5b813567ffffffffffffffff81111561162c578182fd5b61163f601f8201601f1916602001611fc3565b915080825283602082850101111561165657600080fd5b8060208401602084013760009082016020015292915050565b60006101a0808385031215611682578182fd5b61168b81611fc3565b91505061169883836115fb565b81526116a783602084016115fb565b60208201526116b983604084016115fb565b6040820152606082013560608201526080820135608082015260a082013560a082015260c082013560c082015260e082013560e08201526101006116ff848285016115fb565b90820152610120828101359082015261014061171d848285016115fb565b90820152610160611730848483016115fb565b818301525061018080830135818301525092915050565b600060208284031215611758578081fd5b8135610a4381612016565b60008060408385031215611775578081fd5b823561178081612016565b946020939093013593505050565b60006020828403121561179f578081fd5b81518015158114610a43578182fd5b6000602082840312156117bf578081fd5b5035919050565b6000806000606084860312156117da578081fd5b8335925060208401356117ec81612016565b9150604084013567ffffffffffffffff811115611807578182fd5b61181386828701611606565b9150509250925092565b6000806101c08385031215611830578182fd5b82359150611841846020850161166f565b90509250929050565b60008060006101e0848603121561185f578283fd5b83359250611870856020860161166f565b91506101c084013567ffffffffffffffff811115611807578182fd5b60006101a0828403121561189e578081fd5b610a43838361166f565b600080604083850312156118ba578182fd5b8235915060208301356118cc81612016565b809150509250929050565b6001600160a01b03169052565b600082516118f6818460208701611fea565b9190910192915050565b6001600160a01b0391909116815260200190565b6001600160a01b0393841681529183166020830152909116604082015260600190565b6001600160a01b039384168152919092166020820152604081019190915260600190565b6001600160a01b0394851681529290931660208301526040820152606081019190915260a06080820181905260009082015260c00190565b6001600160a01b03929092168252602082015260400190565b901515815260200190565b90815260200190565b8e81526001600160a01b038e811660208301528d811660408301528c166060820152608081018b905260a081018a905260c0810189905260e0810188905261010081018790526101c08101611a196101208301886118d7565b85610140830152611a2e6101608301866118d7565b611a3c6101808301856118d7565b826101a08301529f9e505050505050505050505050505050565b93845260ff9290921660208401526040830152606082015260800190565b6000602082528251806020840152611a93816040850160208701611fea565b601f01601f19169190910160400192915050565b60208082526019908201527f57726f6e67206c656e677468206f66207369676e617475726500000000000000604082015260600190565b6020808252600d908201526c24a72b20a624a22faa20a5a2a960991b604082015260600190565b6020808252600790820152661253959053125160ca1b604082015260600190565b6020808252600b908201526a139bdd0818dc99585d195960aa1b604082015260600190565b60208082526026908201527f4f776e61626c653a206e6577206f776e657220697320746865207a65726f206160408201526564647265737360d01b606082015260800190565b6020808252601b908201527f536166654d6174683a206164646974696f6e206f766572666c6f770000000000604082015260600190565b60208082526009908201526810d05390d15313115160ba1b604082015260600190565b6020808252601290820152714e6674206964206e6f74206f6e2073616c6560701b604082015260600190565b60208082526010908201526f24a72b20a624a22fa7a822a920aa27a960811b604082015260600190565b6020808252600e908201526d657863656564206d61782066656560901b604082015260600190565b60208082526010908201526f14185d5cd8589b194e881c185d5cd95960821b604082015260600190565b60208082526014908201527357726f6e67207369676e6572206164647265737360601b604082015260600190565b6020808252600c908201526b0aee4dedcce40d8cadccee8d60a31b604082015260600190565b60208082526021908201527f536166654d6174683a206d756c7469706c69636174696f6e206f766572666c6f6040820152607760f81b606082015260800190565b6020808252600b908201526a34b71031b7b7b63237bbb760a91b604082015260600190565b6020808252818101527f4f776e61626c653a2063616c6c6572206973206e6f7420746865206f776e6572604082015260600190565b6020808252600d908201526c24a72b20a624a22fa7aba722a960991b604082015260600190565b6020808252600b908201526a12185cc818dc99585d195960aa1b604082015260600190565b6020808252600790820152662bb937b733902b60c91b604082015260600190565b60208082526006908201526511925313115160d21b604082015260600190565b6020808252600790820152661156141254915160ca1b604082015260600190565b6020808252601e908201527f4e667420696420686173206f6e20656e676c6973682065786368616e67650000604082015260600190565b60208082526010908201526f4f524445525f554e46494c4c41424c4560801b604082015260600190565b6020808252601f908201527f5265656e7472616e637947756172643a207265656e7472616e742063616c6c00604082015260600190565b81518152602080830151908201526040918201519181019190915260600190565b8151606082019060088110611efa57fe5b808352506020830151602083015260408301511515604083015292915050565b9182526001600160a01b0316602082015260400190565b97885260208801969096526001600160a01b03948516604088015260608701939093526080860191909152821660a0850152811660c08401521660e08201526101000190565b98895260208901979097526001600160a01b03958616604089015260608801949094526080870192909252831660a086015260c0850152811660e0840152166101008201526101200190565b60405181810167ffffffffffffffff81118282101715611fe257600080fd5b604052919050565b60005b83811015612005578181015183820152602001611fed565b838111156112a85750506000910152565b6001600160a01b038116811461202b57600080fd5b5056fe4f726465722861646472657373206f776e65722c616464726573732074616b65722c61646472657373206f70657261746f722c75696e74323536206f72646572547970652c75696e7432353620616d6f756e742c75696e7432353620737461727450726963652c75696e7432353620656e6454696d652c75696e743235362073616c742c61646472657373206173736574416464726573732c75696e743235362069642c616464726573732063757272656e6379416464726573732c6164647265737320666565526563697069656e742c75696e743235362066656550657263656e7461676529a2646970667358221220f59e519dd78f0f6b0e93f8fb28b80c5437da00b031cb6660ed12dc9edf03db8964736f6c63430006090033",
			"opcodes": "PUSH1 0x80 PUSH1 0x40 MSTORE PUSH1 0x3 DUP1 SLOAD PUSH1 0x1 PUSH1 0x1 PUSH1 0xA0 SHL SUB NOT AND ADDRESS OR SWAP1 SSTORE CALLVALUE DUP1 ISZERO PUSH3 0x23 JUMPI PUSH1 0x0 DUP1 REVERT JUMPDEST POP PUSH1 0x40 MLOAD PUSH3 0x2631 CODESIZE SUB DUP1 PUSH3 0x2631 DUP4 CODECOPY DUP2 ADD PUSH1 0x40 DUP2 SWAP1 MSTORE PUSH3 0x46 SWAP2 PUSH3 0x30E JUMP JUMPDEST PUSH1 0x0 PUSH3 0x5B PUSH1 0x1 PUSH1 0x1 PUSH1 0xE0 SHL SUB PUSH3 0x1BE AND JUMP JUMPDEST PUSH1 0x0 DUP1 SLOAD PUSH1 0x1 PUSH1 0x1 PUSH1 0xA0 SHL SUB NOT AND PUSH1 0x1 PUSH1 0x1 PUSH1 0xA0 SHL SUB DUP4 AND SWAP1 DUP2 OR DUP3 SSTORE PUSH1 0x40 MLOAD SWAP3 SWAP4 POP SWAP2 PUSH32 0x8BE0079C531659141344CD1FD0A4F28419497F9722A3DAAFE3B4186F6B6457E0 SWAP1 DUP3 SWAP1 LOG3 POP PUSH1 0x0 DUP1 SLOAD PUSH1 0xFF PUSH1 0xA0 SHL NOT AND SWAP1 SSTORE PUSH1 0x1 DUP1 SSTORE CHAINID PUSH1 0x2 DUP2 SWAP1 SSTORE PUSH1 0x40 MLOAD PUSH3 0xCD SWAP1 PUSH1 0x20 ADD PUSH3 0x34B JUMP JUMPDEST PUSH1 0x40 DUP1 MLOAD PUSH1 0x1F NOT DUP2 DUP5 SUB ADD DUP2 MSTORE DUP3 DUP3 MSTORE DUP1 MLOAD PUSH1 0x20 SWAP2 DUP3 ADD KECCAK256 DUP4 DUP4 ADD DUP4 MSTORE PUSH1 0xD DUP5 MSTORE PUSH13 0x436F6E666945786368616E6765 PUSH1 0x98 SHL SWAP4 DUP3 ADD SWAP4 SWAP1 SWAP4 MSTORE DUP2 MLOAD DUP1 DUP4 ADD DUP4 MSTORE PUSH1 0x3 DUP1 DUP3 MSTORE PUSH3 0x312E3 PUSH1 0xEC SHL SWAP2 DUP4 ADD SWAP2 SWAP1 SWAP2 MSTORE PUSH1 0x2 SLOAD SWAP1 SLOAD SWAP3 MLOAD PUSH3 0x185 SWAP5 SWAP4 PUSH32 0xC241628EAF835FA04927309E7FFA6FF63C4192AA2DFB4063D9C147EC4FAB6BEC SWAP4 PUSH32 0xE6BBD6277E1BF288EED5E8D1780F9A50B239E86B153736BCEEBCCF4EA79D90B3 SWAP4 SWAP3 PUSH1 0x1 PUSH1 0x1 PUSH1 0xA0 SHL SUB SWAP1 SWAP3 AND SWAP2 ADD PUSH3 0x3DA JUMP JUMPDEST PUSH1 0x40 DUP1 MLOAD PUSH1 0x1F NOT DUP2 DUP5 SUB ADD DUP2 MSTORE SWAP2 SWAP1 MSTORE DUP1 MLOAD PUSH1 0x20 SWAP1 SWAP2 ADD KECCAK256 PUSH1 0x4 SSTORE POP PUSH3 0x1B6 DUP3 DUP3 PUSH1 0x1 PUSH1 0x1 PUSH1 0xE0 SHL SUB PUSH3 0x1C2 AND JUMP JUMPDEST POP POP PUSH3 0x4D6 JUMP JUMPDEST CALLER SWAP1 JUMP JUMPDEST PUSH3 0x1D5 PUSH1 0x1 PUSH1 0x1 PUSH1 0xE0 SHL SUB PUSH3 0x1BE AND JUMP JUMPDEST PUSH1 0x0 SLOAD PUSH1 0x1 PUSH1 0x1 PUSH1 0xA0 SHL SUB SWAP1 DUP2 AND SWAP2 AND EQ PUSH3 0x20E JUMPI PUSH1 0x40 MLOAD PUSH3 0x461BCD PUSH1 0xE5 SHL DUP2 MSTORE PUSH1 0x4 ADD PUSH3 0x205 SWAP1 PUSH3 0x48A JUMP JUMPDEST PUSH1 0x40 MLOAD DUP1 SWAP2 SUB SWAP1 REVERT JUMPDEST TIMESTAMP PUSH3 0x22E PUSH3 0x15180 PUSH1 0xB SLOAD PUSH3 0x2DF PUSH1 0x20 SHL PUSH3 0xA1E OR SWAP1 SWAP2 SWAP1 PUSH1 0x20 SHR JUMP JUMPDEST LT PUSH3 0x24E JUMPI PUSH1 0x40 MLOAD PUSH3 0x461BCD PUSH1 0xE5 SHL DUP2 MSTORE PUSH1 0x4 ADD PUSH3 0x205 SWAP1 PUSH3 0x465 JUMP JUMPDEST PUSH8 0x429D069189E0000 DUP3 GT ISZERO PUSH3 0x279 JUMPI PUSH1 0x40 MLOAD PUSH3 0x461BCD PUSH1 0xE5 SHL DUP2 MSTORE PUSH1 0x4 ADD PUSH3 0x205 SWAP1 PUSH3 0x43D JUMP JUMPDEST PUSH1 0x9 DUP3 SWAP1 SSTORE PUSH1 0xA DUP1 SLOAD PUSH1 0x1 PUSH1 0x1 PUSH1 0xA0 SHL SUB NOT AND PUSH1 0x1 PUSH1 0x1 PUSH1 0xA0 SHL SUB DUP4 AND OR SWAP1 SSTORE TIMESTAMP PUSH1 0xB SSTORE PUSH1 0x40 MLOAD CALLER SWAP1 PUSH32 0x113BDCCF7B7CEAFEB2CA0A4F91A0FBB09542DD8B3EA9D06907DF13522A4D606E SWAP1 PUSH3 0x2D3 SWAP1 DUP6 SWAP1 DUP6 SWAP1 PUSH3 0x4BF JUMP JUMPDEST PUSH1 0x40 MLOAD DUP1 SWAP2 SUB SWAP1 LOG2 POP POP JUMP JUMPDEST PUSH1 0x0 DUP3 DUP3 ADD DUP4 DUP2 LT ISZERO PUSH3 0x307 JUMPI PUSH1 0x40 MLOAD PUSH3 0x461BCD PUSH1 0xE5 SHL DUP2 MSTORE PUSH1 0x4 ADD PUSH3 0x205 SWAP1 PUSH3 0x406 JUMP JUMPDEST SWAP4 SWAP3 POP POP POP JUMP JUMPDEST PUSH1 0x0 DUP1 PUSH1 0x40 DUP4 DUP6 SUB SLT ISZERO PUSH3 0x321 JUMPI DUP2 DUP3 REVERT JUMPDEST DUP3 MLOAD PUSH1 0x20 DUP5 ADD MLOAD SWAP1 SWAP3 POP PUSH1 0x1 PUSH1 0x1 PUSH1 0xA0 SHL SUB DUP2 AND DUP2 EQ PUSH3 0x340 JUMPI DUP2 DUP3 REVERT JUMPDEST DUP1 SWAP2 POP POP SWAP3 POP SWAP3 SWAP1 POP JUMP JUMPDEST PUSH13 0x8A92A06E626488DEDAC2D2DC5 PUSH1 0x9B SHL DUP2 MSTORE PUSH12 0x1CDD1C9A5B99C81B985B594B PUSH1 0xA2 SHL PUSH1 0xD DUP3 ADD MSTORE PUSH15 0x1CDD1C9A5B99C81D995C9CDA5BDB8B PUSH1 0x8A SHL PUSH1 0x19 DUP3 ADD MSTORE PUSH16 0x1D5A5B9D0C8D4D8818DA185A5B92590B PUSH1 0x82 SHL PUSH1 0x28 DUP3 ADD MSTORE PUSH32 0x6164647265737320766572696679696E67436F6E747261637400000000000000 PUSH1 0x38 DUP3 ADD MSTORE PUSH1 0x29 PUSH1 0xF8 SHL PUSH1 0x51 DUP3 ADD MSTORE PUSH1 0x52 ADD SWAP1 JUMP JUMPDEST SWAP5 DUP6 MSTORE PUSH1 0x20 DUP6 ADD SWAP4 SWAP1 SWAP4 MSTORE PUSH1 0x40 DUP5 ADD SWAP2 SWAP1 SWAP2 MSTORE PUSH1 0x60 DUP4 ADD MSTORE PUSH1 0x1 PUSH1 0x1 PUSH1 0xA0 SHL SUB AND PUSH1 0x80 DUP3 ADD MSTORE PUSH1 0xA0 ADD SWAP1 JUMP JUMPDEST PUSH1 0x20 DUP1 DUP3 MSTORE PUSH1 0x1B SWAP1 DUP3 ADD MSTORE PUSH32 0x536166654D6174683A206164646974696F6E206F766572666C6F770000000000 PUSH1 0x40 DUP3 ADD MSTORE PUSH1 0x60 ADD SWAP1 JUMP JUMPDEST PUSH1 0x20 DUP1 DUP3 MSTORE PUSH1 0xE SWAP1 DUP3 ADD MSTORE PUSH14 0x657863656564206D617820666565 PUSH1 0x90 SHL PUSH1 0x40 DUP3 ADD MSTORE PUSH1 0x60 ADD SWAP1 JUMP JUMPDEST PUSH1 0x20 DUP1 DUP3 MSTORE PUSH1 0xB SWAP1 DUP3 ADD MSTORE PUSH11 0x34B71031B7B7B63237BBB7 PUSH1 0xA9 SHL PUSH1 0x40 DUP3 ADD MSTORE PUSH1 0x60 ADD SWAP1 JUMP JUMPDEST PUSH1 0x20 DUP1 DUP3 MSTORE DUP2 DUP2 ADD MSTORE PUSH32 0x4F776E61626C653A2063616C6C6572206973206E6F7420746865206F776E6572 PUSH1 0x40 DUP3 ADD MSTORE PUSH1 0x60 ADD SWAP1 JUMP JUMPDEST SWAP2 DUP3 MSTORE PUSH1 0x1 PUSH1 0x1 PUSH1 0xA0 SHL SUB AND PUSH1 0x20 DUP3 ADD MSTORE PUSH1 0x40 ADD SWAP1 JUMP JUMPDEST PUSH2 0x214B DUP1 PUSH3 0x4E6 PUSH1 0x0 CODECOPY PUSH1 0x0 RETURN INVALID PUSH1 0x80 PUSH1 0x40 MSTORE CALLVALUE DUP1 ISZERO PUSH2 0x10 JUMPI PUSH1 0x0 DUP1 REVERT JUMPDEST POP PUSH1 0x4 CALLDATASIZE LT PUSH2 0x158 JUMPI PUSH1 0x0 CALLDATALOAD PUSH1 0xE0 SHR DUP1 PUSH4 0x93634702 GT PUSH2 0xC3 JUMPI DUP1 PUSH4 0xDBD8987C GT PUSH2 0x7C JUMPI DUP1 PUSH4 0xDBD8987C EQ PUSH2 0x2B2 JUMPI DUP1 PUSH4 0xE2DDE054 EQ PUSH2 0x2BA JUMPI DUP1 PUSH4 0xE306F779 EQ PUSH2 0x2C2 JUMPI DUP1 PUSH4 0xEAA760C2 EQ PUSH2 0x2CA JUMPI DUP1 PUSH4 0xF2FDE38B EQ PUSH2 0x2DD JUMPI DUP1 PUSH4 0xFF17FE59 EQ PUSH2 0x2F0 JUMPI PUSH2 0x158 JUMP JUMPDEST DUP1 PUSH4 0x93634702 EQ PUSH2 0x249 JUMPI DUP1 PUSH4 0x98038DAD EQ PUSH2 0x25C JUMPI DUP1 PUSH4 0x9A8A0592 EQ PUSH2 0x27C JUMPI DUP1 PUSH4 0xA9F7A0E5 EQ PUSH2 0x284 JUMPI DUP1 PUSH4 0xC37F03C7 EQ PUSH2 0x297 JUMPI DUP1 PUSH4 0xCF07104E EQ PUSH2 0x29F JUMPI PUSH2 0x158 JUMP JUMPDEST DUP1 PUSH4 0x5C975ABB GT PUSH2 0x115 JUMPI DUP1 PUSH4 0x5C975ABB EQ PUSH2 0x1F4 JUMPI DUP1 PUSH4 0x6CF25C4E EQ PUSH2 0x1FC JUMPI DUP1 PUSH4 0x715018A6 EQ PUSH2 0x211 JUMPI DUP1 PUSH4 0x8243D01F EQ PUSH2 0x219 JUMPI DUP1 PUSH4 0x83C3E77A EQ PUSH2 0x22E JUMPI DUP1 PUSH4 0x8DA5CB5B EQ PUSH2 0x241 JUMPI PUSH2 0x158 JUMP JUMPDEST DUP1 PUSH4 0x7140FCC EQ PUSH2 0x15D JUMPI DUP1 PUSH4 0xF9CB829 EQ PUSH2 0x172 JUMPI DUP1 PUSH4 0x1E1BC740 EQ PUSH2 0x19B JUMPI DUP1 PUSH4 0x2706BC91 EQ PUSH2 0x1AE JUMPI DUP1 PUSH4 0x288CDC91 EQ PUSH2 0x1CE JUMPI DUP1 PUSH4 0x2AC12622 EQ PUSH2 0x1E1 JUMPI JUMPDEST PUSH1 0x0 DUP1 REVERT JUMPDEST PUSH2 0x170 PUSH2 0x16B CALLDATASIZE PUSH1 0x4 PUSH2 0x181D JUMP JUMPDEST PUSH2 0x303 JUMP JUMPDEST STOP JUMPDEST PUSH2 0x185 PUSH2 0x180 CALLDATASIZE PUSH1 0x4 PUSH2 0x1763 JUMP JUMPDEST PUSH2 0x344 JUMP JUMPDEST PUSH1 0x40 MLOAD PUSH2 0x192 SWAP2 SWAP1 PUSH2 0x19AC JUMP JUMPDEST PUSH1 0x40 MLOAD DUP1 SWAP2 SUB SWAP1 RETURN JUMPDEST PUSH2 0x185 PUSH2 0x1A9 CALLDATASIZE PUSH1 0x4 PUSH2 0x188C JUMP JUMPDEST PUSH2 0x364 JUMP JUMPDEST PUSH2 0x1C1 PUSH2 0x1BC CALLDATASIZE PUSH1 0x4 PUSH2 0x188C JUMP JUMPDEST PUSH2 0x3CA JUMP JUMPDEST PUSH1 0x40 MLOAD PUSH2 0x192 SWAP2 SWAP1 PUSH2 0x1EC8 JUMP JUMPDEST PUSH2 0x185 PUSH2 0x1DC CALLDATASIZE PUSH1 0x4 PUSH2 0x17AE JUMP JUMPDEST PUSH2 0x452 JUMP JUMPDEST PUSH2 0x185 PUSH2 0x1EF CALLDATASIZE PUSH1 0x4 PUSH2 0x17AE JUMP JUMPDEST PUSH2 0x467 JUMP JUMPDEST PUSH2 0x185 PUSH2 0x47C JUMP JUMPDEST PUSH2 0x204 PUSH2 0x48C JUMP JUMPDEST PUSH1 0x40 MLOAD PUSH2 0x192 SWAP2 SWAP1 PUSH2 0x1900 JUMP JUMPDEST PUSH2 0x170 PUSH2 0x49B JUMP JUMPDEST PUSH2 0x221 PUSH2 0x51A JUMP JUMPDEST PUSH1 0x40 MLOAD PUSH2 0x192 SWAP2 SWAP1 PUSH2 0x19B7 JUMP JUMPDEST PUSH2 0x170 PUSH2 0x23C CALLDATASIZE PUSH1 0x4 PUSH2 0x18A8 JUMP JUMPDEST PUSH2 0x521 JUMP JUMPDEST PUSH2 0x204 PUSH2 0x617 JUMP JUMPDEST PUSH2 0x185 PUSH2 0x257 CALLDATASIZE PUSH1 0x4 PUSH2 0x17C6 JUMP JUMPDEST PUSH2 0x626 JUMP JUMPDEST PUSH2 0x26F PUSH2 0x26A CALLDATASIZE PUSH1 0x4 PUSH2 0x188C JUMP JUMPDEST PUSH2 0x743 JUMP JUMPDEST PUSH1 0x40 MLOAD PUSH2 0x192 SWAP2 SWAP1 PUSH2 0x1EE9 JUMP JUMPDEST PUSH2 0x221 PUSH2 0x867 JUMP JUMPDEST PUSH2 0x185 PUSH2 0x292 CALLDATASIZE PUSH1 0x4 PUSH2 0x184A JUMP JUMPDEST PUSH2 0x86D JUMP JUMPDEST PUSH2 0x221 PUSH2 0x8D7 JUMP JUMPDEST PUSH2 0x170 PUSH2 0x2AD CALLDATASIZE PUSH1 0x4 PUSH2 0x1747 JUMP JUMPDEST PUSH2 0x8E3 JUMP JUMPDEST PUSH2 0x221 PUSH2 0x93A JUMP JUMPDEST PUSH2 0x221 PUSH2 0x940 JUMP JUMPDEST PUSH2 0x221 PUSH2 0x946 JUMP JUMPDEST PUSH2 0x185 PUSH2 0x2D8 CALLDATASIZE PUSH1 0x4 PUSH2 0x17AE JUMP JUMPDEST PUSH2 0x94C JUMP JUMPDEST PUSH2 0x170 PUSH2 0x2EB CALLDATASIZE PUSH1 0x4 PUSH2 0x1747 JUMP JUMPDEST PUSH2 0x961 JUMP JUMPDEST PUSH2 0x221 PUSH2 0x2FE CALLDATASIZE PUSH1 0x4 PUSH2 0x188C JUMP JUMPDEST PUSH2 0xA17 JUMP JUMPDEST PUSH1 0x0 SLOAD PUSH1 0x1 PUSH1 0xA0 SHL SWAP1 DIV PUSH1 0xFF AND ISZERO PUSH2 0x336 JUMPI PUSH1 0x40 MLOAD PUSH3 0x461BCD PUSH1 0xE5 SHL DUP2 MSTORE PUSH1 0x4 ADD PUSH2 0x32D SWAP1 PUSH2 0x1C69 JUMP JUMPDEST PUSH1 0x40 MLOAD DUP1 SWAP2 SUB SWAP1 REVERT JUMPDEST PUSH2 0x340 DUP3 DUP3 PUSH2 0xA4C JUMP JUMPDEST POP POP JUMP JUMPDEST PUSH1 0x5 PUSH1 0x20 SWAP1 DUP2 MSTORE PUSH1 0x0 SWAP3 DUP4 MSTORE PUSH1 0x40 DUP1 DUP5 KECCAK256 SWAP1 SWAP2 MSTORE SWAP1 DUP3 MSTORE SWAP1 KECCAK256 SLOAD PUSH1 0xFF AND DUP2 JUMP JUMPDEST PUSH1 0x0 DUP1 SLOAD PUSH1 0x1 PUSH1 0xA0 SHL SWAP1 DIV PUSH1 0xFF AND ISZERO PUSH2 0x38F JUMPI PUSH1 0x40 MLOAD PUSH3 0x461BCD PUSH1 0xE5 SHL DUP2 MSTORE PUSH1 0x4 ADD PUSH2 0x32D SWAP1 PUSH2 0x1C69 JUMP JUMPDEST PUSH1 0x2 PUSH1 0x1 SLOAD EQ ISZERO PUSH2 0x3B2 JUMPI PUSH1 0x40 MLOAD PUSH3 0x461BCD PUSH1 0xE5 SHL DUP2 MSTORE PUSH1 0x4 ADD PUSH2 0x32D SWAP1 PUSH2 0x1E91 JUMP JUMPDEST PUSH1 0x2 PUSH1 0x1 SSTORE PUSH2 0x3C0 DUP3 PUSH2 0xB0E JUMP JUMPDEST PUSH1 0x1 DUP1 SSTORE SWAP3 SWAP2 POP POP JUMP JUMPDEST PUSH2 0x3D2 PUSH2 0x15B8 JUMP JUMPDEST PUSH1 0x0 PUSH2 0x3DD DUP4 PUSH2 0xA17 JUMP JUMPDEST SWAP1 POP PUSH2 0x3F7 DUP4 PUSH2 0x180 ADD MLOAD DUP3 PUSH2 0xC65 SWAP1 SWAP2 SWAP1 PUSH4 0xFFFFFFFF AND JUMP JUMPDEST PUSH1 0x20 DUP4 ADD DUP2 SWAP1 MSTORE PUSH1 0x9 SLOAD PUSH2 0x411 SWAP2 SWAP1 PUSH4 0xFFFFFFFF PUSH2 0xC65 AND JUMP JUMPDEST PUSH1 0x40 DUP4 ADD MSTORE PUSH1 0x20 DUP3 ADD MLOAD PUSH2 0x42C SWAP1 DUP3 SWAP1 PUSH4 0xFFFFFFFF PUSH2 0xC8F AND JUMP JUMPDEST DUP3 MSTORE PUSH1 0x40 DUP3 ADD MLOAD PUSH1 0x20 DUP4 ADD MLOAD PUSH2 0x447 SWAP2 PUSH4 0xFFFFFFFF PUSH2 0xC8F AND JUMP JUMPDEST PUSH1 0x20 DUP4 ADD MSTORE POP SWAP2 SWAP1 POP JUMP JUMPDEST PUSH1 0x7 PUSH1 0x20 MSTORE PUSH1 0x0 SWAP1 DUP2 MSTORE PUSH1 0x40 SWAP1 KECCAK256 SLOAD PUSH1 0xFF AND DUP2 JUMP JUMPDEST PUSH1 0x8 PUSH1 0x20 MSTORE PUSH1 0x0 SWAP1 DUP2 MSTORE PUSH1 0x40 SWAP1 KECCAK256 SLOAD PUSH1 0xFF AND DUP2 JUMP JUMPDEST PUSH1 0x0 SLOAD PUSH1 0x1 PUSH1 0xA0 SHL SWAP1 DIV PUSH1 0xFF AND SWAP1 JUMP JUMPDEST PUSH1 0xA SLOAD PUSH1 0x1 PUSH1 0x1 PUSH1 0xA0 SHL SUB AND DUP2 JUMP JUMPDEST PUSH2 0x4A3 PUSH2 0xCD1 JUMP JUMPDEST PUSH1 0x0 SLOAD PUSH1 0x1 PUSH1 0x1 PUSH1 0xA0 SHL SUB SWAP1 DUP2 AND SWAP2 AND EQ PUSH2 0x4D0 JUMPI PUSH1 0x40 MLOAD PUSH3 0x461BCD PUSH1 0xE5 SHL DUP2 MSTORE PUSH1 0x4 ADD PUSH2 0x32D SWAP1 PUSH2 0x1D4D JUMP JUMPDEST PUSH1 0x0 DUP1 SLOAD PUSH1 0x40 MLOAD PUSH1 0x1 PUSH1 0x1 PUSH1 0xA0 SHL SUB SWAP1 SWAP2 AND SWAP1 PUSH32 0x8BE0079C531659141344CD1FD0A4F28419497F9722A3DAAFE3B4186F6B6457E0 SWAP1 DUP4 SWAP1 LOG3 PUSH1 0x0 DUP1 SLOAD PUSH1 0x1 PUSH1 0x1 PUSH1 0xA0 SHL SUB NOT AND SWAP1 SSTORE JUMP JUMPDEST PUSH3 0x15180 DUP2 JUMP JUMPDEST PUSH2 0x529 PUSH2 0xCD1 JUMP JUMPDEST PUSH1 0x0 SLOAD PUSH1 0x1 PUSH1 0x1 PUSH1 0xA0 SHL SUB SWAP1 DUP2 AND SWAP2 AND EQ PUSH2 0x556 JUMPI PUSH1 0x40 MLOAD PUSH3 0x461BCD PUSH1 0xE5 SHL DUP2 MSTORE PUSH1 0x4 ADD PUSH2 0x32D SWAP1 PUSH2 0x1D4D JUMP JUMPDEST PUSH1 0xB SLOAD TIMESTAMP SWAP1 PUSH2 0x56E SWAP1 PUSH3 0x15180 PUSH4 0xFFFFFFFF PUSH2 0xA1E AND JUMP JUMPDEST LT PUSH2 0x58B JUMPI PUSH1 0x40 MLOAD PUSH3 0x461BCD PUSH1 0xE5 SHL DUP2 MSTORE PUSH1 0x4 ADD PUSH2 0x32D SWAP1 PUSH2 0x1D28 JUMP JUMPDEST PUSH8 0x429D069189E0000 DUP3 GT ISZERO PUSH2 0x5B3 JUMPI PUSH1 0x40 MLOAD PUSH3 0x461BCD PUSH1 0xE5 SHL DUP2 MSTORE PUSH1 0x4 ADD PUSH2 0x32D SWAP1 PUSH2 0x1C41 JUMP JUMPDEST PUSH1 0x9 DUP3 SWAP1 SSTORE PUSH1 0xA DUP1 SLOAD PUSH1 0x1 PUSH1 0x1 PUSH1 0xA0 SHL SUB NOT AND PUSH1 0x1 PUSH1 0x1 PUSH1 0xA0 SHL SUB DUP4 AND OR SWAP1 SSTORE TIMESTAMP PUSH1 0xB SSTORE PUSH1 0x40 MLOAD CALLER SWAP1 PUSH32 0x113BDCCF7B7CEAFEB2CA0A4F91A0FBB09542DD8B3EA9D06907DF13522A4D606E SWAP1 PUSH2 0x60B SWAP1 DUP6 SWAP1 DUP6 SWAP1 PUSH2 0x1F1A JUMP JUMPDEST PUSH1 0x40 MLOAD DUP1 SWAP2 SUB SWAP1 LOG2 POP POP JUMP JUMPDEST PUSH1 0x0 SLOAD PUSH1 0x1 PUSH1 0x1 PUSH1 0xA0 SHL SUB AND SWAP1 JUMP JUMPDEST PUSH1 0x0 PUSH1 0x1 PUSH1 0x1 PUSH1 0xA0 SHL SUB DUP4 AND PUSH2 0x64E JUMPI PUSH1 0x40 MLOAD PUSH3 0x461BCD PUSH1 0xE5 SHL DUP2 MSTORE PUSH1 0x4 ADD PUSH2 0x32D SWAP1 PUSH2 0x1C93 JUMP JUMPDEST DUP2 MLOAD PUSH1 0x41 EQ PUSH2 0x66F JUMPI PUSH1 0x40 MLOAD PUSH3 0x461BCD PUSH1 0xE5 SHL DUP2 MSTORE PUSH1 0x4 ADD PUSH2 0x32D SWAP1 PUSH2 0x1AA7 JUMP JUMPDEST PUSH1 0x0 DUP3 PUSH1 0x40 DUP2 MLOAD DUP2 LT PUSH2 0x67E JUMPI INVALID JUMPDEST ADD PUSH1 0x20 ADD MLOAD PUSH1 0xF8 SHR SWAP1 POP PUSH1 0x1B DUP2 EQ DUP1 PUSH2 0x69A JUMPI POP DUP1 PUSH1 0xFF AND PUSH1 0x1C EQ JUMPDEST PUSH2 0x6B6 JUMPI PUSH1 0x40 MLOAD PUSH3 0x461BCD PUSH1 0xE5 SHL DUP2 MSTORE PUSH1 0x4 ADD PUSH2 0x32D SWAP1 PUSH2 0x1DCE JUMP JUMPDEST PUSH1 0x0 PUSH2 0x6C3 DUP5 PUSH1 0x0 PUSH2 0xCD5 JUMP JUMPDEST SWAP1 POP PUSH1 0x0 PUSH2 0x6D2 DUP6 PUSH1 0x20 PUSH2 0xCD5 JUMP JUMPDEST SWAP1 POP PUSH1 0x1 DUP8 DUP5 DUP5 DUP5 PUSH1 0x40 MLOAD PUSH1 0x0 DUP2 MSTORE PUSH1 0x20 ADD PUSH1 0x40 MSTORE PUSH1 0x40 MLOAD PUSH2 0x6F7 SWAP5 SWAP4 SWAP3 SWAP2 SWAP1 PUSH2 0x1A56 JUMP JUMPDEST PUSH1 0x20 PUSH1 0x40 MLOAD PUSH1 0x20 DUP2 SUB SWAP1 DUP1 DUP5 SUB SWAP1 DUP6 GAS STATICCALL ISZERO DUP1 ISZERO PUSH2 0x719 JUMPI RETURNDATASIZE PUSH1 0x0 DUP1 RETURNDATACOPY RETURNDATASIZE PUSH1 0x0 REVERT JUMPDEST POP POP POP PUSH1 0x20 PUSH1 0x40 MLOAD SUB MLOAD PUSH1 0x1 PUSH1 0x1 PUSH1 0xA0 SHL SUB AND DUP7 PUSH1 0x1 PUSH1 0x1 PUSH1 0xA0 SHL SUB AND EQ SWAP4 POP POP POP POP SWAP4 SWAP3 POP POP POP JUMP JUMPDEST PUSH2 0x74B PUSH2 0x15D9 JUMP JUMPDEST PUSH2 0x754 DUP3 PUSH2 0xD04 JUMP JUMPDEST PUSH1 0x20 DUP1 DUP4 ADD DUP3 SWAP1 MSTORE PUSH1 0x0 SWAP2 DUP3 MSTORE PUSH1 0x7 SWAP1 MSTORE PUSH1 0x40 SWAP1 DUP2 SWAP1 KECCAK256 SLOAD PUSH1 0xFF AND ISZERO ISZERO SWAP1 DUP3 ADD MSTORE PUSH1 0x3 DUP3 PUSH1 0x60 ADD MLOAD LT PUSH2 0x79A JUMPI DUP1 PUSH1 0x0 JUMPDEST SWAP1 DUP2 PUSH1 0x7 DUP2 GT ISZERO PUSH2 0x792 JUMPI INVALID JUMPDEST SWAP1 MSTORE POP PUSH2 0x862 JUMP JUMPDEST PUSH1 0x80 DUP3 ADD MLOAD PUSH2 0x7AB JUMPI DUP1 PUSH1 0x0 PUSH2 0x785 JUMP JUMPDEST PUSH1 0xA0 DUP3 ADD MLOAD PUSH2 0x7BC JUMPI DUP1 PUSH1 0x0 PUSH2 0x785 JUMP JUMPDEST PUSH1 0x40 DUP3 ADD MLOAD PUSH1 0x1 PUSH1 0x1 PUSH1 0xA0 SHL SUB AND ISZERO DUP1 ISZERO SWAP1 PUSH2 0x7E5 JUMPI POP PUSH1 0x40 DUP3 ADD MLOAD PUSH1 0x1 PUSH1 0x1 PUSH1 0xA0 SHL SUB AND CALLER EQ ISZERO JUMPDEST ISZERO PUSH2 0x7F2 JUMPI DUP1 PUSH1 0x1 PUSH2 0x785 JUMP JUMPDEST PUSH11 0xAAEA639F5433BF21E0000 DUP3 PUSH2 0x180 ADD MLOAD GT ISZERO PUSH2 0x812 JUMPI DUP1 PUSH1 0x0 PUSH2 0x785 JUMP JUMPDEST DUP1 PUSH1 0x40 ADD MLOAD ISZERO PUSH2 0x824 JUMPI DUP1 PUSH1 0x4 PUSH2 0x785 JUMP JUMPDEST PUSH1 0x20 DUP1 DUP3 ADD MLOAD PUSH1 0x0 SWAP1 DUP2 MSTORE PUSH1 0x8 SWAP1 SWAP2 MSTORE PUSH1 0x40 SWAP1 KECCAK256 SLOAD PUSH1 0xFF AND ISZERO PUSH2 0x849 JUMPI DUP1 PUSH1 0x5 PUSH2 0x785 JUMP JUMPDEST TIMESTAMP DUP3 PUSH1 0xC0 ADD MLOAD LT ISZERO PUSH2 0x85D JUMPI DUP1 PUSH1 0x3 PUSH2 0x785 JUMP JUMPDEST PUSH1 0x2 DUP2 MSTORE JUMPDEST SWAP2 SWAP1 POP JUMP JUMPDEST PUSH1 0x2 SLOAD DUP2 JUMP JUMPDEST PUSH1 0x0 DUP1 SLOAD PUSH1 0x1 PUSH1 0xA0 SHL SWAP1 DIV PUSH1 0xFF AND ISZERO PUSH2 0x898 JUMPI PUSH1 0x40 MLOAD PUSH3 0x461BCD PUSH1 0xE5 SHL DUP2 MSTORE PUSH1 0x4 ADD PUSH2 0x32D SWAP1 PUSH2 0x1C69 JUMP JUMPDEST PUSH1 0x2 PUSH1 0x1 SLOAD EQ ISZERO PUSH2 0x8BB JUMPI PUSH1 0x40 MLOAD PUSH3 0x461BCD PUSH1 0xE5 SHL DUP2 MSTORE PUSH1 0x4 ADD PUSH2 0x32D SWAP1 PUSH2 0x1E91 JUMP JUMPDEST PUSH1 0x2 PUSH1 0x1 SSTORE PUSH2 0x8CB DUP5 DUP5 DUP5 PUSH2 0xD17 JUMP JUMPDEST PUSH1 0x1 DUP1 SSTORE SWAP5 SWAP4 POP POP POP POP JUMP JUMPDEST PUSH8 0x429D069189E0000 DUP2 JUMP JUMPDEST PUSH2 0x8EB PUSH2 0xCD1 JUMP JUMPDEST PUSH1 0x0 SLOAD PUSH1 0x1 PUSH1 0x1 PUSH1 0xA0 SHL SUB SWAP1 DUP2 AND SWAP2 AND EQ PUSH2 0x918 JUMPI PUSH1 0x40 MLOAD PUSH3 0x461BCD PUSH1 0xE5 SHL DUP2 MSTORE PUSH1 0x4 ADD PUSH2 0x32D SWAP1 PUSH2 0x1D4D JUMP JUMPDEST PUSH1 0xC DUP1 SLOAD PUSH1 0x1 PUSH1 0x1 PUSH1 0xA0 SHL SUB NOT AND PUSH1 0x1 PUSH1 0x1 PUSH1 0xA0 SHL SUB SWAP3 SWAP1 SWAP3 AND SWAP2 SWAP1 SWAP2 OR SWAP1 SSTORE JUMP JUMPDEST PUSH1 0x9 SLOAD DUP2 JUMP JUMPDEST PUSH1 0xB SLOAD DUP2 JUMP JUMPDEST PUSH1 0x4 SLOAD DUP2 JUMP JUMPDEST PUSH1 0x6 PUSH1 0x20 MSTORE PUSH1 0x0 SWAP1 DUP2 MSTORE PUSH1 0x40 SWAP1 KECCAK256 SLOAD PUSH1 0xFF AND DUP2 JUMP JUMPDEST PUSH2 0x969 PUSH2 0xCD1 JUMP JUMPDEST PUSH1 0x0 SLOAD PUSH1 0x1 PUSH1 0x1 PUSH1 0xA0 SHL SUB SWAP1 DUP2 AND SWAP2 AND EQ PUSH2 0x996 JUMPI PUSH1 0x40 MLOAD PUSH3 0x461BCD PUSH1 0xE5 SHL DUP2 MSTORE PUSH1 0x4 ADD PUSH2 0x32D SWAP1 PUSH2 0x1D4D JUMP JUMPDEST PUSH1 0x1 PUSH1 0x1 PUSH1 0xA0 SHL SUB DUP2 AND PUSH2 0x9BC JUMPI PUSH1 0x40 MLOAD PUSH3 0x461BCD PUSH1 0xE5 SHL DUP2 MSTORE PUSH1 0x4 ADD PUSH2 0x32D SWAP1 PUSH2 0x1B4B JUMP JUMPDEST PUSH1 0x0 DUP1 SLOAD PUSH1 0x40 MLOAD PUSH1 0x1 PUSH1 0x1 PUSH1 0xA0 SHL SUB DUP1 DUP6 AND SWAP4 SWAP3 AND SWAP2 PUSH32 0x8BE0079C531659141344CD1FD0A4F28419497F9722A3DAAFE3B4186F6B6457E0 SWAP2 LOG3 PUSH1 0x0 DUP1 SLOAD PUSH1 0x1 PUSH1 0x1 PUSH1 0xA0 SHL SUB NOT AND PUSH1 0x1 PUSH1 0x1 PUSH1 0xA0 SHL SUB SWAP3 SWAP1 SWAP3 AND SWAP2 SWAP1 SWAP2 OR SWAP1 SSTORE JUMP JUMPDEST PUSH1 0xA0 ADD MLOAD SWAP1 JUMP JUMPDEST PUSH1 0x0 DUP3 DUP3 ADD DUP4 DUP2 LT ISZERO PUSH2 0xA43 JUMPI PUSH1 0x40 MLOAD PUSH3 0x461BCD PUSH1 0xE5 SHL DUP2 MSTORE PUSH1 0x4 ADD PUSH2 0x32D SWAP1 PUSH2 0x1B91 JUMP JUMPDEST SWAP1 POP JUMPDEST SWAP3 SWAP2 POP POP JUMP JUMPDEST PUSH2 0xA54 PUSH2 0x15D9 JUMP JUMPDEST PUSH2 0xA5D DUP3 PUSH2 0x743 JUMP JUMPDEST PUSH1 0x0 DUP5 DUP2 MSTORE PUSH1 0x6 PUSH1 0x20 MSTORE PUSH1 0x40 SWAP1 KECCAK256 SLOAD SWAP1 SWAP2 POP PUSH1 0xFF AND PUSH2 0xA8E JUMPI PUSH1 0x40 MLOAD PUSH3 0x461BCD PUSH1 0xE5 SHL DUP2 MSTORE PUSH1 0x4 ADD PUSH2 0x32D SWAP1 PUSH2 0x1B26 JUMP JUMPDEST PUSH2 0x100 DUP3 ADD MLOAD PUSH1 0x1 PUSH1 0x1 PUSH1 0xA0 SHL SUB AND PUSH1 0x0 SWAP1 DUP2 MSTORE PUSH1 0x5 PUSH1 0x20 SWAP1 DUP2 MSTORE PUSH1 0x40 DUP1 DUP4 KECCAK256 PUSH2 0x120 DUP7 ADD MLOAD DUP5 MSTORE SWAP1 SWAP2 MSTORE SWAP1 KECCAK256 SLOAD PUSH1 0xFF AND PUSH2 0xADB JUMPI PUSH1 0x40 MLOAD PUSH3 0x461BCD PUSH1 0xE5 SHL DUP2 MSTORE PUSH1 0x4 ADD PUSH2 0x32D SWAP1 PUSH2 0x1BEB JUMP JUMPDEST PUSH2 0xAE5 DUP3 DUP3 PUSH2 0xE31 JUMP JUMPDEST PUSH1 0x2 DUP2 MLOAD PUSH1 0x7 DUP2 GT ISZERO PUSH2 0xAF4 JUMPI INVALID JUMPDEST EQ PUSH2 0xAFF JUMPI POP PUSH2 0x340 JUMP JUMPDEST PUSH2 0xB09 DUP3 DUP3 PUSH2 0xECD JUMP JUMPDEST POP POP POP JUMP JUMPDEST PUSH1 0x0 PUSH2 0xB18 PUSH2 0x15D9 JUMP JUMPDEST PUSH2 0xB21 DUP4 PUSH2 0x743 JUMP JUMPDEST PUSH2 0x100 DUP5 ADD MLOAD PUSH1 0x1 PUSH1 0x1 PUSH1 0xA0 SHL SUB AND PUSH1 0x0 SWAP1 DUP2 MSTORE PUSH1 0x5 PUSH1 0x20 SWAP1 DUP2 MSTORE PUSH1 0x40 DUP1 DUP4 KECCAK256 PUSH2 0x120 DUP9 ADD MLOAD DUP5 MSTORE DUP3 MSTORE DUP1 DUP4 KECCAK256 DUP1 SLOAD PUSH1 0xFF NOT AND PUSH1 0x1 OR SWAP1 SSTORE DUP2 DUP5 ADD MLOAD DUP4 MSTORE PUSH1 0x6 SWAP1 SWAP2 MSTORE SWAP1 KECCAK256 SLOAD SWAP1 SWAP2 POP PUSH1 0xFF AND ISZERO PUSH2 0xB8A JUMPI PUSH1 0x40 MLOAD PUSH3 0x461BCD PUSH1 0xE5 SHL DUP2 MSTORE PUSH1 0x4 ADD PUSH2 0x32D SWAP1 PUSH2 0x1DA9 JUMP JUMPDEST PUSH1 0xC SLOAD PUSH2 0x100 DUP5 ADD MLOAD PUSH2 0x120 DUP6 ADD MLOAD PUSH1 0x40 MLOAD PUSH4 0xF9CB829 PUSH1 0xE0 SHL DUP2 MSTORE PUSH1 0x1 PUSH1 0x1 PUSH1 0xA0 SHL SUB SWAP1 SWAP4 AND SWAP3 PUSH4 0xF9CB829 SWAP3 PUSH2 0xBC6 SWAP3 SWAP1 SWAP2 PUSH1 0x4 ADD PUSH2 0x1993 JUMP JUMPDEST PUSH1 0x20 PUSH1 0x40 MLOAD DUP1 DUP4 SUB DUP2 DUP7 DUP1 EXTCODESIZE ISZERO DUP1 ISZERO PUSH2 0xBDE JUMPI PUSH1 0x0 DUP1 REVERT JUMPDEST POP GAS STATICCALL ISZERO DUP1 ISZERO PUSH2 0xBF2 JUMPI RETURNDATASIZE PUSH1 0x0 DUP1 RETURNDATACOPY RETURNDATASIZE PUSH1 0x0 REVERT JUMPDEST POP POP POP POP PUSH1 0x40 MLOAD RETURNDATASIZE PUSH1 0x1F NOT PUSH1 0x1F DUP3 ADD AND DUP3 ADD DUP1 PUSH1 0x40 MSTORE POP DUP2 ADD SWAP1 PUSH2 0xC16 SWAP2 SWAP1 PUSH2 0x178E JUMP JUMPDEST ISZERO PUSH2 0xC33 JUMPI PUSH1 0x40 MLOAD PUSH3 0x461BCD PUSH1 0xE5 SHL DUP2 MSTORE PUSH1 0x4 ADD PUSH2 0x32D SWAP1 PUSH2 0x1E30 JUMP JUMPDEST CALLER DUP4 MSTORE PUSH1 0x0 PUSH1 0x20 DUP5 ADD MSTORE PUSH2 0xC45 PUSH2 0x15B8 JUMP JUMPDEST PUSH2 0xC4E DUP5 PUSH2 0x3CA JUMP JUMPDEST SWAP1 POP PUSH2 0xC5B DUP5 DUP4 DUP4 PUSH2 0xF6D JUMP JUMPDEST POP PUSH1 0x1 SWAP4 SWAP3 POP POP POP JUMP JUMPDEST PUSH1 0x0 PUSH2 0xA43 PUSH8 0xDE0B6B3A7640000 PUSH2 0xC83 DUP6 DUP6 PUSH4 0xFFFFFFFF PUSH2 0x1009 AND JUMP JUMPDEST SWAP1 PUSH4 0xFFFFFFFF PUSH2 0x1043 AND JUMP JUMPDEST PUSH1 0x0 PUSH2 0xA43 DUP4 DUP4 PUSH1 0x40 MLOAD DUP1 PUSH1 0x40 ADD PUSH1 0x40 MSTORE DUP1 PUSH1 0x1E DUP2 MSTORE PUSH1 0x20 ADD PUSH32 0x536166654D6174683A207375627472616374696F6E206F766572666C6F770000 DUP2 MSTORE POP PUSH2 0x1085 JUMP JUMPDEST CALLER SWAP1 JUMP JUMPDEST PUSH1 0x0 DUP2 PUSH1 0x20 ADD DUP4 MLOAD LT ISZERO PUSH2 0xCFB JUMPI PUSH1 0x40 MLOAD PUSH3 0x461BCD PUSH1 0xE5 SHL DUP2 MSTORE PUSH1 0x4 ADD PUSH2 0x32D SWAP1 PUSH2 0x1CC1 JUMP JUMPDEST POP ADD PUSH1 0x20 ADD MLOAD SWAP1 JUMP JUMPDEST PUSH1 0x0 PUSH2 0xA46 PUSH2 0xD12 DUP4 PUSH2 0x10B1 JUMP JUMPDEST PUSH2 0x1173 JUMP JUMPDEST PUSH1 0x0 DUP4 DUP2 MSTORE PUSH1 0x6 PUSH1 0x20 MSTORE PUSH1 0x40 DUP2 KECCAK256 SLOAD PUSH1 0xFF AND PUSH2 0xD45 JUMPI PUSH1 0x40 MLOAD PUSH3 0x461BCD PUSH1 0xE5 SHL DUP2 MSTORE PUSH1 0x4 ADD PUSH2 0x32D SWAP1 PUSH2 0x1B26 JUMP JUMPDEST PUSH2 0xD4D PUSH2 0x15D9 JUMP JUMPDEST PUSH2 0xD56 DUP5 PUSH2 0x743 JUMP JUMPDEST PUSH2 0x100 DUP6 ADD MLOAD PUSH1 0x1 PUSH1 0x1 PUSH1 0xA0 SHL SUB AND PUSH1 0x0 SWAP1 DUP2 MSTORE PUSH1 0x5 PUSH1 0x20 SWAP1 DUP2 MSTORE PUSH1 0x40 DUP1 DUP4 KECCAK256 PUSH2 0x120 DUP10 ADD MLOAD DUP5 MSTORE SWAP1 SWAP2 MSTORE SWAP1 KECCAK256 SLOAD SWAP1 SWAP2 POP PUSH1 0xFF AND PUSH2 0xDA6 JUMPI PUSH1 0x40 MLOAD PUSH3 0x461BCD PUSH1 0xE5 SHL DUP2 MSTORE PUSH1 0x4 ADD PUSH2 0x32D SWAP1 PUSH2 0x1BEB JUMP JUMPDEST PUSH2 0xDB1 DUP5 DUP3 DUP6 PUSH2 0x1198 JUMP JUMPDEST PUSH2 0xDB9 PUSH2 0x15B8 JUMP JUMPDEST PUSH2 0xDC2 DUP6 PUSH2 0x3CA JUMP JUMPDEST DUP6 MLOAD SWAP1 SWAP2 POP PUSH1 0x1 PUSH1 0x1 PUSH1 0xA0 SHL SUB AND ISZERO PUSH2 0xDDC JUMPI DUP5 MLOAD PUSH2 0xDDE JUMP JUMPDEST CALLER JUMPDEST PUSH1 0x1 PUSH1 0x1 PUSH1 0xA0 SHL SUB SWAP1 DUP2 AND DUP7 MSTORE PUSH1 0x20 DUP7 ADD MLOAD AND ISZERO PUSH2 0xE00 JUMPI DUP5 PUSH1 0x20 ADD MLOAD PUSH2 0xE02 JUMP JUMPDEST CALLER JUMPDEST PUSH1 0x1 PUSH1 0x1 PUSH1 0xA0 SHL SUB AND PUSH1 0x20 DUP7 ADD MSTORE PUSH2 0xE1B DUP6 DUP4 DUP4 PUSH2 0x12AE JUMP JUMPDEST PUSH2 0xE25 DUP6 DUP3 PUSH2 0x1347 JUMP JUMPDEST POP PUSH1 0x1 SWAP6 SWAP5 POP POP POP POP POP JUMP JUMPDEST PUSH1 0x1 DUP2 MLOAD PUSH1 0x7 DUP2 GT ISZERO PUSH2 0xE40 JUMPI INVALID JUMPDEST EQ ISZERO PUSH2 0xE5E JUMPI PUSH1 0x40 MLOAD PUSH3 0x461BCD PUSH1 0xE5 SHL DUP2 MSTORE PUSH1 0x4 ADD PUSH2 0x32D SWAP1 PUSH2 0x1C17 JUMP JUMPDEST PUSH1 0x1 DUP3 PUSH1 0x60 ADD MLOAD EQ ISZERO PUSH2 0xE94 JUMPI DUP2 MLOAD PUSH1 0x1 PUSH1 0x1 PUSH1 0xA0 SHL SUB AND CALLER EQ PUSH2 0xE94 JUMPI PUSH1 0x40 MLOAD PUSH3 0x461BCD PUSH1 0xE5 SHL DUP2 MSTORE PUSH1 0x4 ADD PUSH2 0x32D SWAP1 PUSH2 0x1D82 JUMP JUMPDEST PUSH1 0x2 DUP3 PUSH1 0x60 ADD MLOAD EQ ISZERO PUSH2 0x340 JUMPI PUSH1 0x20 DUP3 ADD MLOAD PUSH1 0x1 PUSH1 0x1 PUSH1 0xA0 SHL SUB AND CALLER EQ PUSH2 0x340 JUMPI PUSH1 0x40 MLOAD PUSH3 0x461BCD PUSH1 0xE5 SHL DUP2 MSTORE PUSH1 0x4 ADD PUSH2 0x32D SWAP1 PUSH2 0x1ADE JUMP JUMPDEST PUSH1 0x20 DUP1 DUP3 ADD MLOAD PUSH1 0x0 SWAP1 DUP2 MSTORE PUSH1 0x8 SWAP1 SWAP2 MSTORE PUSH1 0x40 SWAP1 KECCAK256 DUP1 SLOAD PUSH1 0xFF NOT AND PUSH1 0x1 SWAP1 DUP2 OR SWAP1 SWAP2 SSTORE PUSH2 0x160 DUP4 ADD MLOAD PUSH1 0x1 PUSH1 0x1 PUSH1 0xA0 SHL SUB AND SWAP1 DUP4 PUSH1 0x60 ADD MLOAD EQ PUSH2 0xF13 JUMPI DUP3 PUSH1 0x20 ADD MLOAD PUSH2 0xF16 JUMP JUMPDEST DUP3 MLOAD JUMPDEST PUSH1 0x1 PUSH1 0x1 PUSH1 0xA0 SHL SUB AND DUP3 PUSH1 0x20 ADD MLOAD PUSH32 0x8425FDF5892E47ED0A2F0B7EED7178B11002D8A88E551CF16F0AE90CD105F78 DUP6 PUSH2 0x100 ADD MLOAD DUP7 PUSH2 0x140 ADD MLOAD CALLER PUSH1 0x40 MLOAD PUSH2 0xF61 SWAP4 SWAP3 SWAP2 SWAP1 PUSH2 0x1914 JUMP JUMPDEST PUSH1 0x40 MLOAD DUP1 SWAP2 SUB SWAP1 LOG4 POP POP JUMP JUMPDEST PUSH1 0x20 DUP1 DUP4 ADD DUP1 MLOAD PUSH1 0x0 SWAP1 DUP2 MSTORE PUSH1 0x6 DUP4 MSTORE PUSH1 0x40 DUP1 DUP3 KECCAK256 DUP1 SLOAD PUSH1 0xFF NOT AND PUSH1 0x1 OR SWAP1 SSTORE DUP7 MLOAD PUSH2 0x160 DUP9 ADD MLOAD SWAP4 MLOAD SWAP5 DUP7 ADD MLOAD DUP7 DUP4 ADD MLOAD PUSH2 0x120 DUP11 ADD MLOAD PUSH1 0x80 DUP12 ADD MLOAD PUSH2 0x100 DUP13 ADD MLOAD PUSH2 0x140 DUP14 ADD MLOAD SWAP7 MLOAD PUSH1 0x1 PUSH1 0x1 PUSH1 0xA0 SHL SUB SWAP7 DUP8 AND SWAP11 SWAP10 SWAP1 SWAP7 AND SWAP9 SWAP8 PUSH32 0x537568D4F4557AD1B774356BD1837C13E3D70D2654E1A10E58447D9ED398126 SWAP8 PUSH2 0xFFC SWAP8 CALLER SWAP6 SWAP5 SWAP4 SWAP3 SWAP2 SWAP1 PUSH2 0x1F31 JUMP JUMPDEST PUSH1 0x40 MLOAD DUP1 SWAP2 SUB SWAP1 LOG4 POP POP POP JUMP JUMPDEST PUSH1 0x0 DUP3 PUSH2 0x1018 JUMPI POP PUSH1 0x0 PUSH2 0xA46 JUMP JUMPDEST DUP3 DUP3 MUL DUP3 DUP5 DUP3 DUP2 PUSH2 0x1025 JUMPI INVALID JUMPDEST DIV EQ PUSH2 0xA43 JUMPI PUSH1 0x40 MLOAD PUSH3 0x461BCD PUSH1 0xE5 SHL DUP2 MSTORE PUSH1 0x4 ADD PUSH2 0x32D SWAP1 PUSH2 0x1CE7 JUMP JUMPDEST PUSH1 0x0 PUSH2 0xA43 DUP4 DUP4 PUSH1 0x40 MLOAD DUP1 PUSH1 0x40 ADD PUSH1 0x40 MSTORE DUP1 PUSH1 0x1A DUP2 MSTORE PUSH1 0x20 ADD PUSH32 0x536166654D6174683A206469766973696F6E206279207A65726F000000000000 DUP2 MSTORE POP PUSH2 0x1581 JUMP JUMPDEST PUSH1 0x0 DUP2 DUP5 DUP5 GT ISZERO PUSH2 0x10A9 JUMPI PUSH1 0x40 MLOAD PUSH3 0x461BCD PUSH1 0xE5 SHL DUP2 MSTORE PUSH1 0x4 ADD PUSH2 0x32D SWAP2 SWAP1 PUSH2 0x1A74 JUMP JUMPDEST POP POP POP SWAP1 SUB SWAP1 JUMP JUMPDEST PUSH1 0x0 PUSH1 0x40 MLOAD DUP1 PUSH2 0x120 ADD PUSH1 0x40 MSTORE DUP1 PUSH1 0xE7 DUP2 MSTORE PUSH1 0x20 ADD PUSH2 0x202F PUSH1 0xE7 SWAP2 CODECOPY PUSH1 0x40 MLOAD PUSH1 0x20 ADD PUSH2 0x10DD SWAP2 SWAP1 PUSH2 0x18E4 JUMP JUMPDEST PUSH1 0x40 MLOAD PUSH1 0x20 DUP2 DUP4 SUB SUB DUP2 MSTORE SWAP1 PUSH1 0x40 MSTORE DUP1 MLOAD SWAP1 PUSH1 0x20 ADD KECCAK256 DUP3 PUSH1 0x0 ADD MLOAD DUP4 PUSH1 0x20 ADD MLOAD DUP5 PUSH1 0x40 ADD MLOAD DUP6 PUSH1 0x60 ADD MLOAD DUP7 PUSH1 0x80 ADD MLOAD DUP8 PUSH1 0xA0 ADD MLOAD DUP9 PUSH1 0xC0 ADD MLOAD DUP10 PUSH1 0xE0 ADD MLOAD DUP11 PUSH2 0x100 ADD MLOAD DUP12 PUSH2 0x120 ADD MLOAD DUP13 PUSH2 0x140 ADD MLOAD DUP14 PUSH2 0x160 ADD MLOAD DUP15 PUSH2 0x180 ADD MLOAD PUSH1 0x40 MLOAD PUSH1 0x20 ADD PUSH2 0x1156 SWAP15 SWAP14 SWAP13 SWAP12 SWAP11 SWAP10 SWAP9 SWAP8 SWAP7 SWAP6 SWAP5 SWAP4 SWAP3 SWAP2 SWAP1 PUSH2 0x19C0 JUMP JUMPDEST PUSH1 0x40 MLOAD PUSH1 0x20 DUP2 DUP4 SUB SUB DUP2 MSTORE SWAP1 PUSH1 0x40 MSTORE DUP1 MLOAD SWAP1 PUSH1 0x20 ADD KECCAK256 SWAP1 POP SWAP2 SWAP1 POP JUMP JUMPDEST PUSH1 0x4 SLOAD PUSH1 0x40 MLOAD PUSH2 0x1901 PUSH1 0xF0 SHL DUP2 MSTORE PUSH1 0x2 DUP2 ADD SWAP2 SWAP1 SWAP2 MSTORE PUSH1 0x22 DUP2 ADD SWAP2 SWAP1 SWAP2 MSTORE PUSH1 0x42 SWAP1 KECCAK256 SWAP1 JUMP JUMPDEST PUSH1 0x0 DUP3 MLOAD PUSH1 0x7 DUP2 GT ISZERO PUSH2 0x11A7 JUMPI INVALID JUMPDEST EQ ISZERO PUSH2 0x11C5 JUMPI PUSH1 0x40 MLOAD PUSH3 0x461BCD PUSH1 0xE5 SHL DUP2 MSTORE PUSH1 0x4 ADD PUSH2 0x32D SWAP1 PUSH2 0x1B05 JUMP JUMPDEST PUSH1 0x4 DUP3 MLOAD PUSH1 0x7 DUP2 GT ISZERO PUSH2 0x11D4 JUMPI INVALID JUMPDEST EQ ISZERO PUSH2 0x11F2 JUMPI PUSH1 0x40 MLOAD PUSH3 0x461BCD PUSH1 0xE5 SHL DUP2 MSTORE PUSH1 0x4 ADD PUSH2 0x32D SWAP1 PUSH2 0x1DEF JUMP JUMPDEST PUSH1 0x3 DUP3 MLOAD PUSH1 0x7 DUP2 GT ISZERO PUSH2 0x1201 JUMPI INVALID JUMPDEST EQ ISZERO PUSH2 0x121F JUMPI PUSH1 0x40 MLOAD PUSH3 0x461BCD PUSH1 0xE5 SHL DUP2 MSTORE PUSH1 0x4 ADD PUSH2 0x32D SWAP1 PUSH2 0x1E0F JUMP JUMPDEST PUSH1 0x5 DUP3 MLOAD PUSH1 0x7 DUP2 GT ISZERO PUSH2 0x122E JUMPI INVALID JUMPDEST EQ ISZERO PUSH2 0x124C JUMPI PUSH1 0x40 MLOAD PUSH3 0x461BCD PUSH1 0xE5 SHL DUP2 MSTORE PUSH1 0x4 ADD PUSH2 0x32D SWAP1 PUSH2 0x1BC8 JUMP JUMPDEST PUSH1 0x1 DUP3 MLOAD PUSH1 0x7 DUP2 GT ISZERO PUSH2 0x125B JUMPI INVALID JUMPDEST EQ ISZERO PUSH2 0x1279 JUMPI PUSH1 0x40 MLOAD PUSH3 0x461BCD PUSH1 0xE5 SHL DUP2 MSTORE PUSH1 0x4 ADD PUSH2 0x32D SWAP1 PUSH2 0x1C17 JUMP JUMPDEST PUSH1 0x2 DUP3 MLOAD PUSH1 0x7 DUP2 GT ISZERO PUSH2 0x1288 JUMPI INVALID JUMPDEST EQ PUSH2 0x12A5 JUMPI PUSH1 0x40 MLOAD PUSH3 0x461BCD PUSH1 0xE5 SHL DUP2 MSTORE PUSH1 0x4 ADD PUSH2 0x32D SWAP1 PUSH2 0x1E67 JUMP JUMPDEST PUSH1 0x2 JUMPDEST POP POP POP POP JUMP JUMPDEST PUSH1 0x20 DUP1 DUP4 ADD DUP1 MLOAD PUSH1 0x0 SWAP1 DUP2 MSTORE PUSH1 0x7 DUP4 MSTORE PUSH1 0x40 SWAP1 DUP2 SWAP1 KECCAK256 DUP1 SLOAD PUSH1 0xFF NOT AND PUSH1 0x1 OR SWAP1 SSTORE DUP6 MLOAD PUSH2 0x160 DUP8 ADD MLOAD SWAP3 MLOAD DUP6 DUP6 ADD MLOAD DUP7 DUP5 ADD MLOAD PUSH2 0x120 DUP11 ADD MLOAD PUSH1 0x80 DUP12 ADD MLOAD PUSH2 0x100 DUP13 ADD MLOAD DUP11 MLOAD SWAP10 DUP14 ADD MLOAD PUSH2 0x140 DUP15 ADD MLOAD SWAP9 MLOAD PUSH1 0x1 PUSH1 0x1 PUSH1 0xA0 SHL SUB SWAP9 DUP10 AND SWAP12 SWAP11 SWAP1 SWAP9 AND SWAP10 SWAP7 SWAP9 PUSH32 0xA246499DA7279E3D5878AD549256043FEED07FC6FD059B1245DB41017BF8CBB8 SWAP9 PUSH2 0xFFC SWAP9 CALLER SWAP7 SWAP6 SWAP5 SWAP4 SWAP1 SWAP3 SWAP1 SWAP2 PUSH2 0x1F77 JUMP JUMPDEST PUSH2 0x140 DUP3 ADD MLOAD PUSH1 0x20 DUP4 ADD MLOAD DUP4 MLOAD DUP4 MLOAD PUSH1 0x40 MLOAD PUSH4 0x23B872DD PUSH1 0xE0 SHL DUP2 MSTORE PUSH1 0x1 PUSH1 0x1 PUSH1 0xA0 SHL SUB SWAP1 SWAP5 AND SWAP4 PUSH4 0x23B872DD SWAP4 PUSH2 0x1385 SWAP4 SWAP1 SWAP3 SWAP1 SWAP2 PUSH1 0x4 ADD PUSH2 0x1937 JUMP JUMPDEST PUSH1 0x20 PUSH1 0x40 MLOAD DUP1 DUP4 SUB DUP2 PUSH1 0x0 DUP8 DUP1 EXTCODESIZE ISZERO DUP1 ISZERO PUSH2 0x139F JUMPI PUSH1 0x0 DUP1 REVERT JUMPDEST POP GAS CALL ISZERO DUP1 ISZERO PUSH2 0x13B3 JUMPI RETURNDATASIZE PUSH1 0x0 DUP1 RETURNDATACOPY RETURNDATASIZE PUSH1 0x0 REVERT JUMPDEST POP POP POP POP PUSH1 0x40 MLOAD RETURNDATASIZE PUSH1 0x1F NOT PUSH1 0x1F DUP3 ADD AND DUP3 ADD DUP1 PUSH1 0x40 MSTORE POP DUP2 ADD SWAP1 PUSH2 0x13D7 SWAP2 SWAP1 PUSH2 0x178E JUMP JUMPDEST POP DUP2 PUSH2 0x140 ADD MLOAD PUSH1 0x1 PUSH1 0x1 PUSH1 0xA0 SHL SUB AND PUSH4 0x23B872DD DUP4 PUSH1 0x20 ADD MLOAD DUP5 PUSH2 0x160 ADD MLOAD DUP5 PUSH1 0x20 ADD MLOAD PUSH1 0x40 MLOAD DUP5 PUSH4 0xFFFFFFFF AND PUSH1 0xE0 SHL DUP2 MSTORE PUSH1 0x4 ADD PUSH2 0x141A SWAP4 SWAP3 SWAP2 SWAP1 PUSH2 0x1937 JUMP JUMPDEST PUSH1 0x20 PUSH1 0x40 MLOAD DUP1 DUP4 SUB DUP2 PUSH1 0x0 DUP8 DUP1 EXTCODESIZE ISZERO DUP1 ISZERO PUSH2 0x1434 JUMPI PUSH1 0x0 DUP1 REVERT JUMPDEST POP GAS CALL ISZERO DUP1 ISZERO PUSH2 0x1448 JUMPI RETURNDATASIZE PUSH1 0x0 DUP1 RETURNDATACOPY RETURNDATASIZE PUSH1 0x0 REVERT JUMPDEST POP POP POP POP PUSH1 0x40 MLOAD RETURNDATASIZE PUSH1 0x1F NOT PUSH1 0x1F DUP3 ADD AND DUP3 ADD DUP1 PUSH1 0x40 MSTORE POP DUP2 ADD SWAP1 PUSH2 0x146C SWAP2 SWAP1 PUSH2 0x178E JUMP JUMPDEST POP PUSH2 0x140 DUP3 ADD MLOAD PUSH1 0x20 DUP4 ADD MLOAD PUSH1 0xA SLOAD PUSH1 0x40 DUP1 DUP6 ADD MLOAD SWAP1 MLOAD PUSH4 0x23B872DD PUSH1 0xE0 SHL DUP2 MSTORE PUSH1 0x1 PUSH1 0x1 PUSH1 0xA0 SHL SUB SWAP5 DUP6 AND SWAP5 PUSH4 0x23B872DD SWAP5 PUSH2 0x14B0 SWAP5 SWAP1 SWAP4 SWAP2 AND SWAP2 PUSH1 0x4 ADD PUSH2 0x1937 JUMP JUMPDEST PUSH1 0x20 PUSH1 0x40 MLOAD DUP1 DUP4 SUB DUP2 PUSH1 0x0 DUP8 DUP1 EXTCODESIZE ISZERO DUP1 ISZERO PUSH2 0x14CA JUMPI PUSH1 0x0 DUP1 REVERT JUMPDEST POP GAS CALL ISZERO DUP1 ISZERO PUSH2 0x14DE JUMPI RETURNDATASIZE PUSH1 0x0 DUP1 RETURNDATACOPY RETURNDATASIZE PUSH1 0x0 REVERT JUMPDEST POP POP POP POP PUSH1 0x40 MLOAD RETURNDATASIZE PUSH1 0x1F NOT PUSH1 0x1F DUP3 ADD AND DUP3 ADD DUP1 PUSH1 0x40 MSTORE POP DUP2 ADD SWAP1 PUSH2 0x1502 SWAP2 SWAP1 PUSH2 0x178E JUMP JUMPDEST POP DUP2 PUSH2 0x100 ADD MLOAD PUSH1 0x1 PUSH1 0x1 PUSH1 0xA0 SHL SUB AND PUSH4 0xF242432A DUP4 PUSH1 0x0 ADD MLOAD DUP5 PUSH1 0x20 ADD MLOAD DUP6 PUSH2 0x120 ADD MLOAD DUP7 PUSH1 0x80 ADD MLOAD PUSH1 0x40 MLOAD DUP6 PUSH4 0xFFFFFFFF AND PUSH1 0xE0 SHL DUP2 MSTORE PUSH1 0x4 ADD PUSH2 0x154B SWAP5 SWAP4 SWAP3 SWAP2 SWAP1 PUSH2 0x195B JUMP JUMPDEST PUSH1 0x0 PUSH1 0x40 MLOAD DUP1 DUP4 SUB DUP2 PUSH1 0x0 DUP8 DUP1 EXTCODESIZE ISZERO DUP1 ISZERO PUSH2 0x1565 JUMPI PUSH1 0x0 DUP1 REVERT JUMPDEST POP GAS CALL ISZERO DUP1 ISZERO PUSH2 0x1579 JUMPI RETURNDATASIZE PUSH1 0x0 DUP1 RETURNDATACOPY RETURNDATASIZE PUSH1 0x0 REVERT JUMPDEST POP POP POP POP POP POP JUMP JUMPDEST PUSH1 0x0 DUP2 DUP4 PUSH2 0x15A2 JUMPI PUSH1 0x40 MLOAD PUSH3 0x461BCD PUSH1 0xE5 SHL DUP2 MSTORE PUSH1 0x4 ADD PUSH2 0x32D SWAP2 SWAP1 PUSH2 0x1A74 JUMP JUMPDEST POP PUSH1 0x0 DUP4 DUP6 DUP2 PUSH2 0x15AE JUMPI INVALID JUMPDEST DIV SWAP6 SWAP5 POP POP POP POP POP JUMP JUMPDEST PUSH1 0x40 MLOAD DUP1 PUSH1 0x60 ADD PUSH1 0x40 MSTORE DUP1 PUSH1 0x0 DUP2 MSTORE PUSH1 0x20 ADD PUSH1 0x0 DUP2 MSTORE PUSH1 0x20 ADD PUSH1 0x0 DUP2 MSTORE POP SWAP1 JUMP JUMPDEST PUSH1 0x40 DUP1 MLOAD PUSH1 0x60 DUP2 ADD SWAP1 SWAP2 MSTORE DUP1 PUSH1 0x0 DUP2 MSTORE PUSH1 0x0 PUSH1 0x20 DUP3 ADD DUP2 SWAP1 MSTORE PUSH1 0x40 SWAP1 SWAP2 ADD MSTORE SWAP1 JUMP JUMPDEST DUP1 CALLDATALOAD PUSH2 0xA46 DUP2 PUSH2 0x2016 JUMP JUMPDEST PUSH1 0x0 DUP3 PUSH1 0x1F DUP4 ADD SLT PUSH2 0x1616 JUMPI DUP1 DUP2 REVERT JUMPDEST DUP2 CALLDATALOAD PUSH8 0xFFFFFFFFFFFFFFFF DUP2 GT ISZERO PUSH2 0x162C JUMPI DUP2 DUP3 REVERT JUMPDEST PUSH2 0x163F PUSH1 0x1F DUP3 ADD PUSH1 0x1F NOT AND PUSH1 0x20 ADD PUSH2 0x1FC3 JUMP JUMPDEST SWAP2 POP DUP1 DUP3 MSTORE DUP4 PUSH1 0x20 DUP3 DUP6 ADD ADD GT ISZERO PUSH2 0x1656 JUMPI PUSH1 0x0 DUP1 REVERT JUMPDEST DUP1 PUSH1 0x20 DUP5 ADD PUSH1 0x20 DUP5 ADD CALLDATACOPY PUSH1 0x0 SWAP1 DUP3 ADD PUSH1 0x20 ADD MSTORE SWAP3 SWAP2 POP POP JUMP JUMPDEST PUSH1 0x0 PUSH2 0x1A0 DUP1 DUP4 DUP6 SUB SLT ISZERO PUSH2 0x1682 JUMPI DUP2 DUP3 REVERT JUMPDEST PUSH2 0x168B DUP2 PUSH2 0x1FC3 JUMP JUMPDEST SWAP2 POP POP PUSH2 0x1698 DUP4 DUP4 PUSH2 0x15FB JUMP JUMPDEST DUP2 MSTORE PUSH2 0x16A7 DUP4 PUSH1 0x20 DUP5 ADD PUSH2 0x15FB JUMP JUMPDEST PUSH1 0x20 DUP3 ADD MSTORE PUSH2 0x16B9 DUP4 PUSH1 0x40 DUP5 ADD PUSH2 0x15FB JUMP JUMPDEST PUSH1 0x40 DUP3 ADD MSTORE PUSH1 0x60 DUP3 ADD CALLDATALOAD PUSH1 0x60 DUP3 ADD MSTORE PUSH1 0x80 DUP3 ADD CALLDATALOAD PUSH1 0x80 DUP3 ADD MSTORE PUSH1 0xA0 DUP3 ADD CALLDATALOAD PUSH1 0xA0 DUP3 ADD MSTORE PUSH1 0xC0 DUP3 ADD CALLDATALOAD PUSH1 0xC0 DUP3 ADD MSTORE PUSH1 0xE0 DUP3 ADD CALLDATALOAD PUSH1 0xE0 DUP3 ADD MSTORE PUSH2 0x100 PUSH2 0x16FF DUP5 DUP3 DUP6 ADD PUSH2 0x15FB JUMP JUMPDEST SWAP1 DUP3 ADD MSTORE PUSH2 0x120 DUP3 DUP2 ADD CALLDATALOAD SWAP1 DUP3 ADD MSTORE PUSH2 0x140 PUSH2 0x171D DUP5 DUP3 DUP6 ADD PUSH2 0x15FB JUMP JUMPDEST SWAP1 DUP3 ADD MSTORE PUSH2 0x160 PUSH2 0x1730 DUP5 DUP5 DUP4 ADD PUSH2 0x15FB JUMP JUMPDEST DUP2 DUP4 ADD MSTORE POP PUSH2 0x180 DUP1 DUP4 ADD CALLDATALOAD DUP2 DUP4 ADD MSTORE POP SWAP3 SWAP2 POP POP JUMP JUMPDEST PUSH1 0x0 PUSH1 0x20 DUP3 DUP5 SUB SLT ISZERO PUSH2 0x1758 JUMPI DUP1 DUP2 REVERT JUMPDEST DUP2 CALLDATALOAD PUSH2 0xA43 DUP2 PUSH2 0x2016 JUMP JUMPDEST PUSH1 0x0 DUP1 PUSH1 0x40 DUP4 DUP6 SUB SLT ISZERO PUSH2 0x1775 JUMPI DUP1 DUP2 REVERT JUMPDEST DUP3 CALLDATALOAD PUSH2 0x1780 DUP2 PUSH2 0x2016 JUMP JUMPDEST SWAP5 PUSH1 0x20 SWAP4 SWAP1 SWAP4 ADD CALLDATALOAD SWAP4 POP POP POP JUMP JUMPDEST PUSH1 0x0 PUSH1 0x20 DUP3 DUP5 SUB SLT ISZERO PUSH2 0x179F JUMPI DUP1 DUP2 REVERT JUMPDEST DUP2 MLOAD DUP1 ISZERO ISZERO DUP2 EQ PUSH2 0xA43 JUMPI DUP2 DUP3 REVERT JUMPDEST PUSH1 0x0 PUSH1 0x20 DUP3 DUP5 SUB SLT ISZERO PUSH2 0x17BF JUMPI DUP1 DUP2 REVERT JUMPDEST POP CALLDATALOAD SWAP2 SWAP1 POP JUMP JUMPDEST PUSH1 0x0 DUP1 PUSH1 0x0 PUSH1 0x60 DUP5 DUP7 SUB SLT ISZERO PUSH2 0x17DA JUMPI DUP1 DUP2 REVERT JUMPDEST DUP4 CALLDATALOAD SWAP3 POP PUSH1 0x20 DUP5 ADD CALLDATALOAD PUSH2 0x17EC DUP2 PUSH2 0x2016 JUMP JUMPDEST SWAP2 POP PUSH1 0x40 DUP5 ADD CALLDATALOAD PUSH8 0xFFFFFFFFFFFFFFFF DUP2 GT ISZERO PUSH2 0x1807 JUMPI DUP2 DUP3 REVERT JUMPDEST PUSH2 0x1813 DUP7 DUP3 DUP8 ADD PUSH2 0x1606 JUMP JUMPDEST SWAP2 POP POP SWAP3 POP SWAP3 POP SWAP3 JUMP JUMPDEST PUSH1 0x0 DUP1 PUSH2 0x1C0 DUP4 DUP6 SUB SLT ISZERO PUSH2 0x1830 JUMPI DUP2 DUP3 REVERT JUMPDEST DUP3 CALLDATALOAD SWAP2 POP PUSH2 0x1841 DUP5 PUSH1 0x20 DUP6 ADD PUSH2 0x166F JUMP JUMPDEST SWAP1 POP SWAP3 POP SWAP3 SWAP1 POP JUMP JUMPDEST PUSH1 0x0 DUP1 PUSH1 0x0 PUSH2 0x1E0 DUP5 DUP7 SUB SLT ISZERO PUSH2 0x185F JUMPI DUP3 DUP4 REVERT JUMPDEST DUP4 CALLDATALOAD SWAP3 POP PUSH2 0x1870 DUP6 PUSH1 0x20 DUP7 ADD PUSH2 0x166F JUMP JUMPDEST SWAP2 POP PUSH2 0x1C0 DUP5 ADD CALLDATALOAD PUSH8 0xFFFFFFFFFFFFFFFF DUP2 GT ISZERO PUSH2 0x1807 JUMPI DUP2 DUP3 REVERT JUMPDEST PUSH1 0x0 PUSH2 0x1A0 DUP3 DUP5 SUB SLT ISZERO PUSH2 0x189E JUMPI DUP1 DUP2 REVERT JUMPDEST PUSH2 0xA43 DUP4 DUP4 PUSH2 0x166F JUMP JUMPDEST PUSH1 0x0 DUP1 PUSH1 0x40 DUP4 DUP6 SUB SLT ISZERO PUSH2 0x18BA JUMPI DUP2 DUP3 REVERT JUMPDEST DUP3 CALLDATALOAD SWAP2 POP PUSH1 0x20 DUP4 ADD CALLDATALOAD PUSH2 0x18CC DUP2 PUSH2 0x2016 JUMP JUMPDEST DUP1 SWAP2 POP POP SWAP3 POP SWAP3 SWAP1 POP JUMP JUMPDEST PUSH1 0x1 PUSH1 0x1 PUSH1 0xA0 SHL SUB AND SWAP1 MSTORE JUMP JUMPDEST PUSH1 0x0 DUP3 MLOAD PUSH2 0x18F6 DUP2 DUP5 PUSH1 0x20 DUP8 ADD PUSH2 0x1FEA JUMP JUMPDEST SWAP2 SWAP1 SWAP2 ADD SWAP3 SWAP2 POP POP JUMP JUMPDEST PUSH1 0x1 PUSH1 0x1 PUSH1 0xA0 SHL SUB SWAP2 SWAP1 SWAP2 AND DUP2 MSTORE PUSH1 0x20 ADD SWAP1 JUMP JUMPDEST PUSH1 0x1 PUSH1 0x1 PUSH1 0xA0 SHL SUB SWAP4 DUP5 AND DUP2 MSTORE SWAP2 DUP4 AND PUSH1 0x20 DUP4 ADD MSTORE SWAP1 SWAP2 AND PUSH1 0x40 DUP3 ADD MSTORE PUSH1 0x60 ADD SWAP1 JUMP JUMPDEST PUSH1 0x1 PUSH1 0x1 PUSH1 0xA0 SHL SUB SWAP4 DUP5 AND DUP2 MSTORE SWAP2 SWAP1 SWAP3 AND PUSH1 0x20 DUP3 ADD MSTORE PUSH1 0x40 DUP2 ADD SWAP2 SWAP1 SWAP2 MSTORE PUSH1 0x60 ADD SWAP1 JUMP JUMPDEST PUSH1 0x1 PUSH1 0x1 PUSH1 0xA0 SHL SUB SWAP5 DUP6 AND DUP2 MSTORE SWAP3 SWAP1 SWAP4 AND PUSH1 0x20 DUP4 ADD MSTORE PUSH1 0x40 DUP3 ADD MSTORE PUSH1 0x60 DUP2 ADD SWAP2 SWAP1 SWAP2 MSTORE PUSH1 0xA0 PUSH1 0x80 DUP3 ADD DUP2 SWAP1 MSTORE PUSH1 0x0 SWAP1 DUP3 ADD MSTORE PUSH1 0xC0 ADD SWAP1 JUMP JUMPDEST PUSH1 0x1 PUSH1 0x1 PUSH1 0xA0 SHL SUB SWAP3 SWAP1 SWAP3 AND DUP3 MSTORE PUSH1 0x20 DUP3 ADD MSTORE PUSH1 0x40 ADD SWAP1 JUMP JUMPDEST SWAP1 ISZERO ISZERO DUP2 MSTORE PUSH1 0x20 ADD SWAP1 JUMP JUMPDEST SWAP1 DUP2 MSTORE PUSH1 0x20 ADD SWAP1 JUMP JUMPDEST DUP15 DUP2 MSTORE PUSH1 0x1 PUSH1 0x1 PUSH1 0xA0 SHL SUB DUP15 DUP2 AND PUSH1 0x20 DUP4 ADD MSTORE DUP14 DUP2 AND PUSH1 0x40 DUP4 ADD MSTORE DUP13 AND PUSH1 0x60 DUP3 ADD MSTORE PUSH1 0x80 DUP2 ADD DUP12 SWAP1 MSTORE PUSH1 0xA0 DUP2 ADD DUP11 SWAP1 MSTORE PUSH1 0xC0 DUP2 ADD DUP10 SWAP1 MSTORE PUSH1 0xE0 DUP2 ADD DUP9 SWAP1 MSTORE PUSH2 0x100 DUP2 ADD DUP8 SWAP1 MSTORE PUSH2 0x1C0 DUP2 ADD PUSH2 0x1A19 PUSH2 0x120 DUP4 ADD DUP9 PUSH2 0x18D7 JUMP JUMPDEST DUP6 PUSH2 0x140 DUP4 ADD MSTORE PUSH2 0x1A2E PUSH2 0x160 DUP4 ADD DUP7 PUSH2 0x18D7 JUMP JUMPDEST PUSH2 0x1A3C PUSH2 0x180 DUP4 ADD DUP6 PUSH2 0x18D7 JUMP JUMPDEST DUP3 PUSH2 0x1A0 DUP4 ADD MSTORE SWAP16 SWAP15 POP POP POP POP POP POP POP POP POP POP POP POP POP POP POP JUMP JUMPDEST SWAP4 DUP5 MSTORE PUSH1 0xFF SWAP3 SWAP1 SWAP3 AND PUSH1 0x20 DUP5 ADD MSTORE PUSH1 0x40 DUP4 ADD MSTORE PUSH1 0x60 DUP3 ADD MSTORE PUSH1 0x80 ADD SWAP1 JUMP JUMPDEST PUSH1 0x0 PUSH1 0x20 DUP3 MSTORE DUP3 MLOAD DUP1 PUSH1 0x20 DUP5 ADD MSTORE PUSH2 0x1A93 DUP2 PUSH1 0x40 DUP6 ADD PUSH1 0x20 DUP8 ADD PUSH2 0x1FEA JUMP JUMPDEST PUSH1 0x1F ADD PUSH1 0x1F NOT AND SWAP2 SWAP1 SWAP2 ADD PUSH1 0x40 ADD SWAP3 SWAP2 POP POP JUMP JUMPDEST PUSH1 0x20 DUP1 DUP3 MSTORE PUSH1 0x19 SWAP1 DUP3 ADD MSTORE PUSH32 0x57726F6E67206C656E677468206F66207369676E617475726500000000000000 PUSH1 0x40 DUP3 ADD MSTORE PUSH1 0x60 ADD SWAP1 JUMP JUMPDEST PUSH1 0x20 DUP1 DUP3 MSTORE PUSH1 0xD SWAP1 DUP3 ADD MSTORE PUSH13 0x24A72B20A624A22FAA20A5A2A9 PUSH1 0x99 SHL PUSH1 0x40 DUP3 ADD MSTORE PUSH1 0x60 ADD SWAP1 JUMP JUMPDEST PUSH1 0x20 DUP1 DUP3 MSTORE PUSH1 0x7 SWAP1 DUP3 ADD MSTORE PUSH7 0x12539590531251 PUSH1 0xCA SHL PUSH1 0x40 DUP3 ADD MSTORE PUSH1 0x60 ADD SWAP1 JUMP JUMPDEST PUSH1 0x20 DUP1 DUP3 MSTORE PUSH1 0xB SWAP1 DUP3 ADD MSTORE PUSH11 0x139BDD0818DC99585D1959 PUSH1 0xAA SHL PUSH1 0x40 DUP3 ADD MSTORE PUSH1 0x60 ADD SWAP1 JUMP JUMPDEST PUSH1 0x20 DUP1 DUP3 MSTORE PUSH1 0x26 SWAP1 DUP3 ADD MSTORE PUSH32 0x4F776E61626C653A206E6577206F776E657220697320746865207A65726F2061 PUSH1 0x40 DUP3 ADD MSTORE PUSH6 0x646472657373 PUSH1 0xD0 SHL PUSH1 0x60 DUP3 ADD MSTORE PUSH1 0x80 ADD SWAP1 JUMP JUMPDEST PUSH1 0x20 DUP1 DUP3 MSTORE PUSH1 0x1B SWAP1 DUP3 ADD MSTORE PUSH32 0x536166654D6174683A206164646974696F6E206F766572666C6F770000000000 PUSH1 0x40 DUP3 ADD MSTORE PUSH1 0x60 ADD SWAP1 JUMP JUMPDEST PUSH1 0x20 DUP1 DUP3 MSTORE PUSH1 0x9 SWAP1 DUP3 ADD MSTORE PUSH9 0x10D05390D153131151 PUSH1 0xBA SHL PUSH1 0x40 DUP3 ADD MSTORE PUSH1 0x60 ADD SWAP1 JUMP JUMPDEST PUSH1 0x20 DUP1 DUP3 MSTORE PUSH1 0x12 SWAP1 DUP3 ADD MSTORE PUSH18 0x4E6674206964206E6F74206F6E2073616C65 PUSH1 0x70 SHL PUSH1 0x40 DUP3 ADD MSTORE PUSH1 0x60 ADD SWAP1 JUMP JUMPDEST PUSH1 0x20 DUP1 DUP3 MSTORE PUSH1 0x10 SWAP1 DUP3 ADD MSTORE PUSH16 0x24A72B20A624A22FA7A822A920AA27A9 PUSH1 0x81 SHL PUSH1 0x40 DUP3 ADD MSTORE PUSH1 0x60 ADD SWAP1 JUMP JUMPDEST PUSH1 0x20 DUP1 DUP3 MSTORE PUSH1 0xE SWAP1 DUP3 ADD MSTORE PUSH14 0x657863656564206D617820666565 PUSH1 0x90 SHL PUSH1 0x40 DUP3 ADD MSTORE PUSH1 0x60 ADD SWAP1 JUMP JUMPDEST PUSH1 0x20 DUP1 DUP3 MSTORE PUSH1 0x10 SWAP1 DUP3 ADD MSTORE PUSH16 0x14185D5CD8589B194E881C185D5CD959 PUSH1 0x82 SHL PUSH1 0x40 DUP3 ADD MSTORE PUSH1 0x60 ADD SWAP1 JUMP JUMPDEST PUSH1 0x20 DUP1 DUP3 MSTORE PUSH1 0x14 SWAP1 DUP3 ADD MSTORE PUSH20 0x57726F6E67207369676E65722061646472657373 PUSH1 0x60 SHL PUSH1 0x40 DUP3 ADD MSTORE PUSH1 0x60 ADD SWAP1 JUMP JUMPDEST PUSH1 0x20 DUP1 DUP3 MSTORE PUSH1 0xC SWAP1 DUP3 ADD MSTORE PUSH12 0xAEE4DEDCCE40D8CADCCEE8D PUSH1 0xA3 SHL PUSH1 0x40 DUP3 ADD MSTORE PUSH1 0x60 ADD SWAP1 JUMP JUMPDEST PUSH1 0x20 DUP1 DUP3 MSTORE PUSH1 0x21 SWAP1 DUP3 ADD MSTORE PUSH32 0x536166654D6174683A206D756C7469706C69636174696F6E206F766572666C6F PUSH1 0x40 DUP3 ADD MSTORE PUSH1 0x77 PUSH1 0xF8 SHL PUSH1 0x60 DUP3 ADD MSTORE PUSH1 0x80 ADD SWAP1 JUMP JUMPDEST PUSH1 0x20 DUP1 DUP3 MSTORE PUSH1 0xB SWAP1 DUP3 ADD MSTORE PUSH11 0x34B71031B7B7B63237BBB7 PUSH1 0xA9 SHL PUSH1 0x40 DUP3 ADD MSTORE PUSH1 0x60 ADD SWAP1 JUMP JUMPDEST PUSH1 0x20 DUP1 DUP3 MSTORE DUP2 DUP2 ADD MSTORE PUSH32 0x4F776E61626C653A2063616C6C6572206973206E6F7420746865206F776E6572 PUSH1 0x40 DUP3 ADD MSTORE PUSH1 0x60 ADD SWAP1 JUMP JUMPDEST PUSH1 0x20 DUP1 DUP3 MSTORE PUSH1 0xD SWAP1 DUP3 ADD MSTORE PUSH13 0x24A72B20A624A22FA7ABA722A9 PUSH1 0x99 SHL PUSH1 0x40 DUP3 ADD MSTORE PUSH1 0x60 ADD SWAP1 JUMP JUMPDEST PUSH1 0x20 DUP1 DUP3 MSTORE PUSH1 0xB SWAP1 DUP3 ADD MSTORE PUSH11 0x12185CC818DC99585D1959 PUSH1 0xAA SHL PUSH1 0x40 DUP3 ADD MSTORE PUSH1 0x60 ADD SWAP1 JUMP JUMPDEST PUSH1 0x20 DUP1 DUP3 MSTORE PUSH1 0x7 SWAP1 DUP3 ADD MSTORE PUSH7 0x2BB937B733902B PUSH1 0xC9 SHL PUSH1 0x40 DUP3 ADD MSTORE PUSH1 0x60 ADD SWAP1 JUMP JUMPDEST PUSH1 0x20 DUP1 DUP3 MSTORE PUSH1 0x6 SWAP1 DUP3 ADD MSTORE PUSH6 0x119253131151 PUSH1 0xD2 SHL PUSH1 0x40 DUP3 ADD MSTORE PUSH1 0x60 ADD SWAP1 JUMP JUMPDEST PUSH1 0x20 DUP1 DUP3 MSTORE PUSH1 0x7 SWAP1 DUP3 ADD MSTORE PUSH7 0x11561412549151 PUSH1 0xCA SHL PUSH1 0x40 DUP3 ADD MSTORE PUSH1 0x60 ADD SWAP1 JUMP JUMPDEST PUSH1 0x20 DUP1 DUP3 MSTORE PUSH1 0x1E SWAP1 DUP3 ADD MSTORE PUSH32 0x4E667420696420686173206F6E20656E676C6973682065786368616E67650000 PUSH1 0x40 DUP3 ADD MSTORE PUSH1 0x60 ADD SWAP1 JUMP JUMPDEST PUSH1 0x20 DUP1 DUP3 MSTORE PUSH1 0x10 SWAP1 DUP3 ADD MSTORE PUSH16 0x4F524445525F554E46494C4C41424C45 PUSH1 0x80 SHL PUSH1 0x40 DUP3 ADD MSTORE PUSH1 0x60 ADD SWAP1 JUMP JUMPDEST PUSH1 0x20 DUP1 DUP3 MSTORE PUSH1 0x1F SWAP1 DUP3 ADD MSTORE PUSH32 0x5265656E7472616E637947756172643A207265656E7472616E742063616C6C00 PUSH1 0x40 DUP3 ADD MSTORE PUSH1 0x60 ADD SWAP1 JUMP JUMPDEST DUP2 MLOAD DUP2 MSTORE PUSH1 0x20 DUP1 DUP4 ADD MLOAD SWAP1 DUP3 ADD MSTORE PUSH1 0x40 SWAP2 DUP3 ADD MLOAD SWAP2 DUP2 ADD SWAP2 SWAP1 SWAP2 MSTORE PUSH1 0x60 ADD SWAP1 JUMP JUMPDEST DUP2 MLOAD PUSH1 0x60 DUP3 ADD SWAP1 PUSH1 0x8 DUP2 LT PUSH2 0x1EFA JUMPI INVALID JUMPDEST DUP1 DUP4 MSTORE POP PUSH1 0x20 DUP4 ADD MLOAD PUSH1 0x20 DUP4 ADD MSTORE PUSH1 0x40 DUP4 ADD MLOAD ISZERO ISZERO PUSH1 0x40 DUP4 ADD MSTORE SWAP3 SWAP2 POP POP JUMP JUMPDEST SWAP2 DUP3 MSTORE PUSH1 0x1 PUSH1 0x1 PUSH1 0xA0 SHL SUB AND PUSH1 0x20 DUP3 ADD MSTORE PUSH1 0x40 ADD SWAP1 JUMP JUMPDEST SWAP8 DUP9 MSTORE PUSH1 0x20 DUP9 ADD SWAP7 SWAP1 SWAP7 MSTORE PUSH1 0x1 PUSH1 0x1 PUSH1 0xA0 SHL SUB SWAP5 DUP6 AND PUSH1 0x40 DUP9 ADD MSTORE PUSH1 0x60 DUP8 ADD SWAP4 SWAP1 SWAP4 MSTORE PUSH1 0x80 DUP7 ADD SWAP2 SWAP1 SWAP2 MSTORE DUP3 AND PUSH1 0xA0 DUP6 ADD MSTORE DUP2 AND PUSH1 0xC0 DUP5 ADD MSTORE AND PUSH1 0xE0 DUP3 ADD MSTORE PUSH2 0x100 ADD SWAP1 JUMP JUMPDEST SWAP9 DUP10 MSTORE PUSH1 0x20 DUP10 ADD SWAP8 SWAP1 SWAP8 MSTORE PUSH1 0x1 PUSH1 0x1 PUSH1 0xA0 SHL SUB SWAP6 DUP7 AND PUSH1 0x40 DUP10 ADD MSTORE PUSH1 0x60 DUP9 ADD SWAP5 SWAP1 SWAP5 MSTORE PUSH1 0x80 DUP8 ADD SWAP3 SWAP1 SWAP3 MSTORE DUP4 AND PUSH1 0xA0 DUP7 ADD MSTORE PUSH1 0xC0 DUP6 ADD MSTORE DUP2 AND PUSH1 0xE0 DUP5 ADD MSTORE AND PUSH2 0x100 DUP3 ADD MSTORE PUSH2 0x120 ADD SWAP1 JUMP JUMPDEST PUSH1 0x40 MLOAD DUP2 DUP2 ADD PUSH8 0xFFFFFFFFFFFFFFFF DUP2 GT DUP3 DUP3 LT OR ISZERO PUSH2 0x1FE2 JUMPI PUSH1 0x0 DUP1 REVERT JUMPDEST PUSH1 0x40 MSTORE SWAP2 SWAP1 POP JUMP JUMPDEST PUSH1 0x0 JUMPDEST DUP4 DUP2 LT ISZERO PUSH2 0x2005 JUMPI DUP2 DUP2 ADD MLOAD DUP4 DUP3 ADD MSTORE PUSH1 0x20 ADD PUSH2 0x1FED JUMP JUMPDEST DUP4 DUP2 GT ISZERO PUSH2 0x12A8 JUMPI POP POP PUSH1 0x0 SWAP2 ADD MSTORE JUMP JUMPDEST PUSH1 0x1 PUSH1 0x1 PUSH1 0xA0 SHL SUB DUP2 AND DUP2 EQ PUSH2 0x202B JUMPI PUSH1 0x0 DUP1 REVERT JUMPDEST POP JUMP INVALID 0x4F PUSH19 0x6465722861646472657373206F776E65722C61 PUSH5 0x6472657373 KECCAK256 PUSH21 0x616B65722C61646472657373206F70657261746F72 0x2C PUSH22 0x696E74323536206F72646572547970652C75696E7432 CALLDATALOAD CALLDATASIZE KECCAK256 PUSH2 0x6D6F PUSH22 0x6E742C75696E7432353620737461727450726963652C PUSH22 0x696E7432353620656E6454696D652C75696E74323536 KECCAK256 PUSH20 0x616C742C61646472657373206173736574416464 PUSH19 0x6573732C75696E743235362069642C61646472 PUSH6 0x737320637572 PUSH19 0x656E6379416464726573732C61646472657373 KECCAK256 PUSH7 0x65655265636970 PUSH10 0x656E742C75696E743235 CALLDATASIZE KECCAK256 PUSH7 0x65655065726365 PUSH15 0x7461676529A2646970667358221220 CREATE2 SWAP15 MLOAD SWAP14 0xD7 DUP16 0xF PUSH12 0xE93F8FB28B80C5437DA00B0 BALANCE 0xCB PUSH7 0x60ED12DC9EDF03 0xDB DUP10 PUSH5 0x736F6C6343 STOP MOD MULMOD STOP CALLER "
		},
		"gasEstimates": {
			"creation": {
				"codeDepositCost": "1704600",
				"executionCost": "infinite",
				"totalCost": "infinite"
			},
			"external": {
				"EIP712_DOMAIN_HASH()": "1094",
				"FEE_UPDATE_COOLDOWN()": "317",
				"MAX_CONTRACT_FEE()": "339",
				"calculateFillResults((address,address,address,uint256,uint256,uint256,uint256,uint256,address,uint256,address,address,uint256))": "infinite",
				"cancelOrder(bytes32,(address,address,address,uint256,uint256,uint256,uint256,uint256,address,uint256,address,address,uint256))": "infinite",
				"cancelled(bytes32)": "1317",
				"chainId()": "1095",
				"contractFeePercentage()": "1050",
				"contractFeeRecipient()": "1115",
				"createOrder((address,address,address,uint256,uint256,uint256,uint256,uint256,address,uint256,address,address,uint256))": "infinite",
				"created(bytes32)": "1271",
				"fillOrder(bytes32,(address,address,address,uint256,uint256,uint256,uint256,uint256,address,uint256,address,address,uint256),bytes)": "infinite",
				"filled(bytes32)": "1295",
				"getOrderInfo((address,address,address,uint256,uint256,uint256,uint256,uint256,address,uint256,address,address,uint256))": "infinite",
				"getPrice((address,address,address,uint256,uint256,uint256,uint256,uint256,address,uint256,address,address,uint256))": "infinite",
				"isValidSignature(bytes32,address,bytes)": "infinite",
				"mostRecentTimestamp()": "1072",
				"onSale(address,uint256)": "1397",
				"owner()": "1203",
				"paused()": "1080",
				"renounceOwnership()": "24271",
				"setContractFeeParams(uint256,address)": "infinite",
				"setEnglishExchange(address)": "22181",
				"transferOwnership(address)": "24547"
			},
			"internal": {
				"_assertFillableOrder(struct LibOrder.Order memory,struct LibOrder.OrderInfo memory,bytes memory)": "infinite",
				"_assertValidCancel(struct LibOrder.Order memory,struct LibOrder.OrderInfo memory)": "infinite",
				"_cancelOrder(bytes32,struct LibOrder.Order memory)": "infinite",
				"_createOrder(struct LibOrder.Order memory)": "infinite",
				"_fillOrder(bytes32,struct LibOrder.Order memory,bytes memory)": "infinite",
				"_settleTrade(struct LibOrder.Order memory,struct EnglishExchange.FillResults memory)": "infinite",
				"_updateCancelledState(struct LibOrder.Order memory,struct LibOrder.OrderInfo memory)": "infinite",
				"_updateCreatedStates(struct LibOrder.Order memory,struct LibOrder.OrderInfo memory,struct EnglishExchange.FillResults memory)": "infinite",
				"_updateFilledStates(struct LibOrder.Order memory,struct LibOrder.OrderInfo memory,struct EnglishExchange.FillResults memory)": "infinite"
			}
		},
		"methodIdentifiers": {
			"EIP712_DOMAIN_HASH()": "e306f779",
			"FEE_UPDATE_COOLDOWN()": "8243d01f",
			"MAX_CONTRACT_FEE()": "c37f03c7",
			"calculateFillResults((address,address,address,uint256,uint256,uint256,uint256,uint256,address,uint256,address,address,uint256))": "2706bc91",
			"cancelOrder(bytes32,(address,address,address,uint256,uint256,uint256,uint256,uint256,address,uint256,address,address,uint256))": "07140fcc",
			"cancelled(bytes32)": "2ac12622",
			"chainId()": "9a8a0592",
			"contractFeePercentage()": "dbd8987c",
			"contractFeeRecipient()": "6cf25c4e",
			"createOrder((address,address,address,uint256,uint256,uint256,uint256,uint256,address,uint256,address,address,uint256))": "1e1bc740",
			"created(bytes32)": "eaa760c2",
			"fillOrder(bytes32,(address,address,address,uint256,uint256,uint256,uint256,uint256,address,uint256,address,address,uint256),bytes)": "a9f7a0e5",
			"filled(bytes32)": "288cdc91",
			"getOrderInfo((address,address,address,uint256,uint256,uint256,uint256,uint256,address,uint256,address,address,uint256))": "98038dad",
			"getPrice((address,address,address,uint256,uint256,uint256,uint256,uint256,address,uint256,address,address,uint256))": "ff17fe59",
			"isValidSignature(bytes32,address,bytes)": "93634702",
			"mostRecentTimestamp()": "e2dde054",
			"onSale(address,uint256)": "0f9cb829",
			"owner()": "8da5cb5b",
			"paused()": "5c975abb",
			"renounceOwnership()": "715018a6",
			"setContractFeeParams(uint256,address)": "83c3e77a",
			"setEnglishExchange(address)": "cf07104e",
			"transferOwnership(address)": "f2fde38b"
		}
	},
	"abi": [
		{
			"inputs": [
				{
					"internalType": "uint256",
					"name": "_contractFeePercentage",
					"type": "uint256"
				},
				{
					"internalType": "address",
					"name": "_contractFeeRecipient",
					"type": "address"
				}
			],
			"stateMutability": "nonpayable",
			"type": "constructor"
		},
		{
			"anonymous": false,
			"inputs": [
				{
					"indexed": true,
					"internalType": "bytes32",
					"name": "orderHash",
					"type": "bytes32"
				},
				{
					"indexed": true,
					"internalType": "address",
					"name": "creator",
					"type": "address"
				},
				{
					"indexed": true,
					"internalType": "address",
					"name": "feeRecipient",
					"type": "address"
				},
				{
					"indexed": false,
					"internalType": "address",
					"name": "assetAddress",
					"type": "address"
				},
				{
					"indexed": false,
					"internalType": "address",
					"name": "currencyAddress",
					"type": "address"
				},
				{
					"indexed": false,
					"internalType": "address",
					"name": "senderAddress",
					"type": "address"
				}
			],
			"name": "Cancel",
			"type": "event"
		},
		{
			"anonymous": false,
			"inputs": [
				{
					"indexed": true,
					"internalType": "address",
					"name": "owner",
					"type": "address"
				},
				{
					"indexed": false,
					"internalType": "uint256",
					"name": "feePercentage",
					"type": "uint256"
				},
				{
					"indexed": false,
					"internalType": "address",
					"name": "feeRecipient",
					"type": "address"
				}
			],
			"name": "ContractFeeParamsUpdated",
			"type": "event"
		},
		{
			"anonymous": false,
			"inputs": [
				{
					"indexed": true,
					"internalType": "bytes32",
					"name": "orderHash",
					"type": "bytes32"
				},
				{
					"indexed": false,
					"internalType": "uint256",
					"name": "fee",
					"type": "uint256"
				},
				{
					"indexed": true,
					"internalType": "address",
					"name": "feeRecipient",
					"type": "address"
				},
				{
					"indexed": false,
					"internalType": "uint256",
					"name": "contractFee",
					"type": "uint256"
				},
				{
					"indexed": false,
					"internalType": "address",
					"name": "senderAddress",
					"type": "address"
				},
				{
					"indexed": false,
					"internalType": "uint256",
					"name": "id",
					"type": "uint256"
				},
				{
					"indexed": false,
					"internalType": "uint256",
					"name": "amount",
					"type": "uint256"
				},
				{
					"indexed": true,
					"internalType": "address",
					"name": "owner",
					"type": "address"
				},
				{
					"indexed": false,
					"internalType": "address",
					"name": "assetAddress",
					"type": "address"
				},
				{
					"indexed": false,
					"internalType": "address",
					"name": "taker",
					"type": "address"
				},
				{
					"indexed": false,
					"internalType": "address",
					"name": "currencyAddress",
					"type": "address"
				}
			],
			"name": "Created",
			"type": "event"
		},
		{
			"anonymous": false,
			"inputs": [
				{
					"indexed": true,
					"internalType": "bytes32",
					"name": "orderHash",
					"type": "bytes32"
				},
				{
					"indexed": false,
					"internalType": "uint256",
					"name": "fee",
					"type": "uint256"
				},
				{
					"indexed": true,
					"internalType": "address",
					"name": "feeRecipient",
					"type": "address"
				},
				{
					"indexed": false,
					"internalType": "uint256",
					"name": "contractFee",
					"type": "uint256"
				},
				{
					"indexed": false,
					"internalType": "address",
					"name": "senderAddress",
					"type": "address"
				},
				{
					"indexed": false,
					"internalType": "uint256",
					"name": "id",
					"type": "uint256"
				},
				{
					"indexed": false,
					"internalType": "uint256",
					"name": "amount",
					"type": "uint256"
				},
				{
					"indexed": true,
					"internalType": "address",
					"name": "owner",
					"type": "address"
				},
				{
					"indexed": false,
					"internalType": "address",
					"name": "assetAddress",
					"type": "address"
				},
				{
					"indexed": false,
					"internalType": "uint256",
					"name": "price",
					"type": "uint256"
				},
				{
					"indexed": false,
					"internalType": "address",
					"name": "taker",
					"type": "address"
				},
				{
					"indexed": false,
					"internalType": "address",
					"name": "currencyAddress",
					"type": "address"
				}
			],
			"name": "Fill",
			"type": "event"
		},
		{
			"anonymous": false,
			"inputs": [
				{
					"indexed": true,
					"internalType": "address",
					"name": "previousOwner",
					"type": "address"
				},
				{
					"indexed": true,
					"internalType": "address",
					"name": "newOwner",
					"type": "address"
				}
			],
			"name": "OwnershipTransferred",
			"type": "event"
		},
		{
			"anonymous": false,
			"inputs": [
				{
					"indexed": false,
					"internalType": "address",
					"name": "account",
					"type": "address"
				}
			],
			"name": "Paused",
			"type": "event"
		},
		{
			"anonymous": false,
			"inputs": [
				{
					"indexed": false,
					"internalType": "address",
					"name": "account",
					"type": "address"
				}
			],
			"name": "Unpaused",
			"type": "event"
		},
		{
			"inputs": [],
			"name": "EIP712_DOMAIN_HASH",
			"outputs": [
				{
					"internalType": "bytes32",
					"name": "",
					"type": "bytes32"
				}
			],
			"stateMutability": "view",
			"type": "function"
		},
		{
			"inputs": [],
			"name": "FEE_UPDATE_COOLDOWN",
			"outputs": [
				{
					"internalType": "uint256",
					"name": "",
					"type": "uint256"
				}
			],
			"stateMutability": "view",
			"type": "function"
		},
		{
			"inputs": [],
			"name": "MAX_CONTRACT_FEE",
			"outputs": [
				{
					"internalType": "uint256",
					"name": "",
					"type": "uint256"
				}
			],
			"stateMutability": "view",
			"type": "function"
		},
		{
			"inputs": [
				{
					"components": [
						{
							"internalType": "address",
							"name": "owner",
							"type": "address"
						},
						{
							"internalType": "address",
							"name": "taker",
							"type": "address"
						},
						{
							"internalType": "address",
							"name": "operator",
							"type": "address"
						},
						{
							"internalType": "uint256",
							"name": "orderType",
							"type": "uint256"
						},
						{
							"internalType": "uint256",
							"name": "amount",
							"type": "uint256"
						},
						{
							"internalType": "uint256",
							"name": "startPrice",
							"type": "uint256"
						},
						{
							"internalType": "uint256",
							"name": "endTime",
							"type": "uint256"
						},
						{
							"internalType": "uint256",
							"name": "salt",
							"type": "uint256"
						},
						{
							"internalType": "address",
							"name": "assetAddress",
							"type": "address"
						},
						{
							"internalType": "uint256",
							"name": "id",
							"type": "uint256"
						},
						{
							"internalType": "address",
							"name": "currencyAddress",
							"type": "address"
						},
						{
							"internalType": "address",
							"name": "feeRecipient",
							"type": "address"
						},
						{
							"internalType": "uint256",
							"name": "feePercentage",
							"type": "uint256"
						}
					],
					"internalType": "struct LibOrder.Order",
					"name": "order",
					"type": "tuple"
				}
			],
			"name": "calculateFillResults",
			"outputs": [
				{
					"components": [
						{
							"internalType": "uint256",
							"name": "tradePrice",
							"type": "uint256"
						},
						{
							"internalType": "uint256",
							"name": "fee",
							"type": "uint256"
						},
						{
							"internalType": "uint256",
							"name": "contractFee",
							"type": "uint256"
						}
					],
					"internalType": "struct EnglishExchange.FillResults",
					"name": "fillResults",
					"type": "tuple"
				}
			],
			"stateMutability": "view",
			"type": "function"
		},
		{
			"inputs": [
				{
					"internalType": "bytes32",
					"name": "_orderHash",
					"type": "bytes32"
				},
				{
					"components": [
						{
							"internalType": "address",
							"name": "owner",
							"type": "address"
						},
						{
							"internalType": "address",
							"name": "taker",
							"type": "address"
						},
						{
							"internalType": "address",
							"name": "operator",
							"type": "address"
						},
						{
							"internalType": "uint256",
							"name": "orderType",
							"type": "uint256"
						},
						{
							"internalType": "uint256",
							"name": "amount",
							"type": "uint256"
						},
						{
							"internalType": "uint256",
							"name": "startPrice",
							"type": "uint256"
						},
						{
							"internalType": "uint256",
							"name": "endTime",
							"type": "uint256"
						},
						{
							"internalType": "uint256",
							"name": "salt",
							"type": "uint256"
						},
						{
							"internalType": "address",
							"name": "assetAddress",
							"type": "address"
						},
						{
							"internalType": "uint256",
							"name": "id",
							"type": "uint256"
						},
						{
							"internalType": "address",
							"name": "currencyAddress",
							"type": "address"
						},
						{
							"internalType": "address",
							"name": "feeRecipient",
							"type": "address"
						},
						{
							"internalType": "uint256",
							"name": "feePercentage",
							"type": "uint256"
						}
					],
					"internalType": "struct LibOrder.Order",
					"name": "order",
					"type": "tuple"
				}
			],
			"name": "cancelOrder",
			"outputs": [],
			"stateMutability": "nonpayable",
			"type": "function"
		},
		{
			"inputs": [
				{
					"internalType": "bytes32",
					"name": "",
					"type": "bytes32"
				}
			],
			"name": "cancelled",
			"outputs": [
				{
					"internalType": "bool",
					"name": "",
					"type": "bool"
				}
			],
			"stateMutability": "view",
			"type": "function"
		},
		{
			"inputs": [],
			"name": "chainId",
			"outputs": [
				{
					"internalType": "uint256",
					"name": "",
					"type": "uint256"
				}
			],
			"stateMutability": "view",
			"type": "function"
		},
		{
			"inputs": [],
			"name": "contractFeePercentage",
			"outputs": [
				{
					"internalType": "uint256",
					"name": "",
					"type": "uint256"
				}
			],
			"stateMutability": "view",
			"type": "function"
		},
		{
			"inputs": [],
			"name": "contractFeeRecipient",
			"outputs": [
				{
					"internalType": "address",
					"name": "",
					"type": "address"
				}
			],
			"stateMutability": "view",
			"type": "function"
		},
		{
			"inputs": [
				{
					"components": [
						{
							"internalType": "address",
							"name": "owner",
							"type": "address"
						},
						{
							"internalType": "address",
							"name": "taker",
							"type": "address"
						},
						{
							"internalType": "address",
							"name": "operator",
							"type": "address"
						},
						{
							"internalType": "uint256",
							"name": "orderType",
							"type": "uint256"
						},
						{
							"internalType": "uint256",
							"name": "amount",
							"type": "uint256"
						},
						{
							"internalType": "uint256",
							"name": "startPrice",
							"type": "uint256"
						},
						{
							"internalType": "uint256",
							"name": "endTime",
							"type": "uint256"
						},
						{
							"internalType": "uint256",
							"name": "salt",
							"type": "uint256"
						},
						{
							"internalType": "address",
							"name": "assetAddress",
							"type": "address"
						},
						{
							"internalType": "uint256",
							"name": "id",
							"type": "uint256"
						},
						{
							"internalType": "address",
							"name": "currencyAddress",
							"type": "address"
						},
						{
							"internalType": "address",
							"name": "feeRecipient",
							"type": "address"
						},
						{
							"internalType": "uint256",
							"name": "feePercentage",
							"type": "uint256"
						}
					],
					"internalType": "struct LibOrder.Order",
					"name": "order",
					"type": "tuple"
				}
			],
			"name": "createOrder",
			"outputs": [
				{
					"internalType": "bool",
					"name": "",
					"type": "bool"
				}
			],
			"stateMutability": "nonpayable",
			"type": "function"
		},
		{
			"inputs": [
				{
					"internalType": "bytes32",
					"name": "",
					"type": "bytes32"
				}
			],
			"name": "created",
			"outputs": [
				{
					"internalType": "bool",
					"name": "",
					"type": "bool"
				}
			],
			"stateMutability": "view",
			"type": "function"
		},
		{
			"inputs": [
				{
					"internalType": "bytes32",
					"name": "_orderHash",
					"type": "bytes32"
				},
				{
					"components": [
						{
							"internalType": "address",
							"name": "owner",
							"type": "address"
						},
						{
							"internalType": "address",
							"name": "taker",
							"type": "address"
						},
						{
							"internalType": "address",
							"name": "operator",
							"type": "address"
						},
						{
							"internalType": "uint256",
							"name": "orderType",
							"type": "uint256"
						},
						{
							"internalType": "uint256",
							"name": "amount",
							"type": "uint256"
						},
						{
							"internalType": "uint256",
							"name": "startPrice",
							"type": "uint256"
						},
						{
							"internalType": "uint256",
							"name": "endTime",
							"type": "uint256"
						},
						{
							"internalType": "uint256",
							"name": "salt",
							"type": "uint256"
						},
						{
							"internalType": "address",
							"name": "assetAddress",
							"type": "address"
						},
						{
							"internalType": "uint256",
							"name": "id",
							"type": "uint256"
						},
						{
							"internalType": "address",
							"name": "currencyAddress",
							"type": "address"
						},
						{
							"internalType": "address",
							"name": "feeRecipient",
							"type": "address"
						},
						{
							"internalType": "uint256",
							"name": "feePercentage",
							"type": "uint256"
						}
					],
					"internalType": "struct LibOrder.Order",
					"name": "order",
					"type": "tuple"
				},
				{
					"internalType": "bytes",
					"name": "signature",
					"type": "bytes"
				}
			],
			"name": "fillOrder",
			"outputs": [
				{
					"internalType": "bool",
					"name": "",
					"type": "bool"
				}
			],
			"stateMutability": "nonpayable",
			"type": "function"
		},
		{
			"inputs": [
				{
					"internalType": "bytes32",
					"name": "",
					"type": "bytes32"
				}
			],
			"name": "filled",
			"outputs": [
				{
					"internalType": "bool",
					"name": "",
					"type": "bool"
				}
			],
			"stateMutability": "view",
			"type": "function"
		},
		{
			"inputs": [
				{
					"components": [
						{
							"internalType": "address",
							"name": "owner",
							"type": "address"
						},
						{
							"internalType": "address",
							"name": "taker",
							"type": "address"
						},
						{
							"internalType": "address",
							"name": "operator",
							"type": "address"
						},
						{
							"internalType": "uint256",
							"name": "orderType",
							"type": "uint256"
						},
						{
							"internalType": "uint256",
							"name": "amount",
							"type": "uint256"
						},
						{
							"internalType": "uint256",
							"name": "startPrice",
							"type": "uint256"
						},
						{
							"internalType": "uint256",
							"name": "endTime",
							"type": "uint256"
						},
						{
							"internalType": "uint256",
							"name": "salt",
							"type": "uint256"
						},
						{
							"internalType": "address",
							"name": "assetAddress",
							"type": "address"
						},
						{
							"internalType": "uint256",
							"name": "id",
							"type": "uint256"
						},
						{
							"internalType": "address",
							"name": "currencyAddress",
							"type": "address"
						},
						{
							"internalType": "address",
							"name": "feeRecipient",
							"type": "address"
						},
						{
							"internalType": "uint256",
							"name": "feePercentage",
							"type": "uint256"
						}
					],
					"internalType": "struct LibOrder.Order",
					"name": "order",
					"type": "tuple"
				}
			],
			"name": "getOrderInfo",
			"outputs": [
				{
					"components": [
						{
							"internalType": "enum LibOrder.OrderStatus",
							"name": "orderStatus",
							"type": "uint8"
						},
						{
							"internalType": "bytes32",
							"name": "orderHash",
							"type": "bytes32"
						},
						{
							"internalType": "bool",
							"name": "filled",
							"type": "bool"
						}
					],
					"internalType": "struct LibOrder.OrderInfo",
					"name": "orderInfo",
					"type": "tuple"
				}
			],
			"stateMutability": "view",
			"type": "function"
		},
		{
			"inputs": [
				{
					"components": [
						{
							"internalType": "address",
							"name": "owner",
							"type": "address"
						},
						{
							"internalType": "address",
							"name": "taker",
							"type": "address"
						},
						{
							"internalType": "address",
							"name": "operator",
							"type": "address"
						},
						{
							"internalType": "uint256",
							"name": "orderType",
							"type": "uint256"
						},
						{
							"internalType": "uint256",
							"name": "amount",
							"type": "uint256"
						},
						{
							"internalType": "uint256",
							"name": "startPrice",
							"type": "uint256"
						},
						{
							"internalType": "uint256",
							"name": "endTime",
							"type": "uint256"
						},
						{
							"internalType": "uint256",
							"name": "salt",
							"type": "uint256"
						},
						{
							"internalType": "address",
							"name": "assetAddress",
							"type": "address"
						},
						{
							"internalType": "uint256",
							"name": "id",
							"type": "uint256"
						},
						{
							"internalType": "address",
							"name": "currencyAddress",
							"type": "address"
						},
						{
							"internalType": "address",
							"name": "feeRecipient",
							"type": "address"
						},
						{
							"internalType": "uint256",
							"name": "feePercentage",
							"type": "uint256"
						}
					],
					"internalType": "struct LibOrder.Order",
					"name": "order",
					"type": "tuple"
				}
			],
			"name": "getPrice",
			"outputs": [
				{
					"internalType": "uint256",
					"name": "",
					"type": "uint256"
				}
			],
			"stateMutability": "pure",
			"type": "function"
		},
		{
			"inputs": [
				{
					"internalType": "bytes32",
					"name": "hash",
					"type": "bytes32"
				},
				{
					"internalType": "address",
					"name": "signerAddress",
					"type": "address"
				},
				{
					"internalType": "bytes",
					"name": "signature",
					"type": "bytes"
				}
			],
			"name": "isValidSignature",
			"outputs": [
				{
					"internalType": "bool",
					"name": "isValid",
					"type": "bool"
				}
			],
			"stateMutability": "pure",
			"type": "function"
		},
		{
			"inputs": [],
			"name": "mostRecentTimestamp",
			"outputs": [
				{
					"internalType": "uint256",
					"name": "",
					"type": "uint256"
				}
			],
			"stateMutability": "view",
			"type": "function"
		},
		{
			"inputs": [
				{
					"internalType": "address",
					"name": "",
					"type": "address"
				},
				{
					"internalType": "uint256",
					"name": "",
					"type": "uint256"
				}
			],
			"name": "onSale",
			"outputs": [
				{
					"internalType": "bool",
					"name": "",
					"type": "bool"
				}
			],
			"stateMutability": "view",
			"type": "function"
		},
		{
			"inputs": [],
			"name": "owner",
			"outputs": [
				{
					"internalType": "address",
					"name": "",
					"type": "address"
				}
			],
			"stateMutability": "view",
			"type": "function"
		},
		{
			"inputs": [],
			"name": "paused",
			"outputs": [
				{
					"internalType": "bool",
					"name": "",
					"type": "bool"
				}
			],
			"stateMutability": "view",
			"type": "function"
		},
		{
			"inputs": [],
			"name": "renounceOwnership",
			"outputs": [],
			"stateMutability": "nonpayable",
			"type": "function"
		},
		{
			"inputs": [
				{
					"internalType": "uint256",
					"name": "_contractFeePercentage",
					"type": "uint256"
				},
				{
					"internalType": "address",
					"name": "_contractFeeRecipient",
					"type": "address"
				}
			],
			"name": "setContractFeeParams",
			"outputs": [],
			"stateMutability": "nonpayable",
			"type": "function"
		},
		{
			"inputs": [
				{
					"internalType": "contract IExchange",
					"name": "_iExchange",
					"type": "address"
				}
			],
			"name": "setEnglishExchange",
			"outputs": [],
			"stateMutability": "nonpayable",
			"type": "function"
		},
		{
			"inputs": [
				{
					"internalType": "address",
					"name": "newOwner",
					"type": "address"
				}
			],
			"name": "transferOwnership",
			"outputs": [],
			"stateMutability": "nonpayable",
			"type": "function"
		}
	]
}