{
	"data": {
		"bytecode": {
			"linkReferences": {},
			"object": "6080604052600380546001600160a01b031916301790553480156200002357600080fd5b506040516200212a3803806200212a83398101604081905262000046916200030e565b60006200005b6001600160e01b03620001be16565b600080546001600160a01b0319166001600160a01b0383169081178255604051929350917f8be0079c531659141344cd1fd0a4f28419497f9722a3daafe3b4186f6b6457e0908290a3506000805460ff60a01b1916905560018055466002819055604051620000cd906020016200034b565b60408051601f1981840301815282825280516020918201208383018352600d84526c436f6e666945786368616e676560981b93820193909352815180830183526003808252620312e360ec1b91830191909152600254905492516200018594937fc241628eaf835fa04927309e7ffa6ff63c4192aa2dfb4063d9c147ec4fab6bec937fe6bbd6277e1bf288eed5e8d1780f9a50b239e86b153736bceebccf4ea79d90b393926001600160a01b039092169101620003da565b60408051601f19818403018152919052805160209091012060045550620001b682826001600160e01b03620001c216565b5050620004d6565b3390565b620001d56001600160e01b03620001be16565b6000546001600160a01b039081169116146200020e5760405162461bcd60e51b815260040162000205906200048a565b60405180910390fd5b426200022e62015180600954620002df60201b620008ad1790919060201c565b106200024e5760405162461bcd60e51b8152600401620002059062000465565b670429d069189e0000821115620002795760405162461bcd60e51b815260040162000205906200043d565b6007829055600880546001600160a01b0319166001600160a01b0383161790554260095560405133907f113bdccf7b7ceafeb2ca0a4f91a0fbb09542dd8b3ea9d06907df13522a4d606e90620002d39085908590620004bf565b60405180910390a25050565b600082820183811015620003075760405162461bcd60e51b8152600401620002059062000406565b9392505050565b6000806040838503121562000321578182fd5b825160208401519092506001600160a01b038116811462000340578182fd5b809150509250929050565b6c08a92a06e626488dedac2d2dc5609b1b81526b1cdd1c9a5b99c81b985b594b60a21b600d8201526e1cdd1c9a5b99c81d995c9cda5bdb8b608a1b60198201526f1d5a5b9d0c8d4d8818da185a5b92590b60821b60288201527f6164647265737320766572696679696e67436f6e7472616374000000000000006038820152602960f81b605182015260520190565b9485526020850193909352604084019190915260608301526001600160a01b0316608082015260a00190565b6020808252601b908201527f536166654d6174683a206164646974696f6e206f766572666c6f770000000000604082015260600190565b6020808252600e908201526d657863656564206d61782066656560901b604082015260600190565b6020808252600b908201526a34b71031b7b7b63237bbb760a91b604082015260600190565b6020808252818101527f4f776e61626c653a2063616c6c6572206973206e6f7420746865206f776e6572604082015260600190565b9182526001600160a01b0316602082015260400190565b611c4480620004e66000396000f3fe608060405234801561001057600080fd5b506004361061012c5760003560e01c806398038dad116100ad578063dbd8987c11610071578063dbd8987c1461024d578063e2dde05414610255578063e306f7791461025d578063f2fde38b14610265578063ff17fe59146102785761012c565b806398038dad146101f7578063986ff672146102175780639a8a05921461022a578063b5c7ec5d14610232578063c37f03c7146102455761012c565b8063715018a6116100f4578063715018a6146101aa5780638243d01f146101b457806383c3e77a146101c95780638da5cb5b146101dc57806393634702146101e45761012c565b80632706bc9114610131578063288cdc911461015a5780632ac126221461017a5780635c975abb1461018d5780636cf25c4e14610195575b600080fd5b61014461013f366004611422565b61028b565b6040516101519190611a1b565b60405180910390f35b61016d6101683660046113a8565b610313565b6040516101519190611575565b61016d6101883660046113a8565b610328565b61016d61033d565b61019d61034d565b60405161015191906114e2565b6101b261035c565b005b6101bc6103e4565b6040516101519190611580565b6101b26101d736600461148d565b6103eb565b61019d6104e1565b61016d6101f23660046113c0565b6104f0565b61020a610205366004611422565b61060d565b6040516101519190611a3c565b6101b2610225366004611422565b61072e565b6101bc610764565b61016d61024036600461143e565b61076a565b6101bc6107d2565b6101bc6107de565b6101bc6107e4565b6101bc6107ea565b6101b261027336600461136d565b6107f0565b6101bc610286366004611422565b6108a6565b6102936111d2565b600061029e836108a6565b90506102b8836101800151826108db90919063ffffffff16565b602083018190526007546102d2919063ffffffff6108db16565b604083015260208201516102ed90829063ffffffff61090516565b8252604082015160208301516103089163ffffffff61090516565b602083015250919050565b60056020526000908152604090205460ff1681565b60066020526000908152604090205460ff1681565b600054600160a01b900460ff1690565b6008546001600160a01b031681565b610364610947565b6000546001600160a01b0390811691161461039a5760405162461bcd60e51b8152600401610391906118fc565b60405180910390fd5b600080546040516001600160a01b03909116907f8be0079c531659141344cd1fd0a4f28419497f9722a3daafe3b4186f6b6457e0908390a3600080546001600160a01b0319169055565b6201518081565b6103f3610947565b6000546001600160a01b039081169116146104205760405162461bcd60e51b8152600401610391906118fc565b6009544290610438906201518063ffffffff6108ad16565b106104555760405162461bcd60e51b8152600401610391906118d7565b670429d069189e000082111561047d5760405162461bcd60e51b8152600401610391906117f0565b6007829055600880546001600160a01b0319166001600160a01b0383161790554260095560405133907f113bdccf7b7ceafeb2ca0a4f91a0fbb09542dd8b3ea9d06907df13522a4d606e906104d59085908590611a6d565b60405180910390a25050565b6000546001600160a01b031690565b60006001600160a01b0383166105185760405162461bcd60e51b815260040161039190611842565b81516041146105395760405162461bcd60e51b815260040161039190611670565b60008260408151811061054857fe5b016020015160f81c9050601b81148061056457508060ff16601c145b6105805760405162461bcd60e51b815260040161039190611958565b600061058d84600061094b565b9050600061059c85602061094b565b9050600187848484604051600081526020016040526040516105c1949392919061161f565b6020604051602081039080840390855afa1580156105e3573d6000803e3d6000fd5b505050602060405103516001600160a01b0316866001600160a01b03161493505050509392505050565b6106156111f3565b61061e8261097a565b60208083018290526000918252600590526040908190205460ff161515908201526002826060015110610664578060005b9081600581111561065c57fe5b905250610729565b60808201516106755780600061064f565b60a08201516106865780600061064f565b60408201516001600160a01b0316158015906106af575060408201516001600160a01b03163314155b156106bc5780600161064f565b67016345785d8a000082610180015111156106d95780600061064f565b8060400151156106eb5780600461064f565b60208082015160009081526006909152604090205460ff16156107105780600561064f565b428260c0015110156107245780600361064f565b600281525b919050565b600054600160a01b900460ff16156107585760405162461bcd60e51b815260040161039190611818565b6107618161098d565b50565b60025481565b60008054600160a01b900460ff16156107955760405162461bcd60e51b815260040161039190611818565b600260015414156107b85760405162461bcd60e51b8152600401610391906119e4565b60026001556107c783836109d2565b600180559392505050565b670429d069189e000081565b60075481565b60095481565b60045481565b6107f8610947565b6000546001600160a01b039081169116146108255760405162461bcd60e51b8152600401610391906118fc565b6001600160a01b03811661084b5760405162461bcd60e51b8152600401610391906116ef565b600080546040516001600160a01b03808516939216917f8be0079c531659141344cd1fd0a4f28419497f9722a3daafe3b4186f6b6457e091a3600080546001600160a01b0319166001600160a01b0392909216919091179055565b60a0015190565b6000828201838110156108d25760405162461bcd60e51b815260040161039190611735565b90505b92915050565b60006108d2670de0b6b3a76400006108f9858563ffffffff610a7116565b9063ffffffff610aab16565b60006108d283836040518060400160405280601e81526020017f536166654d6174683a207375627472616374696f6e206f766572666c6f770000815250610aed565b3390565b600081602001835110156109715760405162461bcd60e51b815260040161039190611870565b50016020015190565b60006108d561098883610b19565b610bdb565b6109956111f3565b61099e8261060d565b90506109aa8282610c00565b6002815160058111156109b957fe5b146109c45750610761565b6109ce8282610c98565b5050565b60006109dc6111f3565b6109e58461060d565b90506109f2848285610d35565b6109fa6111d2565b610a038561028b565b85519091506001600160a01b031615610a1d578451610a1f565b335b6001600160a01b03908116865260208601511615610a41578460200151610a43565b335b6001600160a01b03166020860152610a5c858383610ebb565b610a668582610f61565b506001949350505050565b600082610a80575060006108d5565b82820282848281610a8d57fe5b04146108d25760405162461bcd60e51b815260040161039190611896565b60006108d283836040518060400160405280601a81526020017f536166654d6174683a206469766973696f6e206279207a65726f00000000000081525061119b565b60008184841115610b115760405162461bcd60e51b8152600401610391919061163d565b505050900390565b600060405180610120016040528060e78152602001611b2860e79139604051602001610b4591906114c6565b60405160208183030381529060405280519060200120826000015183602001518460400151856060015186608001518760a001518860c001518960e001518a61010001518b61012001518c61014001518d61016001518e6101800151604051602001610bbe9e9d9c9b9a99989796959493929190611589565b604051602081830303815290604052805190602001209050919050565b60045460405161190160f01b8152600281019190915260228101919091526042902090565b600181516005811115610c0f57fe5b1415610c2d5760405162461bcd60e51b8152600401610391906117c6565b6060820151610c5f5781516001600160a01b03163314610c5f5760405162461bcd60e51b815260040161039190611931565b6001826060015114156109ce5760208201516001600160a01b031633146109ce5760405162461bcd60e51b8152600401610391906116a7565b6020808201516000908152600690915260408120805460ff191660011790556101608301516001600160a01b031690836060015114610cdb578260200151610cde565b82515b6001600160a01b031682602001517f08425fdf5892e47ed0a2f0b7eed7178b11002d8a88e551cf16f0ae90cd105f7885610100015186610140015133604051610d29939291906114f6565b60405180910390a45050565b600082516005811115610d4457fe5b1415610d625760405162461bcd60e51b8152600401610391906116ce565b600482516005811115610d7157fe5b1415610d8f5760405162461bcd60e51b815260040161039190611979565b600382516005811115610d9e57fe5b1415610dbc5760405162461bcd60e51b815260040161039190611999565b600582516005811115610dcb57fe5b1415610de95760405162461bcd60e51b81526004016103919061176c565b600182516005811115610df857fe5b1415610e165760405162461bcd60e51b8152600401610391906117c6565b600282516005811115610e2557fe5b14610e425760405162461bcd60e51b8152600401610391906119ba565b6060830151610e7a57610e5e82602001518460000151836104f0565b610e7a5760405162461bcd60e51b81526004016103919061178f565b600183606001511415610eb657610e9a82602001518460200151836104f0565b610eb65760405162461bcd60e51b81526004016103919061178f565b505050565b60208083018051600090815260058352604090819020805460ff191660011790558551610160870151925185850151868401516101208a015160808b01516101008c01518a51998d01516101408e015198516001600160a01b039889169b9a9098169996987fa246499da7279e3d5878ad549256043feed07fc6fd059b1245db41017bf8cbb898610f5498339695949390929091611a84565b60405180910390a4505050565b6101408201516020830151835183516040516323b872dd60e01b81526001600160a01b03909416936323b872dd93610f9f9390929091600401611519565b602060405180830381600087803b158015610fb957600080fd5b505af1158015610fcd573d6000803e3d6000fd5b505050506040513d601f19601f82011682018060405250810190610ff19190611388565b508161014001516001600160a01b03166323b872dd836020015184610160015184602001516040518463ffffffff1660e01b815260040161103493929190611519565b602060405180830381600087803b15801561104e57600080fd5b505af1158015611062573d6000803e3d6000fd5b505050506040513d601f19601f820116820180604052508101906110869190611388565b50610140820151602083015160085460408085015190516323b872dd60e01b81526001600160a01b03948516946323b872dd946110ca949093911691600401611519565b602060405180830381600087803b1580156110e457600080fd5b505af11580156110f8573d6000803e3d6000fd5b505050506040513d601f19601f8201168201806040525081019061111c9190611388565b508161010001516001600160a01b031663f242432a8360000151846020015185610120015186608001516040518563ffffffff1660e01b8152600401611165949392919061153d565b600060405180830381600087803b15801561117f57600080fd5b505af1158015611193573d6000803e3d6000fd5b505050505050565b600081836111bc5760405162461bcd60e51b8152600401610391919061163d565b5060008385816111c857fe5b0495945050505050565b60405180606001604052806000815260200160008152602001600081525090565b6040805160608101909152806000815260006020820181905260409091015290565b80356001600160a01b03811681146108d557600080fd5b600082601f83011261123c578081fd5b813567ffffffffffffffff811115611252578182fd5b611265601f8201601f1916602001611ad0565b915080825283602082850101111561127c57600080fd5b8060208401602084013760009082016020015292915050565b60006101a08083850312156112a8578182fd5b6112b181611ad0565b9150506112be8383611215565b81526112cd8360208401611215565b60208201526112df8360408401611215565b6040820152606082013560608201526080820135608082015260a082013560a082015260c082013560c082015260e082013560e082015261010061132584828501611215565b90820152610120828101359082015261014061134384828501611215565b9082015261016061135684848301611215565b818301525061018080830135818301525092915050565b60006020828403121561137e578081fd5b6108d28383611215565b600060208284031215611399578081fd5b815180151581146108d2578182fd5b6000602082840312156113b9578081fd5b5035919050565b6000806000606084860312156113d4578182fd5b8335925060208401356001600160a01b03811681146113f1578283fd5b9150604084013567ffffffffffffffff81111561140c578182fd5b6114188682870161122c565b9150509250925092565b60006101a08284031215611434578081fd5b6108d28383611295565b6000806101c08385031215611451578182fd5b61145b8484611295565b91506101a083013567ffffffffffffffff811115611477578182fd5b6114838582860161122c565b9150509250929050565b6000806040838503121561149f578182fd5b823591506114b08460208501611215565b90509250929050565b6001600160a01b03169052565b600082516114d8818460208701611af7565b9190910192915050565b6001600160a01b0391909116815260200190565b6001600160a01b0393841681529183166020830152909116604082015260600190565b6001600160a01b039384168152919092166020820152604081019190915260600190565b6001600160a01b0394851681529290931660208301526040820152606081019190915260a06080820181905260009082015260c00190565b901515815260200190565b90815260200190565b8e81526001600160a01b038e811660208301528d811660408301528c166060820152608081018b905260a081018a905260c0810189905260e0810188905261010081018790526101c081016115e26101208301886114b9565b856101408301526115f76101608301866114b9565b6116056101808301856114b9565b826101a08301529f9e505050505050505050505050505050565b93845260ff9290921660208401526040830152606082015260800190565b600060208252825180602084015261165c816040850160208701611af7565b601f01601f19169190910160400192915050565b60208082526019908201527f57726f6e67206c656e677468206f66207369676e617475726500000000000000604082015260600190565b6020808252600d908201526c24a72b20a624a22faa20a5a2a960991b604082015260600190565b6020808252600790820152661253959053125160ca1b604082015260600190565b60208082526026908201527f4f776e61626c653a206e6577206f776e657220697320746865207a65726f206160408201526564647265737360d01b606082015260800190565b6020808252601b908201527f536166654d6174683a206164646974696f6e206f766572666c6f770000000000604082015260600190565b60208082526009908201526810d05390d15313115160ba1b604082015260600190565b60208082526017908201527f494e56414c49445f4f524445525f5349474e4154555245000000000000000000604082015260600190565b60208082526010908201526f24a72b20a624a22fa7a822a920aa27a960811b604082015260600190565b6020808252600e908201526d657863656564206d61782066656560901b604082015260600190565b60208082526010908201526f14185d5cd8589b194e881c185d5cd95960821b604082015260600190565b60208082526014908201527357726f6e67207369676e6572206164647265737360601b604082015260600190565b6020808252600c908201526b0aee4dedcce40d8cadccee8d60a31b604082015260600190565b60208082526021908201527f536166654d6174683a206d756c7469706c69636174696f6e206f766572666c6f6040820152607760f81b606082015260800190565b6020808252600b908201526a34b71031b7b7b63237bbb760a91b604082015260600190565b6020808252818101527f4f776e61626c653a2063616c6c6572206973206e6f7420746865206f776e6572604082015260600190565b6020808252600d908201526c24a72b20a624a22fa7aba722a960991b604082015260600190565b6020808252600790820152662bb937b733902b60c91b604082015260600190565b60208082526006908201526511925313115160d21b604082015260600190565b6020808252600790820152661156141254915160ca1b604082015260600190565b60208082526010908201526f4f524445525f554e46494c4c41424c4560801b604082015260600190565b6020808252601f908201527f5265656e7472616e637947756172643a207265656e7472616e742063616c6c00604082015260600190565b81518152602080830151908201526040918201519181019190915260600190565b8151606082019060068110611a4d57fe5b808352506020830151602083015260408301511515604083015292915050565b9182526001600160a01b0316602082015260400190565b98895260208901979097526001600160a01b03958616604089015260608801949094526080870192909252831660a086015260c0850152811660e0840152166101008201526101200190565b60405181810167ffffffffffffffff81118282101715611aef57600080fd5b604052919050565b60005b83811015611b12578181015183820152602001611afa565b83811115611b21576000848401525b5050505056fe4f726465722861646472657373206f776e65722c616464726573732074616b65722c61646472657373206f70657261746f722c75696e74323536206f72646572547970652c75696e7432353620616d6f756e742c75696e7432353620737461727450726963652c75696e7432353620656e6454696d652c75696e743235362073616c742c61646472657373206173736574416464726573732c75696e743235362069642c616464726573732063757272656e6379416464726573732c6164647265737320666565526563697069656e742c75696e743235362066656550657263656e7461676529a264697066735822122099c6bead9a0a5b9ec437837160b6fb7210e09735e221cbbeec5aac82c16fd6d264736f6c63430006090033",
			"opcodes": "PUSH1 0x80 PUSH1 0x40 MSTORE PUSH1 0x3 DUP1 SLOAD PUSH1 0x1 PUSH1 0x1 PUSH1 0xA0 SHL SUB NOT AND ADDRESS OR SWAP1 SSTORE CALLVALUE DUP1 ISZERO PUSH3 0x23 JUMPI PUSH1 0x0 DUP1 REVERT JUMPDEST POP PUSH1 0x40 MLOAD PUSH3 0x212A CODESIZE SUB DUP1 PUSH3 0x212A DUP4 CODECOPY DUP2 ADD PUSH1 0x40 DUP2 SWAP1 MSTORE PUSH3 0x46 SWAP2 PUSH3 0x30E JUMP JUMPDEST PUSH1 0x0 PUSH3 0x5B PUSH1 0x1 PUSH1 0x1 PUSH1 0xE0 SHL SUB PUSH3 0x1BE AND JUMP JUMPDEST PUSH1 0x0 DUP1 SLOAD PUSH1 0x1 PUSH1 0x1 PUSH1 0xA0 SHL SUB NOT AND PUSH1 0x1 PUSH1 0x1 PUSH1 0xA0 SHL SUB DUP4 AND SWAP1 DUP2 OR DUP3 SSTORE PUSH1 0x40 MLOAD SWAP3 SWAP4 POP SWAP2 PUSH32 0x8BE0079C531659141344CD1FD0A4F28419497F9722A3DAAFE3B4186F6B6457E0 SWAP1 DUP3 SWAP1 LOG3 POP PUSH1 0x0 DUP1 SLOAD PUSH1 0xFF PUSH1 0xA0 SHL NOT AND SWAP1 SSTORE PUSH1 0x1 DUP1 SSTORE CHAINID PUSH1 0x2 DUP2 SWAP1 SSTORE PUSH1 0x40 MLOAD PUSH3 0xCD SWAP1 PUSH1 0x20 ADD PUSH3 0x34B JUMP JUMPDEST PUSH1 0x40 DUP1 MLOAD PUSH1 0x1F NOT DUP2 DUP5 SUB ADD DUP2 MSTORE DUP3 DUP3 MSTORE DUP1 MLOAD PUSH1 0x20 SWAP2 DUP3 ADD KECCAK256 DUP4 DUP4 ADD DUP4 MSTORE PUSH1 0xD DUP5 MSTORE PUSH13 0x436F6E666945786368616E6765 PUSH1 0x98 SHL SWAP4 DUP3 ADD SWAP4 SWAP1 SWAP4 MSTORE DUP2 MLOAD DUP1 DUP4 ADD DUP4 MSTORE PUSH1 0x3 DUP1 DUP3 MSTORE PUSH3 0x312E3 PUSH1 0xEC SHL SWAP2 DUP4 ADD SWAP2 SWAP1 SWAP2 MSTORE PUSH1 0x2 SLOAD SWAP1 SLOAD SWAP3 MLOAD PUSH3 0x185 SWAP5 SWAP4 PUSH32 0xC241628EAF835FA04927309E7FFA6FF63C4192AA2DFB4063D9C147EC4FAB6BEC SWAP4 PUSH32 0xE6BBD6277E1BF288EED5E8D1780F9A50B239E86B153736BCEEBCCF4EA79D90B3 SWAP4 SWAP3 PUSH1 0x1 PUSH1 0x1 PUSH1 0xA0 SHL SUB SWAP1 SWAP3 AND SWAP2 ADD PUSH3 0x3DA JUMP JUMPDEST PUSH1 0x40 DUP1 MLOAD PUSH1 0x1F NOT DUP2 DUP5 SUB ADD DUP2 MSTORE SWAP2 SWAP1 MSTORE DUP1 MLOAD PUSH1 0x20 SWAP1 SWAP2 ADD KECCAK256 PUSH1 0x4 SSTORE POP PUSH3 0x1B6 DUP3 DUP3 PUSH1 0x1 PUSH1 0x1 PUSH1 0xE0 SHL SUB PUSH3 0x1C2 AND JUMP JUMPDEST POP POP PUSH3 0x4D6 JUMP JUMPDEST CALLER SWAP1 JUMP JUMPDEST PUSH3 0x1D5 PUSH1 0x1 PUSH1 0x1 PUSH1 0xE0 SHL SUB PUSH3 0x1BE AND JUMP JUMPDEST PUSH1 0x0 SLOAD PUSH1 0x1 PUSH1 0x1 PUSH1 0xA0 SHL SUB SWAP1 DUP2 AND SWAP2 AND EQ PUSH3 0x20E JUMPI PUSH1 0x40 MLOAD PUSH3 0x461BCD PUSH1 0xE5 SHL DUP2 MSTORE PUSH1 0x4 ADD PUSH3 0x205 SWAP1 PUSH3 0x48A JUMP JUMPDEST PUSH1 0x40 MLOAD DUP1 SWAP2 SUB SWAP1 REVERT JUMPDEST TIMESTAMP PUSH3 0x22E PUSH3 0x15180 PUSH1 0x9 SLOAD PUSH3 0x2DF PUSH1 0x20 SHL PUSH3 0x8AD OR SWAP1 SWAP2 SWAP1 PUSH1 0x20 SHR JUMP JUMPDEST LT PUSH3 0x24E JUMPI PUSH1 0x40 MLOAD PUSH3 0x461BCD PUSH1 0xE5 SHL DUP2 MSTORE PUSH1 0x4 ADD PUSH3 0x205 SWAP1 PUSH3 0x465 JUMP JUMPDEST PUSH8 0x429D069189E0000 DUP3 GT ISZERO PUSH3 0x279 JUMPI PUSH1 0x40 MLOAD PUSH3 0x461BCD PUSH1 0xE5 SHL DUP2 MSTORE PUSH1 0x4 ADD PUSH3 0x205 SWAP1 PUSH3 0x43D JUMP JUMPDEST PUSH1 0x7 DUP3 SWAP1 SSTORE PUSH1 0x8 DUP1 SLOAD PUSH1 0x1 PUSH1 0x1 PUSH1 0xA0 SHL SUB NOT AND PUSH1 0x1 PUSH1 0x1 PUSH1 0xA0 SHL SUB DUP4 AND OR SWAP1 SSTORE TIMESTAMP PUSH1 0x9 SSTORE PUSH1 0x40 MLOAD CALLER SWAP1 PUSH32 0x113BDCCF7B7CEAFEB2CA0A4F91A0FBB09542DD8B3EA9D06907DF13522A4D606E SWAP1 PUSH3 0x2D3 SWAP1 DUP6 SWAP1 DUP6 SWAP1 PUSH3 0x4BF JUMP JUMPDEST PUSH1 0x40 MLOAD DUP1 SWAP2 SUB SWAP1 LOG2 POP POP JUMP JUMPDEST PUSH1 0x0 DUP3 DUP3 ADD DUP4 DUP2 LT ISZERO PUSH3 0x307 JUMPI PUSH1 0x40 MLOAD PUSH3 0x461BCD PUSH1 0xE5 SHL DUP2 MSTORE PUSH1 0x4 ADD PUSH3 0x205 SWAP1 PUSH3 0x406 JUMP JUMPDEST SWAP4 SWAP3 POP POP POP JUMP JUMPDEST PUSH1 0x0 DUP1 PUSH1 0x40 DUP4 DUP6 SUB SLT ISZERO PUSH3 0x321 JUMPI DUP2 DUP3 REVERT JUMPDEST DUP3 MLOAD PUSH1 0x20 DUP5 ADD MLOAD SWAP1 SWAP3 POP PUSH1 0x1 PUSH1 0x1 PUSH1 0xA0 SHL SUB DUP2 AND DUP2 EQ PUSH3 0x340 JUMPI DUP2 DUP3 REVERT JUMPDEST DUP1 SWAP2 POP POP SWAP3 POP SWAP3 SWAP1 POP JUMP JUMPDEST PUSH13 0x8A92A06E626488DEDAC2D2DC5 PUSH1 0x9B SHL DUP2 MSTORE PUSH12 0x1CDD1C9A5B99C81B985B594B PUSH1 0xA2 SHL PUSH1 0xD DUP3 ADD MSTORE PUSH15 0x1CDD1C9A5B99C81D995C9CDA5BDB8B PUSH1 0x8A SHL PUSH1 0x19 DUP3 ADD MSTORE PUSH16 0x1D5A5B9D0C8D4D8818DA185A5B92590B PUSH1 0x82 SHL PUSH1 0x28 DUP3 ADD MSTORE PUSH32 0x6164647265737320766572696679696E67436F6E747261637400000000000000 PUSH1 0x38 DUP3 ADD MSTORE PUSH1 0x29 PUSH1 0xF8 SHL PUSH1 0x51 DUP3 ADD MSTORE PUSH1 0x52 ADD SWAP1 JUMP JUMPDEST SWAP5 DUP6 MSTORE PUSH1 0x20 DUP6 ADD SWAP4 SWAP1 SWAP4 MSTORE PUSH1 0x40 DUP5 ADD SWAP2 SWAP1 SWAP2 MSTORE PUSH1 0x60 DUP4 ADD MSTORE PUSH1 0x1 PUSH1 0x1 PUSH1 0xA0 SHL SUB AND PUSH1 0x80 DUP3 ADD MSTORE PUSH1 0xA0 ADD SWAP1 JUMP JUMPDEST PUSH1 0x20 DUP1 DUP3 MSTORE PUSH1 0x1B SWAP1 DUP3 ADD MSTORE PUSH32 0x536166654D6174683A206164646974696F6E206F766572666C6F770000000000 PUSH1 0x40 DUP3 ADD MSTORE PUSH1 0x60 ADD SWAP1 JUMP JUMPDEST PUSH1 0x20 DUP1 DUP3 MSTORE PUSH1 0xE SWAP1 DUP3 ADD MSTORE PUSH14 0x657863656564206D617820666565 PUSH1 0x90 SHL PUSH1 0x40 DUP3 ADD MSTORE PUSH1 0x60 ADD SWAP1 JUMP JUMPDEST PUSH1 0x20 DUP1 DUP3 MSTORE PUSH1 0xB SWAP1 DUP3 ADD MSTORE PUSH11 0x34B71031B7B7B63237BBB7 PUSH1 0xA9 SHL PUSH1 0x40 DUP3 ADD MSTORE PUSH1 0x60 ADD SWAP1 JUMP JUMPDEST PUSH1 0x20 DUP1 DUP3 MSTORE DUP2 DUP2 ADD MSTORE PUSH32 0x4F776E61626C653A2063616C6C6572206973206E6F7420746865206F776E6572 PUSH1 0x40 DUP3 ADD MSTORE PUSH1 0x60 ADD SWAP1 JUMP JUMPDEST SWAP2 DUP3 MSTORE PUSH1 0x1 PUSH1 0x1 PUSH1 0xA0 SHL SUB AND PUSH1 0x20 DUP3 ADD MSTORE PUSH1 0x40 ADD SWAP1 JUMP JUMPDEST PUSH2 0x1C44 DUP1 PUSH3 0x4E6 PUSH1 0x0 CODECOPY PUSH1 0x0 RETURN INVALID PUSH1 0x80 PUSH1 0x40 MSTORE CALLVALUE DUP1 ISZERO PUSH2 0x10 JUMPI PUSH1 0x0 DUP1 REVERT JUMPDEST POP PUSH1 0x4 CALLDATASIZE LT PUSH2 0x12C JUMPI PUSH1 0x0 CALLDATALOAD PUSH1 0xE0 SHR DUP1 PUSH4 0x98038DAD GT PUSH2 0xAD JUMPI DUP1 PUSH4 0xDBD8987C GT PUSH2 0x71 JUMPI DUP1 PUSH4 0xDBD8987C EQ PUSH2 0x24D JUMPI DUP1 PUSH4 0xE2DDE054 EQ PUSH2 0x255 JUMPI DUP1 PUSH4 0xE306F779 EQ PUSH2 0x25D JUMPI DUP1 PUSH4 0xF2FDE38B EQ PUSH2 0x265 JUMPI DUP1 PUSH4 0xFF17FE59 EQ PUSH2 0x278 JUMPI PUSH2 0x12C JUMP JUMPDEST DUP1 PUSH4 0x98038DAD EQ PUSH2 0x1F7 JUMPI DUP1 PUSH4 0x986FF672 EQ PUSH2 0x217 JUMPI DUP1 PUSH4 0x9A8A0592 EQ PUSH2 0x22A JUMPI DUP1 PUSH4 0xB5C7EC5D EQ PUSH2 0x232 JUMPI DUP1 PUSH4 0xC37F03C7 EQ PUSH2 0x245 JUMPI PUSH2 0x12C JUMP JUMPDEST DUP1 PUSH4 0x715018A6 GT PUSH2 0xF4 JUMPI DUP1 PUSH4 0x715018A6 EQ PUSH2 0x1AA JUMPI DUP1 PUSH4 0x8243D01F EQ PUSH2 0x1B4 JUMPI DUP1 PUSH4 0x83C3E77A EQ PUSH2 0x1C9 JUMPI DUP1 PUSH4 0x8DA5CB5B EQ PUSH2 0x1DC JUMPI DUP1 PUSH4 0x93634702 EQ PUSH2 0x1E4 JUMPI PUSH2 0x12C JUMP JUMPDEST DUP1 PUSH4 0x2706BC91 EQ PUSH2 0x131 JUMPI DUP1 PUSH4 0x288CDC91 EQ PUSH2 0x15A JUMPI DUP1 PUSH4 0x2AC12622 EQ PUSH2 0x17A JUMPI DUP1 PUSH4 0x5C975ABB EQ PUSH2 0x18D JUMPI DUP1 PUSH4 0x6CF25C4E EQ PUSH2 0x195 JUMPI JUMPDEST PUSH1 0x0 DUP1 REVERT JUMPDEST PUSH2 0x144 PUSH2 0x13F CALLDATASIZE PUSH1 0x4 PUSH2 0x1422 JUMP JUMPDEST PUSH2 0x28B JUMP JUMPDEST PUSH1 0x40 MLOAD PUSH2 0x151 SWAP2 SWAP1 PUSH2 0x1A1B JUMP JUMPDEST PUSH1 0x40 MLOAD DUP1 SWAP2 SUB SWAP1 RETURN JUMPDEST PUSH2 0x16D PUSH2 0x168 CALLDATASIZE PUSH1 0x4 PUSH2 0x13A8 JUMP JUMPDEST PUSH2 0x313 JUMP JUMPDEST PUSH1 0x40 MLOAD PUSH2 0x151 SWAP2 SWAP1 PUSH2 0x1575 JUMP JUMPDEST PUSH2 0x16D PUSH2 0x188 CALLDATASIZE PUSH1 0x4 PUSH2 0x13A8 JUMP JUMPDEST PUSH2 0x328 JUMP JUMPDEST PUSH2 0x16D PUSH2 0x33D JUMP JUMPDEST PUSH2 0x19D PUSH2 0x34D JUMP JUMPDEST PUSH1 0x40 MLOAD PUSH2 0x151 SWAP2 SWAP1 PUSH2 0x14E2 JUMP JUMPDEST PUSH2 0x1B2 PUSH2 0x35C JUMP JUMPDEST STOP JUMPDEST PUSH2 0x1BC PUSH2 0x3E4 JUMP JUMPDEST PUSH1 0x40 MLOAD PUSH2 0x151 SWAP2 SWAP1 PUSH2 0x1580 JUMP JUMPDEST PUSH2 0x1B2 PUSH2 0x1D7 CALLDATASIZE PUSH1 0x4 PUSH2 0x148D JUMP JUMPDEST PUSH2 0x3EB JUMP JUMPDEST PUSH2 0x19D PUSH2 0x4E1 JUMP JUMPDEST PUSH2 0x16D PUSH2 0x1F2 CALLDATASIZE PUSH1 0x4 PUSH2 0x13C0 JUMP JUMPDEST PUSH2 0x4F0 JUMP JUMPDEST PUSH2 0x20A PUSH2 0x205 CALLDATASIZE PUSH1 0x4 PUSH2 0x1422 JUMP JUMPDEST PUSH2 0x60D JUMP JUMPDEST PUSH1 0x40 MLOAD PUSH2 0x151 SWAP2 SWAP1 PUSH2 0x1A3C JUMP JUMPDEST PUSH2 0x1B2 PUSH2 0x225 CALLDATASIZE PUSH1 0x4 PUSH2 0x1422 JUMP JUMPDEST PUSH2 0x72E JUMP JUMPDEST PUSH2 0x1BC PUSH2 0x764 JUMP JUMPDEST PUSH2 0x16D PUSH2 0x240 CALLDATASIZE PUSH1 0x4 PUSH2 0x143E JUMP JUMPDEST PUSH2 0x76A JUMP JUMPDEST PUSH2 0x1BC PUSH2 0x7D2 JUMP JUMPDEST PUSH2 0x1BC PUSH2 0x7DE JUMP JUMPDEST PUSH2 0x1BC PUSH2 0x7E4 JUMP JUMPDEST PUSH2 0x1BC PUSH2 0x7EA JUMP JUMPDEST PUSH2 0x1B2 PUSH2 0x273 CALLDATASIZE PUSH1 0x4 PUSH2 0x136D JUMP JUMPDEST PUSH2 0x7F0 JUMP JUMPDEST PUSH2 0x1BC PUSH2 0x286 CALLDATASIZE PUSH1 0x4 PUSH2 0x1422 JUMP JUMPDEST PUSH2 0x8A6 JUMP JUMPDEST PUSH2 0x293 PUSH2 0x11D2 JUMP JUMPDEST PUSH1 0x0 PUSH2 0x29E DUP4 PUSH2 0x8A6 JUMP JUMPDEST SWAP1 POP PUSH2 0x2B8 DUP4 PUSH2 0x180 ADD MLOAD DUP3 PUSH2 0x8DB SWAP1 SWAP2 SWAP1 PUSH4 0xFFFFFFFF AND JUMP JUMPDEST PUSH1 0x20 DUP4 ADD DUP2 SWAP1 MSTORE PUSH1 0x7 SLOAD PUSH2 0x2D2 SWAP2 SWAP1 PUSH4 0xFFFFFFFF PUSH2 0x8DB AND JUMP JUMPDEST PUSH1 0x40 DUP4 ADD MSTORE PUSH1 0x20 DUP3 ADD MLOAD PUSH2 0x2ED SWAP1 DUP3 SWAP1 PUSH4 0xFFFFFFFF PUSH2 0x905 AND JUMP JUMPDEST DUP3 MSTORE PUSH1 0x40 DUP3 ADD MLOAD PUSH1 0x20 DUP4 ADD MLOAD PUSH2 0x308 SWAP2 PUSH4 0xFFFFFFFF PUSH2 0x905 AND JUMP JUMPDEST PUSH1 0x20 DUP4 ADD MSTORE POP SWAP2 SWAP1 POP JUMP JUMPDEST PUSH1 0x5 PUSH1 0x20 MSTORE PUSH1 0x0 SWAP1 DUP2 MSTORE PUSH1 0x40 SWAP1 KECCAK256 SLOAD PUSH1 0xFF AND DUP2 JUMP JUMPDEST PUSH1 0x6 PUSH1 0x20 MSTORE PUSH1 0x0 SWAP1 DUP2 MSTORE PUSH1 0x40 SWAP1 KECCAK256 SLOAD PUSH1 0xFF AND DUP2 JUMP JUMPDEST PUSH1 0x0 SLOAD PUSH1 0x1 PUSH1 0xA0 SHL SWAP1 DIV PUSH1 0xFF AND SWAP1 JUMP JUMPDEST PUSH1 0x8 SLOAD PUSH1 0x1 PUSH1 0x1 PUSH1 0xA0 SHL SUB AND DUP2 JUMP JUMPDEST PUSH2 0x364 PUSH2 0x947 JUMP JUMPDEST PUSH1 0x0 SLOAD PUSH1 0x1 PUSH1 0x1 PUSH1 0xA0 SHL SUB SWAP1 DUP2 AND SWAP2 AND EQ PUSH2 0x39A JUMPI PUSH1 0x40 MLOAD PUSH3 0x461BCD PUSH1 0xE5 SHL DUP2 MSTORE PUSH1 0x4 ADD PUSH2 0x391 SWAP1 PUSH2 0x18FC JUMP JUMPDEST PUSH1 0x40 MLOAD DUP1 SWAP2 SUB SWAP1 REVERT JUMPDEST PUSH1 0x0 DUP1 SLOAD PUSH1 0x40 MLOAD PUSH1 0x1 PUSH1 0x1 PUSH1 0xA0 SHL SUB SWAP1 SWAP2 AND SWAP1 PUSH32 0x8BE0079C531659141344CD1FD0A4F28419497F9722A3DAAFE3B4186F6B6457E0 SWAP1 DUP4 SWAP1 LOG3 PUSH1 0x0 DUP1 SLOAD PUSH1 0x1 PUSH1 0x1 PUSH1 0xA0 SHL SUB NOT AND SWAP1 SSTORE JUMP JUMPDEST PUSH3 0x15180 DUP2 JUMP JUMPDEST PUSH2 0x3F3 PUSH2 0x947 JUMP JUMPDEST PUSH1 0x0 SLOAD PUSH1 0x1 PUSH1 0x1 PUSH1 0xA0 SHL SUB SWAP1 DUP2 AND SWAP2 AND EQ PUSH2 0x420 JUMPI PUSH1 0x40 MLOAD PUSH3 0x461BCD PUSH1 0xE5 SHL DUP2 MSTORE PUSH1 0x4 ADD PUSH2 0x391 SWAP1 PUSH2 0x18FC JUMP JUMPDEST PUSH1 0x9 SLOAD TIMESTAMP SWAP1 PUSH2 0x438 SWAP1 PUSH3 0x15180 PUSH4 0xFFFFFFFF PUSH2 0x8AD AND JUMP JUMPDEST LT PUSH2 0x455 JUMPI PUSH1 0x40 MLOAD PUSH3 0x461BCD PUSH1 0xE5 SHL DUP2 MSTORE PUSH1 0x4 ADD PUSH2 0x391 SWAP1 PUSH2 0x18D7 JUMP JUMPDEST PUSH8 0x429D069189E0000 DUP3 GT ISZERO PUSH2 0x47D JUMPI PUSH1 0x40 MLOAD PUSH3 0x461BCD PUSH1 0xE5 SHL DUP2 MSTORE PUSH1 0x4 ADD PUSH2 0x391 SWAP1 PUSH2 0x17F0 JUMP JUMPDEST PUSH1 0x7 DUP3 SWAP1 SSTORE PUSH1 0x8 DUP1 SLOAD PUSH1 0x1 PUSH1 0x1 PUSH1 0xA0 SHL SUB NOT AND PUSH1 0x1 PUSH1 0x1 PUSH1 0xA0 SHL SUB DUP4 AND OR SWAP1 SSTORE TIMESTAMP PUSH1 0x9 SSTORE PUSH1 0x40 MLOAD CALLER SWAP1 PUSH32 0x113BDCCF7B7CEAFEB2CA0A4F91A0FBB09542DD8B3EA9D06907DF13522A4D606E SWAP1 PUSH2 0x4D5 SWAP1 DUP6 SWAP1 DUP6 SWAP1 PUSH2 0x1A6D JUMP JUMPDEST PUSH1 0x40 MLOAD DUP1 SWAP2 SUB SWAP1 LOG2 POP POP JUMP JUMPDEST PUSH1 0x0 SLOAD PUSH1 0x1 PUSH1 0x1 PUSH1 0xA0 SHL SUB AND SWAP1 JUMP JUMPDEST PUSH1 0x0 PUSH1 0x1 PUSH1 0x1 PUSH1 0xA0 SHL SUB DUP4 AND PUSH2 0x518 JUMPI PUSH1 0x40 MLOAD PUSH3 0x461BCD PUSH1 0xE5 SHL DUP2 MSTORE PUSH1 0x4 ADD PUSH2 0x391 SWAP1 PUSH2 0x1842 JUMP JUMPDEST DUP2 MLOAD PUSH1 0x41 EQ PUSH2 0x539 JUMPI PUSH1 0x40 MLOAD PUSH3 0x461BCD PUSH1 0xE5 SHL DUP2 MSTORE PUSH1 0x4 ADD PUSH2 0x391 SWAP1 PUSH2 0x1670 JUMP JUMPDEST PUSH1 0x0 DUP3 PUSH1 0x40 DUP2 MLOAD DUP2 LT PUSH2 0x548 JUMPI INVALID JUMPDEST ADD PUSH1 0x20 ADD MLOAD PUSH1 0xF8 SHR SWAP1 POP PUSH1 0x1B DUP2 EQ DUP1 PUSH2 0x564 JUMPI POP DUP1 PUSH1 0xFF AND PUSH1 0x1C EQ JUMPDEST PUSH2 0x580 JUMPI PUSH1 0x40 MLOAD PUSH3 0x461BCD PUSH1 0xE5 SHL DUP2 MSTORE PUSH1 0x4 ADD PUSH2 0x391 SWAP1 PUSH2 0x1958 JUMP JUMPDEST PUSH1 0x0 PUSH2 0x58D DUP5 PUSH1 0x0 PUSH2 0x94B JUMP JUMPDEST SWAP1 POP PUSH1 0x0 PUSH2 0x59C DUP6 PUSH1 0x20 PUSH2 0x94B JUMP JUMPDEST SWAP1 POP PUSH1 0x1 DUP8 DUP5 DUP5 DUP5 PUSH1 0x40 MLOAD PUSH1 0x0 DUP2 MSTORE PUSH1 0x20 ADD PUSH1 0x40 MSTORE PUSH1 0x40 MLOAD PUSH2 0x5C1 SWAP5 SWAP4 SWAP3 SWAP2 SWAP1 PUSH2 0x161F JUMP JUMPDEST PUSH1 0x20 PUSH1 0x40 MLOAD PUSH1 0x20 DUP2 SUB SWAP1 DUP1 DUP5 SUB SWAP1 DUP6 GAS STATICCALL ISZERO DUP1 ISZERO PUSH2 0x5E3 JUMPI RETURNDATASIZE PUSH1 0x0 DUP1 RETURNDATACOPY RETURNDATASIZE PUSH1 0x0 REVERT JUMPDEST POP POP POP PUSH1 0x20 PUSH1 0x40 MLOAD SUB MLOAD PUSH1 0x1 PUSH1 0x1 PUSH1 0xA0 SHL SUB AND DUP7 PUSH1 0x1 PUSH1 0x1 PUSH1 0xA0 SHL SUB AND EQ SWAP4 POP POP POP POP SWAP4 SWAP3 POP POP POP JUMP JUMPDEST PUSH2 0x615 PUSH2 0x11F3 JUMP JUMPDEST PUSH2 0x61E DUP3 PUSH2 0x97A JUMP JUMPDEST PUSH1 0x20 DUP1 DUP4 ADD DUP3 SWAP1 MSTORE PUSH1 0x0 SWAP2 DUP3 MSTORE PUSH1 0x5 SWAP1 MSTORE PUSH1 0x40 SWAP1 DUP2 SWAP1 KECCAK256 SLOAD PUSH1 0xFF AND ISZERO ISZERO SWAP1 DUP3 ADD MSTORE PUSH1 0x2 DUP3 PUSH1 0x60 ADD MLOAD LT PUSH2 0x664 JUMPI DUP1 PUSH1 0x0 JUMPDEST SWAP1 DUP2 PUSH1 0x5 DUP2 GT ISZERO PUSH2 0x65C JUMPI INVALID JUMPDEST SWAP1 MSTORE POP PUSH2 0x729 JUMP JUMPDEST PUSH1 0x80 DUP3 ADD MLOAD PUSH2 0x675 JUMPI DUP1 PUSH1 0x0 PUSH2 0x64F JUMP JUMPDEST PUSH1 0xA0 DUP3 ADD MLOAD PUSH2 0x686 JUMPI DUP1 PUSH1 0x0 PUSH2 0x64F JUMP JUMPDEST PUSH1 0x40 DUP3 ADD MLOAD PUSH1 0x1 PUSH1 0x1 PUSH1 0xA0 SHL SUB AND ISZERO DUP1 ISZERO SWAP1 PUSH2 0x6AF JUMPI POP PUSH1 0x40 DUP3 ADD MLOAD PUSH1 0x1 PUSH1 0x1 PUSH1 0xA0 SHL SUB AND CALLER EQ ISZERO JUMPDEST ISZERO PUSH2 0x6BC JUMPI DUP1 PUSH1 0x1 PUSH2 0x64F JUMP JUMPDEST PUSH8 0x16345785D8A0000 DUP3 PUSH2 0x180 ADD MLOAD GT ISZERO PUSH2 0x6D9 JUMPI DUP1 PUSH1 0x0 PUSH2 0x64F JUMP JUMPDEST DUP1 PUSH1 0x40 ADD MLOAD ISZERO PUSH2 0x6EB JUMPI DUP1 PUSH1 0x4 PUSH2 0x64F JUMP JUMPDEST PUSH1 0x20 DUP1 DUP3 ADD MLOAD PUSH1 0x0 SWAP1 DUP2 MSTORE PUSH1 0x6 SWAP1 SWAP2 MSTORE PUSH1 0x40 SWAP1 KECCAK256 SLOAD PUSH1 0xFF AND ISZERO PUSH2 0x710 JUMPI DUP1 PUSH1 0x5 PUSH2 0x64F JUMP JUMPDEST TIMESTAMP DUP3 PUSH1 0xC0 ADD MLOAD LT ISZERO PUSH2 0x724 JUMPI DUP1 PUSH1 0x3 PUSH2 0x64F JUMP JUMPDEST PUSH1 0x2 DUP2 MSTORE JUMPDEST SWAP2 SWAP1 POP JUMP JUMPDEST PUSH1 0x0 SLOAD PUSH1 0x1 PUSH1 0xA0 SHL SWAP1 DIV PUSH1 0xFF AND ISZERO PUSH2 0x758 JUMPI PUSH1 0x40 MLOAD PUSH3 0x461BCD PUSH1 0xE5 SHL DUP2 MSTORE PUSH1 0x4 ADD PUSH2 0x391 SWAP1 PUSH2 0x1818 JUMP JUMPDEST PUSH2 0x761 DUP2 PUSH2 0x98D JUMP JUMPDEST POP JUMP JUMPDEST PUSH1 0x2 SLOAD DUP2 JUMP JUMPDEST PUSH1 0x0 DUP1 SLOAD PUSH1 0x1 PUSH1 0xA0 SHL SWAP1 DIV PUSH1 0xFF AND ISZERO PUSH2 0x795 JUMPI PUSH1 0x40 MLOAD PUSH3 0x461BCD PUSH1 0xE5 SHL DUP2 MSTORE PUSH1 0x4 ADD PUSH2 0x391 SWAP1 PUSH2 0x1818 JUMP JUMPDEST PUSH1 0x2 PUSH1 0x1 SLOAD EQ ISZERO PUSH2 0x7B8 JUMPI PUSH1 0x40 MLOAD PUSH3 0x461BCD PUSH1 0xE5 SHL DUP2 MSTORE PUSH1 0x4 ADD PUSH2 0x391 SWAP1 PUSH2 0x19E4 JUMP JUMPDEST PUSH1 0x2 PUSH1 0x1 SSTORE PUSH2 0x7C7 DUP4 DUP4 PUSH2 0x9D2 JUMP JUMPDEST PUSH1 0x1 DUP1 SSTORE SWAP4 SWAP3 POP POP POP JUMP JUMPDEST PUSH8 0x429D069189E0000 DUP2 JUMP JUMPDEST PUSH1 0x7 SLOAD DUP2 JUMP JUMPDEST PUSH1 0x9 SLOAD DUP2 JUMP JUMPDEST PUSH1 0x4 SLOAD DUP2 JUMP JUMPDEST PUSH2 0x7F8 PUSH2 0x947 JUMP JUMPDEST PUSH1 0x0 SLOAD PUSH1 0x1 PUSH1 0x1 PUSH1 0xA0 SHL SUB SWAP1 DUP2 AND SWAP2 AND EQ PUSH2 0x825 JUMPI PUSH1 0x40 MLOAD PUSH3 0x461BCD PUSH1 0xE5 SHL DUP2 MSTORE PUSH1 0x4 ADD PUSH2 0x391 SWAP1 PUSH2 0x18FC JUMP JUMPDEST PUSH1 0x1 PUSH1 0x1 PUSH1 0xA0 SHL SUB DUP2 AND PUSH2 0x84B JUMPI PUSH1 0x40 MLOAD PUSH3 0x461BCD PUSH1 0xE5 SHL DUP2 MSTORE PUSH1 0x4 ADD PUSH2 0x391 SWAP1 PUSH2 0x16EF JUMP JUMPDEST PUSH1 0x0 DUP1 SLOAD PUSH1 0x40 MLOAD PUSH1 0x1 PUSH1 0x1 PUSH1 0xA0 SHL SUB DUP1 DUP6 AND SWAP4 SWAP3 AND SWAP2 PUSH32 0x8BE0079C531659141344CD1FD0A4F28419497F9722A3DAAFE3B4186F6B6457E0 SWAP2 LOG3 PUSH1 0x0 DUP1 SLOAD PUSH1 0x1 PUSH1 0x1 PUSH1 0xA0 SHL SUB NOT AND PUSH1 0x1 PUSH1 0x1 PUSH1 0xA0 SHL SUB SWAP3 SWAP1 SWAP3 AND SWAP2 SWAP1 SWAP2 OR SWAP1 SSTORE JUMP JUMPDEST PUSH1 0xA0 ADD MLOAD SWAP1 JUMP JUMPDEST PUSH1 0x0 DUP3 DUP3 ADD DUP4 DUP2 LT ISZERO PUSH2 0x8D2 JUMPI PUSH1 0x40 MLOAD PUSH3 0x461BCD PUSH1 0xE5 SHL DUP2 MSTORE PUSH1 0x4 ADD PUSH2 0x391 SWAP1 PUSH2 0x1735 JUMP JUMPDEST SWAP1 POP JUMPDEST SWAP3 SWAP2 POP POP JUMP JUMPDEST PUSH1 0x0 PUSH2 0x8D2 PUSH8 0xDE0B6B3A7640000 PUSH2 0x8F9 DUP6 DUP6 PUSH4 0xFFFFFFFF PUSH2 0xA71 AND JUMP JUMPDEST SWAP1 PUSH4 0xFFFFFFFF PUSH2 0xAAB AND JUMP JUMPDEST PUSH1 0x0 PUSH2 0x8D2 DUP4 DUP4 PUSH1 0x40 MLOAD DUP1 PUSH1 0x40 ADD PUSH1 0x40 MSTORE DUP1 PUSH1 0x1E DUP2 MSTORE PUSH1 0x20 ADD PUSH32 0x536166654D6174683A207375627472616374696F6E206F766572666C6F770000 DUP2 MSTORE POP PUSH2 0xAED JUMP JUMPDEST CALLER SWAP1 JUMP JUMPDEST PUSH1 0x0 DUP2 PUSH1 0x20 ADD DUP4 MLOAD LT ISZERO PUSH2 0x971 JUMPI PUSH1 0x40 MLOAD PUSH3 0x461BCD PUSH1 0xE5 SHL DUP2 MSTORE PUSH1 0x4 ADD PUSH2 0x391 SWAP1 PUSH2 0x1870 JUMP JUMPDEST POP ADD PUSH1 0x20 ADD MLOAD SWAP1 JUMP JUMPDEST PUSH1 0x0 PUSH2 0x8D5 PUSH2 0x988 DUP4 PUSH2 0xB19 JUMP JUMPDEST PUSH2 0xBDB JUMP JUMPDEST PUSH2 0x995 PUSH2 0x11F3 JUMP JUMPDEST PUSH2 0x99E DUP3 PUSH2 0x60D JUMP JUMPDEST SWAP1 POP PUSH2 0x9AA DUP3 DUP3 PUSH2 0xC00 JUMP JUMPDEST PUSH1 0x2 DUP2 MLOAD PUSH1 0x5 DUP2 GT ISZERO PUSH2 0x9B9 JUMPI INVALID JUMPDEST EQ PUSH2 0x9C4 JUMPI POP PUSH2 0x761 JUMP JUMPDEST PUSH2 0x9CE DUP3 DUP3 PUSH2 0xC98 JUMP JUMPDEST POP POP JUMP JUMPDEST PUSH1 0x0 PUSH2 0x9DC PUSH2 0x11F3 JUMP JUMPDEST PUSH2 0x9E5 DUP5 PUSH2 0x60D JUMP JUMPDEST SWAP1 POP PUSH2 0x9F2 DUP5 DUP3 DUP6 PUSH2 0xD35 JUMP JUMPDEST PUSH2 0x9FA PUSH2 0x11D2 JUMP JUMPDEST PUSH2 0xA03 DUP6 PUSH2 0x28B JUMP JUMPDEST DUP6 MLOAD SWAP1 SWAP2 POP PUSH1 0x1 PUSH1 0x1 PUSH1 0xA0 SHL SUB AND ISZERO PUSH2 0xA1D JUMPI DUP5 MLOAD PUSH2 0xA1F JUMP JUMPDEST CALLER JUMPDEST PUSH1 0x1 PUSH1 0x1 PUSH1 0xA0 SHL SUB SWAP1 DUP2 AND DUP7 MSTORE PUSH1 0x20 DUP7 ADD MLOAD AND ISZERO PUSH2 0xA41 JUMPI DUP5 PUSH1 0x20 ADD MLOAD PUSH2 0xA43 JUMP JUMPDEST CALLER JUMPDEST PUSH1 0x1 PUSH1 0x1 PUSH1 0xA0 SHL SUB AND PUSH1 0x20 DUP7 ADD MSTORE PUSH2 0xA5C DUP6 DUP4 DUP4 PUSH2 0xEBB JUMP JUMPDEST PUSH2 0xA66 DUP6 DUP3 PUSH2 0xF61 JUMP JUMPDEST POP PUSH1 0x1 SWAP5 SWAP4 POP POP POP POP JUMP JUMPDEST PUSH1 0x0 DUP3 PUSH2 0xA80 JUMPI POP PUSH1 0x0 PUSH2 0x8D5 JUMP JUMPDEST DUP3 DUP3 MUL DUP3 DUP5 DUP3 DUP2 PUSH2 0xA8D JUMPI INVALID JUMPDEST DIV EQ PUSH2 0x8D2 JUMPI PUSH1 0x40 MLOAD PUSH3 0x461BCD PUSH1 0xE5 SHL DUP2 MSTORE PUSH1 0x4 ADD PUSH2 0x391 SWAP1 PUSH2 0x1896 JUMP JUMPDEST PUSH1 0x0 PUSH2 0x8D2 DUP4 DUP4 PUSH1 0x40 MLOAD DUP1 PUSH1 0x40 ADD PUSH1 0x40 MSTORE DUP1 PUSH1 0x1A DUP2 MSTORE PUSH1 0x20 ADD PUSH32 0x536166654D6174683A206469766973696F6E206279207A65726F000000000000 DUP2 MSTORE POP PUSH2 0x119B JUMP JUMPDEST PUSH1 0x0 DUP2 DUP5 DUP5 GT ISZERO PUSH2 0xB11 JUMPI PUSH1 0x40 MLOAD PUSH3 0x461BCD PUSH1 0xE5 SHL DUP2 MSTORE PUSH1 0x4 ADD PUSH2 0x391 SWAP2 SWAP1 PUSH2 0x163D JUMP JUMPDEST POP POP POP SWAP1 SUB SWAP1 JUMP JUMPDEST PUSH1 0x0 PUSH1 0x40 MLOAD DUP1 PUSH2 0x120 ADD PUSH1 0x40 MSTORE DUP1 PUSH1 0xE7 DUP2 MSTORE PUSH1 0x20 ADD PUSH2 0x1B28 PUSH1 0xE7 SWAP2 CODECOPY PUSH1 0x40 MLOAD PUSH1 0x20 ADD PUSH2 0xB45 SWAP2 SWAP1 PUSH2 0x14C6 JUMP JUMPDEST PUSH1 0x40 MLOAD PUSH1 0x20 DUP2 DUP4 SUB SUB DUP2 MSTORE SWAP1 PUSH1 0x40 MSTORE DUP1 MLOAD SWAP1 PUSH1 0x20 ADD KECCAK256 DUP3 PUSH1 0x0 ADD MLOAD DUP4 PUSH1 0x20 ADD MLOAD DUP5 PUSH1 0x40 ADD MLOAD DUP6 PUSH1 0x60 ADD MLOAD DUP7 PUSH1 0x80 ADD MLOAD DUP8 PUSH1 0xA0 ADD MLOAD DUP9 PUSH1 0xC0 ADD MLOAD DUP10 PUSH1 0xE0 ADD MLOAD DUP11 PUSH2 0x100 ADD MLOAD DUP12 PUSH2 0x120 ADD MLOAD DUP13 PUSH2 0x140 ADD MLOAD DUP14 PUSH2 0x160 ADD MLOAD DUP15 PUSH2 0x180 ADD MLOAD PUSH1 0x40 MLOAD PUSH1 0x20 ADD PUSH2 0xBBE SWAP15 SWAP14 SWAP13 SWAP12 SWAP11 SWAP10 SWAP9 SWAP8 SWAP7 SWAP6 SWAP5 SWAP4 SWAP3 SWAP2 SWAP1 PUSH2 0x1589 JUMP JUMPDEST PUSH1 0x40 MLOAD PUSH1 0x20 DUP2 DUP4 SUB SUB DUP2 MSTORE SWAP1 PUSH1 0x40 MSTORE DUP1 MLOAD SWAP1 PUSH1 0x20 ADD KECCAK256 SWAP1 POP SWAP2 SWAP1 POP JUMP JUMPDEST PUSH1 0x4 SLOAD PUSH1 0x40 MLOAD PUSH2 0x1901 PUSH1 0xF0 SHL DUP2 MSTORE PUSH1 0x2 DUP2 ADD SWAP2 SWAP1 SWAP2 MSTORE PUSH1 0x22 DUP2 ADD SWAP2 SWAP1 SWAP2 MSTORE PUSH1 0x42 SWAP1 KECCAK256 SWAP1 JUMP JUMPDEST PUSH1 0x1 DUP2 MLOAD PUSH1 0x5 DUP2 GT ISZERO PUSH2 0xC0F JUMPI INVALID JUMPDEST EQ ISZERO PUSH2 0xC2D JUMPI PUSH1 0x40 MLOAD PUSH3 0x461BCD PUSH1 0xE5 SHL DUP2 MSTORE PUSH1 0x4 ADD PUSH2 0x391 SWAP1 PUSH2 0x17C6 JUMP JUMPDEST PUSH1 0x60 DUP3 ADD MLOAD PUSH2 0xC5F JUMPI DUP2 MLOAD PUSH1 0x1 PUSH1 0x1 PUSH1 0xA0 SHL SUB AND CALLER EQ PUSH2 0xC5F JUMPI PUSH1 0x40 MLOAD PUSH3 0x461BCD PUSH1 0xE5 SHL DUP2 MSTORE PUSH1 0x4 ADD PUSH2 0x391 SWAP1 PUSH2 0x1931 JUMP JUMPDEST PUSH1 0x1 DUP3 PUSH1 0x60 ADD MLOAD EQ ISZERO PUSH2 0x9CE JUMPI PUSH1 0x20 DUP3 ADD MLOAD PUSH1 0x1 PUSH1 0x1 PUSH1 0xA0 SHL SUB AND CALLER EQ PUSH2 0x9CE JUMPI PUSH1 0x40 MLOAD PUSH3 0x461BCD PUSH1 0xE5 SHL DUP2 MSTORE PUSH1 0x4 ADD PUSH2 0x391 SWAP1 PUSH2 0x16A7 JUMP JUMPDEST PUSH1 0x20 DUP1 DUP3 ADD MLOAD PUSH1 0x0 SWAP1 DUP2 MSTORE PUSH1 0x6 SWAP1 SWAP2 MSTORE PUSH1 0x40 DUP2 KECCAK256 DUP1 SLOAD PUSH1 0xFF NOT AND PUSH1 0x1 OR SWAP1 SSTORE PUSH2 0x160 DUP4 ADD MLOAD PUSH1 0x1 PUSH1 0x1 PUSH1 0xA0 SHL SUB AND SWAP1 DUP4 PUSH1 0x60 ADD MLOAD EQ PUSH2 0xCDB JUMPI DUP3 PUSH1 0x20 ADD MLOAD PUSH2 0xCDE JUMP JUMPDEST DUP3 MLOAD JUMPDEST PUSH1 0x1 PUSH1 0x1 PUSH1 0xA0 SHL SUB AND DUP3 PUSH1 0x20 ADD MLOAD PUSH32 0x8425FDF5892E47ED0A2F0B7EED7178B11002D8A88E551CF16F0AE90CD105F78 DUP6 PUSH2 0x100 ADD MLOAD DUP7 PUSH2 0x140 ADD MLOAD CALLER PUSH1 0x40 MLOAD PUSH2 0xD29 SWAP4 SWAP3 SWAP2 SWAP1 PUSH2 0x14F6 JUMP JUMPDEST PUSH1 0x40 MLOAD DUP1 SWAP2 SUB SWAP1 LOG4 POP POP JUMP JUMPDEST PUSH1 0x0 DUP3 MLOAD PUSH1 0x5 DUP2 GT ISZERO PUSH2 0xD44 JUMPI INVALID JUMPDEST EQ ISZERO PUSH2 0xD62 JUMPI PUSH1 0x40 MLOAD PUSH3 0x461BCD PUSH1 0xE5 SHL DUP2 MSTORE PUSH1 0x4 ADD PUSH2 0x391 SWAP1 PUSH2 0x16CE JUMP JUMPDEST PUSH1 0x4 DUP3 MLOAD PUSH1 0x5 DUP2 GT ISZERO PUSH2 0xD71 JUMPI INVALID JUMPDEST EQ ISZERO PUSH2 0xD8F JUMPI PUSH1 0x40 MLOAD PUSH3 0x461BCD PUSH1 0xE5 SHL DUP2 MSTORE PUSH1 0x4 ADD PUSH2 0x391 SWAP1 PUSH2 0x1979 JUMP JUMPDEST PUSH1 0x3 DUP3 MLOAD PUSH1 0x5 DUP2 GT ISZERO PUSH2 0xD9E JUMPI INVALID JUMPDEST EQ ISZERO PUSH2 0xDBC JUMPI PUSH1 0x40 MLOAD PUSH3 0x461BCD PUSH1 0xE5 SHL DUP2 MSTORE PUSH1 0x4 ADD PUSH2 0x391 SWAP1 PUSH2 0x1999 JUMP JUMPDEST PUSH1 0x5 DUP3 MLOAD PUSH1 0x5 DUP2 GT ISZERO PUSH2 0xDCB JUMPI INVALID JUMPDEST EQ ISZERO PUSH2 0xDE9 JUMPI PUSH1 0x40 MLOAD PUSH3 0x461BCD PUSH1 0xE5 SHL DUP2 MSTORE PUSH1 0x4 ADD PUSH2 0x391 SWAP1 PUSH2 0x176C JUMP JUMPDEST PUSH1 0x1 DUP3 MLOAD PUSH1 0x5 DUP2 GT ISZERO PUSH2 0xDF8 JUMPI INVALID JUMPDEST EQ ISZERO PUSH2 0xE16 JUMPI PUSH1 0x40 MLOAD PUSH3 0x461BCD PUSH1 0xE5 SHL DUP2 MSTORE PUSH1 0x4 ADD PUSH2 0x391 SWAP1 PUSH2 0x17C6 JUMP JUMPDEST PUSH1 0x2 DUP3 MLOAD PUSH1 0x5 DUP2 GT ISZERO PUSH2 0xE25 JUMPI INVALID JUMPDEST EQ PUSH2 0xE42 JUMPI PUSH1 0x40 MLOAD PUSH3 0x461BCD PUSH1 0xE5 SHL DUP2 MSTORE PUSH1 0x4 ADD PUSH2 0x391 SWAP1 PUSH2 0x19BA JUMP JUMPDEST PUSH1 0x60 DUP4 ADD MLOAD PUSH2 0xE7A JUMPI PUSH2 0xE5E DUP3 PUSH1 0x20 ADD MLOAD DUP5 PUSH1 0x0 ADD MLOAD DUP4 PUSH2 0x4F0 JUMP JUMPDEST PUSH2 0xE7A JUMPI PUSH1 0x40 MLOAD PUSH3 0x461BCD PUSH1 0xE5 SHL DUP2 MSTORE PUSH1 0x4 ADD PUSH2 0x391 SWAP1 PUSH2 0x178F JUMP JUMPDEST PUSH1 0x1 DUP4 PUSH1 0x60 ADD MLOAD EQ ISZERO PUSH2 0xEB6 JUMPI PUSH2 0xE9A DUP3 PUSH1 0x20 ADD MLOAD DUP5 PUSH1 0x20 ADD MLOAD DUP4 PUSH2 0x4F0 JUMP JUMPDEST PUSH2 0xEB6 JUMPI PUSH1 0x40 MLOAD PUSH3 0x461BCD PUSH1 0xE5 SHL DUP2 MSTORE PUSH1 0x4 ADD PUSH2 0x391 SWAP1 PUSH2 0x178F JUMP JUMPDEST POP POP POP JUMP JUMPDEST PUSH1 0x20 DUP1 DUP4 ADD DUP1 MLOAD PUSH1 0x0 SWAP1 DUP2 MSTORE PUSH1 0x5 DUP4 MSTORE PUSH1 0x40 SWAP1 DUP2 SWAP1 KECCAK256 DUP1 SLOAD PUSH1 0xFF NOT AND PUSH1 0x1 OR SWAP1 SSTORE DUP6 MLOAD PUSH2 0x160 DUP8 ADD MLOAD SWAP3 MLOAD DUP6 DUP6 ADD MLOAD DUP7 DUP5 ADD MLOAD PUSH2 0x120 DUP11 ADD MLOAD PUSH1 0x80 DUP12 ADD MLOAD PUSH2 0x100 DUP13 ADD MLOAD DUP11 MLOAD SWAP10 DUP14 ADD MLOAD PUSH2 0x140 DUP15 ADD MLOAD SWAP9 MLOAD PUSH1 0x1 PUSH1 0x1 PUSH1 0xA0 SHL SUB SWAP9 DUP10 AND SWAP12 SWAP11 SWAP1 SWAP9 AND SWAP10 SWAP7 SWAP9 PUSH32 0xA246499DA7279E3D5878AD549256043FEED07FC6FD059B1245DB41017BF8CBB8 SWAP9 PUSH2 0xF54 SWAP9 CALLER SWAP7 SWAP6 SWAP5 SWAP4 SWAP1 SWAP3 SWAP1 SWAP2 PUSH2 0x1A84 JUMP JUMPDEST PUSH1 0x40 MLOAD DUP1 SWAP2 SUB SWAP1 LOG4 POP POP POP JUMP JUMPDEST PUSH2 0x140 DUP3 ADD MLOAD PUSH1 0x20 DUP4 ADD MLOAD DUP4 MLOAD DUP4 MLOAD PUSH1 0x40 MLOAD PUSH4 0x23B872DD PUSH1 0xE0 SHL DUP2 MSTORE PUSH1 0x1 PUSH1 0x1 PUSH1 0xA0 SHL SUB SWAP1 SWAP5 AND SWAP4 PUSH4 0x23B872DD SWAP4 PUSH2 0xF9F SWAP4 SWAP1 SWAP3 SWAP1 SWAP2 PUSH1 0x4 ADD PUSH2 0x1519 JUMP JUMPDEST PUSH1 0x20 PUSH1 0x40 MLOAD DUP1 DUP4 SUB DUP2 PUSH1 0x0 DUP8 DUP1 EXTCODESIZE ISZERO DUP1 ISZERO PUSH2 0xFB9 JUMPI PUSH1 0x0 DUP1 REVERT JUMPDEST POP GAS CALL ISZERO DUP1 ISZERO PUSH2 0xFCD JUMPI RETURNDATASIZE PUSH1 0x0 DUP1 RETURNDATACOPY RETURNDATASIZE PUSH1 0x0 REVERT JUMPDEST POP POP POP POP PUSH1 0x40 MLOAD RETURNDATASIZE PUSH1 0x1F NOT PUSH1 0x1F DUP3 ADD AND DUP3 ADD DUP1 PUSH1 0x40 MSTORE POP DUP2 ADD SWAP1 PUSH2 0xFF1 SWAP2 SWAP1 PUSH2 0x1388 JUMP JUMPDEST POP DUP2 PUSH2 0x140 ADD MLOAD PUSH1 0x1 PUSH1 0x1 PUSH1 0xA0 SHL SUB AND PUSH4 0x23B872DD DUP4 PUSH1 0x20 ADD MLOAD DUP5 PUSH2 0x160 ADD MLOAD DUP5 PUSH1 0x20 ADD MLOAD PUSH1 0x40 MLOAD DUP5 PUSH4 0xFFFFFFFF AND PUSH1 0xE0 SHL DUP2 MSTORE PUSH1 0x4 ADD PUSH2 0x1034 SWAP4 SWAP3 SWAP2 SWAP1 PUSH2 0x1519 JUMP JUMPDEST PUSH1 0x20 PUSH1 0x40 MLOAD DUP1 DUP4 SUB DUP2 PUSH1 0x0 DUP8 DUP1 EXTCODESIZE ISZERO DUP1 ISZERO PUSH2 0x104E JUMPI PUSH1 0x0 DUP1 REVERT JUMPDEST POP GAS CALL ISZERO DUP1 ISZERO PUSH2 0x1062 JUMPI RETURNDATASIZE PUSH1 0x0 DUP1 RETURNDATACOPY RETURNDATASIZE PUSH1 0x0 REVERT JUMPDEST POP POP POP POP PUSH1 0x40 MLOAD RETURNDATASIZE PUSH1 0x1F NOT PUSH1 0x1F DUP3 ADD AND DUP3 ADD DUP1 PUSH1 0x40 MSTORE POP DUP2 ADD SWAP1 PUSH2 0x1086 SWAP2 SWAP1 PUSH2 0x1388 JUMP JUMPDEST POP PUSH2 0x140 DUP3 ADD MLOAD PUSH1 0x20 DUP4 ADD MLOAD PUSH1 0x8 SLOAD PUSH1 0x40 DUP1 DUP6 ADD MLOAD SWAP1 MLOAD PUSH4 0x23B872DD PUSH1 0xE0 SHL DUP2 MSTORE PUSH1 0x1 PUSH1 0x1 PUSH1 0xA0 SHL SUB SWAP5 DUP6 AND SWAP5 PUSH4 0x23B872DD SWAP5 PUSH2 0x10CA SWAP5 SWAP1 SWAP4 SWAP2 AND SWAP2 PUSH1 0x4 ADD PUSH2 0x1519 JUMP JUMPDEST PUSH1 0x20 PUSH1 0x40 MLOAD DUP1 DUP4 SUB DUP2 PUSH1 0x0 DUP8 DUP1 EXTCODESIZE ISZERO DUP1 ISZERO PUSH2 0x10E4 JUMPI PUSH1 0x0 DUP1 REVERT JUMPDEST POP GAS CALL ISZERO DUP1 ISZERO PUSH2 0x10F8 JUMPI RETURNDATASIZE PUSH1 0x0 DUP1 RETURNDATACOPY RETURNDATASIZE PUSH1 0x0 REVERT JUMPDEST POP POP POP POP PUSH1 0x40 MLOAD RETURNDATASIZE PUSH1 0x1F NOT PUSH1 0x1F DUP3 ADD AND DUP3 ADD DUP1 PUSH1 0x40 MSTORE POP DUP2 ADD SWAP1 PUSH2 0x111C SWAP2 SWAP1 PUSH2 0x1388 JUMP JUMPDEST POP DUP2 PUSH2 0x100 ADD MLOAD PUSH1 0x1 PUSH1 0x1 PUSH1 0xA0 SHL SUB AND PUSH4 0xF242432A DUP4 PUSH1 0x0 ADD MLOAD DUP5 PUSH1 0x20 ADD MLOAD DUP6 PUSH2 0x120 ADD MLOAD DUP7 PUSH1 0x80 ADD MLOAD PUSH1 0x40 MLOAD DUP6 PUSH4 0xFFFFFFFF AND PUSH1 0xE0 SHL DUP2 MSTORE PUSH1 0x4 ADD PUSH2 0x1165 SWAP5 SWAP4 SWAP3 SWAP2 SWAP1 PUSH2 0x153D JUMP JUMPDEST PUSH1 0x0 PUSH1 0x40 MLOAD DUP1 DUP4 SUB DUP2 PUSH1 0x0 DUP8 DUP1 EXTCODESIZE ISZERO DUP1 ISZERO PUSH2 0x117F JUMPI PUSH1 0x0 DUP1 REVERT JUMPDEST POP GAS CALL ISZERO DUP1 ISZERO PUSH2 0x1193 JUMPI RETURNDATASIZE PUSH1 0x0 DUP1 RETURNDATACOPY RETURNDATASIZE PUSH1 0x0 REVERT JUMPDEST POP POP POP POP POP POP JUMP JUMPDEST PUSH1 0x0 DUP2 DUP4 PUSH2 0x11BC JUMPI PUSH1 0x40 MLOAD PUSH3 0x461BCD PUSH1 0xE5 SHL DUP2 MSTORE PUSH1 0x4 ADD PUSH2 0x391 SWAP2 SWAP1 PUSH2 0x163D JUMP JUMPDEST POP PUSH1 0x0 DUP4 DUP6 DUP2 PUSH2 0x11C8 JUMPI INVALID JUMPDEST DIV SWAP6 SWAP5 POP POP POP POP POP JUMP JUMPDEST PUSH1 0x40 MLOAD DUP1 PUSH1 0x60 ADD PUSH1 0x40 MSTORE DUP1 PUSH1 0x0 DUP2 MSTORE PUSH1 0x20 ADD PUSH1 0x0 DUP2 MSTORE PUSH1 0x20 ADD PUSH1 0x0 DUP2 MSTORE POP SWAP1 JUMP JUMPDEST PUSH1 0x40 DUP1 MLOAD PUSH1 0x60 DUP2 ADD SWAP1 SWAP2 MSTORE DUP1 PUSH1 0x0 DUP2 MSTORE PUSH1 0x0 PUSH1 0x20 DUP3 ADD DUP2 SWAP1 MSTORE PUSH1 0x40 SWAP1 SWAP2 ADD MSTORE SWAP1 JUMP JUMPDEST DUP1 CALLDATALOAD PUSH1 0x1 PUSH1 0x1 PUSH1 0xA0 SHL SUB DUP2 AND DUP2 EQ PUSH2 0x8D5 JUMPI PUSH1 0x0 DUP1 REVERT JUMPDEST PUSH1 0x0 DUP3 PUSH1 0x1F DUP4 ADD SLT PUSH2 0x123C JUMPI DUP1 DUP2 REVERT JUMPDEST DUP2 CALLDATALOAD PUSH8 0xFFFFFFFFFFFFFFFF DUP2 GT ISZERO PUSH2 0x1252 JUMPI DUP2 DUP3 REVERT JUMPDEST PUSH2 0x1265 PUSH1 0x1F DUP3 ADD PUSH1 0x1F NOT AND PUSH1 0x20 ADD PUSH2 0x1AD0 JUMP JUMPDEST SWAP2 POP DUP1 DUP3 MSTORE DUP4 PUSH1 0x20 DUP3 DUP6 ADD ADD GT ISZERO PUSH2 0x127C JUMPI PUSH1 0x0 DUP1 REVERT JUMPDEST DUP1 PUSH1 0x20 DUP5 ADD PUSH1 0x20 DUP5 ADD CALLDATACOPY PUSH1 0x0 SWAP1 DUP3 ADD PUSH1 0x20 ADD MSTORE SWAP3 SWAP2 POP POP JUMP JUMPDEST PUSH1 0x0 PUSH2 0x1A0 DUP1 DUP4 DUP6 SUB SLT ISZERO PUSH2 0x12A8 JUMPI DUP2 DUP3 REVERT JUMPDEST PUSH2 0x12B1 DUP2 PUSH2 0x1AD0 JUMP JUMPDEST SWAP2 POP POP PUSH2 0x12BE DUP4 DUP4 PUSH2 0x1215 JUMP JUMPDEST DUP2 MSTORE PUSH2 0x12CD DUP4 PUSH1 0x20 DUP5 ADD PUSH2 0x1215 JUMP JUMPDEST PUSH1 0x20 DUP3 ADD MSTORE PUSH2 0x12DF DUP4 PUSH1 0x40 DUP5 ADD PUSH2 0x1215 JUMP JUMPDEST PUSH1 0x40 DUP3 ADD MSTORE PUSH1 0x60 DUP3 ADD CALLDATALOAD PUSH1 0x60 DUP3 ADD MSTORE PUSH1 0x80 DUP3 ADD CALLDATALOAD PUSH1 0x80 DUP3 ADD MSTORE PUSH1 0xA0 DUP3 ADD CALLDATALOAD PUSH1 0xA0 DUP3 ADD MSTORE PUSH1 0xC0 DUP3 ADD CALLDATALOAD PUSH1 0xC0 DUP3 ADD MSTORE PUSH1 0xE0 DUP3 ADD CALLDATALOAD PUSH1 0xE0 DUP3 ADD MSTORE PUSH2 0x100 PUSH2 0x1325 DUP5 DUP3 DUP6 ADD PUSH2 0x1215 JUMP JUMPDEST SWAP1 DUP3 ADD MSTORE PUSH2 0x120 DUP3 DUP2 ADD CALLDATALOAD SWAP1 DUP3 ADD MSTORE PUSH2 0x140 PUSH2 0x1343 DUP5 DUP3 DUP6 ADD PUSH2 0x1215 JUMP JUMPDEST SWAP1 DUP3 ADD MSTORE PUSH2 0x160 PUSH2 0x1356 DUP5 DUP5 DUP4 ADD PUSH2 0x1215 JUMP JUMPDEST DUP2 DUP4 ADD MSTORE POP PUSH2 0x180 DUP1 DUP4 ADD CALLDATALOAD DUP2 DUP4 ADD MSTORE POP SWAP3 SWAP2 POP POP JUMP JUMPDEST PUSH1 0x0 PUSH1 0x20 DUP3 DUP5 SUB SLT ISZERO PUSH2 0x137E JUMPI DUP1 DUP2 REVERT JUMPDEST PUSH2 0x8D2 DUP4 DUP4 PUSH2 0x1215 JUMP JUMPDEST PUSH1 0x0 PUSH1 0x20 DUP3 DUP5 SUB SLT ISZERO PUSH2 0x1399 JUMPI DUP1 DUP2 REVERT JUMPDEST DUP2 MLOAD DUP1 ISZERO ISZERO DUP2 EQ PUSH2 0x8D2 JUMPI DUP2 DUP3 REVERT JUMPDEST PUSH1 0x0 PUSH1 0x20 DUP3 DUP5 SUB SLT ISZERO PUSH2 0x13B9 JUMPI DUP1 DUP2 REVERT JUMPDEST POP CALLDATALOAD SWAP2 SWAP1 POP JUMP JUMPDEST PUSH1 0x0 DUP1 PUSH1 0x0 PUSH1 0x60 DUP5 DUP7 SUB SLT ISZERO PUSH2 0x13D4 JUMPI DUP2 DUP3 REVERT JUMPDEST DUP4 CALLDATALOAD SWAP3 POP PUSH1 0x20 DUP5 ADD CALLDATALOAD PUSH1 0x1 PUSH1 0x1 PUSH1 0xA0 SHL SUB DUP2 AND DUP2 EQ PUSH2 0x13F1 JUMPI DUP3 DUP4 REVERT JUMPDEST SWAP2 POP PUSH1 0x40 DUP5 ADD CALLDATALOAD PUSH8 0xFFFFFFFFFFFFFFFF DUP2 GT ISZERO PUSH2 0x140C JUMPI DUP2 DUP3 REVERT JUMPDEST PUSH2 0x1418 DUP7 DUP3 DUP8 ADD PUSH2 0x122C JUMP JUMPDEST SWAP2 POP POP SWAP3 POP SWAP3 POP SWAP3 JUMP JUMPDEST PUSH1 0x0 PUSH2 0x1A0 DUP3 DUP5 SUB SLT ISZERO PUSH2 0x1434 JUMPI DUP1 DUP2 REVERT JUMPDEST PUSH2 0x8D2 DUP4 DUP4 PUSH2 0x1295 JUMP JUMPDEST PUSH1 0x0 DUP1 PUSH2 0x1C0 DUP4 DUP6 SUB SLT ISZERO PUSH2 0x1451 JUMPI DUP2 DUP3 REVERT JUMPDEST PUSH2 0x145B DUP5 DUP5 PUSH2 0x1295 JUMP JUMPDEST SWAP2 POP PUSH2 0x1A0 DUP4 ADD CALLDATALOAD PUSH8 0xFFFFFFFFFFFFFFFF DUP2 GT ISZERO PUSH2 0x1477 JUMPI DUP2 DUP3 REVERT JUMPDEST PUSH2 0x1483 DUP6 DUP3 DUP7 ADD PUSH2 0x122C JUMP JUMPDEST SWAP2 POP POP SWAP3 POP SWAP3 SWAP1 POP JUMP JUMPDEST PUSH1 0x0 DUP1 PUSH1 0x40 DUP4 DUP6 SUB SLT ISZERO PUSH2 0x149F JUMPI DUP2 DUP3 REVERT JUMPDEST DUP3 CALLDATALOAD SWAP2 POP PUSH2 0x14B0 DUP5 PUSH1 0x20 DUP6 ADD PUSH2 0x1215 JUMP JUMPDEST SWAP1 POP SWAP3 POP SWAP3 SWAP1 POP JUMP JUMPDEST PUSH1 0x1 PUSH1 0x1 PUSH1 0xA0 SHL SUB AND SWAP1 MSTORE JUMP JUMPDEST PUSH1 0x0 DUP3 MLOAD PUSH2 0x14D8 DUP2 DUP5 PUSH1 0x20 DUP8 ADD PUSH2 0x1AF7 JUMP JUMPDEST SWAP2 SWAP1 SWAP2 ADD SWAP3 SWAP2 POP POP JUMP JUMPDEST PUSH1 0x1 PUSH1 0x1 PUSH1 0xA0 SHL SUB SWAP2 SWAP1 SWAP2 AND DUP2 MSTORE PUSH1 0x20 ADD SWAP1 JUMP JUMPDEST PUSH1 0x1 PUSH1 0x1 PUSH1 0xA0 SHL SUB SWAP4 DUP5 AND DUP2 MSTORE SWAP2 DUP4 AND PUSH1 0x20 DUP4 ADD MSTORE SWAP1 SWAP2 AND PUSH1 0x40 DUP3 ADD MSTORE PUSH1 0x60 ADD SWAP1 JUMP JUMPDEST PUSH1 0x1 PUSH1 0x1 PUSH1 0xA0 SHL SUB SWAP4 DUP5 AND DUP2 MSTORE SWAP2 SWAP1 SWAP3 AND PUSH1 0x20 DUP3 ADD MSTORE PUSH1 0x40 DUP2 ADD SWAP2 SWAP1 SWAP2 MSTORE PUSH1 0x60 ADD SWAP1 JUMP JUMPDEST PUSH1 0x1 PUSH1 0x1 PUSH1 0xA0 SHL SUB SWAP5 DUP6 AND DUP2 MSTORE SWAP3 SWAP1 SWAP4 AND PUSH1 0x20 DUP4 ADD MSTORE PUSH1 0x40 DUP3 ADD MSTORE PUSH1 0x60 DUP2 ADD SWAP2 SWAP1 SWAP2 MSTORE PUSH1 0xA0 PUSH1 0x80 DUP3 ADD DUP2 SWAP1 MSTORE PUSH1 0x0 SWAP1 DUP3 ADD MSTORE PUSH1 0xC0 ADD SWAP1 JUMP JUMPDEST SWAP1 ISZERO ISZERO DUP2 MSTORE PUSH1 0x20 ADD SWAP1 JUMP JUMPDEST SWAP1 DUP2 MSTORE PUSH1 0x20 ADD SWAP1 JUMP JUMPDEST DUP15 DUP2 MSTORE PUSH1 0x1 PUSH1 0x1 PUSH1 0xA0 SHL SUB DUP15 DUP2 AND PUSH1 0x20 DUP4 ADD MSTORE DUP14 DUP2 AND PUSH1 0x40 DUP4 ADD MSTORE DUP13 AND PUSH1 0x60 DUP3 ADD MSTORE PUSH1 0x80 DUP2 ADD DUP12 SWAP1 MSTORE PUSH1 0xA0 DUP2 ADD DUP11 SWAP1 MSTORE PUSH1 0xC0 DUP2 ADD DUP10 SWAP1 MSTORE PUSH1 0xE0 DUP2 ADD DUP9 SWAP1 MSTORE PUSH2 0x100 DUP2 ADD DUP8 SWAP1 MSTORE PUSH2 0x1C0 DUP2 ADD PUSH2 0x15E2 PUSH2 0x120 DUP4 ADD DUP9 PUSH2 0x14B9 JUMP JUMPDEST DUP6 PUSH2 0x140 DUP4 ADD MSTORE PUSH2 0x15F7 PUSH2 0x160 DUP4 ADD DUP7 PUSH2 0x14B9 JUMP JUMPDEST PUSH2 0x1605 PUSH2 0x180 DUP4 ADD DUP6 PUSH2 0x14B9 JUMP JUMPDEST DUP3 PUSH2 0x1A0 DUP4 ADD MSTORE SWAP16 SWAP15 POP POP POP POP POP POP POP POP POP POP POP POP POP POP POP JUMP JUMPDEST SWAP4 DUP5 MSTORE PUSH1 0xFF SWAP3 SWAP1 SWAP3 AND PUSH1 0x20 DUP5 ADD MSTORE PUSH1 0x40 DUP4 ADD MSTORE PUSH1 0x60 DUP3 ADD MSTORE PUSH1 0x80 ADD SWAP1 JUMP JUMPDEST PUSH1 0x0 PUSH1 0x20 DUP3 MSTORE DUP3 MLOAD DUP1 PUSH1 0x20 DUP5 ADD MSTORE PUSH2 0x165C DUP2 PUSH1 0x40 DUP6 ADD PUSH1 0x20 DUP8 ADD PUSH2 0x1AF7 JUMP JUMPDEST PUSH1 0x1F ADD PUSH1 0x1F NOT AND SWAP2 SWAP1 SWAP2 ADD PUSH1 0x40 ADD SWAP3 SWAP2 POP POP JUMP JUMPDEST PUSH1 0x20 DUP1 DUP3 MSTORE PUSH1 0x19 SWAP1 DUP3 ADD MSTORE PUSH32 0x57726F6E67206C656E677468206F66207369676E617475726500000000000000 PUSH1 0x40 DUP3 ADD MSTORE PUSH1 0x60 ADD SWAP1 JUMP JUMPDEST PUSH1 0x20 DUP1 DUP3 MSTORE PUSH1 0xD SWAP1 DUP3 ADD MSTORE PUSH13 0x24A72B20A624A22FAA20A5A2A9 PUSH1 0x99 SHL PUSH1 0x40 DUP3 ADD MSTORE PUSH1 0x60 ADD SWAP1 JUMP JUMPDEST PUSH1 0x20 DUP1 DUP3 MSTORE PUSH1 0x7 SWAP1 DUP3 ADD MSTORE PUSH7 0x12539590531251 PUSH1 0xCA SHL PUSH1 0x40 DUP3 ADD MSTORE PUSH1 0x60 ADD SWAP1 JUMP JUMPDEST PUSH1 0x20 DUP1 DUP3 MSTORE PUSH1 0x26 SWAP1 DUP3 ADD MSTORE PUSH32 0x4F776E61626C653A206E6577206F776E657220697320746865207A65726F2061 PUSH1 0x40 DUP3 ADD MSTORE PUSH6 0x646472657373 PUSH1 0xD0 SHL PUSH1 0x60 DUP3 ADD MSTORE PUSH1 0x80 ADD SWAP1 JUMP JUMPDEST PUSH1 0x20 DUP1 DUP3 MSTORE PUSH1 0x1B SWAP1 DUP3 ADD MSTORE PUSH32 0x536166654D6174683A206164646974696F6E206F766572666C6F770000000000 PUSH1 0x40 DUP3 ADD MSTORE PUSH1 0x60 ADD SWAP1 JUMP JUMPDEST PUSH1 0x20 DUP1 DUP3 MSTORE PUSH1 0x9 SWAP1 DUP3 ADD MSTORE PUSH9 0x10D05390D153131151 PUSH1 0xBA SHL PUSH1 0x40 DUP3 ADD MSTORE PUSH1 0x60 ADD SWAP1 JUMP JUMPDEST PUSH1 0x20 DUP1 DUP3 MSTORE PUSH1 0x17 SWAP1 DUP3 ADD MSTORE PUSH32 0x494E56414C49445F4F524445525F5349474E4154555245000000000000000000 PUSH1 0x40 DUP3 ADD MSTORE PUSH1 0x60 ADD SWAP1 JUMP JUMPDEST PUSH1 0x20 DUP1 DUP3 MSTORE PUSH1 0x10 SWAP1 DUP3 ADD MSTORE PUSH16 0x24A72B20A624A22FA7A822A920AA27A9 PUSH1 0x81 SHL PUSH1 0x40 DUP3 ADD MSTORE PUSH1 0x60 ADD SWAP1 JUMP JUMPDEST PUSH1 0x20 DUP1 DUP3 MSTORE PUSH1 0xE SWAP1 DUP3 ADD MSTORE PUSH14 0x657863656564206D617820666565 PUSH1 0x90 SHL PUSH1 0x40 DUP3 ADD MSTORE PUSH1 0x60 ADD SWAP1 JUMP JUMPDEST PUSH1 0x20 DUP1 DUP3 MSTORE PUSH1 0x10 SWAP1 DUP3 ADD MSTORE PUSH16 0x14185D5CD8589B194E881C185D5CD959 PUSH1 0x82 SHL PUSH1 0x40 DUP3 ADD MSTORE PUSH1 0x60 ADD SWAP1 JUMP JUMPDEST PUSH1 0x20 DUP1 DUP3 MSTORE PUSH1 0x14 SWAP1 DUP3 ADD MSTORE PUSH20 0x57726F6E67207369676E65722061646472657373 PUSH1 0x60 SHL PUSH1 0x40 DUP3 ADD MSTORE PUSH1 0x60 ADD SWAP1 JUMP JUMPDEST PUSH1 0x20 DUP1 DUP3 MSTORE PUSH1 0xC SWAP1 DUP3 ADD MSTORE PUSH12 0xAEE4DEDCCE40D8CADCCEE8D PUSH1 0xA3 SHL PUSH1 0x40 DUP3 ADD MSTORE PUSH1 0x60 ADD SWAP1 JUMP JUMPDEST PUSH1 0x20 DUP1 DUP3 MSTORE PUSH1 0x21 SWAP1 DUP3 ADD MSTORE PUSH32 0x536166654D6174683A206D756C7469706C69636174696F6E206F766572666C6F PUSH1 0x40 DUP3 ADD MSTORE PUSH1 0x77 PUSH1 0xF8 SHL PUSH1 0x60 DUP3 ADD MSTORE PUSH1 0x80 ADD SWAP1 JUMP JUMPDEST PUSH1 0x20 DUP1 DUP3 MSTORE PUSH1 0xB SWAP1 DUP3 ADD MSTORE PUSH11 0x34B71031B7B7B63237BBB7 PUSH1 0xA9 SHL PUSH1 0x40 DUP3 ADD MSTORE PUSH1 0x60 ADD SWAP1 JUMP JUMPDEST PUSH1 0x20 DUP1 DUP3 MSTORE DUP2 DUP2 ADD MSTORE PUSH32 0x4F776E61626C653A2063616C6C6572206973206E6F7420746865206F776E6572 PUSH1 0x40 DUP3 ADD MSTORE PUSH1 0x60 ADD SWAP1 JUMP JUMPDEST PUSH1 0x20 DUP1 DUP3 MSTORE PUSH1 0xD SWAP1 DUP3 ADD MSTORE PUSH13 0x24A72B20A624A22FA7ABA722A9 PUSH1 0x99 SHL PUSH1 0x40 DUP3 ADD MSTORE PUSH1 0x60 ADD SWAP1 JUMP JUMPDEST PUSH1 0x20 DUP1 DUP3 MSTORE PUSH1 0x7 SWAP1 DUP3 ADD MSTORE PUSH7 0x2BB937B733902B PUSH1 0xC9 SHL PUSH1 0x40 DUP3 ADD MSTORE PUSH1 0x60 ADD SWAP1 JUMP JUMPDEST PUSH1 0x20 DUP1 DUP3 MSTORE PUSH1 0x6 SWAP1 DUP3 ADD MSTORE PUSH6 0x119253131151 PUSH1 0xD2 SHL PUSH1 0x40 DUP3 ADD MSTORE PUSH1 0x60 ADD SWAP1 JUMP JUMPDEST PUSH1 0x20 DUP1 DUP3 MSTORE PUSH1 0x7 SWAP1 DUP3 ADD MSTORE PUSH7 0x11561412549151 PUSH1 0xCA SHL PUSH1 0x40 DUP3 ADD MSTORE PUSH1 0x60 ADD SWAP1 JUMP JUMPDEST PUSH1 0x20 DUP1 DUP3 MSTORE PUSH1 0x10 SWAP1 DUP3 ADD MSTORE PUSH16 0x4F524445525F554E46494C4C41424C45 PUSH1 0x80 SHL PUSH1 0x40 DUP3 ADD MSTORE PUSH1 0x60 ADD SWAP1 JUMP JUMPDEST PUSH1 0x20 DUP1 DUP3 MSTORE PUSH1 0x1F SWAP1 DUP3 ADD MSTORE PUSH32 0x5265656E7472616E637947756172643A207265656E7472616E742063616C6C00 PUSH1 0x40 DUP3 ADD MSTORE PUSH1 0x60 ADD SWAP1 JUMP JUMPDEST DUP2 MLOAD DUP2 MSTORE PUSH1 0x20 DUP1 DUP4 ADD MLOAD SWAP1 DUP3 ADD MSTORE PUSH1 0x40 SWAP2 DUP3 ADD MLOAD SWAP2 DUP2 ADD SWAP2 SWAP1 SWAP2 MSTORE PUSH1 0x60 ADD SWAP1 JUMP JUMPDEST DUP2 MLOAD PUSH1 0x60 DUP3 ADD SWAP1 PUSH1 0x6 DUP2 LT PUSH2 0x1A4D JUMPI INVALID JUMPDEST DUP1 DUP4 MSTORE POP PUSH1 0x20 DUP4 ADD MLOAD PUSH1 0x20 DUP4 ADD MSTORE PUSH1 0x40 DUP4 ADD MLOAD ISZERO ISZERO PUSH1 0x40 DUP4 ADD MSTORE SWAP3 SWAP2 POP POP JUMP JUMPDEST SWAP2 DUP3 MSTORE PUSH1 0x1 PUSH1 0x1 PUSH1 0xA0 SHL SUB AND PUSH1 0x20 DUP3 ADD MSTORE PUSH1 0x40 ADD SWAP1 JUMP JUMPDEST SWAP9 DUP10 MSTORE PUSH1 0x20 DUP10 ADD SWAP8 SWAP1 SWAP8 MSTORE PUSH1 0x1 PUSH1 0x1 PUSH1 0xA0 SHL SUB SWAP6 DUP7 AND PUSH1 0x40 DUP10 ADD MSTORE PUSH1 0x60 DUP9 ADD SWAP5 SWAP1 SWAP5 MSTORE PUSH1 0x80 DUP8 ADD SWAP3 SWAP1 SWAP3 MSTORE DUP4 AND PUSH1 0xA0 DUP7 ADD MSTORE PUSH1 0xC0 DUP6 ADD MSTORE DUP2 AND PUSH1 0xE0 DUP5 ADD MSTORE AND PUSH2 0x100 DUP3 ADD MSTORE PUSH2 0x120 ADD SWAP1 JUMP JUMPDEST PUSH1 0x40 MLOAD DUP2 DUP2 ADD PUSH8 0xFFFFFFFFFFFFFFFF DUP2 GT DUP3 DUP3 LT OR ISZERO PUSH2 0x1AEF JUMPI PUSH1 0x0 DUP1 REVERT JUMPDEST PUSH1 0x40 MSTORE SWAP2 SWAP1 POP JUMP JUMPDEST PUSH1 0x0 JUMPDEST DUP4 DUP2 LT ISZERO PUSH2 0x1B12 JUMPI DUP2 DUP2 ADD MLOAD DUP4 DUP3 ADD MSTORE PUSH1 0x20 ADD PUSH2 0x1AFA JUMP JUMPDEST DUP4 DUP2 GT ISZERO PUSH2 0x1B21 JUMPI PUSH1 0x0 DUP5 DUP5 ADD MSTORE JUMPDEST POP POP POP POP JUMP INVALID 0x4F PUSH19 0x6465722861646472657373206F776E65722C61 PUSH5 0x6472657373 KECCAK256 PUSH21 0x616B65722C61646472657373206F70657261746F72 0x2C PUSH22 0x696E74323536206F72646572547970652C75696E7432 CALLDATALOAD CALLDATASIZE KECCAK256 PUSH2 0x6D6F PUSH22 0x6E742C75696E7432353620737461727450726963652C PUSH22 0x696E7432353620656E6454696D652C75696E74323536 KECCAK256 PUSH20 0x616C742C61646472657373206173736574416464 PUSH19 0x6573732C75696E743235362069642C61646472 PUSH6 0x737320637572 PUSH19 0x656E6379416464726573732C61646472657373 KECCAK256 PUSH7 0x65655265636970 PUSH10 0x656E742C75696E743235 CALLDATASIZE KECCAK256 PUSH7 0x65655065726365 PUSH15 0x7461676529A2646970667358221220 SWAP10 0xC6 0xBE 0xAD SWAP11 EXP JUMPDEST SWAP15 0xC4 CALLDATACOPY DUP4 PUSH18 0x60B6FB7210E09735E221CBBEEC5AAC82C16F 0xD6 0xD2 PUSH5 0x736F6C6343 STOP MOD MULMOD STOP CALLER "
		},
		"gasEstimates": {
			"creation": {
				"codeDepositCost": "1447200",
				"executionCost": "infinite",
				"totalCost": "infinite"
			},
			"external": {
				"EIP712_DOMAIN_HASH()": "1094",
				"FEE_UPDATE_COOLDOWN()": "273",
				"MAX_CONTRACT_FEE()": "339",
				"calculateFillResults((address,address,address,uint256,uint256,uint256,uint256,uint256,address,uint256,address,address,uint256))": "infinite",
				"cancelOrder((address,address,address,uint256,uint256,uint256,uint256,uint256,address,uint256,address,address,uint256))": "infinite",
				"cancelled(bytes32)": "1251",
				"chainId()": "1095",
				"contractFeePercentage()": "1050",
				"contractFeeRecipient()": "1182",
				"fillOrder((address,address,address,uint256,uint256,uint256,uint256,uint256,address,uint256,address,address,uint256),bytes)": "infinite",
				"filled(bytes32)": "1229",
				"getOrderInfo((address,address,address,uint256,uint256,uint256,uint256,uint256,address,uint256,address,address,uint256))": "infinite",
				"getPrice((address,address,address,uint256,uint256,uint256,uint256,uint256,address,uint256,address,address,uint256))": "infinite",
				"isValidSignature(bytes32,address,bytes)": "infinite",
				"mostRecentTimestamp()": "1072",
				"owner()": "1159",
				"paused()": "1147",
				"renounceOwnership()": "24227",
				"setContractFeeParams(uint256,address)": "infinite",
				"transferOwnership(address)": "infinite"
			},
			"internal": {
				"_assertFillableOrder(struct LibOrder.Order memory,struct LibOrder.OrderInfo memory,bytes memory)": "infinite",
				"_assertValidCancel(struct LibOrder.Order memory,struct LibOrder.OrderInfo memory)": "infinite",
				"_cancelOrder(struct LibOrder.Order memory)": "infinite",
				"_fillOrder(struct LibOrder.Order memory,bytes memory)": "infinite",
				"_settleTrade(struct LibOrder.Order memory,struct English.FillResults memory)": "infinite",
				"_updateCancelledState(struct LibOrder.Order memory,struct LibOrder.OrderInfo memory)": "infinite",
				"_updateFilledStates(struct LibOrder.Order memory,struct LibOrder.OrderInfo memory,struct English.FillResults memory)": "infinite"
			}
		},
		"methodIdentifiers": {
			"EIP712_DOMAIN_HASH()": "e306f779",
			"FEE_UPDATE_COOLDOWN()": "8243d01f",
			"MAX_CONTRACT_FEE()": "c37f03c7",
			"calculateFillResults((address,address,address,uint256,uint256,uint256,uint256,uint256,address,uint256,address,address,uint256))": "2706bc91",
			"cancelOrder((address,address,address,uint256,uint256,uint256,uint256,uint256,address,uint256,address,address,uint256))": "986ff672",
			"cancelled(bytes32)": "2ac12622",
			"chainId()": "9a8a0592",
			"contractFeePercentage()": "dbd8987c",
			"contractFeeRecipient()": "6cf25c4e",
			"fillOrder((address,address,address,uint256,uint256,uint256,uint256,uint256,address,uint256,address,address,uint256),bytes)": "b5c7ec5d",
			"filled(bytes32)": "288cdc91",
			"getOrderInfo((address,address,address,uint256,uint256,uint256,uint256,uint256,address,uint256,address,address,uint256))": "98038dad",
			"getPrice((address,address,address,uint256,uint256,uint256,uint256,uint256,address,uint256,address,address,uint256))": "ff17fe59",
			"isValidSignature(bytes32,address,bytes)": "93634702",
			"mostRecentTimestamp()": "e2dde054",
			"owner()": "8da5cb5b",
			"paused()": "5c975abb",
			"renounceOwnership()": "715018a6",
			"setContractFeeParams(uint256,address)": "83c3e77a",
			"transferOwnership(address)": "f2fde38b"
		}
	},
	"abi": [
		{
			"inputs": [
				{
					"internalType": "uint256",
					"name": "_contractFeePercentage",
					"type": "uint256"
				},
				{
					"internalType": "address",
					"name": "_contractFeeRecipient",
					"type": "address"
				}
			],
			"stateMutability": "nonpayable",
			"type": "constructor"
		},
		{
			"anonymous": false,
			"inputs": [
				{
					"indexed": true,
					"internalType": "bytes32",
					"name": "orderHash",
					"type": "bytes32"
				},
				{
					"indexed": true,
					"internalType": "address",
					"name": "creator",
					"type": "address"
				},
				{
					"indexed": true,
					"internalType": "address",
					"name": "feeRecipient",
					"type": "address"
				},
				{
					"indexed": false,
					"internalType": "address",
					"name": "assetAddress",
					"type": "address"
				},
				{
					"indexed": false,
					"internalType": "address",
					"name": "currencyAddress",
					"type": "address"
				},
				{
					"indexed": false,
					"internalType": "address",
					"name": "senderAddress",
					"type": "address"
				}
			],
			"name": "Cancel",
			"type": "event"
		},
		{
			"anonymous": false,
			"inputs": [
				{
					"indexed": true,
					"internalType": "address",
					"name": "owner",
					"type": "address"
				},
				{
					"indexed": false,
					"internalType": "uint256",
					"name": "feePercentage",
					"type": "uint256"
				},
				{
					"indexed": false,
					"internalType": "address",
					"name": "feeRecipient",
					"type": "address"
				}
			],
			"name": "ContractFeeParamsUpdated",
			"type": "event"
		},
		{
			"anonymous": false,
			"inputs": [
				{
					"indexed": true,
					"internalType": "bytes32",
					"name": "orderHash",
					"type": "bytes32"
				},
				{
					"indexed": false,
					"internalType": "uint256",
					"name": "fee",
					"type": "uint256"
				},
				{
					"indexed": true,
					"internalType": "address",
					"name": "feeRecipient",
					"type": "address"
				},
				{
					"indexed": false,
					"internalType": "uint256",
					"name": "contractFee",
					"type": "uint256"
				},
				{
					"indexed": false,
					"internalType": "address",
					"name": "senderAddress",
					"type": "address"
				},
				{
					"indexed": false,
					"internalType": "uint256",
					"name": "id",
					"type": "uint256"
				},
				{
					"indexed": false,
					"internalType": "uint256",
					"name": "amount",
					"type": "uint256"
				},
				{
					"indexed": true,
					"internalType": "address",
					"name": "owner",
					"type": "address"
				},
				{
					"indexed": false,
					"internalType": "address",
					"name": "assetAddress",
					"type": "address"
				},
				{
					"indexed": false,
					"internalType": "uint256",
					"name": "price",
					"type": "uint256"
				},
				{
					"indexed": false,
					"internalType": "address",
					"name": "taker",
					"type": "address"
				},
				{
					"indexed": false,
					"internalType": "address",
					"name": "currencyAddress",
					"type": "address"
				}
			],
			"name": "Fill",
			"type": "event"
		},
		{
			"anonymous": false,
			"inputs": [
				{
					"indexed": true,
					"internalType": "address",
					"name": "previousOwner",
					"type": "address"
				},
				{
					"indexed": true,
					"internalType": "address",
					"name": "newOwner",
					"type": "address"
				}
			],
			"name": "OwnershipTransferred",
			"type": "event"
		},
		{
			"anonymous": false,
			"inputs": [
				{
					"indexed": false,
					"internalType": "address",
					"name": "account",
					"type": "address"
				}
			],
			"name": "Paused",
			"type": "event"
		},
		{
			"anonymous": false,
			"inputs": [
				{
					"indexed": false,
					"internalType": "address",
					"name": "account",
					"type": "address"
				}
			],
			"name": "Unpaused",
			"type": "event"
		},
		{
			"inputs": [],
			"name": "EIP712_DOMAIN_HASH",
			"outputs": [
				{
					"internalType": "bytes32",
					"name": "",
					"type": "bytes32"
				}
			],
			"stateMutability": "view",
			"type": "function"
		},
		{
			"inputs": [],
			"name": "FEE_UPDATE_COOLDOWN",
			"outputs": [
				{
					"internalType": "uint256",
					"name": "",
					"type": "uint256"
				}
			],
			"stateMutability": "view",
			"type": "function"
		},
		{
			"inputs": [],
			"name": "MAX_CONTRACT_FEE",
			"outputs": [
				{
					"internalType": "uint256",
					"name": "",
					"type": "uint256"
				}
			],
			"stateMutability": "view",
			"type": "function"
		},
		{
			"inputs": [
				{
					"components": [
						{
							"internalType": "address",
							"name": "owner",
							"type": "address"
						},
						{
							"internalType": "address",
							"name": "taker",
							"type": "address"
						},
						{
							"internalType": "address",
							"name": "operator",
							"type": "address"
						},
						{
							"internalType": "uint256",
							"name": "orderType",
							"type": "uint256"
						},
						{
							"internalType": "uint256",
							"name": "amount",
							"type": "uint256"
						},
						{
							"internalType": "uint256",
							"name": "startPrice",
							"type": "uint256"
						},
						{
							"internalType": "uint256",
							"name": "endTime",
							"type": "uint256"
						},
						{
							"internalType": "uint256",
							"name": "salt",
							"type": "uint256"
						},
						{
							"internalType": "address",
							"name": "assetAddress",
							"type": "address"
						},
						{
							"internalType": "uint256",
							"name": "id",
							"type": "uint256"
						},
						{
							"internalType": "address",
							"name": "currencyAddress",
							"type": "address"
						},
						{
							"internalType": "address",
							"name": "feeRecipient",
							"type": "address"
						},
						{
							"internalType": "uint256",
							"name": "feePercentage",
							"type": "uint256"
						}
					],
					"internalType": "struct LibOrder.Order",
					"name": "order",
					"type": "tuple"
				}
			],
			"name": "calculateFillResults",
			"outputs": [
				{
					"components": [
						{
							"internalType": "uint256",
							"name": "tradePrice",
							"type": "uint256"
						},
						{
							"internalType": "uint256",
							"name": "fee",
							"type": "uint256"
						},
						{
							"internalType": "uint256",
							"name": "contractFee",
							"type": "uint256"
						}
					],
					"internalType": "struct English.FillResults",
					"name": "fillResults",
					"type": "tuple"
				}
			],
			"stateMutability": "view",
			"type": "function"
		},
		{
			"inputs": [
				{
					"components": [
						{
							"internalType": "address",
							"name": "owner",
							"type": "address"
						},
						{
							"internalType": "address",
							"name": "taker",
							"type": "address"
						},
						{
							"internalType": "address",
							"name": "operator",
							"type": "address"
						},
						{
							"internalType": "uint256",
							"name": "orderType",
							"type": "uint256"
						},
						{
							"internalType": "uint256",
							"name": "amount",
							"type": "uint256"
						},
						{
							"internalType": "uint256",
							"name": "startPrice",
							"type": "uint256"
						},
						{
							"internalType": "uint256",
							"name": "endTime",
							"type": "uint256"
						},
						{
							"internalType": "uint256",
							"name": "salt",
							"type": "uint256"
						},
						{
							"internalType": "address",
							"name": "assetAddress",
							"type": "address"
						},
						{
							"internalType": "uint256",
							"name": "id",
							"type": "uint256"
						},
						{
							"internalType": "address",
							"name": "currencyAddress",
							"type": "address"
						},
						{
							"internalType": "address",
							"name": "feeRecipient",
							"type": "address"
						},
						{
							"internalType": "uint256",
							"name": "feePercentage",
							"type": "uint256"
						}
					],
					"internalType": "struct LibOrder.Order",
					"name": "order",
					"type": "tuple"
				}
			],
			"name": "cancelOrder",
			"outputs": [],
			"stateMutability": "nonpayable",
			"type": "function"
		},
		{
			"inputs": [
				{
					"internalType": "bytes32",
					"name": "",
					"type": "bytes32"
				}
			],
			"name": "cancelled",
			"outputs": [
				{
					"internalType": "bool",
					"name": "",
					"type": "bool"
				}
			],
			"stateMutability": "view",
			"type": "function"
		},
		{
			"inputs": [],
			"name": "chainId",
			"outputs": [
				{
					"internalType": "uint256",
					"name": "",
					"type": "uint256"
				}
			],
			"stateMutability": "view",
			"type": "function"
		},
		{
			"inputs": [],
			"name": "contractFeePercentage",
			"outputs": [
				{
					"internalType": "uint256",
					"name": "",
					"type": "uint256"
				}
			],
			"stateMutability": "view",
			"type": "function"
		},
		{
			"inputs": [],
			"name": "contractFeeRecipient",
			"outputs": [
				{
					"internalType": "address",
					"name": "",
					"type": "address"
				}
			],
			"stateMutability": "view",
			"type": "function"
		},
		{
			"inputs": [
				{
					"components": [
						{
							"internalType": "address",
							"name": "owner",
							"type": "address"
						},
						{
							"internalType": "address",
							"name": "taker",
							"type": "address"
						},
						{
							"internalType": "address",
							"name": "operator",
							"type": "address"
						},
						{
							"internalType": "uint256",
							"name": "orderType",
							"type": "uint256"
						},
						{
							"internalType": "uint256",
							"name": "amount",
							"type": "uint256"
						},
						{
							"internalType": "uint256",
							"name": "startPrice",
							"type": "uint256"
						},
						{
							"internalType": "uint256",
							"name": "endTime",
							"type": "uint256"
						},
						{
							"internalType": "uint256",
							"name": "salt",
							"type": "uint256"
						},
						{
							"internalType": "address",
							"name": "assetAddress",
							"type": "address"
						},
						{
							"internalType": "uint256",
							"name": "id",
							"type": "uint256"
						},
						{
							"internalType": "address",
							"name": "currencyAddress",
							"type": "address"
						},
						{
							"internalType": "address",
							"name": "feeRecipient",
							"type": "address"
						},
						{
							"internalType": "uint256",
							"name": "feePercentage",
							"type": "uint256"
						}
					],
					"internalType": "struct LibOrder.Order",
					"name": "order",
					"type": "tuple"
				},
				{
					"internalType": "bytes",
					"name": "signature",
					"type": "bytes"
				}
			],
			"name": "fillOrder",
			"outputs": [
				{
					"internalType": "bool",
					"name": "",
					"type": "bool"
				}
			],
			"stateMutability": "nonpayable",
			"type": "function"
		},
		{
			"inputs": [
				{
					"internalType": "bytes32",
					"name": "",
					"type": "bytes32"
				}
			],
			"name": "filled",
			"outputs": [
				{
					"internalType": "bool",
					"name": "",
					"type": "bool"
				}
			],
			"stateMutability": "view",
			"type": "function"
		},
		{
			"inputs": [
				{
					"components": [
						{
							"internalType": "address",
							"name": "owner",
							"type": "address"
						},
						{
							"internalType": "address",
							"name": "taker",
							"type": "address"
						},
						{
							"internalType": "address",
							"name": "operator",
							"type": "address"
						},
						{
							"internalType": "uint256",
							"name": "orderType",
							"type": "uint256"
						},
						{
							"internalType": "uint256",
							"name": "amount",
							"type": "uint256"
						},
						{
							"internalType": "uint256",
							"name": "startPrice",
							"type": "uint256"
						},
						{
							"internalType": "uint256",
							"name": "endTime",
							"type": "uint256"
						},
						{
							"internalType": "uint256",
							"name": "salt",
							"type": "uint256"
						},
						{
							"internalType": "address",
							"name": "assetAddress",
							"type": "address"
						},
						{
							"internalType": "uint256",
							"name": "id",
							"type": "uint256"
						},
						{
							"internalType": "address",
							"name": "currencyAddress",
							"type": "address"
						},
						{
							"internalType": "address",
							"name": "feeRecipient",
							"type": "address"
						},
						{
							"internalType": "uint256",
							"name": "feePercentage",
							"type": "uint256"
						}
					],
					"internalType": "struct LibOrder.Order",
					"name": "order",
					"type": "tuple"
				}
			],
			"name": "getOrderInfo",
			"outputs": [
				{
					"components": [
						{
							"internalType": "enum LibOrder.OrderStatus",
							"name": "orderStatus",
							"type": "uint8"
						},
						{
							"internalType": "bytes32",
							"name": "orderHash",
							"type": "bytes32"
						},
						{
							"internalType": "bool",
							"name": "filled",
							"type": "bool"
						}
					],
					"internalType": "struct LibOrder.OrderInfo",
					"name": "orderInfo",
					"type": "tuple"
				}
			],
			"stateMutability": "view",
			"type": "function"
		},
		{
			"inputs": [
				{
					"components": [
						{
							"internalType": "address",
							"name": "owner",
							"type": "address"
						},
						{
							"internalType": "address",
							"name": "taker",
							"type": "address"
						},
						{
							"internalType": "address",
							"name": "operator",
							"type": "address"
						},
						{
							"internalType": "uint256",
							"name": "orderType",
							"type": "uint256"
						},
						{
							"internalType": "uint256",
							"name": "amount",
							"type": "uint256"
						},
						{
							"internalType": "uint256",
							"name": "startPrice",
							"type": "uint256"
						},
						{
							"internalType": "uint256",
							"name": "endTime",
							"type": "uint256"
						},
						{
							"internalType": "uint256",
							"name": "salt",
							"type": "uint256"
						},
						{
							"internalType": "address",
							"name": "assetAddress",
							"type": "address"
						},
						{
							"internalType": "uint256",
							"name": "id",
							"type": "uint256"
						},
						{
							"internalType": "address",
							"name": "currencyAddress",
							"type": "address"
						},
						{
							"internalType": "address",
							"name": "feeRecipient",
							"type": "address"
						},
						{
							"internalType": "uint256",
							"name": "feePercentage",
							"type": "uint256"
						}
					],
					"internalType": "struct LibOrder.Order",
					"name": "order",
					"type": "tuple"
				}
			],
			"name": "getPrice",
			"outputs": [
				{
					"internalType": "uint256",
					"name": "",
					"type": "uint256"
				}
			],
			"stateMutability": "pure",
			"type": "function"
		},
		{
			"inputs": [
				{
					"internalType": "bytes32",
					"name": "hash",
					"type": "bytes32"
				},
				{
					"internalType": "address",
					"name": "signerAddress",
					"type": "address"
				},
				{
					"internalType": "bytes",
					"name": "signature",
					"type": "bytes"
				}
			],
			"name": "isValidSignature",
			"outputs": [
				{
					"internalType": "bool",
					"name": "isValid",
					"type": "bool"
				}
			],
			"stateMutability": "pure",
			"type": "function"
		},
		{
			"inputs": [],
			"name": "mostRecentTimestamp",
			"outputs": [
				{
					"internalType": "uint256",
					"name": "",
					"type": "uint256"
				}
			],
			"stateMutability": "view",
			"type": "function"
		},
		{
			"inputs": [],
			"name": "owner",
			"outputs": [
				{
					"internalType": "address",
					"name": "",
					"type": "address"
				}
			],
			"stateMutability": "view",
			"type": "function"
		},
		{
			"inputs": [],
			"name": "paused",
			"outputs": [
				{
					"internalType": "bool",
					"name": "",
					"type": "bool"
				}
			],
			"stateMutability": "view",
			"type": "function"
		},
		{
			"inputs": [],
			"name": "renounceOwnership",
			"outputs": [],
			"stateMutability": "nonpayable",
			"type": "function"
		},
		{
			"inputs": [
				{
					"internalType": "uint256",
					"name": "_contractFeePercentage",
					"type": "uint256"
				},
				{
					"internalType": "address",
					"name": "_contractFeeRecipient",
					"type": "address"
				}
			],
			"name": "setContractFeeParams",
			"outputs": [],
			"stateMutability": "nonpayable",
			"type": "function"
		},
		{
			"inputs": [
				{
					"internalType": "address",
					"name": "newOwner",
					"type": "address"
				}
			],
			"name": "transferOwnership",
			"outputs": [],
			"stateMutability": "nonpayable",
			"type": "function"
		}
	]
}