{
	"data": {
		"bytecode": {
			"linkReferences": {},
			"object": "6080604052600380546001600160a01b031916301790553480156200002357600080fd5b50604051620025613803806200256183398101604081905262000046916200030e565b60006200005b6001600160e01b03620001be16565b600080546001600160a01b0319166001600160a01b0383169081178255604051929350917f8be0079c531659141344cd1fd0a4f28419497f9722a3daafe3b4186f6b6457e0908290a3506000805460ff60a01b1916905560018055466002819055604051620000cd906020016200034b565b60408051601f1981840301815282825280516020918201208383018352600d84526c436f6e666945786368616e676560981b93820193909352815180830183526003808252620312e360ec1b91830191909152600254905492516200018594937fc241628eaf835fa04927309e7ffa6ff63c4192aa2dfb4063d9c147ec4fab6bec937fe6bbd6277e1bf288eed5e8d1780f9a50b239e86b153736bceebccf4ea79d90b393926001600160a01b039092169101620003da565b60408051601f19818403018152919052805160209091012060045550620001b682826001600160e01b03620001c216565b5050620004d6565b3390565b620001d56001600160e01b03620001be16565b6000546001600160a01b039081169116146200020e5760405162461bcd60e51b815260040162000205906200048a565b60405180910390fd5b426200022e62015180600b54620002df60201b620009221790919060201c565b106200024e5760405162461bcd60e51b8152600401620002059062000465565b670429d069189e0000821115620002795760405162461bcd60e51b815260040162000205906200043d565b6009829055600a80546001600160a01b0319166001600160a01b03831617905542600b5560405133907f113bdccf7b7ceafeb2ca0a4f91a0fbb09542dd8b3ea9d06907df13522a4d606e90620002d39085908590620004bf565b60405180910390a25050565b600082820183811015620003075760405162461bcd60e51b8152600401620002059062000406565b9392505050565b6000806040838503121562000321578182fd5b825160208401519092506001600160a01b038116811462000340578182fd5b809150509250929050565b6c08a92a06e626488dedac2d2dc5609b1b81526b1cdd1c9a5b99c81b985b594b60a21b600d8201526e1cdd1c9a5b99c81d995c9cda5bdb8b608a1b60198201526f1d5a5b9d0c8d4d8818da185a5b92590b60821b60288201527f6164647265737320766572696679696e67436f6e7472616374000000000000006038820152602960f81b605182015260520190565b9485526020850193909352604084019190915260608301526001600160a01b0316608082015260a00190565b6020808252601b908201527f536166654d6174683a206164646974696f6e206f766572666c6f770000000000604082015260600190565b6020808252600e908201526d657863656564206d61782066656560901b604082015260600190565b6020808252600b908201526a34b71031b7b7b63237bbb760a91b604082015260600190565b6020808252818101527f4f776e61626c653a2063616c6c6572206973206e6f7420746865206f776e6572604082015260600190565b9182526001600160a01b0316602082015260400190565b61207b80620004e66000396000f3fe608060405234801561001057600080fd5b50600436106101585760003560e01c80638da5cb5b116100c3578063e2dde0541161007c578063e2dde0541461029a578063e306f779146102a2578063eaa760c2146102aa578063ebe2625a146102bd578063f2435f0d146102d0578063f2fde38b146102e357610158565b80638da5cb5b14610254578063936347021461025c5780639a8a05921461026f578063c37f03c714610277578063cf07104e1461027f578063dbd8987c1461029257610158565b80636f16abc4116101155780636f16abc4146101e9578063715018a6146101fc5780637a3fe76d146102065780637f3cfb7c146102195780638243d01f1461023957806383c3e77a1461024157610158565b80630f9cb8291461015d578063288cdc91146101865780632ac126221461019957806335d51ceb146101ac5780635c975abb146101cc5780636cf25c4e146101d4575b600080fd5b61017061016b36600461173b565b6102f6565b60405161017d9190611941565b60405180910390f35b610170610194366004611786565b610316565b6101706101a7366004611786565b61032b565b6101bf6101ba3660046117f5565b610340565b60405161017d919061194c565b610170610353565b6101dc610363565b60405161017d91906118b8565b6101706101f7366004611811565b610372565b6102046103e3565b005b6101706102143660046117f5565b610462565b61022c6102273660046117f5565b6104c8565b60405161017d9190611e29565b6101bf610550565b61020461024f366004611860565b610557565b6101dc61064d565b61017061026a36600461179e565b61065c565b6101bf610779565b6101bf61077f565b61020461028d36600461171f565b61078b565b6101bf6107e2565b6101bf6107e8565b6101bf6107ee565b6101706102b8366004611786565b6107f4565b6101bf6102cb3660046117f5565b610809565b6101706102de3660046117f5565b610810565b6102046102f136600461171f565b61086c565b600560209081526000928352604080842090915290825290205460ff1681565b60076020526000908152604090205460ff1681565b60086020526000908152604090205460ff1681565b600061034b82610950565b90505b919050565b600054600160a01b900460ff1690565b600a546001600160a01b031681565b60008054600160a01b900460ff16156103a65760405162461bcd60e51b815260040161039d90611bf1565b60405180910390fd5b600260015414156103c95760405162461bcd60e51b815260040161039d90611df2565b60026001556103d88383610963565b600180559392505050565b6103eb610ab7565b6000546001600160a01b039081169116146104185760405162461bcd60e51b815260040161039d90611cd5565b600080546040516001600160a01b03909116907f8be0079c531659141344cd1fd0a4f28419497f9722a3daafe3b4186f6b6457e0908390a3600080546001600160a01b0319169055565b60008054600160a01b900460ff161561048d5760405162461bcd60e51b815260040161039d90611bf1565b600260015414156104b05760405162461bcd60e51b815260040161039d90611df2565b60026001556104be82610abb565b6001805592915050565b6104d061159b565b60006104db83610809565b90506104f583610160015182610b8790919063ffffffff16565b6020830181905260095461050f919063ffffffff610b8716565b6040830152602082015161052a90829063ffffffff610bb116565b8252604082015160208301516105459163ffffffff610bb116565b602083015250919050565b6201518081565b61055f610ab7565b6000546001600160a01b0390811691161461058c5760405162461bcd60e51b815260040161039d90611cd5565b600b5442906105a4906201518063ffffffff61092216565b106105c15760405162461bcd60e51b815260040161039d90611cb0565b670429d069189e00008211156105e95760405162461bcd60e51b815260040161039d90611bc9565b6009829055600a80546001600160a01b0319166001600160a01b03831617905542600b5560405133907f113bdccf7b7ceafeb2ca0a4f91a0fbb09542dd8b3ea9d06907df13522a4d606e906106419085908590611e4a565b60405180910390a25050565b6000546001600160a01b031690565b60006001600160a01b0383166106845760405162461bcd60e51b815260040161039d90611c1b565b81516041146106a55760405162461bcd60e51b815260040161039d90611a2a565b6000826040815181106106b457fe5b016020015160f81c9050601b8114806106d057508060ff16601c145b6106ec5760405162461bcd60e51b815260040161039d90611d2f565b60006106f9846000610bf3565b90506000610708856020610bf3565b90506001878484846040516000815260200160405260405161072d94939291906119d9565b6020604051602081039080840390855afa15801561074f573d6000803e3d6000fd5b505050602060405103516001600160a01b0316866001600160a01b03161493505050509392505050565b60025481565b670429d069189e000081565b610793610ab7565b6000546001600160a01b039081169116146107c05760405162461bcd60e51b815260040161039d90611cd5565b600c80546001600160a01b0319166001600160a01b0392909216919091179055565b60095481565b600b5481565b60045481565b60066020526000908152604090205460ff1681565b60a0015190565b60008054600160a01b900460ff161561083b5760405162461bcd60e51b815260040161039d90611bf1565b6002600154141561085e5760405162461bcd60e51b815260040161039d90611df2565b60026001556104be82610c22565b610874610ab7565b6000546001600160a01b039081169116146108a15760405162461bcd60e51b815260040161039d90611cd5565b6001600160a01b0381166108c75760405162461bcd60e51b815260040161039d90611aa7565b600080546040516001600160a01b03808516939216917f8be0079c531659141344cd1fd0a4f28419497f9722a3daafe3b4186f6b6457e091a3600080546001600160a01b0319166001600160a01b0392909216919091179055565b6000828201838110156109475760405162461bcd60e51b815260040161039d90611aed565b90505b92915050565b600061034b61095e83610dc4565b610e7f565b600061096d6115bc565b61097684610ea4565b60208082015160009081526006909152604090205490915060ff166109ad5760405162461bcd60e51b815260040161039d90611a82565b60e08401516001600160a01b03166000908152600560209081526040808320610100880151845290915290205460ff166109f95760405162461bcd60e51b815260040161039d90611b47565b60e08401516001600160a01b0316600090815260056020908152604080832061010088015184529091529020805460ff19169055610a38848285610fa2565b610a4061159b565b610a49856104c8565b85519091506001600160a01b031615610a63578451610a65565b335b6001600160a01b03908116865260208601511615610a87578460200151610a89565b335b6001600160a01b03166020860152610aa28583836110b8565b610aac85826111a6565b506001949350505050565b3390565b6000610ac56115bc565b610ace83610ea4565b83519091506001600160a01b031615610ae8578251610aea565b335b6001600160a01b0390811684526000602080860182905260e086015190921681526005825260408082206101008701518352909252205460ff16610b405760405162461bcd60e51b815260040161039d90611b47565b60e08301516001600160a01b0316600090815260056020908152604080832061010087015184529091529020805460ff19169055610b7e83826113df565b50600192915050565b6000610947670de0b6b3a7640000610ba5858563ffffffff61142e16565b9063ffffffff61146816565b600061094783836040518060400160405280601e81526020017f536166654d6174683a207375627472616374696f6e206f766572666c6f7700008152506114aa565b60008160200183511015610c195760405162461bcd60e51b815260040161039d90611c49565b50016020015190565b6000610c2c6115bc565b610c3583610ea4565b60e08401516001600160a01b03166000908152600560209081526040808320610100880151845290915290205490915060ff1615610c855760405162461bcd60e51b815260040161039d90611b73565b60e08301516001600160a01b0316600090815260056020908152604080832061010087015184528252808320805460ff19166001179055838201518352600690915290205460ff1615610cea5760405162461bcd60e51b815260040161039d90611d0a565b600c5460e0840151610100850151604051630f9cb82960e01b81526001600160a01b0390931692630f9cb82992610d25929091600401611928565b60206040518083038186803b158015610d3d57600080fd5b505afa158015610d51573d6000803e3d6000fd5b505050506040513d601f19601f82011682018060405250810190610d759190611766565b15610d925760405162461bcd60e51b815260040161039d90611d91565b33835260006020840152610da461159b565b610dad846104c8565b9050610dba8483836114d6565b5060019392505050565b600060405180610120016040528060e78152602001611f5f60e79139604051602001610df0919061189c565b60405160208183030381529060405280519060200120826000015183602001518460400151856060015186608001518760a001518860c001518960e001518a61010001518b61012001518c61014001518d6101600151604051602001610e629d9c9b9a99989796959493929190611955565b604051602081830303815290604052805190602001209050919050565b60045460405161190160f01b8152600281019190915260228101919091526042902090565b610eac6115bc565b610eb582610950565b60208083018290526000918252600790526040908190205460ff161515908201526003826060015110610efb578060005b90816007811115610ef357fe5b90525061034e565b6080820151610f0c57806000610ee6565b60408201516001600160a01b031615801590610f35575060408201516001600160a01b03163314155b15610f4257806001610ee6565b6a0aaea639f5433bf21e00008261016001511115610f6257806000610ee6565b806040015115610f7457806004610ee6565b60208082015160009081526008909152604090205460ff1615610f9957806005610ee6565b60028152919050565b600082516007811115610fb157fe5b1415610fcf5760405162461bcd60e51b815260040161039d90611a61565b600482516007811115610fde57fe5b1415610ffc5760405162461bcd60e51b815260040161039d90611d50565b60038251600781111561100b57fe5b14156110295760405162461bcd60e51b815260040161039d90611d70565b60058251600781111561103857fe5b14156110565760405162461bcd60e51b815260040161039d90611b24565b60018251600781111561106557fe5b14156110835760405162461bcd60e51b815260040161039d90611b9f565b60028251600781111561109257fe5b146110af5760405162461bcd60e51b815260040161039d90611dc8565b60015b50505050565b60208083015160009081526006909152604090205460ff166110ec5760405162461bcd60e51b815260040161039d90611a82565b602082810180516000908152600683526040808220805460ff1990811690915583518352600785529181902080549092166001179091558551610140870151925185850151868401516101008a015160808b015160e08c01518a51998d01516101208e015198516001600160a01b039889169b98909a169996987fa246499da7279e3d5878ad549256043feed07fc6fd059b1245db41017bf8cbb898611199983396959493919290611ea7565b60405180910390a4505050565b6101208201516020830151835183516040516323b872dd60e01b81526001600160a01b03909416936323b872dd936111e493909290916004016118cc565b602060405180830381600087803b1580156111fe57600080fd5b505af1158015611212573d6000803e3d6000fd5b505050506040513d601f19601f820116820180604052508101906112369190611766565b508161012001516001600160a01b03166323b872dd836020015184610140015184602001516040518463ffffffff1660e01b8152600401611279939291906118cc565b602060405180830381600087803b15801561129357600080fd5b505af11580156112a7573d6000803e3d6000fd5b505050506040513d601f19601f820116820180604052508101906112cb9190611766565b506101208201516020830151600a5460408085015190516323b872dd60e01b81526001600160a01b03948516946323b872dd9461130f9490939116916004016118cc565b602060405180830381600087803b15801561132957600080fd5b505af115801561133d573d6000803e3d6000fd5b505050506040513d601f19601f820116820180604052508101906113619190611766565b508160e001516001600160a01b031663f242432a8360000151846020015185610100015186608001516040518563ffffffff1660e01b81526004016113a994939291906118f0565b600060405180830381600087803b1580156113c357600080fd5b505af11580156113d7573d6000803e3d6000fd5b505050505050565b60208082018051600090815260069092526040909120805460ff19169055517fe708103a95031dc86d48e5be4e1ba1d5bec8fcf8adfc6cd7270d9b3a8c5488af6007604051610641919061194c565b60008261143d5750600061094a565b8282028284828161144a57fe5b04146109475760405162461bcd60e51b815260040161039d90611c6f565b600061094783836040518060400160405280601a81526020017f536166654d6174683a206469766973696f6e206279207a65726f000000000000815250611564565b600081848411156114ce5760405162461bcd60e51b815260040161039d91906119f7565b505050900390565b602080830180516000908152600683526040808220805460ff191660011790558651610140880151935194860151868301516101008a015160808b015160e08c01516101208d015196516001600160a01b039687169a9990961698977f0537568d4f4557ad1b774356bd1837c13e3d70d2654e1a10e58447d9ed398126976111999733959493929190611e61565b600081836115855760405162461bcd60e51b815260040161039d91906119f7565b50600083858161159157fe5b0495945050505050565b60405180606001604052806000815260200160008152602001600081525090565b6040805160608101909152806000815260006020820181905260409091015290565b803561094a81611f46565b600082601f8301126115f9578081fd5b813567ffffffffffffffff81111561160f578182fd5b611622601f8201601f1916602001611ef3565b915080825283602082850101111561163957600080fd5b8060208401602084013760009082016020015292915050565b6000610180808385031215611665578182fd5b61166e81611ef3565b91505061167b83836115de565b815261168a83602084016115de565b602082015261169c83604084016115de565b6040820152606082013560608201526080820135608082015260a082013560a082015260c082013560c08201526116d68360e084016115de565b60e082015261010082810135908201526101206116f5848285016115de565b90820152610140611708848483016115de565b818301525061016080830135818301525092915050565b600060208284031215611730578081fd5b813561094781611f46565b6000806040838503121561174d578081fd5b823561175881611f46565b946020939093013593505050565b600060208284031215611777578081fd5b81518015158114610947578182fd5b600060208284031215611797578081fd5b5035919050565b6000806000606084860312156117b2578081fd5b8335925060208401356117c481611f46565b9150604084013567ffffffffffffffff8111156117df578182fd5b6117eb868287016115e9565b9150509250925092565b60006101808284031215611807578081fd5b6109478383611652565b6000806101a08385031215611824578182fd5b61182e8484611652565b915061018083013567ffffffffffffffff81111561184a578182fd5b611856858286016115e9565b9150509250929050565b60008060408385031215611872578182fd5b82359150602083013561188481611f46565b809150509250929050565b6001600160a01b03169052565b600082516118ae818460208701611f1a565b9190910192915050565b6001600160a01b0391909116815260200190565b6001600160a01b039384168152919092166020820152604081019190915260600190565b6001600160a01b0394851681529290931660208301526040820152606081019190915260a06080820181905260009082015260c00190565b6001600160a01b03929092168252602082015260400190565b901515815260200190565b90815260200190565b8d81526001600160a01b038d811660208301528c811660408301528b81166060830152608082018b905260a082018a905260c0820189905260e08201889052868116610100830152610120820186905284166101408201526101a081016119c061016083018561188f565b826101808301529e9d5050505050505050505050505050565b93845260ff9290921660208401526040830152606082015260800190565b6000602082528251806020840152611a16816040850160208701611f1a565b601f01601f19169190910160400192915050565b60208082526019908201527f57726f6e67206c656e677468206f66207369676e617475726500000000000000604082015260600190565b6020808252600790820152661253959053125160ca1b604082015260600190565b6020808252600b908201526a139bdd0818dc99585d195960aa1b604082015260600190565b60208082526026908201527f4f776e61626c653a206e6577206f776e657220697320746865207a65726f206160408201526564647265737360d01b606082015260800190565b6020808252601b908201527f536166654d6174683a206164646974696f6e206f766572666c6f770000000000604082015260600190565b60208082526009908201526810d05390d15313115160ba1b604082015260600190565b6020808252601290820152714e6674206964206e6f74206f6e2073616c6560701b604082015260600190565b6020808252601290820152714e667420696420686173206f6e2073616c6560701b604082015260600190565b60208082526010908201526f24a72b20a624a22fa7a822a920aa27a960811b604082015260600190565b6020808252600e908201526d657863656564206d61782066656560901b604082015260600190565b60208082526010908201526f14185d5cd8589b194e881c185d5cd95960821b604082015260600190565b60208082526014908201527357726f6e67207369676e6572206164647265737360601b604082015260600190565b6020808252600c908201526b0aee4dedcce40d8cadccee8d60a31b604082015260600190565b60208082526021908201527f536166654d6174683a206d756c7469706c69636174696f6e206f766572666c6f6040820152607760f81b606082015260800190565b6020808252600b908201526a34b71031b7b7b63237bbb760a91b604082015260600190565b6020808252818101527f4f776e61626c653a2063616c6c6572206973206e6f7420746865206f776e6572604082015260600190565b6020808252600b908201526a12185cc818dc99585d195960aa1b604082015260600190565b6020808252600790820152662bb937b733902b60c91b604082015260600190565b60208082526006908201526511925313115160d21b604082015260600190565b6020808252600790820152661156141254915160ca1b604082015260600190565b6020808252601e908201527f4e667420696420686173206f6e20656e676c6973682065786368616e67650000604082015260600190565b60208082526010908201526f4f524445525f554e46494c4c41424c4560801b604082015260600190565b6020808252601f908201527f5265656e7472616e637947756172643a207265656e7472616e742063616c6c00604082015260600190565b81518152602080830151908201526040918201519181019190915260600190565b9182526001600160a01b0316602082015260400190565b97885260208801969096526001600160a01b03948516604088015260608701939093526080860191909152821660a0850152811660c08401521660e08201526101000190565b98895260208901979097526001600160a01b03958616604089015260608801949094526080870192909252831660a086015260c0850152811660e0840152166101008201526101200190565b60405181810167ffffffffffffffff81118282101715611f1257600080fd5b604052919050565b60005b83811015611f35578181015183820152602001611f1d565b838111156110b25750506000910152565b6001600160a01b0381168114611f5b57600080fd5b5056fe4f726465722861646472657373206f776e65722c616464726573732074616b65722c61646472657373206f70657261746f722c75696e74323536206f72646572547970652c75696e7432353620616d6f756e742c75696e7432353620737461727450726963652c75696e7432353620656e6454696d652c75696e743235362073616c742c61646472657373206173736574416464726573732c75696e743235362069642c616464726573732063757272656e6379416464726573732c6164647265737320666565526563697069656e742c75696e743235362066656550657263656e7461676529a2646970667358221220fc6b9cf9819c6f633c0d774c0f04d1178d3fcbe565509bae98b8255f5fa2e04464736f6c63430006090033",
			"opcodes": "PUSH1 0x80 PUSH1 0x40 MSTORE PUSH1 0x3 DUP1 SLOAD PUSH1 0x1 PUSH1 0x1 PUSH1 0xA0 SHL SUB NOT AND ADDRESS OR SWAP1 SSTORE CALLVALUE DUP1 ISZERO PUSH3 0x23 JUMPI PUSH1 0x0 DUP1 REVERT JUMPDEST POP PUSH1 0x40 MLOAD PUSH3 0x2561 CODESIZE SUB DUP1 PUSH3 0x2561 DUP4 CODECOPY DUP2 ADD PUSH1 0x40 DUP2 SWAP1 MSTORE PUSH3 0x46 SWAP2 PUSH3 0x30E JUMP JUMPDEST PUSH1 0x0 PUSH3 0x5B PUSH1 0x1 PUSH1 0x1 PUSH1 0xE0 SHL SUB PUSH3 0x1BE AND JUMP JUMPDEST PUSH1 0x0 DUP1 SLOAD PUSH1 0x1 PUSH1 0x1 PUSH1 0xA0 SHL SUB NOT AND PUSH1 0x1 PUSH1 0x1 PUSH1 0xA0 SHL SUB DUP4 AND SWAP1 DUP2 OR DUP3 SSTORE PUSH1 0x40 MLOAD SWAP3 SWAP4 POP SWAP2 PUSH32 0x8BE0079C531659141344CD1FD0A4F28419497F9722A3DAAFE3B4186F6B6457E0 SWAP1 DUP3 SWAP1 LOG3 POP PUSH1 0x0 DUP1 SLOAD PUSH1 0xFF PUSH1 0xA0 SHL NOT AND SWAP1 SSTORE PUSH1 0x1 DUP1 SSTORE CHAINID PUSH1 0x2 DUP2 SWAP1 SSTORE PUSH1 0x40 MLOAD PUSH3 0xCD SWAP1 PUSH1 0x20 ADD PUSH3 0x34B JUMP JUMPDEST PUSH1 0x40 DUP1 MLOAD PUSH1 0x1F NOT DUP2 DUP5 SUB ADD DUP2 MSTORE DUP3 DUP3 MSTORE DUP1 MLOAD PUSH1 0x20 SWAP2 DUP3 ADD KECCAK256 DUP4 DUP4 ADD DUP4 MSTORE PUSH1 0xD DUP5 MSTORE PUSH13 0x436F6E666945786368616E6765 PUSH1 0x98 SHL SWAP4 DUP3 ADD SWAP4 SWAP1 SWAP4 MSTORE DUP2 MLOAD DUP1 DUP4 ADD DUP4 MSTORE PUSH1 0x3 DUP1 DUP3 MSTORE PUSH3 0x312E3 PUSH1 0xEC SHL SWAP2 DUP4 ADD SWAP2 SWAP1 SWAP2 MSTORE PUSH1 0x2 SLOAD SWAP1 SLOAD SWAP3 MLOAD PUSH3 0x185 SWAP5 SWAP4 PUSH32 0xC241628EAF835FA04927309E7FFA6FF63C4192AA2DFB4063D9C147EC4FAB6BEC SWAP4 PUSH32 0xE6BBD6277E1BF288EED5E8D1780F9A50B239E86B153736BCEEBCCF4EA79D90B3 SWAP4 SWAP3 PUSH1 0x1 PUSH1 0x1 PUSH1 0xA0 SHL SUB SWAP1 SWAP3 AND SWAP2 ADD PUSH3 0x3DA JUMP JUMPDEST PUSH1 0x40 DUP1 MLOAD PUSH1 0x1F NOT DUP2 DUP5 SUB ADD DUP2 MSTORE SWAP2 SWAP1 MSTORE DUP1 MLOAD PUSH1 0x20 SWAP1 SWAP2 ADD KECCAK256 PUSH1 0x4 SSTORE POP PUSH3 0x1B6 DUP3 DUP3 PUSH1 0x1 PUSH1 0x1 PUSH1 0xE0 SHL SUB PUSH3 0x1C2 AND JUMP JUMPDEST POP POP PUSH3 0x4D6 JUMP JUMPDEST CALLER SWAP1 JUMP JUMPDEST PUSH3 0x1D5 PUSH1 0x1 PUSH1 0x1 PUSH1 0xE0 SHL SUB PUSH3 0x1BE AND JUMP JUMPDEST PUSH1 0x0 SLOAD PUSH1 0x1 PUSH1 0x1 PUSH1 0xA0 SHL SUB SWAP1 DUP2 AND SWAP2 AND EQ PUSH3 0x20E JUMPI PUSH1 0x40 MLOAD PUSH3 0x461BCD PUSH1 0xE5 SHL DUP2 MSTORE PUSH1 0x4 ADD PUSH3 0x205 SWAP1 PUSH3 0x48A JUMP JUMPDEST PUSH1 0x40 MLOAD DUP1 SWAP2 SUB SWAP1 REVERT JUMPDEST TIMESTAMP PUSH3 0x22E PUSH3 0x15180 PUSH1 0xB SLOAD PUSH3 0x2DF PUSH1 0x20 SHL PUSH3 0x922 OR SWAP1 SWAP2 SWAP1 PUSH1 0x20 SHR JUMP JUMPDEST LT PUSH3 0x24E JUMPI PUSH1 0x40 MLOAD PUSH3 0x461BCD PUSH1 0xE5 SHL DUP2 MSTORE PUSH1 0x4 ADD PUSH3 0x205 SWAP1 PUSH3 0x465 JUMP JUMPDEST PUSH8 0x429D069189E0000 DUP3 GT ISZERO PUSH3 0x279 JUMPI PUSH1 0x40 MLOAD PUSH3 0x461BCD PUSH1 0xE5 SHL DUP2 MSTORE PUSH1 0x4 ADD PUSH3 0x205 SWAP1 PUSH3 0x43D JUMP JUMPDEST PUSH1 0x9 DUP3 SWAP1 SSTORE PUSH1 0xA DUP1 SLOAD PUSH1 0x1 PUSH1 0x1 PUSH1 0xA0 SHL SUB NOT AND PUSH1 0x1 PUSH1 0x1 PUSH1 0xA0 SHL SUB DUP4 AND OR SWAP1 SSTORE TIMESTAMP PUSH1 0xB SSTORE PUSH1 0x40 MLOAD CALLER SWAP1 PUSH32 0x113BDCCF7B7CEAFEB2CA0A4F91A0FBB09542DD8B3EA9D06907DF13522A4D606E SWAP1 PUSH3 0x2D3 SWAP1 DUP6 SWAP1 DUP6 SWAP1 PUSH3 0x4BF JUMP JUMPDEST PUSH1 0x40 MLOAD DUP1 SWAP2 SUB SWAP1 LOG2 POP POP JUMP JUMPDEST PUSH1 0x0 DUP3 DUP3 ADD DUP4 DUP2 LT ISZERO PUSH3 0x307 JUMPI PUSH1 0x40 MLOAD PUSH3 0x461BCD PUSH1 0xE5 SHL DUP2 MSTORE PUSH1 0x4 ADD PUSH3 0x205 SWAP1 PUSH3 0x406 JUMP JUMPDEST SWAP4 SWAP3 POP POP POP JUMP JUMPDEST PUSH1 0x0 DUP1 PUSH1 0x40 DUP4 DUP6 SUB SLT ISZERO PUSH3 0x321 JUMPI DUP2 DUP3 REVERT JUMPDEST DUP3 MLOAD PUSH1 0x20 DUP5 ADD MLOAD SWAP1 SWAP3 POP PUSH1 0x1 PUSH1 0x1 PUSH1 0xA0 SHL SUB DUP2 AND DUP2 EQ PUSH3 0x340 JUMPI DUP2 DUP3 REVERT JUMPDEST DUP1 SWAP2 POP POP SWAP3 POP SWAP3 SWAP1 POP JUMP JUMPDEST PUSH13 0x8A92A06E626488DEDAC2D2DC5 PUSH1 0x9B SHL DUP2 MSTORE PUSH12 0x1CDD1C9A5B99C81B985B594B PUSH1 0xA2 SHL PUSH1 0xD DUP3 ADD MSTORE PUSH15 0x1CDD1C9A5B99C81D995C9CDA5BDB8B PUSH1 0x8A SHL PUSH1 0x19 DUP3 ADD MSTORE PUSH16 0x1D5A5B9D0C8D4D8818DA185A5B92590B PUSH1 0x82 SHL PUSH1 0x28 DUP3 ADD MSTORE PUSH32 0x6164647265737320766572696679696E67436F6E747261637400000000000000 PUSH1 0x38 DUP3 ADD MSTORE PUSH1 0x29 PUSH1 0xF8 SHL PUSH1 0x51 DUP3 ADD MSTORE PUSH1 0x52 ADD SWAP1 JUMP JUMPDEST SWAP5 DUP6 MSTORE PUSH1 0x20 DUP6 ADD SWAP4 SWAP1 SWAP4 MSTORE PUSH1 0x40 DUP5 ADD SWAP2 SWAP1 SWAP2 MSTORE PUSH1 0x60 DUP4 ADD MSTORE PUSH1 0x1 PUSH1 0x1 PUSH1 0xA0 SHL SUB AND PUSH1 0x80 DUP3 ADD MSTORE PUSH1 0xA0 ADD SWAP1 JUMP JUMPDEST PUSH1 0x20 DUP1 DUP3 MSTORE PUSH1 0x1B SWAP1 DUP3 ADD MSTORE PUSH32 0x536166654D6174683A206164646974696F6E206F766572666C6F770000000000 PUSH1 0x40 DUP3 ADD MSTORE PUSH1 0x60 ADD SWAP1 JUMP JUMPDEST PUSH1 0x20 DUP1 DUP3 MSTORE PUSH1 0xE SWAP1 DUP3 ADD MSTORE PUSH14 0x657863656564206D617820666565 PUSH1 0x90 SHL PUSH1 0x40 DUP3 ADD MSTORE PUSH1 0x60 ADD SWAP1 JUMP JUMPDEST PUSH1 0x20 DUP1 DUP3 MSTORE PUSH1 0xB SWAP1 DUP3 ADD MSTORE PUSH11 0x34B71031B7B7B63237BBB7 PUSH1 0xA9 SHL PUSH1 0x40 DUP3 ADD MSTORE PUSH1 0x60 ADD SWAP1 JUMP JUMPDEST PUSH1 0x20 DUP1 DUP3 MSTORE DUP2 DUP2 ADD MSTORE PUSH32 0x4F776E61626C653A2063616C6C6572206973206E6F7420746865206F776E6572 PUSH1 0x40 DUP3 ADD MSTORE PUSH1 0x60 ADD SWAP1 JUMP JUMPDEST SWAP2 DUP3 MSTORE PUSH1 0x1 PUSH1 0x1 PUSH1 0xA0 SHL SUB AND PUSH1 0x20 DUP3 ADD MSTORE PUSH1 0x40 ADD SWAP1 JUMP JUMPDEST PUSH2 0x207B DUP1 PUSH3 0x4E6 PUSH1 0x0 CODECOPY PUSH1 0x0 RETURN INVALID PUSH1 0x80 PUSH1 0x40 MSTORE CALLVALUE DUP1 ISZERO PUSH2 0x10 JUMPI PUSH1 0x0 DUP1 REVERT JUMPDEST POP PUSH1 0x4 CALLDATASIZE LT PUSH2 0x158 JUMPI PUSH1 0x0 CALLDATALOAD PUSH1 0xE0 SHR DUP1 PUSH4 0x8DA5CB5B GT PUSH2 0xC3 JUMPI DUP1 PUSH4 0xE2DDE054 GT PUSH2 0x7C JUMPI DUP1 PUSH4 0xE2DDE054 EQ PUSH2 0x29A JUMPI DUP1 PUSH4 0xE306F779 EQ PUSH2 0x2A2 JUMPI DUP1 PUSH4 0xEAA760C2 EQ PUSH2 0x2AA JUMPI DUP1 PUSH4 0xEBE2625A EQ PUSH2 0x2BD JUMPI DUP1 PUSH4 0xF2435F0D EQ PUSH2 0x2D0 JUMPI DUP1 PUSH4 0xF2FDE38B EQ PUSH2 0x2E3 JUMPI PUSH2 0x158 JUMP JUMPDEST DUP1 PUSH4 0x8DA5CB5B EQ PUSH2 0x254 JUMPI DUP1 PUSH4 0x93634702 EQ PUSH2 0x25C JUMPI DUP1 PUSH4 0x9A8A0592 EQ PUSH2 0x26F JUMPI DUP1 PUSH4 0xC37F03C7 EQ PUSH2 0x277 JUMPI DUP1 PUSH4 0xCF07104E EQ PUSH2 0x27F JUMPI DUP1 PUSH4 0xDBD8987C EQ PUSH2 0x292 JUMPI PUSH2 0x158 JUMP JUMPDEST DUP1 PUSH4 0x6F16ABC4 GT PUSH2 0x115 JUMPI DUP1 PUSH4 0x6F16ABC4 EQ PUSH2 0x1E9 JUMPI DUP1 PUSH4 0x715018A6 EQ PUSH2 0x1FC JUMPI DUP1 PUSH4 0x7A3FE76D EQ PUSH2 0x206 JUMPI DUP1 PUSH4 0x7F3CFB7C EQ PUSH2 0x219 JUMPI DUP1 PUSH4 0x8243D01F EQ PUSH2 0x239 JUMPI DUP1 PUSH4 0x83C3E77A EQ PUSH2 0x241 JUMPI PUSH2 0x158 JUMP JUMPDEST DUP1 PUSH4 0xF9CB829 EQ PUSH2 0x15D JUMPI DUP1 PUSH4 0x288CDC91 EQ PUSH2 0x186 JUMPI DUP1 PUSH4 0x2AC12622 EQ PUSH2 0x199 JUMPI DUP1 PUSH4 0x35D51CEB EQ PUSH2 0x1AC JUMPI DUP1 PUSH4 0x5C975ABB EQ PUSH2 0x1CC JUMPI DUP1 PUSH4 0x6CF25C4E EQ PUSH2 0x1D4 JUMPI JUMPDEST PUSH1 0x0 DUP1 REVERT JUMPDEST PUSH2 0x170 PUSH2 0x16B CALLDATASIZE PUSH1 0x4 PUSH2 0x173B JUMP JUMPDEST PUSH2 0x2F6 JUMP JUMPDEST PUSH1 0x40 MLOAD PUSH2 0x17D SWAP2 SWAP1 PUSH2 0x1941 JUMP JUMPDEST PUSH1 0x40 MLOAD DUP1 SWAP2 SUB SWAP1 RETURN JUMPDEST PUSH2 0x170 PUSH2 0x194 CALLDATASIZE PUSH1 0x4 PUSH2 0x1786 JUMP JUMPDEST PUSH2 0x316 JUMP JUMPDEST PUSH2 0x170 PUSH2 0x1A7 CALLDATASIZE PUSH1 0x4 PUSH2 0x1786 JUMP JUMPDEST PUSH2 0x32B JUMP JUMPDEST PUSH2 0x1BF PUSH2 0x1BA CALLDATASIZE PUSH1 0x4 PUSH2 0x17F5 JUMP JUMPDEST PUSH2 0x340 JUMP JUMPDEST PUSH1 0x40 MLOAD PUSH2 0x17D SWAP2 SWAP1 PUSH2 0x194C JUMP JUMPDEST PUSH2 0x170 PUSH2 0x353 JUMP JUMPDEST PUSH2 0x1DC PUSH2 0x363 JUMP JUMPDEST PUSH1 0x40 MLOAD PUSH2 0x17D SWAP2 SWAP1 PUSH2 0x18B8 JUMP JUMPDEST PUSH2 0x170 PUSH2 0x1F7 CALLDATASIZE PUSH1 0x4 PUSH2 0x1811 JUMP JUMPDEST PUSH2 0x372 JUMP JUMPDEST PUSH2 0x204 PUSH2 0x3E3 JUMP JUMPDEST STOP JUMPDEST PUSH2 0x170 PUSH2 0x214 CALLDATASIZE PUSH1 0x4 PUSH2 0x17F5 JUMP JUMPDEST PUSH2 0x462 JUMP JUMPDEST PUSH2 0x22C PUSH2 0x227 CALLDATASIZE PUSH1 0x4 PUSH2 0x17F5 JUMP JUMPDEST PUSH2 0x4C8 JUMP JUMPDEST PUSH1 0x40 MLOAD PUSH2 0x17D SWAP2 SWAP1 PUSH2 0x1E29 JUMP JUMPDEST PUSH2 0x1BF PUSH2 0x550 JUMP JUMPDEST PUSH2 0x204 PUSH2 0x24F CALLDATASIZE PUSH1 0x4 PUSH2 0x1860 JUMP JUMPDEST PUSH2 0x557 JUMP JUMPDEST PUSH2 0x1DC PUSH2 0x64D JUMP JUMPDEST PUSH2 0x170 PUSH2 0x26A CALLDATASIZE PUSH1 0x4 PUSH2 0x179E JUMP JUMPDEST PUSH2 0x65C JUMP JUMPDEST PUSH2 0x1BF PUSH2 0x779 JUMP JUMPDEST PUSH2 0x1BF PUSH2 0x77F JUMP JUMPDEST PUSH2 0x204 PUSH2 0x28D CALLDATASIZE PUSH1 0x4 PUSH2 0x171F JUMP JUMPDEST PUSH2 0x78B JUMP JUMPDEST PUSH2 0x1BF PUSH2 0x7E2 JUMP JUMPDEST PUSH2 0x1BF PUSH2 0x7E8 JUMP JUMPDEST PUSH2 0x1BF PUSH2 0x7EE JUMP JUMPDEST PUSH2 0x170 PUSH2 0x2B8 CALLDATASIZE PUSH1 0x4 PUSH2 0x1786 JUMP JUMPDEST PUSH2 0x7F4 JUMP JUMPDEST PUSH2 0x1BF PUSH2 0x2CB CALLDATASIZE PUSH1 0x4 PUSH2 0x17F5 JUMP JUMPDEST PUSH2 0x809 JUMP JUMPDEST PUSH2 0x170 PUSH2 0x2DE CALLDATASIZE PUSH1 0x4 PUSH2 0x17F5 JUMP JUMPDEST PUSH2 0x810 JUMP JUMPDEST PUSH2 0x204 PUSH2 0x2F1 CALLDATASIZE PUSH1 0x4 PUSH2 0x171F JUMP JUMPDEST PUSH2 0x86C JUMP JUMPDEST PUSH1 0x5 PUSH1 0x20 SWAP1 DUP2 MSTORE PUSH1 0x0 SWAP3 DUP4 MSTORE PUSH1 0x40 DUP1 DUP5 KECCAK256 SWAP1 SWAP2 MSTORE SWAP1 DUP3 MSTORE SWAP1 KECCAK256 SLOAD PUSH1 0xFF AND DUP2 JUMP JUMPDEST PUSH1 0x7 PUSH1 0x20 MSTORE PUSH1 0x0 SWAP1 DUP2 MSTORE PUSH1 0x40 SWAP1 KECCAK256 SLOAD PUSH1 0xFF AND DUP2 JUMP JUMPDEST PUSH1 0x8 PUSH1 0x20 MSTORE PUSH1 0x0 SWAP1 DUP2 MSTORE PUSH1 0x40 SWAP1 KECCAK256 SLOAD PUSH1 0xFF AND DUP2 JUMP JUMPDEST PUSH1 0x0 PUSH2 0x34B DUP3 PUSH2 0x950 JUMP JUMPDEST SWAP1 POP JUMPDEST SWAP2 SWAP1 POP JUMP JUMPDEST PUSH1 0x0 SLOAD PUSH1 0x1 PUSH1 0xA0 SHL SWAP1 DIV PUSH1 0xFF AND SWAP1 JUMP JUMPDEST PUSH1 0xA SLOAD PUSH1 0x1 PUSH1 0x1 PUSH1 0xA0 SHL SUB AND DUP2 JUMP JUMPDEST PUSH1 0x0 DUP1 SLOAD PUSH1 0x1 PUSH1 0xA0 SHL SWAP1 DIV PUSH1 0xFF AND ISZERO PUSH2 0x3A6 JUMPI PUSH1 0x40 MLOAD PUSH3 0x461BCD PUSH1 0xE5 SHL DUP2 MSTORE PUSH1 0x4 ADD PUSH2 0x39D SWAP1 PUSH2 0x1BF1 JUMP JUMPDEST PUSH1 0x40 MLOAD DUP1 SWAP2 SUB SWAP1 REVERT JUMPDEST PUSH1 0x2 PUSH1 0x1 SLOAD EQ ISZERO PUSH2 0x3C9 JUMPI PUSH1 0x40 MLOAD PUSH3 0x461BCD PUSH1 0xE5 SHL DUP2 MSTORE PUSH1 0x4 ADD PUSH2 0x39D SWAP1 PUSH2 0x1DF2 JUMP JUMPDEST PUSH1 0x2 PUSH1 0x1 SSTORE PUSH2 0x3D8 DUP4 DUP4 PUSH2 0x963 JUMP JUMPDEST PUSH1 0x1 DUP1 SSTORE SWAP4 SWAP3 POP POP POP JUMP JUMPDEST PUSH2 0x3EB PUSH2 0xAB7 JUMP JUMPDEST PUSH1 0x0 SLOAD PUSH1 0x1 PUSH1 0x1 PUSH1 0xA0 SHL SUB SWAP1 DUP2 AND SWAP2 AND EQ PUSH2 0x418 JUMPI PUSH1 0x40 MLOAD PUSH3 0x461BCD PUSH1 0xE5 SHL DUP2 MSTORE PUSH1 0x4 ADD PUSH2 0x39D SWAP1 PUSH2 0x1CD5 JUMP JUMPDEST PUSH1 0x0 DUP1 SLOAD PUSH1 0x40 MLOAD PUSH1 0x1 PUSH1 0x1 PUSH1 0xA0 SHL SUB SWAP1 SWAP2 AND SWAP1 PUSH32 0x8BE0079C531659141344CD1FD0A4F28419497F9722A3DAAFE3B4186F6B6457E0 SWAP1 DUP4 SWAP1 LOG3 PUSH1 0x0 DUP1 SLOAD PUSH1 0x1 PUSH1 0x1 PUSH1 0xA0 SHL SUB NOT AND SWAP1 SSTORE JUMP JUMPDEST PUSH1 0x0 DUP1 SLOAD PUSH1 0x1 PUSH1 0xA0 SHL SWAP1 DIV PUSH1 0xFF AND ISZERO PUSH2 0x48D JUMPI PUSH1 0x40 MLOAD PUSH3 0x461BCD PUSH1 0xE5 SHL DUP2 MSTORE PUSH1 0x4 ADD PUSH2 0x39D SWAP1 PUSH2 0x1BF1 JUMP JUMPDEST PUSH1 0x2 PUSH1 0x1 SLOAD EQ ISZERO PUSH2 0x4B0 JUMPI PUSH1 0x40 MLOAD PUSH3 0x461BCD PUSH1 0xE5 SHL DUP2 MSTORE PUSH1 0x4 ADD PUSH2 0x39D SWAP1 PUSH2 0x1DF2 JUMP JUMPDEST PUSH1 0x2 PUSH1 0x1 SSTORE PUSH2 0x4BE DUP3 PUSH2 0xABB JUMP JUMPDEST PUSH1 0x1 DUP1 SSTORE SWAP3 SWAP2 POP POP JUMP JUMPDEST PUSH2 0x4D0 PUSH2 0x159B JUMP JUMPDEST PUSH1 0x0 PUSH2 0x4DB DUP4 PUSH2 0x809 JUMP JUMPDEST SWAP1 POP PUSH2 0x4F5 DUP4 PUSH2 0x160 ADD MLOAD DUP3 PUSH2 0xB87 SWAP1 SWAP2 SWAP1 PUSH4 0xFFFFFFFF AND JUMP JUMPDEST PUSH1 0x20 DUP4 ADD DUP2 SWAP1 MSTORE PUSH1 0x9 SLOAD PUSH2 0x50F SWAP2 SWAP1 PUSH4 0xFFFFFFFF PUSH2 0xB87 AND JUMP JUMPDEST PUSH1 0x40 DUP4 ADD MSTORE PUSH1 0x20 DUP3 ADD MLOAD PUSH2 0x52A SWAP1 DUP3 SWAP1 PUSH4 0xFFFFFFFF PUSH2 0xBB1 AND JUMP JUMPDEST DUP3 MSTORE PUSH1 0x40 DUP3 ADD MLOAD PUSH1 0x20 DUP4 ADD MLOAD PUSH2 0x545 SWAP2 PUSH4 0xFFFFFFFF PUSH2 0xBB1 AND JUMP JUMPDEST PUSH1 0x20 DUP4 ADD MSTORE POP SWAP2 SWAP1 POP JUMP JUMPDEST PUSH3 0x15180 DUP2 JUMP JUMPDEST PUSH2 0x55F PUSH2 0xAB7 JUMP JUMPDEST PUSH1 0x0 SLOAD PUSH1 0x1 PUSH1 0x1 PUSH1 0xA0 SHL SUB SWAP1 DUP2 AND SWAP2 AND EQ PUSH2 0x58C JUMPI PUSH1 0x40 MLOAD PUSH3 0x461BCD PUSH1 0xE5 SHL DUP2 MSTORE PUSH1 0x4 ADD PUSH2 0x39D SWAP1 PUSH2 0x1CD5 JUMP JUMPDEST PUSH1 0xB SLOAD TIMESTAMP SWAP1 PUSH2 0x5A4 SWAP1 PUSH3 0x15180 PUSH4 0xFFFFFFFF PUSH2 0x922 AND JUMP JUMPDEST LT PUSH2 0x5C1 JUMPI PUSH1 0x40 MLOAD PUSH3 0x461BCD PUSH1 0xE5 SHL DUP2 MSTORE PUSH1 0x4 ADD PUSH2 0x39D SWAP1 PUSH2 0x1CB0 JUMP JUMPDEST PUSH8 0x429D069189E0000 DUP3 GT ISZERO PUSH2 0x5E9 JUMPI PUSH1 0x40 MLOAD PUSH3 0x461BCD PUSH1 0xE5 SHL DUP2 MSTORE PUSH1 0x4 ADD PUSH2 0x39D SWAP1 PUSH2 0x1BC9 JUMP JUMPDEST PUSH1 0x9 DUP3 SWAP1 SSTORE PUSH1 0xA DUP1 SLOAD PUSH1 0x1 PUSH1 0x1 PUSH1 0xA0 SHL SUB NOT AND PUSH1 0x1 PUSH1 0x1 PUSH1 0xA0 SHL SUB DUP4 AND OR SWAP1 SSTORE TIMESTAMP PUSH1 0xB SSTORE PUSH1 0x40 MLOAD CALLER SWAP1 PUSH32 0x113BDCCF7B7CEAFEB2CA0A4F91A0FBB09542DD8B3EA9D06907DF13522A4D606E SWAP1 PUSH2 0x641 SWAP1 DUP6 SWAP1 DUP6 SWAP1 PUSH2 0x1E4A JUMP JUMPDEST PUSH1 0x40 MLOAD DUP1 SWAP2 SUB SWAP1 LOG2 POP POP JUMP JUMPDEST PUSH1 0x0 SLOAD PUSH1 0x1 PUSH1 0x1 PUSH1 0xA0 SHL SUB AND SWAP1 JUMP JUMPDEST PUSH1 0x0 PUSH1 0x1 PUSH1 0x1 PUSH1 0xA0 SHL SUB DUP4 AND PUSH2 0x684 JUMPI PUSH1 0x40 MLOAD PUSH3 0x461BCD PUSH1 0xE5 SHL DUP2 MSTORE PUSH1 0x4 ADD PUSH2 0x39D SWAP1 PUSH2 0x1C1B JUMP JUMPDEST DUP2 MLOAD PUSH1 0x41 EQ PUSH2 0x6A5 JUMPI PUSH1 0x40 MLOAD PUSH3 0x461BCD PUSH1 0xE5 SHL DUP2 MSTORE PUSH1 0x4 ADD PUSH2 0x39D SWAP1 PUSH2 0x1A2A JUMP JUMPDEST PUSH1 0x0 DUP3 PUSH1 0x40 DUP2 MLOAD DUP2 LT PUSH2 0x6B4 JUMPI INVALID JUMPDEST ADD PUSH1 0x20 ADD MLOAD PUSH1 0xF8 SHR SWAP1 POP PUSH1 0x1B DUP2 EQ DUP1 PUSH2 0x6D0 JUMPI POP DUP1 PUSH1 0xFF AND PUSH1 0x1C EQ JUMPDEST PUSH2 0x6EC JUMPI PUSH1 0x40 MLOAD PUSH3 0x461BCD PUSH1 0xE5 SHL DUP2 MSTORE PUSH1 0x4 ADD PUSH2 0x39D SWAP1 PUSH2 0x1D2F JUMP JUMPDEST PUSH1 0x0 PUSH2 0x6F9 DUP5 PUSH1 0x0 PUSH2 0xBF3 JUMP JUMPDEST SWAP1 POP PUSH1 0x0 PUSH2 0x708 DUP6 PUSH1 0x20 PUSH2 0xBF3 JUMP JUMPDEST SWAP1 POP PUSH1 0x1 DUP8 DUP5 DUP5 DUP5 PUSH1 0x40 MLOAD PUSH1 0x0 DUP2 MSTORE PUSH1 0x20 ADD PUSH1 0x40 MSTORE PUSH1 0x40 MLOAD PUSH2 0x72D SWAP5 SWAP4 SWAP3 SWAP2 SWAP1 PUSH2 0x19D9 JUMP JUMPDEST PUSH1 0x20 PUSH1 0x40 MLOAD PUSH1 0x20 DUP2 SUB SWAP1 DUP1 DUP5 SUB SWAP1 DUP6 GAS STATICCALL ISZERO DUP1 ISZERO PUSH2 0x74F JUMPI RETURNDATASIZE PUSH1 0x0 DUP1 RETURNDATACOPY RETURNDATASIZE PUSH1 0x0 REVERT JUMPDEST POP POP POP PUSH1 0x20 PUSH1 0x40 MLOAD SUB MLOAD PUSH1 0x1 PUSH1 0x1 PUSH1 0xA0 SHL SUB AND DUP7 PUSH1 0x1 PUSH1 0x1 PUSH1 0xA0 SHL SUB AND EQ SWAP4 POP POP POP POP SWAP4 SWAP3 POP POP POP JUMP JUMPDEST PUSH1 0x2 SLOAD DUP2 JUMP JUMPDEST PUSH8 0x429D069189E0000 DUP2 JUMP JUMPDEST PUSH2 0x793 PUSH2 0xAB7 JUMP JUMPDEST PUSH1 0x0 SLOAD PUSH1 0x1 PUSH1 0x1 PUSH1 0xA0 SHL SUB SWAP1 DUP2 AND SWAP2 AND EQ PUSH2 0x7C0 JUMPI PUSH1 0x40 MLOAD PUSH3 0x461BCD PUSH1 0xE5 SHL DUP2 MSTORE PUSH1 0x4 ADD PUSH2 0x39D SWAP1 PUSH2 0x1CD5 JUMP JUMPDEST PUSH1 0xC DUP1 SLOAD PUSH1 0x1 PUSH1 0x1 PUSH1 0xA0 SHL SUB NOT AND PUSH1 0x1 PUSH1 0x1 PUSH1 0xA0 SHL SUB SWAP3 SWAP1 SWAP3 AND SWAP2 SWAP1 SWAP2 OR SWAP1 SSTORE JUMP JUMPDEST PUSH1 0x9 SLOAD DUP2 JUMP JUMPDEST PUSH1 0xB SLOAD DUP2 JUMP JUMPDEST PUSH1 0x4 SLOAD DUP2 JUMP JUMPDEST PUSH1 0x6 PUSH1 0x20 MSTORE PUSH1 0x0 SWAP1 DUP2 MSTORE PUSH1 0x40 SWAP1 KECCAK256 SLOAD PUSH1 0xFF AND DUP2 JUMP JUMPDEST PUSH1 0xA0 ADD MLOAD SWAP1 JUMP JUMPDEST PUSH1 0x0 DUP1 SLOAD PUSH1 0x1 PUSH1 0xA0 SHL SWAP1 DIV PUSH1 0xFF AND ISZERO PUSH2 0x83B JUMPI PUSH1 0x40 MLOAD PUSH3 0x461BCD PUSH1 0xE5 SHL DUP2 MSTORE PUSH1 0x4 ADD PUSH2 0x39D SWAP1 PUSH2 0x1BF1 JUMP JUMPDEST PUSH1 0x2 PUSH1 0x1 SLOAD EQ ISZERO PUSH2 0x85E JUMPI PUSH1 0x40 MLOAD PUSH3 0x461BCD PUSH1 0xE5 SHL DUP2 MSTORE PUSH1 0x4 ADD PUSH2 0x39D SWAP1 PUSH2 0x1DF2 JUMP JUMPDEST PUSH1 0x2 PUSH1 0x1 SSTORE PUSH2 0x4BE DUP3 PUSH2 0xC22 JUMP JUMPDEST PUSH2 0x874 PUSH2 0xAB7 JUMP JUMPDEST PUSH1 0x0 SLOAD PUSH1 0x1 PUSH1 0x1 PUSH1 0xA0 SHL SUB SWAP1 DUP2 AND SWAP2 AND EQ PUSH2 0x8A1 JUMPI PUSH1 0x40 MLOAD PUSH3 0x461BCD PUSH1 0xE5 SHL DUP2 MSTORE PUSH1 0x4 ADD PUSH2 0x39D SWAP1 PUSH2 0x1CD5 JUMP JUMPDEST PUSH1 0x1 PUSH1 0x1 PUSH1 0xA0 SHL SUB DUP2 AND PUSH2 0x8C7 JUMPI PUSH1 0x40 MLOAD PUSH3 0x461BCD PUSH1 0xE5 SHL DUP2 MSTORE PUSH1 0x4 ADD PUSH2 0x39D SWAP1 PUSH2 0x1AA7 JUMP JUMPDEST PUSH1 0x0 DUP1 SLOAD PUSH1 0x40 MLOAD PUSH1 0x1 PUSH1 0x1 PUSH1 0xA0 SHL SUB DUP1 DUP6 AND SWAP4 SWAP3 AND SWAP2 PUSH32 0x8BE0079C531659141344CD1FD0A4F28419497F9722A3DAAFE3B4186F6B6457E0 SWAP2 LOG3 PUSH1 0x0 DUP1 SLOAD PUSH1 0x1 PUSH1 0x1 PUSH1 0xA0 SHL SUB NOT AND PUSH1 0x1 PUSH1 0x1 PUSH1 0xA0 SHL SUB SWAP3 SWAP1 SWAP3 AND SWAP2 SWAP1 SWAP2 OR SWAP1 SSTORE JUMP JUMPDEST PUSH1 0x0 DUP3 DUP3 ADD DUP4 DUP2 LT ISZERO PUSH2 0x947 JUMPI PUSH1 0x40 MLOAD PUSH3 0x461BCD PUSH1 0xE5 SHL DUP2 MSTORE PUSH1 0x4 ADD PUSH2 0x39D SWAP1 PUSH2 0x1AED JUMP JUMPDEST SWAP1 POP JUMPDEST SWAP3 SWAP2 POP POP JUMP JUMPDEST PUSH1 0x0 PUSH2 0x34B PUSH2 0x95E DUP4 PUSH2 0xDC4 JUMP JUMPDEST PUSH2 0xE7F JUMP JUMPDEST PUSH1 0x0 PUSH2 0x96D PUSH2 0x15BC JUMP JUMPDEST PUSH2 0x976 DUP5 PUSH2 0xEA4 JUMP JUMPDEST PUSH1 0x20 DUP1 DUP3 ADD MLOAD PUSH1 0x0 SWAP1 DUP2 MSTORE PUSH1 0x6 SWAP1 SWAP2 MSTORE PUSH1 0x40 SWAP1 KECCAK256 SLOAD SWAP1 SWAP2 POP PUSH1 0xFF AND PUSH2 0x9AD JUMPI PUSH1 0x40 MLOAD PUSH3 0x461BCD PUSH1 0xE5 SHL DUP2 MSTORE PUSH1 0x4 ADD PUSH2 0x39D SWAP1 PUSH2 0x1A82 JUMP JUMPDEST PUSH1 0xE0 DUP5 ADD MLOAD PUSH1 0x1 PUSH1 0x1 PUSH1 0xA0 SHL SUB AND PUSH1 0x0 SWAP1 DUP2 MSTORE PUSH1 0x5 PUSH1 0x20 SWAP1 DUP2 MSTORE PUSH1 0x40 DUP1 DUP4 KECCAK256 PUSH2 0x100 DUP9 ADD MLOAD DUP5 MSTORE SWAP1 SWAP2 MSTORE SWAP1 KECCAK256 SLOAD PUSH1 0xFF AND PUSH2 0x9F9 JUMPI PUSH1 0x40 MLOAD PUSH3 0x461BCD PUSH1 0xE5 SHL DUP2 MSTORE PUSH1 0x4 ADD PUSH2 0x39D SWAP1 PUSH2 0x1B47 JUMP JUMPDEST PUSH1 0xE0 DUP5 ADD MLOAD PUSH1 0x1 PUSH1 0x1 PUSH1 0xA0 SHL SUB AND PUSH1 0x0 SWAP1 DUP2 MSTORE PUSH1 0x5 PUSH1 0x20 SWAP1 DUP2 MSTORE PUSH1 0x40 DUP1 DUP4 KECCAK256 PUSH2 0x100 DUP9 ADD MLOAD DUP5 MSTORE SWAP1 SWAP2 MSTORE SWAP1 KECCAK256 DUP1 SLOAD PUSH1 0xFF NOT AND SWAP1 SSTORE PUSH2 0xA38 DUP5 DUP3 DUP6 PUSH2 0xFA2 JUMP JUMPDEST PUSH2 0xA40 PUSH2 0x159B JUMP JUMPDEST PUSH2 0xA49 DUP6 PUSH2 0x4C8 JUMP JUMPDEST DUP6 MLOAD SWAP1 SWAP2 POP PUSH1 0x1 PUSH1 0x1 PUSH1 0xA0 SHL SUB AND ISZERO PUSH2 0xA63 JUMPI DUP5 MLOAD PUSH2 0xA65 JUMP JUMPDEST CALLER JUMPDEST PUSH1 0x1 PUSH1 0x1 PUSH1 0xA0 SHL SUB SWAP1 DUP2 AND DUP7 MSTORE PUSH1 0x20 DUP7 ADD MLOAD AND ISZERO PUSH2 0xA87 JUMPI DUP5 PUSH1 0x20 ADD MLOAD PUSH2 0xA89 JUMP JUMPDEST CALLER JUMPDEST PUSH1 0x1 PUSH1 0x1 PUSH1 0xA0 SHL SUB AND PUSH1 0x20 DUP7 ADD MSTORE PUSH2 0xAA2 DUP6 DUP4 DUP4 PUSH2 0x10B8 JUMP JUMPDEST PUSH2 0xAAC DUP6 DUP3 PUSH2 0x11A6 JUMP JUMPDEST POP PUSH1 0x1 SWAP5 SWAP4 POP POP POP POP JUMP JUMPDEST CALLER SWAP1 JUMP JUMPDEST PUSH1 0x0 PUSH2 0xAC5 PUSH2 0x15BC JUMP JUMPDEST PUSH2 0xACE DUP4 PUSH2 0xEA4 JUMP JUMPDEST DUP4 MLOAD SWAP1 SWAP2 POP PUSH1 0x1 PUSH1 0x1 PUSH1 0xA0 SHL SUB AND ISZERO PUSH2 0xAE8 JUMPI DUP3 MLOAD PUSH2 0xAEA JUMP JUMPDEST CALLER JUMPDEST PUSH1 0x1 PUSH1 0x1 PUSH1 0xA0 SHL SUB SWAP1 DUP2 AND DUP5 MSTORE PUSH1 0x0 PUSH1 0x20 DUP1 DUP7 ADD DUP3 SWAP1 MSTORE PUSH1 0xE0 DUP7 ADD MLOAD SWAP1 SWAP3 AND DUP2 MSTORE PUSH1 0x5 DUP3 MSTORE PUSH1 0x40 DUP1 DUP3 KECCAK256 PUSH2 0x100 DUP8 ADD MLOAD DUP4 MSTORE SWAP1 SWAP3 MSTORE KECCAK256 SLOAD PUSH1 0xFF AND PUSH2 0xB40 JUMPI PUSH1 0x40 MLOAD PUSH3 0x461BCD PUSH1 0xE5 SHL DUP2 MSTORE PUSH1 0x4 ADD PUSH2 0x39D SWAP1 PUSH2 0x1B47 JUMP JUMPDEST PUSH1 0xE0 DUP4 ADD MLOAD PUSH1 0x1 PUSH1 0x1 PUSH1 0xA0 SHL SUB AND PUSH1 0x0 SWAP1 DUP2 MSTORE PUSH1 0x5 PUSH1 0x20 SWAP1 DUP2 MSTORE PUSH1 0x40 DUP1 DUP4 KECCAK256 PUSH2 0x100 DUP8 ADD MLOAD DUP5 MSTORE SWAP1 SWAP2 MSTORE SWAP1 KECCAK256 DUP1 SLOAD PUSH1 0xFF NOT AND SWAP1 SSTORE PUSH2 0xB7E DUP4 DUP3 PUSH2 0x13DF JUMP JUMPDEST POP PUSH1 0x1 SWAP3 SWAP2 POP POP JUMP JUMPDEST PUSH1 0x0 PUSH2 0x947 PUSH8 0xDE0B6B3A7640000 PUSH2 0xBA5 DUP6 DUP6 PUSH4 0xFFFFFFFF PUSH2 0x142E AND JUMP JUMPDEST SWAP1 PUSH4 0xFFFFFFFF PUSH2 0x1468 AND JUMP JUMPDEST PUSH1 0x0 PUSH2 0x947 DUP4 DUP4 PUSH1 0x40 MLOAD DUP1 PUSH1 0x40 ADD PUSH1 0x40 MSTORE DUP1 PUSH1 0x1E DUP2 MSTORE PUSH1 0x20 ADD PUSH32 0x536166654D6174683A207375627472616374696F6E206F766572666C6F770000 DUP2 MSTORE POP PUSH2 0x14AA JUMP JUMPDEST PUSH1 0x0 DUP2 PUSH1 0x20 ADD DUP4 MLOAD LT ISZERO PUSH2 0xC19 JUMPI PUSH1 0x40 MLOAD PUSH3 0x461BCD PUSH1 0xE5 SHL DUP2 MSTORE PUSH1 0x4 ADD PUSH2 0x39D SWAP1 PUSH2 0x1C49 JUMP JUMPDEST POP ADD PUSH1 0x20 ADD MLOAD SWAP1 JUMP JUMPDEST PUSH1 0x0 PUSH2 0xC2C PUSH2 0x15BC JUMP JUMPDEST PUSH2 0xC35 DUP4 PUSH2 0xEA4 JUMP JUMPDEST PUSH1 0xE0 DUP5 ADD MLOAD PUSH1 0x1 PUSH1 0x1 PUSH1 0xA0 SHL SUB AND PUSH1 0x0 SWAP1 DUP2 MSTORE PUSH1 0x5 PUSH1 0x20 SWAP1 DUP2 MSTORE PUSH1 0x40 DUP1 DUP4 KECCAK256 PUSH2 0x100 DUP9 ADD MLOAD DUP5 MSTORE SWAP1 SWAP2 MSTORE SWAP1 KECCAK256 SLOAD SWAP1 SWAP2 POP PUSH1 0xFF AND ISZERO PUSH2 0xC85 JUMPI PUSH1 0x40 MLOAD PUSH3 0x461BCD PUSH1 0xE5 SHL DUP2 MSTORE PUSH1 0x4 ADD PUSH2 0x39D SWAP1 PUSH2 0x1B73 JUMP JUMPDEST PUSH1 0xE0 DUP4 ADD MLOAD PUSH1 0x1 PUSH1 0x1 PUSH1 0xA0 SHL SUB AND PUSH1 0x0 SWAP1 DUP2 MSTORE PUSH1 0x5 PUSH1 0x20 SWAP1 DUP2 MSTORE PUSH1 0x40 DUP1 DUP4 KECCAK256 PUSH2 0x100 DUP8 ADD MLOAD DUP5 MSTORE DUP3 MSTORE DUP1 DUP4 KECCAK256 DUP1 SLOAD PUSH1 0xFF NOT AND PUSH1 0x1 OR SWAP1 SSTORE DUP4 DUP3 ADD MLOAD DUP4 MSTORE PUSH1 0x6 SWAP1 SWAP2 MSTORE SWAP1 KECCAK256 SLOAD PUSH1 0xFF AND ISZERO PUSH2 0xCEA JUMPI PUSH1 0x40 MLOAD PUSH3 0x461BCD PUSH1 0xE5 SHL DUP2 MSTORE PUSH1 0x4 ADD PUSH2 0x39D SWAP1 PUSH2 0x1D0A JUMP JUMPDEST PUSH1 0xC SLOAD PUSH1 0xE0 DUP5 ADD MLOAD PUSH2 0x100 DUP6 ADD MLOAD PUSH1 0x40 MLOAD PUSH4 0xF9CB829 PUSH1 0xE0 SHL DUP2 MSTORE PUSH1 0x1 PUSH1 0x1 PUSH1 0xA0 SHL SUB SWAP1 SWAP4 AND SWAP3 PUSH4 0xF9CB829 SWAP3 PUSH2 0xD25 SWAP3 SWAP1 SWAP2 PUSH1 0x4 ADD PUSH2 0x1928 JUMP JUMPDEST PUSH1 0x20 PUSH1 0x40 MLOAD DUP1 DUP4 SUB DUP2 DUP7 DUP1 EXTCODESIZE ISZERO DUP1 ISZERO PUSH2 0xD3D JUMPI PUSH1 0x0 DUP1 REVERT JUMPDEST POP GAS STATICCALL ISZERO DUP1 ISZERO PUSH2 0xD51 JUMPI RETURNDATASIZE PUSH1 0x0 DUP1 RETURNDATACOPY RETURNDATASIZE PUSH1 0x0 REVERT JUMPDEST POP POP POP POP PUSH1 0x40 MLOAD RETURNDATASIZE PUSH1 0x1F NOT PUSH1 0x1F DUP3 ADD AND DUP3 ADD DUP1 PUSH1 0x40 MSTORE POP DUP2 ADD SWAP1 PUSH2 0xD75 SWAP2 SWAP1 PUSH2 0x1766 JUMP JUMPDEST ISZERO PUSH2 0xD92 JUMPI PUSH1 0x40 MLOAD PUSH3 0x461BCD PUSH1 0xE5 SHL DUP2 MSTORE PUSH1 0x4 ADD PUSH2 0x39D SWAP1 PUSH2 0x1D91 JUMP JUMPDEST CALLER DUP4 MSTORE PUSH1 0x0 PUSH1 0x20 DUP5 ADD MSTORE PUSH2 0xDA4 PUSH2 0x159B JUMP JUMPDEST PUSH2 0xDAD DUP5 PUSH2 0x4C8 JUMP JUMPDEST SWAP1 POP PUSH2 0xDBA DUP5 DUP4 DUP4 PUSH2 0x14D6 JUMP JUMPDEST POP PUSH1 0x1 SWAP4 SWAP3 POP POP POP JUMP JUMPDEST PUSH1 0x0 PUSH1 0x40 MLOAD DUP1 PUSH2 0x120 ADD PUSH1 0x40 MSTORE DUP1 PUSH1 0xE7 DUP2 MSTORE PUSH1 0x20 ADD PUSH2 0x1F5F PUSH1 0xE7 SWAP2 CODECOPY PUSH1 0x40 MLOAD PUSH1 0x20 ADD PUSH2 0xDF0 SWAP2 SWAP1 PUSH2 0x189C JUMP JUMPDEST PUSH1 0x40 MLOAD PUSH1 0x20 DUP2 DUP4 SUB SUB DUP2 MSTORE SWAP1 PUSH1 0x40 MSTORE DUP1 MLOAD SWAP1 PUSH1 0x20 ADD KECCAK256 DUP3 PUSH1 0x0 ADD MLOAD DUP4 PUSH1 0x20 ADD MLOAD DUP5 PUSH1 0x40 ADD MLOAD DUP6 PUSH1 0x60 ADD MLOAD DUP7 PUSH1 0x80 ADD MLOAD DUP8 PUSH1 0xA0 ADD MLOAD DUP9 PUSH1 0xC0 ADD MLOAD DUP10 PUSH1 0xE0 ADD MLOAD DUP11 PUSH2 0x100 ADD MLOAD DUP12 PUSH2 0x120 ADD MLOAD DUP13 PUSH2 0x140 ADD MLOAD DUP14 PUSH2 0x160 ADD MLOAD PUSH1 0x40 MLOAD PUSH1 0x20 ADD PUSH2 0xE62 SWAP14 SWAP13 SWAP12 SWAP11 SWAP10 SWAP9 SWAP8 SWAP7 SWAP6 SWAP5 SWAP4 SWAP3 SWAP2 SWAP1 PUSH2 0x1955 JUMP JUMPDEST PUSH1 0x40 MLOAD PUSH1 0x20 DUP2 DUP4 SUB SUB DUP2 MSTORE SWAP1 PUSH1 0x40 MSTORE DUP1 MLOAD SWAP1 PUSH1 0x20 ADD KECCAK256 SWAP1 POP SWAP2 SWAP1 POP JUMP JUMPDEST PUSH1 0x4 SLOAD PUSH1 0x40 MLOAD PUSH2 0x1901 PUSH1 0xF0 SHL DUP2 MSTORE PUSH1 0x2 DUP2 ADD SWAP2 SWAP1 SWAP2 MSTORE PUSH1 0x22 DUP2 ADD SWAP2 SWAP1 SWAP2 MSTORE PUSH1 0x42 SWAP1 KECCAK256 SWAP1 JUMP JUMPDEST PUSH2 0xEAC PUSH2 0x15BC JUMP JUMPDEST PUSH2 0xEB5 DUP3 PUSH2 0x950 JUMP JUMPDEST PUSH1 0x20 DUP1 DUP4 ADD DUP3 SWAP1 MSTORE PUSH1 0x0 SWAP2 DUP3 MSTORE PUSH1 0x7 SWAP1 MSTORE PUSH1 0x40 SWAP1 DUP2 SWAP1 KECCAK256 SLOAD PUSH1 0xFF AND ISZERO ISZERO SWAP1 DUP3 ADD MSTORE PUSH1 0x3 DUP3 PUSH1 0x60 ADD MLOAD LT PUSH2 0xEFB JUMPI DUP1 PUSH1 0x0 JUMPDEST SWAP1 DUP2 PUSH1 0x7 DUP2 GT ISZERO PUSH2 0xEF3 JUMPI INVALID JUMPDEST SWAP1 MSTORE POP PUSH2 0x34E JUMP JUMPDEST PUSH1 0x80 DUP3 ADD MLOAD PUSH2 0xF0C JUMPI DUP1 PUSH1 0x0 PUSH2 0xEE6 JUMP JUMPDEST PUSH1 0x40 DUP3 ADD MLOAD PUSH1 0x1 PUSH1 0x1 PUSH1 0xA0 SHL SUB AND ISZERO DUP1 ISZERO SWAP1 PUSH2 0xF35 JUMPI POP PUSH1 0x40 DUP3 ADD MLOAD PUSH1 0x1 PUSH1 0x1 PUSH1 0xA0 SHL SUB AND CALLER EQ ISZERO JUMPDEST ISZERO PUSH2 0xF42 JUMPI DUP1 PUSH1 0x1 PUSH2 0xEE6 JUMP JUMPDEST PUSH11 0xAAEA639F5433BF21E0000 DUP3 PUSH2 0x160 ADD MLOAD GT ISZERO PUSH2 0xF62 JUMPI DUP1 PUSH1 0x0 PUSH2 0xEE6 JUMP JUMPDEST DUP1 PUSH1 0x40 ADD MLOAD ISZERO PUSH2 0xF74 JUMPI DUP1 PUSH1 0x4 PUSH2 0xEE6 JUMP JUMPDEST PUSH1 0x20 DUP1 DUP3 ADD MLOAD PUSH1 0x0 SWAP1 DUP2 MSTORE PUSH1 0x8 SWAP1 SWAP2 MSTORE PUSH1 0x40 SWAP1 KECCAK256 SLOAD PUSH1 0xFF AND ISZERO PUSH2 0xF99 JUMPI DUP1 PUSH1 0x5 PUSH2 0xEE6 JUMP JUMPDEST PUSH1 0x2 DUP2 MSTORE SWAP2 SWAP1 POP JUMP JUMPDEST PUSH1 0x0 DUP3 MLOAD PUSH1 0x7 DUP2 GT ISZERO PUSH2 0xFB1 JUMPI INVALID JUMPDEST EQ ISZERO PUSH2 0xFCF JUMPI PUSH1 0x40 MLOAD PUSH3 0x461BCD PUSH1 0xE5 SHL DUP2 MSTORE PUSH1 0x4 ADD PUSH2 0x39D SWAP1 PUSH2 0x1A61 JUMP JUMPDEST PUSH1 0x4 DUP3 MLOAD PUSH1 0x7 DUP2 GT ISZERO PUSH2 0xFDE JUMPI INVALID JUMPDEST EQ ISZERO PUSH2 0xFFC JUMPI PUSH1 0x40 MLOAD PUSH3 0x461BCD PUSH1 0xE5 SHL DUP2 MSTORE PUSH1 0x4 ADD PUSH2 0x39D SWAP1 PUSH2 0x1D50 JUMP JUMPDEST PUSH1 0x3 DUP3 MLOAD PUSH1 0x7 DUP2 GT ISZERO PUSH2 0x100B JUMPI INVALID JUMPDEST EQ ISZERO PUSH2 0x1029 JUMPI PUSH1 0x40 MLOAD PUSH3 0x461BCD PUSH1 0xE5 SHL DUP2 MSTORE PUSH1 0x4 ADD PUSH2 0x39D SWAP1 PUSH2 0x1D70 JUMP JUMPDEST PUSH1 0x5 DUP3 MLOAD PUSH1 0x7 DUP2 GT ISZERO PUSH2 0x1038 JUMPI INVALID JUMPDEST EQ ISZERO PUSH2 0x1056 JUMPI PUSH1 0x40 MLOAD PUSH3 0x461BCD PUSH1 0xE5 SHL DUP2 MSTORE PUSH1 0x4 ADD PUSH2 0x39D SWAP1 PUSH2 0x1B24 JUMP JUMPDEST PUSH1 0x1 DUP3 MLOAD PUSH1 0x7 DUP2 GT ISZERO PUSH2 0x1065 JUMPI INVALID JUMPDEST EQ ISZERO PUSH2 0x1083 JUMPI PUSH1 0x40 MLOAD PUSH3 0x461BCD PUSH1 0xE5 SHL DUP2 MSTORE PUSH1 0x4 ADD PUSH2 0x39D SWAP1 PUSH2 0x1B9F JUMP JUMPDEST PUSH1 0x2 DUP3 MLOAD PUSH1 0x7 DUP2 GT ISZERO PUSH2 0x1092 JUMPI INVALID JUMPDEST EQ PUSH2 0x10AF JUMPI PUSH1 0x40 MLOAD PUSH3 0x461BCD PUSH1 0xE5 SHL DUP2 MSTORE PUSH1 0x4 ADD PUSH2 0x39D SWAP1 PUSH2 0x1DC8 JUMP JUMPDEST PUSH1 0x1 JUMPDEST POP POP POP POP JUMP JUMPDEST PUSH1 0x20 DUP1 DUP4 ADD MLOAD PUSH1 0x0 SWAP1 DUP2 MSTORE PUSH1 0x6 SWAP1 SWAP2 MSTORE PUSH1 0x40 SWAP1 KECCAK256 SLOAD PUSH1 0xFF AND PUSH2 0x10EC JUMPI PUSH1 0x40 MLOAD PUSH3 0x461BCD PUSH1 0xE5 SHL DUP2 MSTORE PUSH1 0x4 ADD PUSH2 0x39D SWAP1 PUSH2 0x1A82 JUMP JUMPDEST PUSH1 0x20 DUP3 DUP2 ADD DUP1 MLOAD PUSH1 0x0 SWAP1 DUP2 MSTORE PUSH1 0x6 DUP4 MSTORE PUSH1 0x40 DUP1 DUP3 KECCAK256 DUP1 SLOAD PUSH1 0xFF NOT SWAP1 DUP2 AND SWAP1 SWAP2 SSTORE DUP4 MLOAD DUP4 MSTORE PUSH1 0x7 DUP6 MSTORE SWAP2 DUP2 SWAP1 KECCAK256 DUP1 SLOAD SWAP1 SWAP3 AND PUSH1 0x1 OR SWAP1 SWAP2 SSTORE DUP6 MLOAD PUSH2 0x140 DUP8 ADD MLOAD SWAP3 MLOAD DUP6 DUP6 ADD MLOAD DUP7 DUP5 ADD MLOAD PUSH2 0x100 DUP11 ADD MLOAD PUSH1 0x80 DUP12 ADD MLOAD PUSH1 0xE0 DUP13 ADD MLOAD DUP11 MLOAD SWAP10 DUP14 ADD MLOAD PUSH2 0x120 DUP15 ADD MLOAD SWAP9 MLOAD PUSH1 0x1 PUSH1 0x1 PUSH1 0xA0 SHL SUB SWAP9 DUP10 AND SWAP12 SWAP9 SWAP1 SWAP11 AND SWAP10 SWAP7 SWAP9 PUSH32 0xA246499DA7279E3D5878AD549256043FEED07FC6FD059B1245DB41017BF8CBB8 SWAP9 PUSH2 0x1199 SWAP9 CALLER SWAP7 SWAP6 SWAP5 SWAP4 SWAP2 SWAP3 SWAP1 PUSH2 0x1EA7 JUMP JUMPDEST PUSH1 0x40 MLOAD DUP1 SWAP2 SUB SWAP1 LOG4 POP POP POP JUMP JUMPDEST PUSH2 0x120 DUP3 ADD MLOAD PUSH1 0x20 DUP4 ADD MLOAD DUP4 MLOAD DUP4 MLOAD PUSH1 0x40 MLOAD PUSH4 0x23B872DD PUSH1 0xE0 SHL DUP2 MSTORE PUSH1 0x1 PUSH1 0x1 PUSH1 0xA0 SHL SUB SWAP1 SWAP5 AND SWAP4 PUSH4 0x23B872DD SWAP4 PUSH2 0x11E4 SWAP4 SWAP1 SWAP3 SWAP1 SWAP2 PUSH1 0x4 ADD PUSH2 0x18CC JUMP JUMPDEST PUSH1 0x20 PUSH1 0x40 MLOAD DUP1 DUP4 SUB DUP2 PUSH1 0x0 DUP8 DUP1 EXTCODESIZE ISZERO DUP1 ISZERO PUSH2 0x11FE JUMPI PUSH1 0x0 DUP1 REVERT JUMPDEST POP GAS CALL ISZERO DUP1 ISZERO PUSH2 0x1212 JUMPI RETURNDATASIZE PUSH1 0x0 DUP1 RETURNDATACOPY RETURNDATASIZE PUSH1 0x0 REVERT JUMPDEST POP POP POP POP PUSH1 0x40 MLOAD RETURNDATASIZE PUSH1 0x1F NOT PUSH1 0x1F DUP3 ADD AND DUP3 ADD DUP1 PUSH1 0x40 MSTORE POP DUP2 ADD SWAP1 PUSH2 0x1236 SWAP2 SWAP1 PUSH2 0x1766 JUMP JUMPDEST POP DUP2 PUSH2 0x120 ADD MLOAD PUSH1 0x1 PUSH1 0x1 PUSH1 0xA0 SHL SUB AND PUSH4 0x23B872DD DUP4 PUSH1 0x20 ADD MLOAD DUP5 PUSH2 0x140 ADD MLOAD DUP5 PUSH1 0x20 ADD MLOAD PUSH1 0x40 MLOAD DUP5 PUSH4 0xFFFFFFFF AND PUSH1 0xE0 SHL DUP2 MSTORE PUSH1 0x4 ADD PUSH2 0x1279 SWAP4 SWAP3 SWAP2 SWAP1 PUSH2 0x18CC JUMP JUMPDEST PUSH1 0x20 PUSH1 0x40 MLOAD DUP1 DUP4 SUB DUP2 PUSH1 0x0 DUP8 DUP1 EXTCODESIZE ISZERO DUP1 ISZERO PUSH2 0x1293 JUMPI PUSH1 0x0 DUP1 REVERT JUMPDEST POP GAS CALL ISZERO DUP1 ISZERO PUSH2 0x12A7 JUMPI RETURNDATASIZE PUSH1 0x0 DUP1 RETURNDATACOPY RETURNDATASIZE PUSH1 0x0 REVERT JUMPDEST POP POP POP POP PUSH1 0x40 MLOAD RETURNDATASIZE PUSH1 0x1F NOT PUSH1 0x1F DUP3 ADD AND DUP3 ADD DUP1 PUSH1 0x40 MSTORE POP DUP2 ADD SWAP1 PUSH2 0x12CB SWAP2 SWAP1 PUSH2 0x1766 JUMP JUMPDEST POP PUSH2 0x120 DUP3 ADD MLOAD PUSH1 0x20 DUP4 ADD MLOAD PUSH1 0xA SLOAD PUSH1 0x40 DUP1 DUP6 ADD MLOAD SWAP1 MLOAD PUSH4 0x23B872DD PUSH1 0xE0 SHL DUP2 MSTORE PUSH1 0x1 PUSH1 0x1 PUSH1 0xA0 SHL SUB SWAP5 DUP6 AND SWAP5 PUSH4 0x23B872DD SWAP5 PUSH2 0x130F SWAP5 SWAP1 SWAP4 SWAP2 AND SWAP2 PUSH1 0x4 ADD PUSH2 0x18CC JUMP JUMPDEST PUSH1 0x20 PUSH1 0x40 MLOAD DUP1 DUP4 SUB DUP2 PUSH1 0x0 DUP8 DUP1 EXTCODESIZE ISZERO DUP1 ISZERO PUSH2 0x1329 JUMPI PUSH1 0x0 DUP1 REVERT JUMPDEST POP GAS CALL ISZERO DUP1 ISZERO PUSH2 0x133D JUMPI RETURNDATASIZE PUSH1 0x0 DUP1 RETURNDATACOPY RETURNDATASIZE PUSH1 0x0 REVERT JUMPDEST POP POP POP POP PUSH1 0x40 MLOAD RETURNDATASIZE PUSH1 0x1F NOT PUSH1 0x1F DUP3 ADD AND DUP3 ADD DUP1 PUSH1 0x40 MSTORE POP DUP2 ADD SWAP1 PUSH2 0x1361 SWAP2 SWAP1 PUSH2 0x1766 JUMP JUMPDEST POP DUP2 PUSH1 0xE0 ADD MLOAD PUSH1 0x1 PUSH1 0x1 PUSH1 0xA0 SHL SUB AND PUSH4 0xF242432A DUP4 PUSH1 0x0 ADD MLOAD DUP5 PUSH1 0x20 ADD MLOAD DUP6 PUSH2 0x100 ADD MLOAD DUP7 PUSH1 0x80 ADD MLOAD PUSH1 0x40 MLOAD DUP6 PUSH4 0xFFFFFFFF AND PUSH1 0xE0 SHL DUP2 MSTORE PUSH1 0x4 ADD PUSH2 0x13A9 SWAP5 SWAP4 SWAP3 SWAP2 SWAP1 PUSH2 0x18F0 JUMP JUMPDEST PUSH1 0x0 PUSH1 0x40 MLOAD DUP1 DUP4 SUB DUP2 PUSH1 0x0 DUP8 DUP1 EXTCODESIZE ISZERO DUP1 ISZERO PUSH2 0x13C3 JUMPI PUSH1 0x0 DUP1 REVERT JUMPDEST POP GAS CALL ISZERO DUP1 ISZERO PUSH2 0x13D7 JUMPI RETURNDATASIZE PUSH1 0x0 DUP1 RETURNDATACOPY RETURNDATASIZE PUSH1 0x0 REVERT JUMPDEST POP POP POP POP POP POP JUMP JUMPDEST PUSH1 0x20 DUP1 DUP3 ADD DUP1 MLOAD PUSH1 0x0 SWAP1 DUP2 MSTORE PUSH1 0x6 SWAP1 SWAP3 MSTORE PUSH1 0x40 SWAP1 SWAP2 KECCAK256 DUP1 SLOAD PUSH1 0xFF NOT AND SWAP1 SSTORE MLOAD PUSH32 0xE708103A95031DC86D48E5BE4E1BA1D5BEC8FCF8ADFC6CD7270D9B3A8C5488AF PUSH1 0x7 PUSH1 0x40 MLOAD PUSH2 0x641 SWAP2 SWAP1 PUSH2 0x194C JUMP JUMPDEST PUSH1 0x0 DUP3 PUSH2 0x143D JUMPI POP PUSH1 0x0 PUSH2 0x94A JUMP JUMPDEST DUP3 DUP3 MUL DUP3 DUP5 DUP3 DUP2 PUSH2 0x144A JUMPI INVALID JUMPDEST DIV EQ PUSH2 0x947 JUMPI PUSH1 0x40 MLOAD PUSH3 0x461BCD PUSH1 0xE5 SHL DUP2 MSTORE PUSH1 0x4 ADD PUSH2 0x39D SWAP1 PUSH2 0x1C6F JUMP JUMPDEST PUSH1 0x0 PUSH2 0x947 DUP4 DUP4 PUSH1 0x40 MLOAD DUP1 PUSH1 0x40 ADD PUSH1 0x40 MSTORE DUP1 PUSH1 0x1A DUP2 MSTORE PUSH1 0x20 ADD PUSH32 0x536166654D6174683A206469766973696F6E206279207A65726F000000000000 DUP2 MSTORE POP PUSH2 0x1564 JUMP JUMPDEST PUSH1 0x0 DUP2 DUP5 DUP5 GT ISZERO PUSH2 0x14CE JUMPI PUSH1 0x40 MLOAD PUSH3 0x461BCD PUSH1 0xE5 SHL DUP2 MSTORE PUSH1 0x4 ADD PUSH2 0x39D SWAP2 SWAP1 PUSH2 0x19F7 JUMP JUMPDEST POP POP POP SWAP1 SUB SWAP1 JUMP JUMPDEST PUSH1 0x20 DUP1 DUP4 ADD DUP1 MLOAD PUSH1 0x0 SWAP1 DUP2 MSTORE PUSH1 0x6 DUP4 MSTORE PUSH1 0x40 DUP1 DUP3 KECCAK256 DUP1 SLOAD PUSH1 0xFF NOT AND PUSH1 0x1 OR SWAP1 SSTORE DUP7 MLOAD PUSH2 0x140 DUP9 ADD MLOAD SWAP4 MLOAD SWAP5 DUP7 ADD MLOAD DUP7 DUP4 ADD MLOAD PUSH2 0x100 DUP11 ADD MLOAD PUSH1 0x80 DUP12 ADD MLOAD PUSH1 0xE0 DUP13 ADD MLOAD PUSH2 0x120 DUP14 ADD MLOAD SWAP7 MLOAD PUSH1 0x1 PUSH1 0x1 PUSH1 0xA0 SHL SUB SWAP7 DUP8 AND SWAP11 SWAP10 SWAP1 SWAP7 AND SWAP9 SWAP8 PUSH32 0x537568D4F4557AD1B774356BD1837C13E3D70D2654E1A10E58447D9ED398126 SWAP8 PUSH2 0x1199 SWAP8 CALLER SWAP6 SWAP5 SWAP4 SWAP3 SWAP2 SWAP1 PUSH2 0x1E61 JUMP JUMPDEST PUSH1 0x0 DUP2 DUP4 PUSH2 0x1585 JUMPI PUSH1 0x40 MLOAD PUSH3 0x461BCD PUSH1 0xE5 SHL DUP2 MSTORE PUSH1 0x4 ADD PUSH2 0x39D SWAP2 SWAP1 PUSH2 0x19F7 JUMP JUMPDEST POP PUSH1 0x0 DUP4 DUP6 DUP2 PUSH2 0x1591 JUMPI INVALID JUMPDEST DIV SWAP6 SWAP5 POP POP POP POP POP JUMP JUMPDEST PUSH1 0x40 MLOAD DUP1 PUSH1 0x60 ADD PUSH1 0x40 MSTORE DUP1 PUSH1 0x0 DUP2 MSTORE PUSH1 0x20 ADD PUSH1 0x0 DUP2 MSTORE PUSH1 0x20 ADD PUSH1 0x0 DUP2 MSTORE POP SWAP1 JUMP JUMPDEST PUSH1 0x40 DUP1 MLOAD PUSH1 0x60 DUP2 ADD SWAP1 SWAP2 MSTORE DUP1 PUSH1 0x0 DUP2 MSTORE PUSH1 0x0 PUSH1 0x20 DUP3 ADD DUP2 SWAP1 MSTORE PUSH1 0x40 SWAP1 SWAP2 ADD MSTORE SWAP1 JUMP JUMPDEST DUP1 CALLDATALOAD PUSH2 0x94A DUP2 PUSH2 0x1F46 JUMP JUMPDEST PUSH1 0x0 DUP3 PUSH1 0x1F DUP4 ADD SLT PUSH2 0x15F9 JUMPI DUP1 DUP2 REVERT JUMPDEST DUP2 CALLDATALOAD PUSH8 0xFFFFFFFFFFFFFFFF DUP2 GT ISZERO PUSH2 0x160F JUMPI DUP2 DUP3 REVERT JUMPDEST PUSH2 0x1622 PUSH1 0x1F DUP3 ADD PUSH1 0x1F NOT AND PUSH1 0x20 ADD PUSH2 0x1EF3 JUMP JUMPDEST SWAP2 POP DUP1 DUP3 MSTORE DUP4 PUSH1 0x20 DUP3 DUP6 ADD ADD GT ISZERO PUSH2 0x1639 JUMPI PUSH1 0x0 DUP1 REVERT JUMPDEST DUP1 PUSH1 0x20 DUP5 ADD PUSH1 0x20 DUP5 ADD CALLDATACOPY PUSH1 0x0 SWAP1 DUP3 ADD PUSH1 0x20 ADD MSTORE SWAP3 SWAP2 POP POP JUMP JUMPDEST PUSH1 0x0 PUSH2 0x180 DUP1 DUP4 DUP6 SUB SLT ISZERO PUSH2 0x1665 JUMPI DUP2 DUP3 REVERT JUMPDEST PUSH2 0x166E DUP2 PUSH2 0x1EF3 JUMP JUMPDEST SWAP2 POP POP PUSH2 0x167B DUP4 DUP4 PUSH2 0x15DE JUMP JUMPDEST DUP2 MSTORE PUSH2 0x168A DUP4 PUSH1 0x20 DUP5 ADD PUSH2 0x15DE JUMP JUMPDEST PUSH1 0x20 DUP3 ADD MSTORE PUSH2 0x169C DUP4 PUSH1 0x40 DUP5 ADD PUSH2 0x15DE JUMP JUMPDEST PUSH1 0x40 DUP3 ADD MSTORE PUSH1 0x60 DUP3 ADD CALLDATALOAD PUSH1 0x60 DUP3 ADD MSTORE PUSH1 0x80 DUP3 ADD CALLDATALOAD PUSH1 0x80 DUP3 ADD MSTORE PUSH1 0xA0 DUP3 ADD CALLDATALOAD PUSH1 0xA0 DUP3 ADD MSTORE PUSH1 0xC0 DUP3 ADD CALLDATALOAD PUSH1 0xC0 DUP3 ADD MSTORE PUSH2 0x16D6 DUP4 PUSH1 0xE0 DUP5 ADD PUSH2 0x15DE JUMP JUMPDEST PUSH1 0xE0 DUP3 ADD MSTORE PUSH2 0x100 DUP3 DUP2 ADD CALLDATALOAD SWAP1 DUP3 ADD MSTORE PUSH2 0x120 PUSH2 0x16F5 DUP5 DUP3 DUP6 ADD PUSH2 0x15DE JUMP JUMPDEST SWAP1 DUP3 ADD MSTORE PUSH2 0x140 PUSH2 0x1708 DUP5 DUP5 DUP4 ADD PUSH2 0x15DE JUMP JUMPDEST DUP2 DUP4 ADD MSTORE POP PUSH2 0x160 DUP1 DUP4 ADD CALLDATALOAD DUP2 DUP4 ADD MSTORE POP SWAP3 SWAP2 POP POP JUMP JUMPDEST PUSH1 0x0 PUSH1 0x20 DUP3 DUP5 SUB SLT ISZERO PUSH2 0x1730 JUMPI DUP1 DUP2 REVERT JUMPDEST DUP2 CALLDATALOAD PUSH2 0x947 DUP2 PUSH2 0x1F46 JUMP JUMPDEST PUSH1 0x0 DUP1 PUSH1 0x40 DUP4 DUP6 SUB SLT ISZERO PUSH2 0x174D JUMPI DUP1 DUP2 REVERT JUMPDEST DUP3 CALLDATALOAD PUSH2 0x1758 DUP2 PUSH2 0x1F46 JUMP JUMPDEST SWAP5 PUSH1 0x20 SWAP4 SWAP1 SWAP4 ADD CALLDATALOAD SWAP4 POP POP POP JUMP JUMPDEST PUSH1 0x0 PUSH1 0x20 DUP3 DUP5 SUB SLT ISZERO PUSH2 0x1777 JUMPI DUP1 DUP2 REVERT JUMPDEST DUP2 MLOAD DUP1 ISZERO ISZERO DUP2 EQ PUSH2 0x947 JUMPI DUP2 DUP3 REVERT JUMPDEST PUSH1 0x0 PUSH1 0x20 DUP3 DUP5 SUB SLT ISZERO PUSH2 0x1797 JUMPI DUP1 DUP2 REVERT JUMPDEST POP CALLDATALOAD SWAP2 SWAP1 POP JUMP JUMPDEST PUSH1 0x0 DUP1 PUSH1 0x0 PUSH1 0x60 DUP5 DUP7 SUB SLT ISZERO PUSH2 0x17B2 JUMPI DUP1 DUP2 REVERT JUMPDEST DUP4 CALLDATALOAD SWAP3 POP PUSH1 0x20 DUP5 ADD CALLDATALOAD PUSH2 0x17C4 DUP2 PUSH2 0x1F46 JUMP JUMPDEST SWAP2 POP PUSH1 0x40 DUP5 ADD CALLDATALOAD PUSH8 0xFFFFFFFFFFFFFFFF DUP2 GT ISZERO PUSH2 0x17DF JUMPI DUP2 DUP3 REVERT JUMPDEST PUSH2 0x17EB DUP7 DUP3 DUP8 ADD PUSH2 0x15E9 JUMP JUMPDEST SWAP2 POP POP SWAP3 POP SWAP3 POP SWAP3 JUMP JUMPDEST PUSH1 0x0 PUSH2 0x180 DUP3 DUP5 SUB SLT ISZERO PUSH2 0x1807 JUMPI DUP1 DUP2 REVERT JUMPDEST PUSH2 0x947 DUP4 DUP4 PUSH2 0x1652 JUMP JUMPDEST PUSH1 0x0 DUP1 PUSH2 0x1A0 DUP4 DUP6 SUB SLT ISZERO PUSH2 0x1824 JUMPI DUP2 DUP3 REVERT JUMPDEST PUSH2 0x182E DUP5 DUP5 PUSH2 0x1652 JUMP JUMPDEST SWAP2 POP PUSH2 0x180 DUP4 ADD CALLDATALOAD PUSH8 0xFFFFFFFFFFFFFFFF DUP2 GT ISZERO PUSH2 0x184A JUMPI DUP2 DUP3 REVERT JUMPDEST PUSH2 0x1856 DUP6 DUP3 DUP7 ADD PUSH2 0x15E9 JUMP JUMPDEST SWAP2 POP POP SWAP3 POP SWAP3 SWAP1 POP JUMP JUMPDEST PUSH1 0x0 DUP1 PUSH1 0x40 DUP4 DUP6 SUB SLT ISZERO PUSH2 0x1872 JUMPI DUP2 DUP3 REVERT JUMPDEST DUP3 CALLDATALOAD SWAP2 POP PUSH1 0x20 DUP4 ADD CALLDATALOAD PUSH2 0x1884 DUP2 PUSH2 0x1F46 JUMP JUMPDEST DUP1 SWAP2 POP POP SWAP3 POP SWAP3 SWAP1 POP JUMP JUMPDEST PUSH1 0x1 PUSH1 0x1 PUSH1 0xA0 SHL SUB AND SWAP1 MSTORE JUMP JUMPDEST PUSH1 0x0 DUP3 MLOAD PUSH2 0x18AE DUP2 DUP5 PUSH1 0x20 DUP8 ADD PUSH2 0x1F1A JUMP JUMPDEST SWAP2 SWAP1 SWAP2 ADD SWAP3 SWAP2 POP POP JUMP JUMPDEST PUSH1 0x1 PUSH1 0x1 PUSH1 0xA0 SHL SUB SWAP2 SWAP1 SWAP2 AND DUP2 MSTORE PUSH1 0x20 ADD SWAP1 JUMP JUMPDEST PUSH1 0x1 PUSH1 0x1 PUSH1 0xA0 SHL SUB SWAP4 DUP5 AND DUP2 MSTORE SWAP2 SWAP1 SWAP3 AND PUSH1 0x20 DUP3 ADD MSTORE PUSH1 0x40 DUP2 ADD SWAP2 SWAP1 SWAP2 MSTORE PUSH1 0x60 ADD SWAP1 JUMP JUMPDEST PUSH1 0x1 PUSH1 0x1 PUSH1 0xA0 SHL SUB SWAP5 DUP6 AND DUP2 MSTORE SWAP3 SWAP1 SWAP4 AND PUSH1 0x20 DUP4 ADD MSTORE PUSH1 0x40 DUP3 ADD MSTORE PUSH1 0x60 DUP2 ADD SWAP2 SWAP1 SWAP2 MSTORE PUSH1 0xA0 PUSH1 0x80 DUP3 ADD DUP2 SWAP1 MSTORE PUSH1 0x0 SWAP1 DUP3 ADD MSTORE PUSH1 0xC0 ADD SWAP1 JUMP JUMPDEST PUSH1 0x1 PUSH1 0x1 PUSH1 0xA0 SHL SUB SWAP3 SWAP1 SWAP3 AND DUP3 MSTORE PUSH1 0x20 DUP3 ADD MSTORE PUSH1 0x40 ADD SWAP1 JUMP JUMPDEST SWAP1 ISZERO ISZERO DUP2 MSTORE PUSH1 0x20 ADD SWAP1 JUMP JUMPDEST SWAP1 DUP2 MSTORE PUSH1 0x20 ADD SWAP1 JUMP JUMPDEST DUP14 DUP2 MSTORE PUSH1 0x1 PUSH1 0x1 PUSH1 0xA0 SHL SUB DUP14 DUP2 AND PUSH1 0x20 DUP4 ADD MSTORE DUP13 DUP2 AND PUSH1 0x40 DUP4 ADD MSTORE DUP12 DUP2 AND PUSH1 0x60 DUP4 ADD MSTORE PUSH1 0x80 DUP3 ADD DUP12 SWAP1 MSTORE PUSH1 0xA0 DUP3 ADD DUP11 SWAP1 MSTORE PUSH1 0xC0 DUP3 ADD DUP10 SWAP1 MSTORE PUSH1 0xE0 DUP3 ADD DUP9 SWAP1 MSTORE DUP7 DUP2 AND PUSH2 0x100 DUP4 ADD MSTORE PUSH2 0x120 DUP3 ADD DUP7 SWAP1 MSTORE DUP5 AND PUSH2 0x140 DUP3 ADD MSTORE PUSH2 0x1A0 DUP2 ADD PUSH2 0x19C0 PUSH2 0x160 DUP4 ADD DUP6 PUSH2 0x188F JUMP JUMPDEST DUP3 PUSH2 0x180 DUP4 ADD MSTORE SWAP15 SWAP14 POP POP POP POP POP POP POP POP POP POP POP POP POP POP JUMP JUMPDEST SWAP4 DUP5 MSTORE PUSH1 0xFF SWAP3 SWAP1 SWAP3 AND PUSH1 0x20 DUP5 ADD MSTORE PUSH1 0x40 DUP4 ADD MSTORE PUSH1 0x60 DUP3 ADD MSTORE PUSH1 0x80 ADD SWAP1 JUMP JUMPDEST PUSH1 0x0 PUSH1 0x20 DUP3 MSTORE DUP3 MLOAD DUP1 PUSH1 0x20 DUP5 ADD MSTORE PUSH2 0x1A16 DUP2 PUSH1 0x40 DUP6 ADD PUSH1 0x20 DUP8 ADD PUSH2 0x1F1A JUMP JUMPDEST PUSH1 0x1F ADD PUSH1 0x1F NOT AND SWAP2 SWAP1 SWAP2 ADD PUSH1 0x40 ADD SWAP3 SWAP2 POP POP JUMP JUMPDEST PUSH1 0x20 DUP1 DUP3 MSTORE PUSH1 0x19 SWAP1 DUP3 ADD MSTORE PUSH32 0x57726F6E67206C656E677468206F66207369676E617475726500000000000000 PUSH1 0x40 DUP3 ADD MSTORE PUSH1 0x60 ADD SWAP1 JUMP JUMPDEST PUSH1 0x20 DUP1 DUP3 MSTORE PUSH1 0x7 SWAP1 DUP3 ADD MSTORE PUSH7 0x12539590531251 PUSH1 0xCA SHL PUSH1 0x40 DUP3 ADD MSTORE PUSH1 0x60 ADD SWAP1 JUMP JUMPDEST PUSH1 0x20 DUP1 DUP3 MSTORE PUSH1 0xB SWAP1 DUP3 ADD MSTORE PUSH11 0x139BDD0818DC99585D1959 PUSH1 0xAA SHL PUSH1 0x40 DUP3 ADD MSTORE PUSH1 0x60 ADD SWAP1 JUMP JUMPDEST PUSH1 0x20 DUP1 DUP3 MSTORE PUSH1 0x26 SWAP1 DUP3 ADD MSTORE PUSH32 0x4F776E61626C653A206E6577206F776E657220697320746865207A65726F2061 PUSH1 0x40 DUP3 ADD MSTORE PUSH6 0x646472657373 PUSH1 0xD0 SHL PUSH1 0x60 DUP3 ADD MSTORE PUSH1 0x80 ADD SWAP1 JUMP JUMPDEST PUSH1 0x20 DUP1 DUP3 MSTORE PUSH1 0x1B SWAP1 DUP3 ADD MSTORE PUSH32 0x536166654D6174683A206164646974696F6E206F766572666C6F770000000000 PUSH1 0x40 DUP3 ADD MSTORE PUSH1 0x60 ADD SWAP1 JUMP JUMPDEST PUSH1 0x20 DUP1 DUP3 MSTORE PUSH1 0x9 SWAP1 DUP3 ADD MSTORE PUSH9 0x10D05390D153131151 PUSH1 0xBA SHL PUSH1 0x40 DUP3 ADD MSTORE PUSH1 0x60 ADD SWAP1 JUMP JUMPDEST PUSH1 0x20 DUP1 DUP3 MSTORE PUSH1 0x12 SWAP1 DUP3 ADD MSTORE PUSH18 0x4E6674206964206E6F74206F6E2073616C65 PUSH1 0x70 SHL PUSH1 0x40 DUP3 ADD MSTORE PUSH1 0x60 ADD SWAP1 JUMP JUMPDEST PUSH1 0x20 DUP1 DUP3 MSTORE PUSH1 0x12 SWAP1 DUP3 ADD MSTORE PUSH18 0x4E667420696420686173206F6E2073616C65 PUSH1 0x70 SHL PUSH1 0x40 DUP3 ADD MSTORE PUSH1 0x60 ADD SWAP1 JUMP JUMPDEST PUSH1 0x20 DUP1 DUP3 MSTORE PUSH1 0x10 SWAP1 DUP3 ADD MSTORE PUSH16 0x24A72B20A624A22FA7A822A920AA27A9 PUSH1 0x81 SHL PUSH1 0x40 DUP3 ADD MSTORE PUSH1 0x60 ADD SWAP1 JUMP JUMPDEST PUSH1 0x20 DUP1 DUP3 MSTORE PUSH1 0xE SWAP1 DUP3 ADD MSTORE PUSH14 0x657863656564206D617820666565 PUSH1 0x90 SHL PUSH1 0x40 DUP3 ADD MSTORE PUSH1 0x60 ADD SWAP1 JUMP JUMPDEST PUSH1 0x20 DUP1 DUP3 MSTORE PUSH1 0x10 SWAP1 DUP3 ADD MSTORE PUSH16 0x14185D5CD8589B194E881C185D5CD959 PUSH1 0x82 SHL PUSH1 0x40 DUP3 ADD MSTORE PUSH1 0x60 ADD SWAP1 JUMP JUMPDEST PUSH1 0x20 DUP1 DUP3 MSTORE PUSH1 0x14 SWAP1 DUP3 ADD MSTORE PUSH20 0x57726F6E67207369676E65722061646472657373 PUSH1 0x60 SHL PUSH1 0x40 DUP3 ADD MSTORE PUSH1 0x60 ADD SWAP1 JUMP JUMPDEST PUSH1 0x20 DUP1 DUP3 MSTORE PUSH1 0xC SWAP1 DUP3 ADD MSTORE PUSH12 0xAEE4DEDCCE40D8CADCCEE8D PUSH1 0xA3 SHL PUSH1 0x40 DUP3 ADD MSTORE PUSH1 0x60 ADD SWAP1 JUMP JUMPDEST PUSH1 0x20 DUP1 DUP3 MSTORE PUSH1 0x21 SWAP1 DUP3 ADD MSTORE PUSH32 0x536166654D6174683A206D756C7469706C69636174696F6E206F766572666C6F PUSH1 0x40 DUP3 ADD MSTORE PUSH1 0x77 PUSH1 0xF8 SHL PUSH1 0x60 DUP3 ADD MSTORE PUSH1 0x80 ADD SWAP1 JUMP JUMPDEST PUSH1 0x20 DUP1 DUP3 MSTORE PUSH1 0xB SWAP1 DUP3 ADD MSTORE PUSH11 0x34B71031B7B7B63237BBB7 PUSH1 0xA9 SHL PUSH1 0x40 DUP3 ADD MSTORE PUSH1 0x60 ADD SWAP1 JUMP JUMPDEST PUSH1 0x20 DUP1 DUP3 MSTORE DUP2 DUP2 ADD MSTORE PUSH32 0x4F776E61626C653A2063616C6C6572206973206E6F7420746865206F776E6572 PUSH1 0x40 DUP3 ADD MSTORE PUSH1 0x60 ADD SWAP1 JUMP JUMPDEST PUSH1 0x20 DUP1 DUP3 MSTORE PUSH1 0xB SWAP1 DUP3 ADD MSTORE PUSH11 0x12185CC818DC99585D1959 PUSH1 0xAA SHL PUSH1 0x40 DUP3 ADD MSTORE PUSH1 0x60 ADD SWAP1 JUMP JUMPDEST PUSH1 0x20 DUP1 DUP3 MSTORE PUSH1 0x7 SWAP1 DUP3 ADD MSTORE PUSH7 0x2BB937B733902B PUSH1 0xC9 SHL PUSH1 0x40 DUP3 ADD MSTORE PUSH1 0x60 ADD SWAP1 JUMP JUMPDEST PUSH1 0x20 DUP1 DUP3 MSTORE PUSH1 0x6 SWAP1 DUP3 ADD MSTORE PUSH6 0x119253131151 PUSH1 0xD2 SHL PUSH1 0x40 DUP3 ADD MSTORE PUSH1 0x60 ADD SWAP1 JUMP JUMPDEST PUSH1 0x20 DUP1 DUP3 MSTORE PUSH1 0x7 SWAP1 DUP3 ADD MSTORE PUSH7 0x11561412549151 PUSH1 0xCA SHL PUSH1 0x40 DUP3 ADD MSTORE PUSH1 0x60 ADD SWAP1 JUMP JUMPDEST PUSH1 0x20 DUP1 DUP3 MSTORE PUSH1 0x1E SWAP1 DUP3 ADD MSTORE PUSH32 0x4E667420696420686173206F6E20656E676C6973682065786368616E67650000 PUSH1 0x40 DUP3 ADD MSTORE PUSH1 0x60 ADD SWAP1 JUMP JUMPDEST PUSH1 0x20 DUP1 DUP3 MSTORE PUSH1 0x10 SWAP1 DUP3 ADD MSTORE PUSH16 0x4F524445525F554E46494C4C41424C45 PUSH1 0x80 SHL PUSH1 0x40 DUP3 ADD MSTORE PUSH1 0x60 ADD SWAP1 JUMP JUMPDEST PUSH1 0x20 DUP1 DUP3 MSTORE PUSH1 0x1F SWAP1 DUP3 ADD MSTORE PUSH32 0x5265656E7472616E637947756172643A207265656E7472616E742063616C6C00 PUSH1 0x40 DUP3 ADD MSTORE PUSH1 0x60 ADD SWAP1 JUMP JUMPDEST DUP2 MLOAD DUP2 MSTORE PUSH1 0x20 DUP1 DUP4 ADD MLOAD SWAP1 DUP3 ADD MSTORE PUSH1 0x40 SWAP2 DUP3 ADD MLOAD SWAP2 DUP2 ADD SWAP2 SWAP1 SWAP2 MSTORE PUSH1 0x60 ADD SWAP1 JUMP JUMPDEST SWAP2 DUP3 MSTORE PUSH1 0x1 PUSH1 0x1 PUSH1 0xA0 SHL SUB AND PUSH1 0x20 DUP3 ADD MSTORE PUSH1 0x40 ADD SWAP1 JUMP JUMPDEST SWAP8 DUP9 MSTORE PUSH1 0x20 DUP9 ADD SWAP7 SWAP1 SWAP7 MSTORE PUSH1 0x1 PUSH1 0x1 PUSH1 0xA0 SHL SUB SWAP5 DUP6 AND PUSH1 0x40 DUP9 ADD MSTORE PUSH1 0x60 DUP8 ADD SWAP4 SWAP1 SWAP4 MSTORE PUSH1 0x80 DUP7 ADD SWAP2 SWAP1 SWAP2 MSTORE DUP3 AND PUSH1 0xA0 DUP6 ADD MSTORE DUP2 AND PUSH1 0xC0 DUP5 ADD MSTORE AND PUSH1 0xE0 DUP3 ADD MSTORE PUSH2 0x100 ADD SWAP1 JUMP JUMPDEST SWAP9 DUP10 MSTORE PUSH1 0x20 DUP10 ADD SWAP8 SWAP1 SWAP8 MSTORE PUSH1 0x1 PUSH1 0x1 PUSH1 0xA0 SHL SUB SWAP6 DUP7 AND PUSH1 0x40 DUP10 ADD MSTORE PUSH1 0x60 DUP9 ADD SWAP5 SWAP1 SWAP5 MSTORE PUSH1 0x80 DUP8 ADD SWAP3 SWAP1 SWAP3 MSTORE DUP4 AND PUSH1 0xA0 DUP7 ADD MSTORE PUSH1 0xC0 DUP6 ADD MSTORE DUP2 AND PUSH1 0xE0 DUP5 ADD MSTORE AND PUSH2 0x100 DUP3 ADD MSTORE PUSH2 0x120 ADD SWAP1 JUMP JUMPDEST PUSH1 0x40 MLOAD DUP2 DUP2 ADD PUSH8 0xFFFFFFFFFFFFFFFF DUP2 GT DUP3 DUP3 LT OR ISZERO PUSH2 0x1F12 JUMPI PUSH1 0x0 DUP1 REVERT JUMPDEST PUSH1 0x40 MSTORE SWAP2 SWAP1 POP JUMP JUMPDEST PUSH1 0x0 JUMPDEST DUP4 DUP2 LT ISZERO PUSH2 0x1F35 JUMPI DUP2 DUP2 ADD MLOAD DUP4 DUP3 ADD MSTORE PUSH1 0x20 ADD PUSH2 0x1F1D JUMP JUMPDEST DUP4 DUP2 GT ISZERO PUSH2 0x10B2 JUMPI POP POP PUSH1 0x0 SWAP2 ADD MSTORE JUMP JUMPDEST PUSH1 0x1 PUSH1 0x1 PUSH1 0xA0 SHL SUB DUP2 AND DUP2 EQ PUSH2 0x1F5B JUMPI PUSH1 0x0 DUP1 REVERT JUMPDEST POP JUMP INVALID 0x4F PUSH19 0x6465722861646472657373206F776E65722C61 PUSH5 0x6472657373 KECCAK256 PUSH21 0x616B65722C61646472657373206F70657261746F72 0x2C PUSH22 0x696E74323536206F72646572547970652C75696E7432 CALLDATALOAD CALLDATASIZE KECCAK256 PUSH2 0x6D6F PUSH22 0x6E742C75696E7432353620737461727450726963652C PUSH22 0x696E7432353620656E6454696D652C75696E74323536 KECCAK256 PUSH20 0x616C742C61646472657373206173736574416464 PUSH19 0x6573732C75696E743235362069642C61646472 PUSH6 0x737320637572 PUSH19 0x656E6379416464726573732C61646472657373 KECCAK256 PUSH7 0x65655265636970 PUSH10 0x656E742C75696E743235 CALLDATASIZE KECCAK256 PUSH7 0x65655065726365 PUSH15 0x7461676529A2646970667358221220 0xFC PUSH12 0x9CF9819C6F633C0D774C0F04 0xD1 OR DUP14 EXTCODEHASH 0xCB 0xE5 PUSH6 0x509BAE98B825 0x5F 0x5F LOG2 0xE0 DIFFICULTY PUSH5 0x736F6C6343 STOP MOD MULMOD STOP CALLER "
		},
		"gasEstimates": {
			"creation": {
				"codeDepositCost": "1663000",
				"executionCost": "infinite",
				"totalCost": "infinite"
			},
			"external": {
				"EIP712_DOMAIN_HASH()": "1072",
				"FEE_UPDATE_COOLDOWN()": "339",
				"MAX_CONTRACT_FEE()": "317",
				"calculateFillResults((address,address,address,uint256,uint256,uint256,uint256,address,uint256,address,address,uint256))": "infinite",
				"cancelled(bytes32)": "1251",
				"chainId()": "1095",
				"contractFeePercentage()": "1161",
				"contractFeeRecipient()": "1204",
				"createOrder((address,address,address,uint256,uint256,uint256,uint256,address,uint256,address,address,uint256))": "infinite",
				"created(bytes32)": "1249",
				"fillOrder((address,address,address,uint256,uint256,uint256,uint256,address,uint256,address,address,uint256),bytes)": "infinite",
				"filled(bytes32)": "1229",
				"getFixedHash((address,address,address,uint256,uint256,uint256,uint256,address,uint256,address,address,uint256))": "infinite",
				"getPrice((address,address,address,uint256,uint256,uint256,uint256,address,uint256,address,address,uint256))": "infinite",
				"isValidSignature(bytes32,address,bytes)": "infinite",
				"mostRecentTimestamp()": "1050",
				"onSale(address,uint256)": "1375",
				"owner()": "1093",
				"paused()": "1169",
				"renounceOwnership()": "24249",
				"reverseOrder((address,address,address,uint256,uint256,uint256,uint256,address,uint256,address,address,uint256))": "infinite",
				"setContractFeeParams(uint256,address)": "infinite",
				"setEnglishExchange(address)": "22159",
				"transferOwnership(address)": "24569"
			},
			"internal": {
				"_assertFillableOrder(struct LibOrder.OrderFixed memory,struct LibOrder.OrderInfo memory,bytes memory)": "infinite",
				"_assertValidCancel(struct LibOrder.OrderFixed memory,struct LibOrder.OrderInfo memory)": "infinite",
				"_createOrder(struct LibOrder.OrderFixed memory)": "infinite",
				"_fillOrder(struct LibOrder.OrderFixed memory,bytes memory)": "infinite",
				"_reverseOrder(struct LibOrder.OrderFixed memory)": "infinite",
				"_settleTrade(struct LibOrder.OrderFixed memory,struct FixedExchangeV2.FillResults memory)": "infinite",
				"_updateCreatedStates(struct LibOrder.OrderFixed memory,struct LibOrder.OrderInfo memory,struct FixedExchangeV2.FillResults memory)": "infinite",
				"_updateFilledStates(struct LibOrder.OrderFixed memory,struct LibOrder.OrderInfo memory,struct FixedExchangeV2.FillResults memory)": "infinite",
				"_updateReverseStates(struct LibOrder.OrderFixed memory,struct LibOrder.OrderInfo memory)": "infinite",
				"getOrderInfo(struct LibOrder.OrderFixed memory)": "infinite"
			}
		},
		"methodIdentifiers": {
			"EIP712_DOMAIN_HASH()": "e306f779",
			"FEE_UPDATE_COOLDOWN()": "8243d01f",
			"MAX_CONTRACT_FEE()": "c37f03c7",
			"calculateFillResults((address,address,address,uint256,uint256,uint256,uint256,address,uint256,address,address,uint256))": "7f3cfb7c",
			"cancelled(bytes32)": "2ac12622",
			"chainId()": "9a8a0592",
			"contractFeePercentage()": "dbd8987c",
			"contractFeeRecipient()": "6cf25c4e",
			"createOrder((address,address,address,uint256,uint256,uint256,uint256,address,uint256,address,address,uint256))": "f2435f0d",
			"created(bytes32)": "eaa760c2",
			"fillOrder((address,address,address,uint256,uint256,uint256,uint256,address,uint256,address,address,uint256),bytes)": "6f16abc4",
			"filled(bytes32)": "288cdc91",
			"getFixedHash((address,address,address,uint256,uint256,uint256,uint256,address,uint256,address,address,uint256))": "35d51ceb",
			"getPrice((address,address,address,uint256,uint256,uint256,uint256,address,uint256,address,address,uint256))": "ebe2625a",
			"isValidSignature(bytes32,address,bytes)": "93634702",
			"mostRecentTimestamp()": "e2dde054",
			"onSale(address,uint256)": "0f9cb829",
			"owner()": "8da5cb5b",
			"paused()": "5c975abb",
			"renounceOwnership()": "715018a6",
			"reverseOrder((address,address,address,uint256,uint256,uint256,uint256,address,uint256,address,address,uint256))": "7a3fe76d",
			"setContractFeeParams(uint256,address)": "83c3e77a",
			"setEnglishExchange(address)": "cf07104e",
			"transferOwnership(address)": "f2fde38b"
		}
	},
	"abi": [
		{
			"inputs": [
				{
					"internalType": "uint256",
					"name": "_contractFeePercentage",
					"type": "uint256"
				},
				{
					"internalType": "address",
					"name": "_contractFeeRecipient",
					"type": "address"
				}
			],
			"stateMutability": "nonpayable",
			"type": "constructor"
		},
		{
			"anonymous": false,
			"inputs": [
				{
					"indexed": true,
					"internalType": "address",
					"name": "owner",
					"type": "address"
				},
				{
					"indexed": false,
					"internalType": "uint256",
					"name": "feePercentage",
					"type": "uint256"
				},
				{
					"indexed": false,
					"internalType": "address",
					"name": "feeRecipient",
					"type": "address"
				}
			],
			"name": "ContractFeeParamsUpdated",
			"type": "event"
		},
		{
			"anonymous": false,
			"inputs": [
				{
					"indexed": true,
					"internalType": "bytes32",
					"name": "orderHash",
					"type": "bytes32"
				},
				{
					"indexed": false,
					"internalType": "uint256",
					"name": "fee",
					"type": "uint256"
				},
				{
					"indexed": true,
					"internalType": "address",
					"name": "feeRecipient",
					"type": "address"
				},
				{
					"indexed": false,
					"internalType": "uint256",
					"name": "contractFee",
					"type": "uint256"
				},
				{
					"indexed": false,
					"internalType": "address",
					"name": "senderAddress",
					"type": "address"
				},
				{
					"indexed": false,
					"internalType": "uint256",
					"name": "id",
					"type": "uint256"
				},
				{
					"indexed": false,
					"internalType": "uint256",
					"name": "amount",
					"type": "uint256"
				},
				{
					"indexed": true,
					"internalType": "address",
					"name": "owner",
					"type": "address"
				},
				{
					"indexed": false,
					"internalType": "address",
					"name": "assetAddress",
					"type": "address"
				},
				{
					"indexed": false,
					"internalType": "address",
					"name": "taker",
					"type": "address"
				},
				{
					"indexed": false,
					"internalType": "address",
					"name": "currencyAddress",
					"type": "address"
				}
			],
			"name": "Created",
			"type": "event"
		},
		{
			"anonymous": false,
			"inputs": [
				{
					"indexed": true,
					"internalType": "bytes32",
					"name": "orderHash",
					"type": "bytes32"
				},
				{
					"indexed": false,
					"internalType": "uint256",
					"name": "fee",
					"type": "uint256"
				},
				{
					"indexed": true,
					"internalType": "address",
					"name": "feeRecipient",
					"type": "address"
				},
				{
					"indexed": false,
					"internalType": "uint256",
					"name": "contractFee",
					"type": "uint256"
				},
				{
					"indexed": false,
					"internalType": "address",
					"name": "senderAddress",
					"type": "address"
				},
				{
					"indexed": false,
					"internalType": "uint256",
					"name": "id",
					"type": "uint256"
				},
				{
					"indexed": false,
					"internalType": "uint256",
					"name": "amount",
					"type": "uint256"
				},
				{
					"indexed": true,
					"internalType": "address",
					"name": "owner",
					"type": "address"
				},
				{
					"indexed": false,
					"internalType": "address",
					"name": "assetAddress",
					"type": "address"
				},
				{
					"indexed": false,
					"internalType": "uint256",
					"name": "price",
					"type": "uint256"
				},
				{
					"indexed": false,
					"internalType": "address",
					"name": "taker",
					"type": "address"
				},
				{
					"indexed": false,
					"internalType": "address",
					"name": "currencyAddress",
					"type": "address"
				}
			],
			"name": "Fill",
			"type": "event"
		},
		{
			"anonymous": false,
			"inputs": [
				{
					"indexed": true,
					"internalType": "address",
					"name": "previousOwner",
					"type": "address"
				},
				{
					"indexed": true,
					"internalType": "address",
					"name": "newOwner",
					"type": "address"
				}
			],
			"name": "OwnershipTransferred",
			"type": "event"
		},
		{
			"anonymous": false,
			"inputs": [
				{
					"indexed": false,
					"internalType": "address",
					"name": "account",
					"type": "address"
				}
			],
			"name": "Paused",
			"type": "event"
		},
		{
			"anonymous": false,
			"inputs": [
				{
					"indexed": true,
					"internalType": "bytes32",
					"name": "orderHash",
					"type": "bytes32"
				},
				{
					"indexed": false,
					"internalType": "uint256",
					"name": "status",
					"type": "uint256"
				}
			],
			"name": "Reverse",
			"type": "event"
		},
		{
			"anonymous": false,
			"inputs": [
				{
					"indexed": false,
					"internalType": "address",
					"name": "account",
					"type": "address"
				}
			],
			"name": "Unpaused",
			"type": "event"
		},
		{
			"inputs": [],
			"name": "EIP712_DOMAIN_HASH",
			"outputs": [
				{
					"internalType": "bytes32",
					"name": "",
					"type": "bytes32"
				}
			],
			"stateMutability": "view",
			"type": "function"
		},
		{
			"inputs": [],
			"name": "FEE_UPDATE_COOLDOWN",
			"outputs": [
				{
					"internalType": "uint256",
					"name": "",
					"type": "uint256"
				}
			],
			"stateMutability": "view",
			"type": "function"
		},
		{
			"inputs": [],
			"name": "MAX_CONTRACT_FEE",
			"outputs": [
				{
					"internalType": "uint256",
					"name": "",
					"type": "uint256"
				}
			],
			"stateMutability": "view",
			"type": "function"
		},
		{
			"inputs": [
				{
					"components": [
						{
							"internalType": "address",
							"name": "owner",
							"type": "address"
						},
						{
							"internalType": "address",
							"name": "taker",
							"type": "address"
						},
						{
							"internalType": "address",
							"name": "operator",
							"type": "address"
						},
						{
							"internalType": "uint256",
							"name": "orderType",
							"type": "uint256"
						},
						{
							"internalType": "uint256",
							"name": "amount",
							"type": "uint256"
						},
						{
							"internalType": "uint256",
							"name": "startPrice",
							"type": "uint256"
						},
						{
							"internalType": "uint256",
							"name": "salt",
							"type": "uint256"
						},
						{
							"internalType": "address",
							"name": "assetAddress",
							"type": "address"
						},
						{
							"internalType": "uint256",
							"name": "id",
							"type": "uint256"
						},
						{
							"internalType": "address",
							"name": "currencyAddress",
							"type": "address"
						},
						{
							"internalType": "address",
							"name": "feeRecipient",
							"type": "address"
						},
						{
							"internalType": "uint256",
							"name": "feePercentage",
							"type": "uint256"
						}
					],
					"internalType": "struct LibOrder.OrderFixed",
					"name": "order",
					"type": "tuple"
				}
			],
			"name": "calculateFillResults",
			"outputs": [
				{
					"components": [
						{
							"internalType": "uint256",
							"name": "tradePrice",
							"type": "uint256"
						},
						{
							"internalType": "uint256",
							"name": "fee",
							"type": "uint256"
						},
						{
							"internalType": "uint256",
							"name": "contractFee",
							"type": "uint256"
						}
					],
					"internalType": "struct FixedExchangeV2.FillResults",
					"name": "fillResults",
					"type": "tuple"
				}
			],
			"stateMutability": "view",
			"type": "function"
		},
		{
			"inputs": [
				{
					"internalType": "bytes32",
					"name": "",
					"type": "bytes32"
				}
			],
			"name": "cancelled",
			"outputs": [
				{
					"internalType": "bool",
					"name": "",
					"type": "bool"
				}
			],
			"stateMutability": "view",
			"type": "function"
		},
		{
			"inputs": [],
			"name": "chainId",
			"outputs": [
				{
					"internalType": "uint256",
					"name": "",
					"type": "uint256"
				}
			],
			"stateMutability": "view",
			"type": "function"
		},
		{
			"inputs": [],
			"name": "contractFeePercentage",
			"outputs": [
				{
					"internalType": "uint256",
					"name": "",
					"type": "uint256"
				}
			],
			"stateMutability": "view",
			"type": "function"
		},
		{
			"inputs": [],
			"name": "contractFeeRecipient",
			"outputs": [
				{
					"internalType": "address",
					"name": "",
					"type": "address"
				}
			],
			"stateMutability": "view",
			"type": "function"
		},
		{
			"inputs": [
				{
					"components": [
						{
							"internalType": "address",
							"name": "owner",
							"type": "address"
						},
						{
							"internalType": "address",
							"name": "taker",
							"type": "address"
						},
						{
							"internalType": "address",
							"name": "operator",
							"type": "address"
						},
						{
							"internalType": "uint256",
							"name": "orderType",
							"type": "uint256"
						},
						{
							"internalType": "uint256",
							"name": "amount",
							"type": "uint256"
						},
						{
							"internalType": "uint256",
							"name": "startPrice",
							"type": "uint256"
						},
						{
							"internalType": "uint256",
							"name": "salt",
							"type": "uint256"
						},
						{
							"internalType": "address",
							"name": "assetAddress",
							"type": "address"
						},
						{
							"internalType": "uint256",
							"name": "id",
							"type": "uint256"
						},
						{
							"internalType": "address",
							"name": "currencyAddress",
							"type": "address"
						},
						{
							"internalType": "address",
							"name": "feeRecipient",
							"type": "address"
						},
						{
							"internalType": "uint256",
							"name": "feePercentage",
							"type": "uint256"
						}
					],
					"internalType": "struct LibOrder.OrderFixed",
					"name": "order",
					"type": "tuple"
				}
			],
			"name": "createOrder",
			"outputs": [
				{
					"internalType": "bool",
					"name": "",
					"type": "bool"
				}
			],
			"stateMutability": "nonpayable",
			"type": "function"
		},
		{
			"inputs": [
				{
					"internalType": "bytes32",
					"name": "",
					"type": "bytes32"
				}
			],
			"name": "created",
			"outputs": [
				{
					"internalType": "bool",
					"name": "",
					"type": "bool"
				}
			],
			"stateMutability": "view",
			"type": "function"
		},
		{
			"inputs": [
				{
					"components": [
						{
							"internalType": "address",
							"name": "owner",
							"type": "address"
						},
						{
							"internalType": "address",
							"name": "taker",
							"type": "address"
						},
						{
							"internalType": "address",
							"name": "operator",
							"type": "address"
						},
						{
							"internalType": "uint256",
							"name": "orderType",
							"type": "uint256"
						},
						{
							"internalType": "uint256",
							"name": "amount",
							"type": "uint256"
						},
						{
							"internalType": "uint256",
							"name": "startPrice",
							"type": "uint256"
						},
						{
							"internalType": "uint256",
							"name": "salt",
							"type": "uint256"
						},
						{
							"internalType": "address",
							"name": "assetAddress",
							"type": "address"
						},
						{
							"internalType": "uint256",
							"name": "id",
							"type": "uint256"
						},
						{
							"internalType": "address",
							"name": "currencyAddress",
							"type": "address"
						},
						{
							"internalType": "address",
							"name": "feeRecipient",
							"type": "address"
						},
						{
							"internalType": "uint256",
							"name": "feePercentage",
							"type": "uint256"
						}
					],
					"internalType": "struct LibOrder.OrderFixed",
					"name": "order",
					"type": "tuple"
				},
				{
					"internalType": "bytes",
					"name": "signature",
					"type": "bytes"
				}
			],
			"name": "fillOrder",
			"outputs": [
				{
					"internalType": "bool",
					"name": "",
					"type": "bool"
				}
			],
			"stateMutability": "nonpayable",
			"type": "function"
		},
		{
			"inputs": [
				{
					"internalType": "bytes32",
					"name": "",
					"type": "bytes32"
				}
			],
			"name": "filled",
			"outputs": [
				{
					"internalType": "bool",
					"name": "",
					"type": "bool"
				}
			],
			"stateMutability": "view",
			"type": "function"
		},
		{
			"inputs": [
				{
					"components": [
						{
							"internalType": "address",
							"name": "owner",
							"type": "address"
						},
						{
							"internalType": "address",
							"name": "taker",
							"type": "address"
						},
						{
							"internalType": "address",
							"name": "operator",
							"type": "address"
						},
						{
							"internalType": "uint256",
							"name": "orderType",
							"type": "uint256"
						},
						{
							"internalType": "uint256",
							"name": "amount",
							"type": "uint256"
						},
						{
							"internalType": "uint256",
							"name": "startPrice",
							"type": "uint256"
						},
						{
							"internalType": "uint256",
							"name": "salt",
							"type": "uint256"
						},
						{
							"internalType": "address",
							"name": "assetAddress",
							"type": "address"
						},
						{
							"internalType": "uint256",
							"name": "id",
							"type": "uint256"
						},
						{
							"internalType": "address",
							"name": "currencyAddress",
							"type": "address"
						},
						{
							"internalType": "address",
							"name": "feeRecipient",
							"type": "address"
						},
						{
							"internalType": "uint256",
							"name": "feePercentage",
							"type": "uint256"
						}
					],
					"internalType": "struct LibOrder.OrderFixed",
					"name": "order",
					"type": "tuple"
				}
			],
			"name": "getFixedHash",
			"outputs": [
				{
					"internalType": "bytes32",
					"name": "orderHash",
					"type": "bytes32"
				}
			],
			"stateMutability": "view",
			"type": "function"
		},
		{
			"inputs": [
				{
					"components": [
						{
							"internalType": "address",
							"name": "owner",
							"type": "address"
						},
						{
							"internalType": "address",
							"name": "taker",
							"type": "address"
						},
						{
							"internalType": "address",
							"name": "operator",
							"type": "address"
						},
						{
							"internalType": "uint256",
							"name": "orderType",
							"type": "uint256"
						},
						{
							"internalType": "uint256",
							"name": "amount",
							"type": "uint256"
						},
						{
							"internalType": "uint256",
							"name": "startPrice",
							"type": "uint256"
						},
						{
							"internalType": "uint256",
							"name": "salt",
							"type": "uint256"
						},
						{
							"internalType": "address",
							"name": "assetAddress",
							"type": "address"
						},
						{
							"internalType": "uint256",
							"name": "id",
							"type": "uint256"
						},
						{
							"internalType": "address",
							"name": "currencyAddress",
							"type": "address"
						},
						{
							"internalType": "address",
							"name": "feeRecipient",
							"type": "address"
						},
						{
							"internalType": "uint256",
							"name": "feePercentage",
							"type": "uint256"
						}
					],
					"internalType": "struct LibOrder.OrderFixed",
					"name": "order",
					"type": "tuple"
				}
			],
			"name": "getPrice",
			"outputs": [
				{
					"internalType": "uint256",
					"name": "",
					"type": "uint256"
				}
			],
			"stateMutability": "pure",
			"type": "function"
		},
		{
			"inputs": [
				{
					"internalType": "bytes32",
					"name": "hash",
					"type": "bytes32"
				},
				{
					"internalType": "address",
					"name": "signerAddress",
					"type": "address"
				},
				{
					"internalType": "bytes",
					"name": "signature",
					"type": "bytes"
				}
			],
			"name": "isValidSignature",
			"outputs": [
				{
					"internalType": "bool",
					"name": "isValid",
					"type": "bool"
				}
			],
			"stateMutability": "pure",
			"type": "function"
		},
		{
			"inputs": [],
			"name": "mostRecentTimestamp",
			"outputs": [
				{
					"internalType": "uint256",
					"name": "",
					"type": "uint256"
				}
			],
			"stateMutability": "view",
			"type": "function"
		},
		{
			"inputs": [
				{
					"internalType": "address",
					"name": "",
					"type": "address"
				},
				{
					"internalType": "uint256",
					"name": "",
					"type": "uint256"
				}
			],
			"name": "onSale",
			"outputs": [
				{
					"internalType": "bool",
					"name": "",
					"type": "bool"
				}
			],
			"stateMutability": "view",
			"type": "function"
		},
		{
			"inputs": [],
			"name": "owner",
			"outputs": [
				{
					"internalType": "address",
					"name": "",
					"type": "address"
				}
			],
			"stateMutability": "view",
			"type": "function"
		},
		{
			"inputs": [],
			"name": "paused",
			"outputs": [
				{
					"internalType": "bool",
					"name": "",
					"type": "bool"
				}
			],
			"stateMutability": "view",
			"type": "function"
		},
		{
			"inputs": [],
			"name": "renounceOwnership",
			"outputs": [],
			"stateMutability": "nonpayable",
			"type": "function"
		},
		{
			"inputs": [
				{
					"components": [
						{
							"internalType": "address",
							"name": "owner",
							"type": "address"
						},
						{
							"internalType": "address",
							"name": "taker",
							"type": "address"
						},
						{
							"internalType": "address",
							"name": "operator",
							"type": "address"
						},
						{
							"internalType": "uint256",
							"name": "orderType",
							"type": "uint256"
						},
						{
							"internalType": "uint256",
							"name": "amount",
							"type": "uint256"
						},
						{
							"internalType": "uint256",
							"name": "startPrice",
							"type": "uint256"
						},
						{
							"internalType": "uint256",
							"name": "salt",
							"type": "uint256"
						},
						{
							"internalType": "address",
							"name": "assetAddress",
							"type": "address"
						},
						{
							"internalType": "uint256",
							"name": "id",
							"type": "uint256"
						},
						{
							"internalType": "address",
							"name": "currencyAddress",
							"type": "address"
						},
						{
							"internalType": "address",
							"name": "feeRecipient",
							"type": "address"
						},
						{
							"internalType": "uint256",
							"name": "feePercentage",
							"type": "uint256"
						}
					],
					"internalType": "struct LibOrder.OrderFixed",
					"name": "order",
					"type": "tuple"
				}
			],
			"name": "reverseOrder",
			"outputs": [
				{
					"internalType": "bool",
					"name": "",
					"type": "bool"
				}
			],
			"stateMutability": "nonpayable",
			"type": "function"
		},
		{
			"inputs": [
				{
					"internalType": "uint256",
					"name": "_contractFeePercentage",
					"type": "uint256"
				},
				{
					"internalType": "address",
					"name": "_contractFeeRecipient",
					"type": "address"
				}
			],
			"name": "setContractFeeParams",
			"outputs": [],
			"stateMutability": "nonpayable",
			"type": "function"
		},
		{
			"inputs": [
				{
					"internalType": "contract IExchange",
					"name": "_iExchange",
					"type": "address"
				}
			],
			"name": "setEnglishExchange",
			"outputs": [],
			"stateMutability": "nonpayable",
			"type": "function"
		},
		{
			"inputs": [
				{
					"internalType": "address",
					"name": "newOwner",
					"type": "address"
				}
			],
			"name": "transferOwnership",
			"outputs": [],
			"stateMutability": "nonpayable",
			"type": "function"
		}
	]
}