{
    "contractName": "LibOrder",
    "abi": [
        {
            "inputs": [],
            "name": "EIP712_DOMAIN_HASH",
            "outputs": [
                {
                    "internalType": "bytes32",
                    "name": "",
                    "type": "bytes32"
                }
            ],
            "stateMutability": "view",
            "type": "function"
        },
        {
            "inputs": [],
            "name": "chainId",
            "outputs": [
                {
                    "internalType": "uint256",
                    "name": "",
                    "type": "uint256"
                }
            ],
            "stateMutability": "view",
            "type": "function"
        }
    ],
    "bytecode": "6080604052600180546001600160a01b0319163017905534801561002257600080fd5b50466000819055604080516c08a92a06e626488dedac2d2dc5609b1b6020808301919091526b1cdd1c9a5b99c81b985b594b60a21b602d8301526e1cdd1c9a5b99c81d995c9cda5bdb8b608a1b60398301526f1d5a5b9d0c8d4d8818da185a5b92590b60821b60488301527f6164647265737320766572696679696e67436f6e7472616374000000000000006058830152602960f81b6071830152825160528184030181526072830180855281519183019190912060b284018552600e9091526d54737061636545786368616e676560901b6092909301929092528251808401845260038152620312e360ec1b908201526001548351808301939093527fc3c41d922029f9d1e0a5d26f5504ef43a65ad374848b45d6c0e093606abc7fed838501527fe6bbd6277e1bf288eed5e8d1780f9a50b239e86b153736bceebccf4ea79d90b3606084015260808301949094526001600160a01b0390931660a0808301919091528251808303909101815260c090910190915280519101206002556097806101ae6000396000f3fe6080604052348015600f57600080fd5b506004361060325760003560e01c80639a8a0592146037578063e306f77914604f575b600080fd5b603d6055565b60408051918252519081900360200190f35b603d605b565b60005481565b6002548156fea264697066735822122030bb78efec55bb0385275d7589406f15ac55973c7a49ffb029a3e2ea87690ed564736f6c63430006090033",
    "sourcePath": "d:/sol/Tspace4.0-Smart-contract-develop/contracts/libs/LibOrder.sol",
    "compiler": {
        "name": "solc",
        "version": "0.6.9+commit.3e3065ac"
    },
    "functionHashes": {
        "EIP712_DOMAIN_HASH()": "e306f779",
        "chainId()": "9a8a0592"
    },
    "gasEstimates": {
        "creation": {
            "codeDepositCost": "30200",
            "executionCost": "62390",
            "totalCost": "92590"
        },
        "external": {
            "EIP712_DOMAIN_HASH()": "998",
            "chainId()": "976"
        },
        "internal": {
            "getOrderFixedHash(struct LibOrder.OrderFixed memory)": "infinite",
            "getOrderHash(struct LibOrder.Order memory)": "infinite",
            "hashOrder(struct LibOrder.Order memory)": "infinite",
            "hashOrderFixed(struct LibOrder.OrderFixed memory)": "infinite"
        }
    }
}