{
	"data": {
		"bytecode": {
			"linkReferences": {},
			"object": "608060405234801561001057600080fd5b506103b4806100206000396000f3fe608060405234801561001057600080fd5b506004361061002b5760003560e01c80639363470214610030575b600080fd5b61004361003e3660046101ae565b610059565b6040516100509190610252565b60405180910390f35b60006001600160a01b03831661008a5760405162461bcd60e51b8152600401610081906102b2565b60405180910390fd5b81516041146100ab5760405162461bcd60e51b81526004016100819061027b565b6000826040815181106100ba57fe5b016020015160f81c9050601b8114806100d657508060ff16601c145b6100f25760405162461bcd60e51b815260040161008190610306565b60006100ff84600061017f565b9050600061010e85602061017f565b905060018784848460405160008152602001604052604051610133949392919061025d565b6020604051602081039080840390855afa158015610155573d6000803e3d6000fd5b505050602060405103516001600160a01b0316866001600160a01b03161493505050509392505050565b600081602001835110156101a55760405162461bcd60e51b8152600401610081906102e0565b50016020015190565b6000806000606084860312156101c2578283fd5b8335925060208401356001600160a01b03811681146101df578283fd5b9150604084013567ffffffffffffffff8111156101fa578182fd5b80850186601f82011261020b578283fd5b8035915061022061021b8361034e565b610327565b828152876020848401011115610234578384fd5b610245836020830160208501610372565b8093505050509250925092565b901515815260200190565b93845260ff9290921660208401526040830152606082015260800190565b60208082526019908201527f57726f6e67206c656e677468206f66207369676e617475726500000000000000604082015260600190565b60208082526014908201527357726f6e67207369676e6572206164647265737360601b604082015260600190565b6020808252600c908201526b0aee4dedcce40d8cadccee8d60a31b604082015260600190565b6020808252600790820152662bb937b733902b60c91b604082015260600190565b60405181810167ffffffffffffffff8111828210171561034657600080fd5b604052919050565b600067ffffffffffffffff821115610364578081fd5b50601f01601f191660200190565b8281833750600091015256fea26469706673582212208069d09fc673e0382115e56e80f1b1ccce607dd10341b4516c73498529d5ba3d64736f6c63430006090033",
			"opcodes": "PUSH1 0x80 PUSH1 0x40 MSTORE CALLVALUE DUP1 ISZERO PUSH2 0x10 JUMPI PUSH1 0x0 DUP1 REVERT JUMPDEST POP PUSH2 0x3B4 DUP1 PUSH2 0x20 PUSH1 0x0 CODECOPY PUSH1 0x0 RETURN INVALID PUSH1 0x80 PUSH1 0x40 MSTORE CALLVALUE DUP1 ISZERO PUSH2 0x10 JUMPI PUSH1 0x0 DUP1 REVERT JUMPDEST POP PUSH1 0x4 CALLDATASIZE LT PUSH2 0x2B JUMPI PUSH1 0x0 CALLDATALOAD PUSH1 0xE0 SHR DUP1 PUSH4 0x93634702 EQ PUSH2 0x30 JUMPI JUMPDEST PUSH1 0x0 DUP1 REVERT JUMPDEST PUSH2 0x43 PUSH2 0x3E CALLDATASIZE PUSH1 0x4 PUSH2 0x1AE JUMP JUMPDEST PUSH2 0x59 JUMP JUMPDEST PUSH1 0x40 MLOAD PUSH2 0x50 SWAP2 SWAP1 PUSH2 0x252 JUMP JUMPDEST PUSH1 0x40 MLOAD DUP1 SWAP2 SUB SWAP1 RETURN JUMPDEST PUSH1 0x0 PUSH1 0x1 PUSH1 0x1 PUSH1 0xA0 SHL SUB DUP4 AND PUSH2 0x8A JUMPI PUSH1 0x40 MLOAD PUSH3 0x461BCD PUSH1 0xE5 SHL DUP2 MSTORE PUSH1 0x4 ADD PUSH2 0x81 SWAP1 PUSH2 0x2B2 JUMP JUMPDEST PUSH1 0x40 MLOAD DUP1 SWAP2 SUB SWAP1 REVERT JUMPDEST DUP2 MLOAD PUSH1 0x41 EQ PUSH2 0xAB JUMPI PUSH1 0x40 MLOAD PUSH3 0x461BCD PUSH1 0xE5 SHL DUP2 MSTORE PUSH1 0x4 ADD PUSH2 0x81 SWAP1 PUSH2 0x27B JUMP JUMPDEST PUSH1 0x0 DUP3 PUSH1 0x40 DUP2 MLOAD DUP2 LT PUSH2 0xBA JUMPI INVALID JUMPDEST ADD PUSH1 0x20 ADD MLOAD PUSH1 0xF8 SHR SWAP1 POP PUSH1 0x1B DUP2 EQ DUP1 PUSH2 0xD6 JUMPI POP DUP1 PUSH1 0xFF AND PUSH1 0x1C EQ JUMPDEST PUSH2 0xF2 JUMPI PUSH1 0x40 MLOAD PUSH3 0x461BCD PUSH1 0xE5 SHL DUP2 MSTORE PUSH1 0x4 ADD PUSH2 0x81 SWAP1 PUSH2 0x306 JUMP JUMPDEST PUSH1 0x0 PUSH2 0xFF DUP5 PUSH1 0x0 PUSH2 0x17F JUMP JUMPDEST SWAP1 POP PUSH1 0x0 PUSH2 0x10E DUP6 PUSH1 0x20 PUSH2 0x17F JUMP JUMPDEST SWAP1 POP PUSH1 0x1 DUP8 DUP5 DUP5 DUP5 PUSH1 0x40 MLOAD PUSH1 0x0 DUP2 MSTORE PUSH1 0x20 ADD PUSH1 0x40 MSTORE PUSH1 0x40 MLOAD PUSH2 0x133 SWAP5 SWAP4 SWAP3 SWAP2 SWAP1 PUSH2 0x25D JUMP JUMPDEST PUSH1 0x20 PUSH1 0x40 MLOAD PUSH1 0x20 DUP2 SUB SWAP1 DUP1 DUP5 SUB SWAP1 DUP6 GAS STATICCALL ISZERO DUP1 ISZERO PUSH2 0x155 JUMPI RETURNDATASIZE PUSH1 0x0 DUP1 RETURNDATACOPY RETURNDATASIZE PUSH1 0x0 REVERT JUMPDEST POP POP POP PUSH1 0x20 PUSH1 0x40 MLOAD SUB MLOAD PUSH1 0x1 PUSH1 0x1 PUSH1 0xA0 SHL SUB AND DUP7 PUSH1 0x1 PUSH1 0x1 PUSH1 0xA0 SHL SUB AND EQ SWAP4 POP POP POP POP SWAP4 SWAP3 POP POP POP JUMP JUMPDEST PUSH1 0x0 DUP2 PUSH1 0x20 ADD DUP4 MLOAD LT ISZERO PUSH2 0x1A5 JUMPI PUSH1 0x40 MLOAD PUSH3 0x461BCD PUSH1 0xE5 SHL DUP2 MSTORE PUSH1 0x4 ADD PUSH2 0x81 SWAP1 PUSH2 0x2E0 JUMP JUMPDEST POP ADD PUSH1 0x20 ADD MLOAD SWAP1 JUMP JUMPDEST PUSH1 0x0 DUP1 PUSH1 0x0 PUSH1 0x60 DUP5 DUP7 SUB SLT ISZERO PUSH2 0x1C2 JUMPI DUP3 DUP4 REVERT JUMPDEST DUP4 CALLDATALOAD SWAP3 POP PUSH1 0x20 DUP5 ADD CALLDATALOAD PUSH1 0x1 PUSH1 0x1 PUSH1 0xA0 SHL SUB DUP2 AND DUP2 EQ PUSH2 0x1DF JUMPI DUP3 DUP4 REVERT JUMPDEST SWAP2 POP PUSH1 0x40 DUP5 ADD CALLDATALOAD PUSH8 0xFFFFFFFFFFFFFFFF DUP2 GT ISZERO PUSH2 0x1FA JUMPI DUP2 DUP3 REVERT JUMPDEST DUP1 DUP6 ADD DUP7 PUSH1 0x1F DUP3 ADD SLT PUSH2 0x20B JUMPI DUP3 DUP4 REVERT JUMPDEST DUP1 CALLDATALOAD SWAP2 POP PUSH2 0x220 PUSH2 0x21B DUP4 PUSH2 0x34E JUMP JUMPDEST PUSH2 0x327 JUMP JUMPDEST DUP3 DUP2 MSTORE DUP8 PUSH1 0x20 DUP5 DUP5 ADD ADD GT ISZERO PUSH2 0x234 JUMPI DUP4 DUP5 REVERT JUMPDEST PUSH2 0x245 DUP4 PUSH1 0x20 DUP4 ADD PUSH1 0x20 DUP6 ADD PUSH2 0x372 JUMP JUMPDEST DUP1 SWAP4 POP POP POP POP SWAP3 POP SWAP3 POP SWAP3 JUMP JUMPDEST SWAP1 ISZERO ISZERO DUP2 MSTORE PUSH1 0x20 ADD SWAP1 JUMP JUMPDEST SWAP4 DUP5 MSTORE PUSH1 0xFF SWAP3 SWAP1 SWAP3 AND PUSH1 0x20 DUP5 ADD MSTORE PUSH1 0x40 DUP4 ADD MSTORE PUSH1 0x60 DUP3 ADD MSTORE PUSH1 0x80 ADD SWAP1 JUMP JUMPDEST PUSH1 0x20 DUP1 DUP3 MSTORE PUSH1 0x19 SWAP1 DUP3 ADD MSTORE PUSH32 0x57726F6E67206C656E677468206F66207369676E617475726500000000000000 PUSH1 0x40 DUP3 ADD MSTORE PUSH1 0x60 ADD SWAP1 JUMP JUMPDEST PUSH1 0x20 DUP1 DUP3 MSTORE PUSH1 0x14 SWAP1 DUP3 ADD MSTORE PUSH20 0x57726F6E67207369676E65722061646472657373 PUSH1 0x60 SHL PUSH1 0x40 DUP3 ADD MSTORE PUSH1 0x60 ADD SWAP1 JUMP JUMPDEST PUSH1 0x20 DUP1 DUP3 MSTORE PUSH1 0xC SWAP1 DUP3 ADD MSTORE PUSH12 0xAEE4DEDCCE40D8CADCCEE8D PUSH1 0xA3 SHL PUSH1 0x40 DUP3 ADD MSTORE PUSH1 0x60 ADD SWAP1 JUMP JUMPDEST PUSH1 0x20 DUP1 DUP3 MSTORE PUSH1 0x7 SWAP1 DUP3 ADD MSTORE PUSH7 0x2BB937B733902B PUSH1 0xC9 SHL PUSH1 0x40 DUP3 ADD MSTORE PUSH1 0x60 ADD SWAP1 JUMP JUMPDEST PUSH1 0x40 MLOAD DUP2 DUP2 ADD PUSH8 0xFFFFFFFFFFFFFFFF DUP2 GT DUP3 DUP3 LT OR ISZERO PUSH2 0x346 JUMPI PUSH1 0x0 DUP1 REVERT JUMPDEST PUSH1 0x40 MSTORE SWAP2 SWAP1 POP JUMP JUMPDEST PUSH1 0x0 PUSH8 0xFFFFFFFFFFFFFFFF DUP3 GT ISZERO PUSH2 0x364 JUMPI DUP1 DUP2 REVERT JUMPDEST POP PUSH1 0x1F ADD PUSH1 0x1F NOT AND PUSH1 0x20 ADD SWAP1 JUMP JUMPDEST DUP3 DUP2 DUP4 CALLDATACOPY POP PUSH1 0x0 SWAP2 ADD MSTORE JUMP INVALID LOG2 PUSH5 0x6970667358 0x22 SLT KECCAK256 DUP1 PUSH10 0xD09FC673E0382115E56E DUP1 CALL 0xB1 0xCC 0xCE PUSH1 0x7D 0xD1 SUB COINBASE 0xB4 MLOAD PUSH13 0x73498529D5BA3D64736F6C6343 STOP MOD MULMOD STOP CALLER "
		},
		"gasEstimates": {
			"creation": {
				"codeDepositCost": "189600",
				"executionCost": "232",
				"totalCost": "189832"
			},
			"external": {
				"isValidSignature(bytes32,address,bytes)": "infinite"
			},
			"internal": {
				"readBytes32(bytes memory,uint256)": "infinite"
			}
		},
		"methodIdentifiers": {
			"isValidSignature(bytes32,address,bytes)": "93634702"
		}
	},
	"abi": [
		{
			"inputs": [
				{
					"internalType": "bytes32",
					"name": "hash",
					"type": "bytes32"
				},
				{
					"internalType": "address",
					"name": "signerAddress",
					"type": "address"
				},
				{
					"internalType": "bytes",
					"name": "signature",
					"type": "bytes"
				}
			],
			"name": "isValidSignature",
			"outputs": [
				{
					"internalType": "bool",
					"name": "isValid",
					"type": "bool"
				}
			],
			"stateMutability": "pure",
			"type": "function"
		}
	]
}